:020000040800F2
:1000000000000220210500086D0500086D050008AC
:100010006D0500086D0500086D0500080000000072
:100020000000000000000000000000007104000853
:100030006D0500080000000091040008F1040008AC
:100040006D0500086D0500086D0500086D050008C8
:100050006D0500086D0500086D0500086D050008B8
:100060006D0500086D0500086D0500086D050008A8
:100070006D0500086D0500086D0500086D05000898
:100080006D0500086D0500086D0500086D05000888
:100090006D0500086D0500086D0500086D05000878
:1000A0006D0500086D0500086D0500086D05000868
:1000B0006D0500086D0500086D0500086D05000858
:1000C0006D0500086D0500086D0500086D05000848
:1000D0006D0500086D0500086D0500086D05000838
:1000E0006D0500086D0500086D0500086D05000828
:1000F0006D0500086D0500086D0500086D05000818
:100100006D0500086D0500086D0500086D05000807
:100110006D0500086D0500086D0500086D050008F7
:100120006D0500086D0500086D0500086D050008E7
:100130006D0500086D0500086D0500086D050008D7
:100140006D0500086D0500086D0500086D050008C7
:100150006D0500086D0500086D0500086D050008B7
:100160006D0500086D0500086D0500086D050008A7
:100170006D0500086D0500086D0500080000000011
:100180006D0500086D050008044B05481B1A062B79
:1001900002D9044B03B11847704700BF4302002047
:1001A000400200200000000005490648091A891095
:1001B00001EBD171491002D0034B03B118477047CE
:1001C00040020020400200200000000010B5064C54
:1001D000237843B9FFF7D8FF044B13B10448AFF3BA
:1001E00000800123237010BD4002002000000000A9
:1001F000446F000808B5084B1BB108490848AFF325
:1002000000800848036813B9BDE80840CCE7064BF6
:10021000002BF9D09847F7E70000000044020020C7
:10022000446F00083C02002000000000154B002B2A
:1002300008BF134B9D46A3F5803A00218B460F461D
:100240001348144A121A01F0A9FF0F4B002B00D0DB
:1002500098470E4B002B00D0984700200021040047
:100260000D000D48002802D00C48AFF3008001F0CB
:10027000A1FE2000290001F0C5FC01F0F9FC00BF3F
:100280000000080000000220000000000000000044
:10029000400200207C05002000000000000000005B
:1002A00043684B609A688A609A68516099600368F5
:1002B00008610133036070474168826803698A609E
:1002C000826851605968884208BF5A600022026102
:1002D0001868013818607047064A13681968064B99
:1002E00011B94FF0FF3203E01268D268D268526849
:1002F0001A60704760020020680300203A4B1B68B8
:100300002DE9F74F002B30D1384B1A6801321A60B3
:100310001D685DB9364A374B116818681060364A57
:100320001960136801331360FFF7D6FF334C019453
:100330002368334E334F9D424FF0000B0BD3DFF851
:10034000B080DFF8CC90D8F800201268A2B9019BE9
:100350004FF0FF321A603A68D16A14224A43B25809
:10036000022A28BF4FF0010B34E0274A13680133FB
:1003700013604FF0000B2DE0D8F80020D268D4684D
:1003800061688D4202D2019B1960E4E704F1040A1E
:100390005046FFF791FFA16A19B104F11800FFF769
:1003A0008BFFE06AD9F80010012303FA00FE4EEA41
:1003B00001014FF0140EC9F800100EFB0060514609
:1003C000FFF76EFF3868E16AC26A914228BF4FF0BA
:1003D000010BB8E70D4A1268002A18BF4FF0010B55
:1003E000584603B0BDE8F08F60030020640300208E
:1003F00060020020640200205C02002068030020EC
:100400006C0200205C0300206802002070030020C2
:100410006C030020114B1A68114B30B50AB1012250
:100420001AE01A600F4B1B68B3FA83F3DBB20E4974
:10043000C3F11F03142000FB03F28C180832656817
:100440006D6865600A44954204BF6A68626000FB9B
:1004500003135B68DA68054B1A6030BD6003002047
:10046000700300206C0300206C0200205C0300205D
:10047000064B19680868B0E8F04F80F30988BFF3AD
:100480006F8F4FF0000080F3118870475C030020ED
:10049000EFF30980BFF36F8F144B1A681EF0100F33
:1004A00008BF20ED108A20E9F04F10604DF8043DA0
:1004B0004FF0800080F31188BFF34F8FBFF36F8F31
:1004C000FFF7A8FF4FF0000080F3118808BC1968FF
:1004D0000868B0E8F04F1EF0100F08BFB0EC108AAB
:1004E00080F30988BFF36F8F704700BF5C03002063
:1004F00008B5EFF311834FF0800282F31188BFF348
:100500006F8FBFF34F8FFFF7F9FE18B1034B4FF01A
:1005100080521A60002383F3118808BD04ED00E0C7
:10052000DFF830D0002103E00B4B5B58435004311F
:100530000A480B4B42189A42F6D30A4A02E00023BB
:1005400042F8043B084B9A42F9D301F00DF8FFF74B
:100550006DFE704700000220506F000888010020E7
:1005600040020020400200207C050020FEE708B584
:1005700072B6962000F0CAF8962000F0C7F8F8E7A7
:100580000FB407B5054B04AA1B6852F8041BD868C2
:10059000019201F0EBFF012001F06AFBF001002065
:1005A00038B50D460446C168436802B91B040B60A8
:1005B0002046012101F037F829462046BDE83840A1
:1005C00001F02DB870B50E460446154601F012F83C
:1005D000013606D02A4620460021BDE87040FFF7CC
:1005E000DFBF70BD0022FFF7EDBF000010B504466D
:1005F000013001D110BD0C31B1F900305A1C0BD0C3
:100600009C42F8D12046896801F0B0F820460021CC
:10061000BDE8104001F0CEB80248BDE81040FFF739
:10062000AFBF00BF906A0008884208B50AD0431CDB
:1006300007D0013106D00448FFF7A2FF4FF0FF308A
:1006400008BD084608BD00BFA16A0008B1F9003026
:100650005A1C05D0834201D1486870470C31F5E738
:1006600018467047421C10B5044607D0FFF7EEFF4E
:10067000431C044602D10248FFF782FF204610BD0A
:10068000B26A0008036870B5DB680446984763687F
:100690005A6823681AB99B68BDE8704018475B68C0
:1006A000156898476368281A00285A6807DC91681B
:1006B00059601B68002BEAD050689847E7E7236829
:1006C00010681B69BDE87040184700000148FFF73B
:1006D000D9BF00BF046B000838B5044601F0A2F989
:1006E000054601F09FF9401BA042FAD338BD000037
:1006F00007EE100ADFED047A67EE277AFDEEE77A5F
:1007000017EE900AFFF7E8BF002474494FF47A739C
:100710005843FFF7E1BF704708B5094B1A6842F428
:1007200000721A601A6842F480621A60032000F0B6
:1007300017F80F2000F0ECFDFFF7EDFF002008BDDB
:10074000003C0240024A136801331360704700BF47
:100750007C030020014B1868704700BF7C03002019
:10076000074AD36823F4E0631B041B0C43F0BF6308
:10077000000243F4003300F4E0600343D3607047A9
:1007800000ED00E02DE9F04F6C4E0B68DFF8B4C1CE
:10079000DFF8B48185B0B646019300230122019CA5
:1007A0009A4032EA040440F0C1804C6824F01009F9
:1007B000B9F1020F14D14FEAD30A00EB8A0A03F011
:1007C000070BDAF820704FEA8B0B0F2505FA0BF5B3
:1007D00027EA05050F6907FA0BF72F43CAF82070BF
:1007E0004FEA430A0325076805FA0AF5ED4304F0CA
:1007F000030B2F400BFA0AFB09F1FF394BEA0707FD
:10080000B9F1010F076012D8876805EA0709CF68B8
:1008100007FA0AF747EA090787604768C4F300192F
:1008200027EA020709FA03F949EA07074760C76898
:100830003D408F6807FA0AF73D43C560E50075D56E
:10084000DCF8445045F48045CCF84450DCF8445082
:1008500023F0030707F1804705F4804507F59C372F
:10086000039503F0030A039DD7F808B04FF00F0972
:100870004FEA8A0A09FA0AF52BEA0509304DA8421F
:1008800020D005F58065A8421ED005F58065A842F8
:100890001CD005F58065A8421AD005F58065A842F0
:1008A00018D0404518D005F50065A84216D005F5CA
:1008B0008065A84214D005F58065A84214BF0925BB
:1008C00008250EE000250CE001250AE0022508E0DD
:1008D000032506E0042504E0052502E0062500E0E6
:1008E000072505FA0AF545EA0905BD603568D743CD
:1008F00014F4803F0CBF3D401543CEF80050DEF8A5
:10090000045014F4003F0CBF3D4015437560B568BA
:1009100014F4801F0CBF3D401543CEF80850DEF89C
:100920000C50A40254BF3D401543F5600133102B19
:100930007FF434AF05B0BDE8F08F00BF003C01404C
:1009400000000240003802400014024003682DE914
:10095000F341DD07044603D4236898074CD49EE096
:100960008B4B9A6802F00C02042A07D09A6802F0B6
:100970000C02082A0BD15B68590208D5844B1B680E
:100980009A03E9D56368002BE6D1012067E1814D28
:100990007F4E00232B70FFF7DDFE41F288380746BB
:1009A00033689B0306D5FFF7D5FEC01B4045F7D93A
:1009B000032054E123792B70636873B1FFF7CAFEFB
:1009C000734D064641F288372B689803C4D4FFF76D
:1009D000C1FE801BB842F7D9EAE7FFF7BBFE6C4DBA
:1009E000064641F288372B689903B5D5FFF7B2FE6A
:1009F000801BB842F7D9DBE7654B9A6812F00C0F01
:100A000007D09A6802F00C02082A18D15B685A02D3
:100A100015D45F4A13689B0702D5E368012BB4D154
:100A20001168F82393FAA3F3B3FA83F32069DBB2D6
:100A300000FA03F321F0F8010B4313602FE0E268A2
:100A4000554BF2B101221A60FFF784FE504D064665
:100A50002B684F489F0705D4FFF77CFE801B642856
:100A6000F6D9A5E70268F82393FAA3F3B3FA83F360
:100A70002169DBB201FA03F322F0F80213430360A9
:100A80000DE01A60FFF766FE414D06462B68990798
:100A900005D5FFF75FFE801B6428F7D988E7236838
:100AA0001A0703D423685B074ED51FE062693B4BEE
:100AB00072B101221A60FFF74DFE354D06466B6F8D
:100AC0009F07EFD4FFF746FE801B6428F7D96FE736
:100AD0001A60FFF73FFE2E4D06466B6F9807E1D573
:100AE000FFF738FE801B6428F7D961E7284B2C4DAF
:100AF0001A6C42F080521A641B6C03F0805301930D
:100B0000019B2B6843F480732B60FFF723FE06469E
:100B10002B68D9051BD5234D1D4E00232B70FFF7E5
:100B200019FE41F288380746336F9A0715D4237AA5
:100B30002B70A368EBB1FFF70DFE154D064641F291
:100B400088372B6F9B070ED5A2696ABB6CE0FFF755
:100B500001FE801B6428DBD92AE7FFF7FBFDC01BE1
:100B60004045E1D924E7FFF7F5FD801BB842E8D9FD
:100B70001EE7FFF7EFFD064D064641F288372B6F63
:100B80009807E1D5FFF7E6FD801BB842F7D90FE7DC
:100B9000003802400238024000004742800E4742BF
:100BA00000700040703802402E4DAB6803F00C031B
:100BB000082B3FF4EAAE2C4E0023022A336042D1C8
:100BC000FFF7C8FD80462B68264F99012ED447F6C3
:100BD000C07292FAA2F2B2FA82F24FF4403393FA60
:100BE000A3F3B3FA83F54FF0706191FAA1F1B1FA72
:100BF00081F0E169236A0B43616AD2B291401943E3
:100C0000A36A5B085A1EEBB202FA03F3E26A0B43D3
:100C1000C1B28A4013437B6001233360FFF79AFD22
:100C200004463B689A0108D5002018E0FFF792FDC2
:100C3000C8EB00006428C6D9BAE6FFF78BFD001B9D
:100C40006428EED9B4E6FFF785FD04462B689B01C6
:100C5000EAD5FFF77FFD001B6428F7D9A8E602B0AC
:100C6000BDE8F08100380240600047427B4B1A68C3
:100C700002F00F028A422DE9F04105460E4674D279
:100C8000CAB21A701B6803F00F03994202D0012008
:100C9000BDE8F08101688F0706D57148836823F0AD
:100CA000F002AB6813438360CE070BD429684C076E
:100CB00040F1C3806A48836823F4E052EB68134331
:100CC0008360BAE06B68664A012B03D1126812F4A4
:100CD000003F08E0991E0129126802D812F0007F37
:100CE00001E012F0020FD2D05D4CA26822F00302A4
:100CF0001343A360FFF72EFD6B68012B06460ED150
:100D000041F28837A36803F00C03042BCED0FFF721
:100D100021FD801BB842F5D90320BDE8F081022BEC
:100D20000CD141F28837A36803F00C03082BBDD027
:100D3000FFF710FD801BB842F5D9EDE7032B08D172
:100D400041F28835A368FFF705FD801BA842F9D959
:100D5000E2E741F28837A36813F00C0FA6D0FFF743
:100D6000F9FC801BB842F6D9D6E70168880706D59A
:100D70003B48836823F0F002AB6813438360CA07E3
:100D800009D4364BF2B21A701B6803F00F039E426F
:100D90007FF47DAF8AE76B68314A012B03D112687B
:100DA00012F4003F08E0991E0129126802D812F0DF
:100DB000007F01E012F0020F3FF469AF284CA268F7
:100DC00022F003021343A360FFF7C4FC6B68012BFE
:100DD00007460CD141F28838A36803F00C03042BBA
:100DE000CFD0FFF7B7FCC01B4045F5D994E7022BE5
:100DF0000CD141F28838A36803F00C03082BC0D053
:100E0000FFF7A8FCC01B4045F5D985E7032B08D1A7
:100E100041F28835A368FFF79DFCC01BA842F9D9B1
:100E20007AE741F28838A36813F00C0FA9D0FFF7D6
:100E300091FCC01B4045F6D96EE70B0707D5084A61
:100E40002969936823F4604343EAC10393600F2048
:100E500000F05EFA0020BDE8F08100BF003C0240D7
:100E6000003802401F498B6803F00C03042B34D078
:100E7000082B34D148684B6800F03F0013F4800F12
:100E800047F6C0724B6892FAA2F2B2FA82F247F6C3
:100E9000C071D2B201EA030115BF21FA02F3D140B9
:100EA000114A124A14BFB2FBF0F0B2FBF0F00D4A47
:100EB0000CBF00FB01F343434FF44031506891FAFB
:100EC000A1F1B1FA81F100F44032C8B222FA00F087
:100ED00001304000B3FBF0F070470348704703480F
:100EE000704700BF0038024000127A000024F4006E
:100EF00008B5FFF7B7FF094B9A68F02393FAA3F3FD
:100F0000B3FA83F302F0F002DBB222FA03F3044AED
:100F1000D35CD840034B186008BD00BF00380240C6
:100F20000C6B00088801002008B5FFF7E1FF084BB3
:100F30009A684FF4E05393FAA3F3B3FA83F302F4FD
:100F4000E052DBB222FA03F3024AD35CD84008BD78
:100F5000003802400C6B000808B5FFF7C9FF084BCA
:100F60009A684FF4604393FAA3F3B3FA83F302F45D
:100F70006042DBB222FA03F3024AD35CD84008BDD8
:100F8000003802400C6B0008704700002E4A0368CE
:100F9000904212D0B0F1804F0FD0A2F57C42904227
:100FA0000BD002F58062904207D002F58062904239
:100FB00003D002F57842904218D14A6823F07003BA
:100FC0001343214A904237D0B0F1804F34D01F4AAA
:100FD000904231D002F5806290422DD002F58062BD
:100FE000904229D002F57842904225D0184A90428A
:100FF00022D002F5806290421ED002F580629042BB
:101000001AD0A2F59832904216D002F58062904232
:1010100012D002F5806290420ED003608B68C362EA
:101020000B688362084B98420BD003F580639842AB
:1010300007D0012343617047CA6823F44073134308
:10104000EBE70B690363F4E7000001400004004094
:101050000040014010B50446A0B190F8393003F0CB
:10106000FF021BB980F83820FFF78EFF022384F8B7
:1010700039302068211DFFF789FF012384F83930BA
:10108000002010BD012010BD10B50123046A8B4063
:1010900024EA03030362036A8A4042EA030101620D
:1010A00010BD000010B5044601220068FFF7ECFFF8
:1010B0002368084A934203D002F58062934203D129
:1010C0005A6C42F400425A641A6842F001021A60F3
:1010D000002010BD00000140FFF7E4BF2DE9F843F8
:1010E00005682B69074623F44052C368B968C06994
:1010F00013433A692B61EB6811437A6923F4164371
:101100000A43024323F00C031343EB606B6923F49F
:101110004072BB69B0F5004F43EA02036B613F4B7D
:1011200036D19D4203D003F580639D4216D1FFF76F
:1011300013FF7E68192460437600B0FBF6F6FFF7D4
:101140000BFF7A684FF064086043B6FBF8F6520074
:101150003601B0FBF2F9FFF7FFFE15E0FFF7E4FE02
:101160007E68192460437600B0FBF6F6FFF7DCFEDC
:101170007A684FF064086043B6FBF8F65200360117
:10118000B0FBF2F9FFF7D0FE44437868400034E04A
:101190009D4202D0224B9D4216D1FFF7DDFE7E68B4
:1011A00019246043B600B0FBF6F6FFF7D5FE7A6867
:1011B0004FF064086043B6FBF8F692003601B0FBCE
:1011C000F2F9FFF7C9FE15E0FFF7AEFE7E681924BD
:1011D0006043B600B0FBF6F6FFF7A6FE7A684FF064
:1011E00064086043B6FBF8F692003601B0FBF2F9F2
:1011F000FFF79AFE444378688000B4FBF0F0B0FB40
:10120000F8F008FB109212013232B2FBF8F303F04F
:101210000F033343AB60BDE8F88300BF001001400B
:1012200000140140704710B5044630B390F83930CF
:1012300003F0FF021BB980F83820FFF7F3FF2268A4
:10124000022384F83930D36823F40053D360204656
:10125000FFF744FF23681A6922F490421A615A6921
:1012600022F02A025A61DA6842F40052DA60002061
:101270000123E06384F8393010BD012010BD000067
:1012800030B50C4CA268A468B4F1006F13460CD1C1
:10129000131F094C094A53F8045F42F8045FA24245
:1012A000F9D1044A4FF000539360103043F82010F6
:1012B00030BD00BF00ED00E084010020FCFFFF1FF7
:1012C00038B5114B1A68D16811F0020F1C4604D0D2
:1012D0006FF002031361FFF7F9F92368DA68520728
:1012E00011D56FF00402094D1A615C6A2B68E31A8C
:1012F000B3F57A7F07D3FFF725FA034B2C601B6801
:1013000004F57A729A6338BD8403002080030020BC
:10131000264B37B51A6C264C254842F008021A6451
:101320001A6C02F008020192019A1A6A42F008024D
:101330001A621A6A22F008021A62A3F50B332360BC
:101340004FF0FF33E3601B4B1B4A1B6893420EBFF9
:101350000F231A4AB3FBF2F34FF0000518BF03F155
:10136000FF3363602561A5606561FFF773FE144973
:101370003220FFF785FF134B0D484FF480225A604F
:101380002946FFF7A9FE04210948FFF7A5FE2368B7
:101390000D495A6A0A6002F57A729A63DA68284639
:1013A00042F00402DA6003B030BD00BF00380240F2
:1013B00084030020880100200024F40080841E00A3
:1013C000C112000800E100E0800300207FB50F2378
:1013D000019302230293002303934FF4A053049339
:1013E00005214FF4805301A80593FFF73FFCB0FAA5
:1013F00080F0400907B05DF804FB0000174A184967
:10140000936803F00C03042B03D0082B03D0154B77
:1014100018E0154B16E05068536810F4800F03F085
:101420003F03506814BF104A0E4AB2FBF3F30B4A55
:101430005268C2F30142C0F38810013243435200A4
:10144000B3FBF2F30B60054B084A9B68C3F303132D
:10145000D25C0B68D3400B60704700BF003802407D
:10146000880100200024F40000127A001C6B0008A0
:10147000194B10B51A6C42F080521A641B6C8EB076
:1014800003F080530093009B144B1A6822F48042AF
:101490001A601B6803F480430193019B01230293AC
:1014A00000B105234FF4800203930992022308221E
:1014B000002408930A920C934FF4A872072302A801
:1014C00005940B920D93FFF741FA10B9FFF77EFFD9
:1014D00000E020460EB010BD003802400070004011
:1014E000184B10B51A6C42F080521A641B6C8EB007
:1014F00003F080530093009B134B1A6822F4804240
:101500001A601B6803F480430193019B0323029339
:1015100001231022059302230024069208930A92C5
:101520000C934FF4A872072302A8039409940B921A
:101530000D93FFF70BFA10B9FFF748FF00E02046C4
:101540000EB010BD003802400070004008B5012008
:10155000FFF78EFF30B9FFF78BFF18B9FFF7C0FF19
:1015600000B9FEE708BD0000184AD2F8883010B56F
:1015700043F47003164CC2F888302368002143F00E
:1015800001032360A160236823F0847323F4803374
:101590002360104B6360236823F4802323604FF0A3
:1015A0000063E16093600C4B0C4A1A60FFF7B4F8DB
:1015B000FFF7CCFFFFF722FF236A43F00803236203
:1015C000236A23F00803236210BD00BF00ED00E092
:1015D0000038024010300024880100200024F4006C
:1015E00010B50021044604F00F0400F0BFF80120FC
:1015F000A04010BD70B504464B1C0E4621800DD096
:10160000C1F3031000F01EF805463046FFF7E8FF6F
:1016100005F1100318356060A360E56070BDB0F996
:10162000000000F0C7B80129B0F9000018BF002180
:1016300000F09CB808B5FFF7E1FEBDE80840FFF7F1
:101640006BB8000000B58BB0082872D8DFE800F056
:1016500005111D2935414D596500394B39481A6B23
:1016600042F001021A631B6B03F001030193019B1B
:1016700063E0334B34481A6B42F002021A631B6B6F
:1016800003F002030293029B57E02D4B2F481A6B85
:1016900042F004021A631B6B03F004030393039BE1
:1016A0004BE0274B2A481A6B42F008021A631B6B67
:1016B00003F008030493049B3FE0214B25481A6B79
:1016C00042F010021A631B6B03F010030593059B95
:1016D00033E01B4B20481A6B42F020021A631B6B4D
:1016E00003F020030693069B27E0154B1B481A6B5B
:1016F00042F040021A631B6B03F040030793079B01
:101700001BE00F4B16481A6B42F080021A631B6BEA
:1017100003F080030893089B0FE0094B11481A6BF4
:1017200042F480721A631B6B03F480730993099B64
:1017300003E00D48FEF724FF00200BB05DF804FB2A
:10174000003802400000024000040240000802404D
:10175000000C024000100240001402400018024039
:10176000001C0240002002402C6B000830B50546EA
:1017700087B0C0F303100C4605F00F05FFF762FFBA
:10178000012304F00F0203FA05F5094B019553F804
:1017900022300293C4F302130393C4F3C31403234C
:1017A00001A904930594FEF7EDFF07B030BD00BF1B
:1017B000506B000838B500F00F05C0F303100C465D
:1017C000FFF740FF6900C26803238B4022EA03034E
:1017D000032CC360C36828BF00248C401C43C46032
:1017E00038BD000008B5124B02681A6082685A6062
:1017F000C2689A600269DA6042691A6100229A61DD
:10180000B0F91A20013201D1082205E0B0F9182000
:1018100001320CBF04220C2205485A61FFF703FD78
:1018200020B10448BDE80840FEF7AABE08BD00BFCD
:10183000C4030020846B0008F0B50E4687B0044650
:10184000514930461546FEF70DFF504907462846D8
:10185000FEF708FF01463846FEF7E6FE4C4B2060D7
:10186000984243D013D8A3F50063984232D003F5D1
:101870008063984252D1474B1A6C42F480221A641A
:101880001B6C03F480230293029B022345E0424B2E
:10189000984213D003F58063984233D0A3F54443B4
:1018A00098423BD13B4B1A6C42F480121A641B6C79
:1018B00003F480130493049B04232EE0354B5A6CED
:1018C00042F010025A645B6C03F010030093009B1B
:1018D000002322E02F4B1A6C42F400321A641B6C76
:1018E00003F400330193019B012316E0294B1A6C8A
:1018F00042F400221A641B6C03F400230393039B3D
:1019000003230AE0234B5A6C42F020025A645B6CBA
:1019100003F020030593059B052363601A493046B5
:10192000FEF764FE19492846FEF760FE721C03D0DC
:1019300001213046FFF73EFF6B1C03D001212846F2
:10194000FFF738FF4FF41653A3600023E3602361D1
:101950006361268365832046FFF744FF22680F4BAF
:101960009A420FD10E4B01221A600E4B04F118055A
:10197000206861681A4603C20834AC421346F7D1A6
:101980002068106007B0F0BDE46B00089C6B000895
:10199000004C00400038024000100140001401409B
:1019A000C0030020040400200368034A1868136081
:1019B000C0F34010704700BFC403002010B5046896
:1019C00001460846FFF7F0FF0028FAD06068C0F330
:1019D000080010BD0368034A18681360C0F3C01004
:1019E000704700BFC403002038B505680446204690
:1019F000FFF7F0FF0028FAD0C1F30801696038BD95
:101A0000054B186830B901221A60044B044A1A6069
:101A1000FFF77EBC704700BF5C040020200400205C
:101A2000000C004008B5044B1B680BB9FFF7E8FF3A
:101A3000024B586A08BD00BF5C040020000C004047
:101A4000034B1B685863DA6842F00202DA607047A1
:101A500020040020034B1A68D36823F00203D360EC
:101A6000704700BF20040020024B1B686FF0020289
:101A70001A6170472004002008B5074CE3686268CB
:101A80001A600648FEF734FE6368E26803481B04E8
:101A90001360FEF72DFEF1E760040020CDCC4C3E34
:101AA00010B5064C00212046102200F077FB20469E
:101AB0001321BDE81040FEF795BD00BF6004002073
:101AC000044B1B6823B9272226210348FFF7B4BE25
:101AD000704700BFC00300200404002002284FF01C
:101AE000000309DDC21E074951F8220041F82230E7
:101AF00020B103685B681847184670474FF0FF3005
:101B0000704700BF70040020022870B50C461546CF
:101B10000FDC0E4B1B680BB9FFF7D2FF6619B442FE
:101B200005D014F8011B0A48FFF75EFFF7E72846C7
:101B300070BD0338074B53F8200020B10368BDE89F
:101B400070401B6818474FF0FF3070BDC003002085
:101B50000404002070040020022810B50C460ADCA2
:101B60000B4B1B680BB9FFF7ABFF0A48FFF726FFCB
:101B70002070012010BD0338074B53F8200020B11E
:101B80000368BDE810409B6818474FF0FF3010BD58
:101B9000C00300200404002070040020022807DD98
:101BA0000338064B53F8200020B10368DB68184760
:101BB000012070474FF0FF30704700BF70040020D5
:101BC000022807DD0338064B53F8200020B10368D4
:101BD0001B691847002070474FF0FF30704700BF67
:101BE00070040020022808B504D84FF400534B605D
:101BF000002008BD00F036F8092303604FF0FF30E5
:101C000008BD704708B5FFF715FDFFF7FAFFBDE8FF
:101C10000840FFF731BF0000074A13681844EFF38C
:101C20000881884229BF054B10600C224FF0FF301D
:101C30002CBF1A60184670478C01002078050020E0
:101C4000074C08B523680546986800F0D7F8236864
:101C5000D86800F0D3F80DB1FEF789FCFEE700BFAD
:101C6000F0010020014B1868704700BFF001002010
:101C700008B5074B044613B10021AFF30080054BB4
:101C80001868836A03B198472046FFF7D9FF00BF61
:101C900000000000906C00088A892DE9F04105469B
:101CA00010070C4659D44B68002B02DC0B6C002B40
:101CB00017DDE66AAEB102F48052002392B22F68BB
:101CC0002B600AB1606D15E0216A01232846B047F8
:101CD000411C0FD12B686BB11D2B01D0162B03D1EA
:101CE0002F600020BDE8F081A38943F04003A38169
:101CF000BDE8F081A3895A0705D56368C01A636BF4
:101D00000BB1236CC01A00230246E66A216A2846FA
:101D1000B047431CA38906D129681D293AD8214A16
:101D2000CA40D60736D500226260D90422692260F3
:101D300004D5421C01D12B6803B96065616B2F602B
:101D40000029CED004F14403994202D0284600F085
:101D50002DFA00206063BDE8F0810F69002FC0D02C
:101D600093070E6808BF4B690F6018BF0023C7EBCD
:101D700006088B6002E00744C0EB0808B8F1000FCA
:101D8000AFDD43463A46216AA66A2846B047002896
:101D9000F1DCA38943F04003A3814FF0FF30BDE89D
:101DA000F08100BF0100402038B50B6905460C46A4
:101DB000DBB118B183690BB900F072F80C4B9C428F
:101DC00001D16C6808E00B4B9C4201D1AC6803E088
:101DD000094B9C4208BFEC68B4F90C302BB121468A
:101DE0002846BDE83840FFF757BF002038BD00BF88
:101DF0002C6C00084C6C00086C6C0008014620B983
:101E0000044B0549186800F0B7B8044B1868FFF791
:101E1000CBBF00BF906C0008A91D0008F001002096
:101E2000014900F0A9B800BFA91D0008002310B5A2
:101E3000044603604360836081814366C28103611D
:101E400043618361194608225C3000F0A7F9054B15
:101E50006362054BA362054BE362054B2462236377
:101E600010BD00BFC1320008E33200081B33000878
:101E70003F33000870B568234D1E5D430E4605F1E3
:101E8000740100F0D9F9044640B1002180E8420015
:101E90000C30A06005F1680200F080F9204670BDAA
:101EA000836910B5044633BB8364C3640365124B76
:101EB000124A1B688262984204BF0123836100F0CA
:101EC0001FF86060204600F01BF8A060204600F07C
:101ED00017F80022E06004216068FFF7A7FF0122E5
:101EE0000921A068FFF7A2FF02221221E068FFF794
:101EF0009DFF0123A36110BD906C0008211E000806
:101F0000F8B51C4B1E68B369074613B93046FFF796
:101F1000C7FF4836B4687368013B04D4B4F90C5069
:101F20007DB16834F8E733680BB13668F2E7042115
:101F30003846FFF79FFF30600028F6D10C233B6046
:101F4000F8BD4FF6FF73E3810123A3816566256029
:101F5000A560656025616561A5610822294604F1D7
:101F60005C0000F01BF96563A563A564E564204689
:101F7000F8BD00BF906C00082DE9F8438046894603
:101F800000F14804002694B1A5686768013F0CD4AD
:101F9000AB89012B07D9B5F90E30013303D029469F
:101FA0004046C84706436835F0E72468EBE730460B
:101FB000BDE8F88370B50E4B0E4CE41AA410002552
:101FC0001E46A54204D056F8253098470135F8E75B
:101FD00004F052FD084C094BE41AA41000251E46DB
:101FE000A54204D056F8253098470135F8E770BD72
:101FF0003002002030020020380200203002002091
:10200000F0B58B899D0791B006460C4626D4B1F9F0
:102010000E10002909DAA38913F0800F4FF0000594
:1020200014BF40274FF480670DE001AA02F05CFF67
:102030000028F0DB029D05F47045A5F500514D42E6
:102040004D414FF480673946304600F0F5F860B9ED
:10205000A3899A051DD443F00203A38104F1470329
:10206000236023610123636113E00B4BB362A389F7
:10207000206043F08003A381206167614DB1B4F912
:102080000E10304603F060FA18B1A38943F0010343
:10209000A38111B0F0BD00BF211E0008024B014614
:1020A000186800F0C9B800BFF0010020000000006F
:1020B00001F0FF01102A2BDB10F0070F08D010F8F9
:1020C000013B013A8B422DD010F0070F42B3F6D1FD
:1020D000F0B441EA012141EA014122F007047FF016
:1020E00000070023F0E80256083C85EA010586EA6D
:1020F000010685FA47F5A3FA87F586FA47F6A5FAA9
:1021000087F68EB9EED1F0BC01F0FF0102F00702B4
:1021100032B110F8013B013A83EA010313B1F8D15F
:102120000020704701387047002D06BF3546033840
:10213000073815F0010F07D1013015F4807F02BF79
:10214000013015F4C03F0130F0BC0138704700BFCA
:1021500010B5431E0A44914204D011F8014B03F814
:10216000014FF8E710BD884210B501EB020301D81A
:10217000421E0BE09842FBD28118D21AD34204D0FF
:1021800013F8014D01F8014DF8E710BD994204D054
:1021900011F8014B02F8014FF8E710BD0244034665
:1021A000934202D003F8011BFAE7704730B50029CB
:1021B0003ED051F8042C0B1F1E49002AB8BF9B18B3
:1021C0000A680C4612B95A600B6030BD9A420ED9AB
:1021D00019685818824204BF106852685A6004BFD8
:1021E00009181960236030BD994203D80A46516826
:1021F0000029F9D1146815199D420AD11B6823449E
:10220000D0188142136013D10868034413604B68EF
:102210000DE002D90C23036030BD18681C18A142E0
:1022200004BF0C684968596004BF00191860536006
:1022300030BD00BF7405002070B5CD1C25F003052E
:1022400008350C2D38BF0C25002D064603DA0C236B
:102250003360002070BDA942F9D81F4B1C681A4694
:102260002146A1B10B685B1B0ED40B2B03D90B606D
:10227000CC18CD501EE08C420DBF63684B68636084
:10228000136018BF0C4615E00C464968E9E7134C8B
:1022900023681BB9304600F0DBFF2060294630463A
:1022A00000F0D6FF431CD2D0C41C24F00304A0428B
:1022B0000AD1256004F10B00231D20F00700C31A8A
:1022C00009D05A42E25070BD211A304600F0C0FFDA
:1022D0000130EED1BBE770BD740500207005002011
:1022E0009368013B002B10B4936009DA9469A34210
:1022F00002DBCBB20A2B03D15DF8044B01F0E6BE42
:102300001368581C10601970C8B25DF8044B704710
:10231000F8B506460F461446D518AC4208D03A46E2
:1023200014F8011B3046FFF7DBFF431CF5D100E03A
:102330000020F8BD2DE9F04F9DB00C4617460393E1
:10234000064618B183690BB9FFF7AAFD7F4B9C4283
:1023500001D1746808E07E4B9C4201D1B46803E06F
:102360007C4B9C4208BFF468A38918070CD52369ED
:1023700053B10023099320238DF8293030238DF8A1
:102380002A30DFF8D4B144E02146304601F004FFA2
:102390000028EED04FF0FF30D5E0039A111D1268EF
:1023A0000391002A80F28C80524243F0020007928F
:1023B000049098F800302E2B00F08480032298F8C7
:1023C00000106548FFF774FE48B14023CBEB0000D6
:1023D00003FA00F0049B1843049008F1010898F8F0
:1023E00000105E488DF82810062208F10107FFF75B
:1023F0005FFE002800F09580594B002B40F088804C
:10240000039B073323F0070308330393099B5344CB
:102410000993B846454615F8013B1BB9B8EB0709C7
:102420000FD003E0252BF9D0A846F3E74B463A46F8
:1024300021463046FFF76CFF01307FD0099B4B44AB
:10244000099398F80030002B78D000234FF0FF322A
:1024500004930793059206938DF853301A9301273E
:10246000052229783F48FFF723FE05F10108049B68
:1024700038B13C4A801A07FA00F0184304904546E8
:10248000EEE7D90644BF20228DF853201A0744BF37
:102490002B228DF853202A782A2A3FF47EAF079A00
:1024A00000210A20A846013598F80030303B092B5E
:1024B00003D800FB02320121F4E700293FF479AF91
:1024C000079276E798F801302A2B0BD1039B1A1D4F
:1024D0001B680392002BB8BF4FF0FF3308F10208CE
:1024E00005936BE70023059308F1010019460A25BF
:1024F0008046013098F80020303A092A03D805FBBD
:1025000001210123F4E7002B3FF458AF059155E773
:1025100003AB00932246144B04A9304600F0C2F8E6
:1025200007E003AB009322460F4B04A9304600F0AE
:1025300065FBB0F1FF3F82467FF468AFA3895B067D
:102540003FF528AF09981DB0BDE8F08F2C6C00084E
:102550004C6C00086C6C00089A6C00089E6C0008BB
:10256000A5260008946C00081123000813460A46AB
:10257000014602480068FFF7DDBE00BFF001002001
:102580002DE9F04788B0002B149F1299109EDDF8BA
:102590004CA01D4627F02007BBBF03F100431D469A
:1025A00000232D231446B8BF1446462F0B7003D0CA
:1025B000452F03D1013601E0032300E0022307AADF
:1025C000049206AA03928DE8480422462B4601F0A5
:1025D000EFFE472F804602D1119BDB0728D5462FFF
:1025E00008EB060911D198F80030302B0AD10022EF
:1025F00000232046294604F075F918B9C6F10106F2
:10260000CAF80060DAF8003099440022002320461E
:10261000294604F067F908B9302202E0CDF81C9091
:1026200006E0079B994503D9591C07911A70F8E7F2
:10263000079B159AC8EB03034046136008B0BDE83A
:10264000F08773B503460029B8BF494203F8022B4F
:10265000B4BF2D222B220929427019DD0DF107028A
:1026600016460A2591FBF5F405FB14113031092CAF
:1026700002F8011D2146F5DC3031541E02F8011C20
:10268000B4421A460AD214F8012B03F8012BF7E7DB
:1026900030241A46214402F8024B5970101A02B035
:1026A00070BD00002DE9F04F8FB00C4616461F4656
:1026B000DDF86080054602F057FFD0F800B05846BC
:1026C00000F041FE00230C93D8F800300890073347
:1026D00023F0070303F1080294F81890C8F80020CB
:1026E000D3E90023C4E91223D4E9120100F086FDE6
:1026F000012819D100220023D4E9120104F0FCF8CA
:1027000010B12D2384F843309A4B9B4AB9F1470FFF
:102710008CBF9046984603232361236823F004036B
:1027200023604FF0000A93E0D4E9120100F066FD47
:10273000236848B9914A9249B9F1470F8CBF88463E
:10274000904603222261E9E7D4F804E0BEF1FF3F9E
:10275000D4E9120101D106220AE0B9F1670F02D0D3
:10276000B9F1470F05D1BEF1000F40F0B68101224B
:102770006260002206920CAA43F4806305920BAAC1
:102780002360039201930DF12B0263680292009380
:1027900002460B46CDF810902846FFF7F1FE09F0EF
:1027A000DF03472B804609D10B9BD81C02DB6268F4
:1027B000934230DDA9F102095FFA89F9B9F1650F99
:1027C0000B9912D801394A4604F150000B91FFF7DA
:1027D00038FF0C9A8318012A8246236102DC2268A2
:1027E000D1072FD5013323612CE0B9F1660F14D145
:1027F0000029636807DD216113B92268D2071DD55E
:1028000001330B4419E013B92268D00701D5023314
:1028100013E0012311E04FF067090B9B0C9A9342E0
:1028200005DB22682361D10708D5013305E0002BC1
:10283000D4BFC3F102030123134423610B9BA3659F
:102840004FF0000A9DF82B3013B12D2384F843304C
:10285000009733460DAA2146284600F059F9013069
:1028600002D14FF0FF3050E123685A0501D42369AB
:1028700065E0B9F1650F40F2D58000220023D4E96C
:10288000120104F02FF878B301233E4A314628465E
:10289000B8470130E5D00C9B0B9A9A420BDB2368BA
:1028A000D80708D423689B0740F111814FF0000836
:1028B00004F1190906E1089B5A4631462846B847F3
:1028C0000130CED04FF0000804F11A090C9B013BF7
:1028D0009845E7DA01234A4631462846B847013091
:1028E000BFD008F10108F1E70B9B002B29DC012385
:1028F000244A31462846B8470130B2D00B9B23B951
:102900000C9B13B92368D907CCD5089B5A4631468E
:102910002846B8470130A4D04FF0000904F11A0A44
:102920000B9B5B42994509DA012352463146284602
:10293000B847013095D009F10109F1E70C9B4246F7
:10294000A7E00C9AA36D9A42A8BF1A46002A9146A6
:1029500007DC04F11A034FF0000A29EAE979099328
:102960001CE01346314642462846B8470130F0D1B4
:1029700077E700BFA56C0008A96C0008AD6C0008E3
:10298000B16C0008B56C00080123099A314628464D
:10299000B84701303FF465AF0AF1010AA36DC9EBF6
:1029A00003029245F0DB08EB03090B9A0C9B9A4259
:1029B0000FDB2368DA070CD40C9B0B9A9844C9EB05
:1029C00008089B1A9845A8BF9846B8F1000F08DC84
:1029D0000FE0089B5A4631462846B8470130EBD1F4
:1029E0003FE743464A4631462846B84701303FF460
:1029F00038AF4FF0000928EAE87804F11A0A09E034
:102A00000123524631462846B84701303FF429AFEA
:102A100009F101090B9A0C9B9B1AC8EB030399451A
:102A2000EEDB3FE70C9A012A01DCDB0738D50123F6
:102A3000424631462846B84701303FF412AF089B62
:102A40005A4631462846B84701303FF40AAF0022C3
:102A50000023D4E9120103F045FF20B14FF0000834
:102A600004F11A090EE00C9B08F10102013B19E088
:102A700001234A4631462846B84701303FF4F1AEBB
:102A800008F101080C9B013B9845F1DB534604F12A
:102A9000500231462846B84701307FF403AFE0E6E4
:102AA0000123424631462846B8470130EED1D8E6E8
:102AB00001234A4631462846B84701303FF4D1AE9B
:102AC00008F10108E3680D9A9B1A9845F0DBE0686D
:102AD0000D9B9842B8BF184617E0002206920CAA38
:102AE00005920BAA43F4806303920DF12B0223603D
:102AF000029201930246CDF81090CDF800E00B460B
:102B00002846FFF73DFD80464EE60FB0BDE8F08F4A
:102B10002DE9F04791461F460A698B68DDF8208051
:102B20009342B8BF1346C9F8003091F843200646D7
:102B30000C4612B10133C9F800302368990642BF30
:102B4000D9F800300233C9F80030256815F00605C1
:102B500010D104F1190A07E00123524639463046E4
:102B6000C04701301AD00135E368D9F800209B1A1C
:102B70009D42F1DB94F843302268003318BF0123F3
:102B800092060FD5E1185A1C302081F843002244E8
:102B900094F8451082F84310023303E04FF0FF3001
:102BA000BDE8F08704F1430239463046C0470130A2
:102BB000F4D02268D9F80050E36802F00602042A33
:102BC00008BF5D1B2269A3680CBF25EAE5750025D7
:102BD0009342C4BF9B1AED184FF000091A344D45BB
:102BE00009D00123224639463046C0470130D5D0AE
:102BF00009F10109F3E70020BDE8F0872DE9F04372
:102C000017460A7E85B06E2A984606460C460C9BEF
:102C100001F1430E00F0AE8011D8632A22D009D80A
:102C2000002A00F0BB80582A40F0CA8081F8452075
:102C3000834955E0642A1ED0692A1CD0C0E0732A5B
:102C400000F0B08009D86F2A2ED0702A40F0B880EA
:102C50000A6842F020020A603EE0752A24D0782AF1
:102C60003AD0ADE01A6801F14205111D19601368F0
:102C700084F84230A8E021681A6811F0800F02D071
:102C8000111D196008E011F0400F02F104011960F4
:102C900002D0B2F9003000E01368002B3CDA2D229C
:102CA0005B4284F8432037E021681A6811F0800FF6
:102CB00002D0111D196007E011F0400F02F104016C
:102CC000196001D0138800E01368227E5C496F2AE6
:102CD00014BF0A2208221BE078225A4984F84520B2
:102CE0002268186812F0800F00F104051D6003D1FE
:102CF000550601D5038800E00368D00744BF42F0C1
:102D0000200222601BB9226822F0200222601022D9
:102D1000002084F8430001E049490A226568A56063
:102D2000002D08DB206820F0040020602BB9002D66
:102D30007DD175460CE0002B79D07546B3FBF2F0DF
:102D400002FB1033CB5C05F8013D03460028F5D1AA
:102D5000082A0BD12368DA0708D5236962689A42EA
:102D6000DEBF302305F8013C05F1FF35C5EB0E034E
:102D700023612EE008681A68496910F0800F03D0BB
:102D8000101D1860136808E010F0400F02F10400F5
:102D90001860136801D0198000E0196000232361D6
:102DA000754616E01A68111D1960156862680021E1
:102DB0002846FFF77DF908B1401B6060636804E0B6
:102DC00004F1420584F8422001232361002384F8A2
:102DD0004330CDF800803B4603AA21463046FFF73A
:102DE00097FE013002D14FF0FF3026E023692A46DA
:102DF00039463046C0470130F5D023689B0710D5CF
:102E0000002504F1190907E001234A4639463046F6
:102E1000C0470130E7D00135E368039A9B1A9D4211
:102E2000F2DBE068039B9842B8BF184605E00B78D8
:102E300084F8423004F142058AE705B0BDE8F0832A
:102E4000B76C0008C86C00082DE9F04F9A468B68F3
:102E500016465A1EB2F5AE7F87B083BF6FF4AE72CE
:102E60009B180193002386BF40F25D138B60019392
:102E70000B68884643F4F06348F81C3B4FF0000BA6
:102E800007460C4645465A46CDF810B0CDF80CB072
:102E9000D946CDF808B0A168002900F0E580336874
:102EA0001B78492B70D016D8392B0DD8312B40D236
:102EB0002D2B46D002D82B2B43D0D5E02E2B00F063
:102EC0009280302B23D0CFE0452B00F09580462B0D
:102ED00077D0412B0CE0652B00F08E800AD8542B64
:102EE00075D002D84E2B34D0BEE0592B75D0612B53
:102EF00046D0B9E06E2B2CD004D8662B61D0692B5C
:102F000042D0B1E0742B62D0792B66D0ACE020685F
:102F100010F4807F0DD0019B20F08000206009F12B
:102F20000109002B00F08780013B01310193A16072
:102F300081E012EB0B0F40F09780216821F4C07103
:102F400005E02168080640F18F8021F080012160B2
:102F50006FE06AB9B9F1000F0CD1216801F4E060AB
:102F6000B0F5E06F06D121F4F0612160012260E04C
:102F7000022A5DD0BBF1010F1ED0BBF1040F1AE095
:102F8000012A71D1022254E0BBF1000F0ED1B9F138
:102F9000000F6CD1216801F4E060B0F5E06F6AD1F8
:102FA00021F4F06121604FF0010B42E0BBF1030F0F
:102FB00002D0BBF1050F57D10BF1010B5FFA8BFB70
:102FC00037E0BBF1020F4FD14FF0030B31E0BBF103
:102FD000060F49D14FF0070B2BE0BBF1070F43D190
:102FE0004FF0080B25E0216888053DD521F42071BC
:102FF0002160CDF808901CE0216801F4A060B0F5D4
:10300000806F04D048052FD5B9F1000F33D0880563
:103010005CBF0298049521F4F06158BFC0EB090031
:1030200041F4C07158BF039021604FF0000900E0E7
:1030300003222B700135A368013BA3602369013390
:1030400023617368013B002B736003DD3368013338
:10305000336020E7D4F880310592314638469847EE
:10306000059A00283FF417AFB9F1000F03D0236889
:1030700023F480732360013A012A0ED845450AD90A
:10308000D4F87C3115F8011D32463846984723693B
:10309000013B2361F2E70126AAE00BF1FF33062B87
:1030A00022D8BBF1020F12D9ABF1030B5FFA8BFBF5
:1030B000CBEB050B5D4517D0D4F87C3115F8011D1D
:1030C0003246384698472369013B2361F2E745457C
:1030D000E1D9D4F87C3115F8011D324638469847BD
:1030E0002369013B2361F2E72368DA052CD55B05F0
:1030F0000CD54545CFD9D4F87C3115F8011D3246A1
:10310000384698472369013B2361F2E715F8011C13
:103110002369652903F1FF3305F1FF3B23610DD0DE
:1031200045290BD0D4F87C3132463846984723697C
:1031300015F8021C013BA5F1020B2361D4F87C3188
:103140003246384698475D46266816F010064ED13E
:103150002E70236803F4C063B3F5806F05D1029B22
:10316000C3EB09035A4263B915E0039B9BB1049971
:103170000A2332460131384600F022FF039B049DAA
:10318000C21A04F26F139D4228BF04F5B7751A499D
:10319000284600F071F800224146384600F014F944
:1031A0002268DAF8003012F0020F8046894603D018
:1031B0001A1DCAF8002006E012F0040F03F1040201
:1031C000CAF8002003D01B68C3E900890BE01D6822
:1031D00000F014F810B900F04BF803E040464946FF
:1031E00003F0FAFB2860E3680133E36000E00026A7
:1031F000304607B0BDE8F08FD96C00080A4631F0C0
:10320000004110B503461BD00F48A2F5801484423C
:1032100010D902F1FF420C4802F5E002824209D9BE
:10322000B1F5801F08D3094A914207D1B3FA83F060
:10323000400910BD042010BD032010BD002010BDAA
:103240000028E6D1022010BDFFFFDF7F0000F07FE5
:1032500038B5064C0023054608462360FEF7DCFC23
:10326000431C02D1236803B12B6038BD78050020D0
:10327000004870470000C07F0EB400B59CB04FF40A
:1032800002711DABADF81410029006906FF0004172
:103290000A48049107914FF6FF7153F8042BADF8DB
:1032A00016100068019302A902F0ECFD029B0022B7
:1032B0001A701CB05DF804EB03B07047F0010020F9
:1032C00010B50C46B1F90E1002F0D0FE0028ABBFCD
:1032D000636DA3891B1823F48053ACBF6365A3817E
:1032E00010BD2DE9F0411F468B89DB0505460C46D4
:1032F000164605D502230022B1F90E1002F038F966
:10330000A389B4F90E1023F48053A38132463B46BF
:103310002846BDE8F04100F02DBF10B50C46B1F9CC
:103320000E1002F025F9431CA38915BF606523F434
:10333000805343F48053A38118BFA38110BDB1F91A
:103340000E1000F095BF034613F8012B002AFBD1A5
:10335000181A0138704730B582B1451E013915F889
:10336000013F11F8014FA34206D1EC431444E0425F
:1033700001D0002BF3D11C46181B30BD104630BDC8
:103380002DE9F0410F46904602F0CAFB04460D4677
:10339000B8F1000F11D0C7F30A53C3F16B03002B30
:1033A0000BDD1B0503F17F55002405F54015224672
:1033B0002B4603F02FF8BDE8F08120462946BDE8F2
:1033C000F0810000000000002DE9F04F9FB00023C5
:1033D00080460C4615921A934FF0000A4FF0000BEE
:1033E0001991199B1A780D2A05D8092A13D2002A97
:1033F00000F0AF8112E02B2A04D02D2A04D0202A1D
:103400000CD108E0002200E0012209925A1C199216
:103410005B782BB99DE101331993E2E7002309930F
:10342000199D2B78302B5CD16B78582B01D0782BE1
:103430004CD1099B01931AAB0093A84A1BAB19A965
:10344000404601F0AEFD10F00706044600F0858509
:10345000062E05D1013500231995099300F07DBD95
:103460001A9A3AB135211CA802F042FC1A9940463A
:1034700002F0C5F8062E22D8DFE806F0040D081881
:103480001D0D04004FF0000BDA4618E0DDF870A0C7
:10349000DDF874B013E01D9B1B9ADDF870A023F4D7
:1034A000801302F2334243EA025B08E0DFF830B2F5
:1034B0004FF0000A03E06FF0004B4FF0FF3A210796
:1034C00040F14B854BF0004B00F047BD199B5A1C57
:1034D00019925B78302BF9D0002B00F03E85012348
:1034E00000E000230893199B0A930023039305939C
:1034F00004930A22199D2E78A6F13003D9B2092926
:1035000011D804990829D5BF0599039902FB013305
:1035100002FB0133D4BF05930393049B01350133B0
:1035200004931995E6E7404602F01EF80768404606
:1035300002F01AF80068FFF706FF394602462846EF
:10354000FFF709FF074628B100203346049D0246D5
:1035500001465AE0404602F007F80068FFF7F3FE24
:10356000199B1A181992049A1B5C002A45D110461F
:10357000302B05D1199B5A1C199201305B78F7E763
:10358000A3F13102082A46D8199A0A92024600206D
:103590000546303B00F1010129D00A4405EB000C3F
:1035A00029460A2661450FD0013101F1FF3EBEF1E7
:1035B000080F03DC059F77430597F3E71029DEBF6B
:1035C000039F77430397EDE72844082800F101059E
:1035D00005DC05980A2101FB0033059306E0102D58
:1035E000DFBF03980A2101FB003303930021199BDD
:1035F000581C19905B78084602E0049D38463A460C
:10360000A3F130010929C4D90121652B01D0452B33
:1036100051D16DB904E0652B40F0AD840022012149
:1036200028B9089B002B00F09480054600E0002597
:10363000199C631C199363782B2B06D02D2B02D079
:103640000026069606E0012300E000230693A31C53
:103650001993A378A3F13006092E2BD8302B04D16F
:10366000199B5E1C19965B78F8E7A3F13106082ECA
:1036700021D8A3F1300E199B4FF00A0C1F46199B5D
:103680005E1C19965B78A3F13009B9F1090F04D8D3
:103690000CFB0E3EAEF1300EF1E7F61B082E44F6A1
:1036A0001F6902DCF145A8BFF146069E2EB1C9F1A3
:1036B000000902E019944FF00009002D51D10028B3
:1036C00040F04B84089A002A40F04784002940D1FA
:1036D0004E2B1FD006DC492B09D03AE0F46C0008D1
:1036E0000000F07F692B02D06E2B13D031E0A74988
:1036F00019A801F087FE60B3199BA549013B19A8E1
:10370000199301F07FFE10B9199B01331993DFF86B
:103710009CB21AE09F4919A801F074FEC8B1199B28
:103720001B78282B0FD11CAA9B4919A801F07DFEFC
:10373000052808D11D9BDDF870A043F0FF4B4BF42A
:10374000E00B00F00ABCDFF868B24FF0000A00F0AE
:1037500004BC159B1994002B00F00A8400230993E4
:10376000FDE3049B0598002B08BF2B46102D2C462B
:10377000C2EB0909A8BF1024049302F0D5FD092C5F
:1037800082468B4613DD854B03EBC40353E91223BA
:1037900002F040FE064603980F4602F0C5FD0246C1
:1037A0000B463046394602F083FC82468B460F2D8D
:1037B00036DCB9F1000F00F0D08324DDB9F1160F2B
:1037C00007DC764D05EBC90952465B46D9E9000195
:1037D00014E0C5F12503994522DC704CC5F10F05B5
:1037E00004EBC501C5EB090552465B46D1E9000172
:1037F00004EBC50402F00EFED4E9002302F00AFE39
:1038000082468B46A9E319F1160F09DB634DA5EB40
:10381000C909D9E900235046594602F025FFEFE7D0
:103820002C1B4C44002C56DD14F00F010AD05B4BCE
:1038300003EBC10152465B46D1E9000102F0EAFD0B
:1038400082468B4634F00F0400F0B680B4F59A7FC0
:103850000BDD0024A146059404942223C8F800300F
:10386000DFF848B14FF0000A7AE100234C4E2411F2
:10387000504659461F46012C0ADDE20704D5D6E919
:10388000002302F0C7FD0123013764100836F2E778
:103890000BB182468B46424BABF1547B03EBC7071F
:1038A00052465B46D7E9000102F0B4FD21F0004327
:1038B0008B460A461B0D3B491B058B428246C8D8E6
:1038C000A1F580118B4286BFDFF8E8B04FF0FF3AD8
:1038D00002F1547B70E06FD0644214F00F020AD002
:1038E0002E4B03EBC20350465946D3E9002302F0A6
:1038F000BBFE82468B4624115ED01F2C04DD0024C3
:10390000A1460594049424E114F0100F0CBF002389
:103910006A23254E0393504659460023002C09DDA7
:10392000E20704D5D6E9002302F074FD01236410F8
:103930000836F3E70BB182468B46039BEBB1CBF322
:103940000A53C3F16B03002B594616DD1F2B0EDD06
:10395000342BDEBF203B4FF0FF3202FA03F34FF06F
:10396000000ACCBF4FF05C7B03EA010B05E04FF08F
:10397000FF3202FA03F303EA0A0A00220023504648
:10398000594602F0AFFF0028B9D117E0AA6C000831
:10399000346E0008B26C0008E06C0008486E000845
:1039A000106F00080000A07C086D00080000F07F88
:1039B0000000F8FFFFFFEF7F00230393059B0093B8
:1039C000049A0A992B46404601F06BFE05900028A8
:1039D0003FF43FAFB9F1000FC9F10003A8BF0023C6
:1039E0000E93002429EAE9730F93A146059B4046F4
:1039F000596801F0CFFD049000283FF42EAF059BDD
:103A00001A69023203F10C0192000C30FEF7A0FBA0
:103A10001CAB01931BAB009352465B464046CDE97D
:103A20000AAB02F0EEF81A9000283FF416AF01211D
:103A3000404601F0C1FE814600283FF40EAF1B9BBB
:103A400003991C9D002BADBF0E9A0F9A0E9FD7189D
:103A5000B8BFD21AA3EB01032B44B249A8BF0F9AF7
:103A6000013B8B42C5F1360580F28680C91A1F29B9
:103A7000A5EB01054FF0010077DC00FA01F3149388
:103A8000002306937E19039BB74215441D443B4611
:103A9000A8BF3346AB42A8BF2B46002BC2BFF61AC5
:103AA000ED1AFF1A0E9B002B6BD1002E00F38280C3
:103AB0000F9B002B40F08880002D00F38F80002F9B
:103AC00000F39680049A1A99404601F0CAFF044612
:103AD00000283FF4C2AEC36808930023C360494680
:103AE00001F0A3FF002880F29180089B002B40F09A
:103AF0000D82BAF1000F40F00982CBF31303002BC3
:103B000040F004822BF000431B0D1B05B3F1D66F70
:103B100040F2FC816369002B74D0214601224046AB
:103B200001F032FF4946044601F07FFF002840F3D0
:103B3000ED812BF00043039A1B0D1B05002A00F0BA
:103B40009480B3F1D66F00F39080B3F15C7F00F303
:103B5000DF8122234FF0000A4FF0000BC8F800303D
:103B6000059B002B40F0E581F7E16F4E1490F61AAB
:103B700000FA06F3069385E70023069301231493C6
:103B800080E749461A46404601F0B0FE81460028CB
:103B90003FF463AE01461A9A404601F016FE0890C3
:103BA00000283FF45AAE1A99404601F028FD089BC0
:103BB0001A937AE732461A99404601F0E5FE1A90C8
:103BC00000287FF475AF48E60F9A0499404601F04B
:103BD0008DFE049000287FF46FAF3EE62A460499DC
:103BE000404601F0D1FE049000287FF468AF34E62F
:103BF00049463A46404601F0C7FE814600287FF418
:103C000061AF2AE62369012B87DC7FE162D1089A44
:103C1000CBF3130322B345498B425A462ED1039B63
:103C2000514663B1424B1340B3F1D46F07D81B0D1B
:103C3000C3F16B034FF0FF3000FA03F301E04FF0E4
:103C4000FF338B421AD13B498A4202D101333FF400
:103C500004AE374B134003F5801B4FF0000A55E1CB
:103C600063B9BAF1000F09D163E7A3F580136FEAD6
:103C7000135B6FEA0B5B4FF0FF3A47E1069B13B112
:103C800013EA0B0F02E0149B13EA0A0F00F03E81C7
:103C9000089B039A5046594653B1FFF771FB024601
:103CA0000B46DDE90A0102F003FA82468B462DE15C
:103CB000FFF766FB02460B46DDE90A0102F0F6F962
:103CC0000022002382468B4602F00CFE00287FF47F
:103CD00040AF1BE14946204601F0E1FF00224FF0D2
:103CE000804306460F4602F011FE002841D0089B93
:103CF00013B10022104B0FE0BAF1000F03D1CBF348
:103D000013033BB91CE0BAF1010F03D1BBF1000F63
:103D10003FF41FAF094B0022CDE906230026064FD2
:103D20003CE000BF02FCFFFFE2FBFFFFFFFF0F00D4
:103D30000000F07FFFFFEF7F0000F03F0000F0BFCA
:103D40000022994B3046394602F0D6FD40B9304644
:103D500039460022954B02F05DFB06460F4601E016
:103D6000924F002607F1004316961793DDE91623BC
:103D700012E08E4B30463946002202F04BFB089B86
:103D800006460F4623B901F100431090119301E05C
:103D9000CDE91067DDE91023CDE906232BF00045BE
:103DA0002D0D834B2D059D422BD1DDE90A23ABF16F
:103DB000547B50465946CDE90C2301F0B1FE024632
:103DC0000B46DDE9060102F025FB52465B4602F098
:103DD0006FF921F000431B0D764A1B059342824682
:103DE0000CD9754B0D9A9A4203D10C9B01333FF4C9
:103DF00034ADDFF8C4B14FF0FF3A76E001F1547B07
:103E00003BE0039B3BB3B5F1D46F24D85EA3D3E969
:103E100000233046394602F079FDB8B139463046C4
:103E200002F0BAFD002808BF012002F07DFA089BCD
:103E300006460F4623B901F100431290139301E0A7
:103E4000CDE91267DDE91223CDE90623079B03F1D3
:103E5000D6635B1B0793DDE90A01DDE906AB01F0E0
:103E60005FFE02460B465046594602F0D3FADDE9A2
:103E70000A2302F01DF982468B46039B002B34D1A6
:103E80002BF000431B0D1B059D42CDF828B02CD113
:103E90003946304602F058FD02F056FA0B4602460B
:103EA0003946304602F002F9089BCDE9060133B9E4
:103EB000BAF1000F03D10A9BC3F313067EB134A3FA
:103EC000D3E90023DDE9060102F016FD88BB32A329
:103ED000D3E90023DDE9060102F02CFD04E030A364
:103EE000D3E9002302F008FD18BB1A99404601F0FF
:103EF00086FB0499404601F082FB4946404601F0AA
:103F00007EFB2146404601F07AFB6FE5039B83B1BF
:103F10002A4B0D9300230C9350465946DDE90C23A0
:103F200002F078FA82468B4619B910B92223C8F8F4
:103F300000301A99404601F062FB0499404601F0B6
:103F40005EFB4946404601F05AFB0599404601F0A8
:103F500056FB2146404601F052FB159B13B1159AC2
:103F6000199B1360099B1BB150460BF1004107E000
:103F70005046594604E000252A460121FFF747BB79
:103F80001FB0BDE8F08F00BF0000C0FFFFFFDF41A2
:103F90009535A094FFFFDF3F35E5AF350000E03FEA
:103FA0009535A094FFFFCF3F0000F03F0000E03FB9
:103FB0000000E07FFFFF9F7CFFFFEF7F0000503994
:103FC0002DE9F04780464048D0F800900F463D4626
:103FD00015F8014B09EB0400407800F0080000F0F0
:103FE000FF0608B12F46F2E72D2C03D1BD1C7C78CB
:103FF000012603E02B2C04BF7C78BD1C13B1102BD1
:104000000AD15BE0302C57D1287800F0DF00582827
:104010004DD16C7810230235002E14BF4FF0004CA8
:104020006FF0004C0027BCFBF3FA384603FB1ACCB8
:1040300009EB040E9EF801E01EF0040F01D0303CA5
:104040000BE01EF0030E1BD0BEF1010F0CBF4FF0B2
:10405000370E4FF0570ECEEB0404A34210DDB7F13C
:10406000FF3F0AD0504506D801D1644503DC03FB6D
:104070000040012701E04FF0FF3715F8014BD7E76B
:104080007B1C0CD1002E4FF0220314BF4FF00040D8
:104090006FF00040C8F800302AB9BDE8F08706B1DB
:1040A000404272B107B1691E1160BDE8F08730244B
:1040B000002BB1D10823AFE70A23ADE7302CA3D002
:1040C000AAE7BDE8F08700BFF4010020F8B50F466D
:1040D0001446064618B183690BB9FDF7E1FE224B81
:1040E0009C4201D1746808E0204B9C4201D1B46825
:1040F00003E01F4B9C4208BFF468A369A360A38937
:104100001A0709D523693BB123682069181A636926
:104110009842FDB20FDB08E02146304600F03CF843
:104120000028F1D04FF0FF30F8BD21463046FDF7B2
:104130003BFE0028F6D1A368013BA36023685A1C0C
:1041400022601F706269431C934204D0A389DB077D
:1041500007D50A2D05D121463046FDF725FE00285A
:10416000E0D12846F8BD00BF2C6C00084C6C00085C
:104170006C6C000838B5074C05460846114600220D
:1041800022601A46FDF7C0FC431C02D1236803B12C
:104190002B6038BD78050020314B70B51D68064690
:1041A0000C4625B1AB6913B92846FDF779FE2D4BB6
:1041B0009C4201D16C6808E02B4B9C4201D1AC6859
:1041C00003E02A4B9C4208BFEC68A3899AB211070E
:1041D0001DD4D50602D40922326038E0500712D52A
:1041E000616B41B104F14403994202D03046FDF7BE
:1041F000DDFF00236363A38923F02403A38100234D
:10420000636023692360A38943F00803A3812369C2
:104210004BB9A38903F42073B3F5007F03D0214683
:104220003046FDF7EDFEA38913F0010205D0002210
:10423000A26062695242A26103E0990758BF6269B5
:10424000A26022694AB903F0800080B230B143F025
:104250004003A3814FF0FF3070BD002070BD00BF50
:10426000F00100202C6C00084C6C00086C6C0008FD
:1042700038B5064C0023054608462360FDF72EFCA2
:10428000431C02D1236803B12B6038BD78050020A0
:104290002DE9F74F03690C699C42804600F3838047
:1042A000013C01F114074FEA840E00F1140657F89F
:1042B000245006EB0E030193013556F82430B3FB6E
:1042C000F5F507EB0E09002D39D04FF0000A3846FE
:1042D000B446D34650F8042B93B205FB03A34FEA30
:1042E000134A9BB2C3EB0B03120CBCF800B005FBE6
:1042F00002A213FA8BF34FEA124A1FFA82FBDCF890
:104300000020CBEB124202EB23429BB243EA024372
:1043100081454FEA224B4CF8043BDBD256F80E3075
:104320006BB9019B043B9E421A4602D3C8F8104069
:1043300005E01268043B002AF8D1013CF3E740464F
:1043400001F073FB00282CDB013530464FF0000EE6
:1043500057F8041BD0F800C08AB2C2EB0E03090C58
:1043600013FA8CF3C1EB1C4202EB23429BB243EAEB
:104370000243B9454FEA224E40F8043BE8D256F8D2
:10438000242006EB840362B9043B9E421A4602D302
:10439000C8F8104005E01268043B002AF8D1013C3F
:1043A000F3E7284600E0002003B0BDE8F08F0000EE
:1043B0002DE9F04F456A97B08246239CCDE9022350
:1043C00045B91020FDF76AFECAF8240045608560F3
:1043D0000560C560DAF82430196859B15A684A6036
:1043E000012393408B60504601F009F9DAF824303C
:1043F00000221A60039BA04A002BBFBF0123236049
:10440000039B23F00043B8BF0393DDF80C80A4BFE7
:104410000023236028F000431B0D1B0593421DD190
:10442000229A42F20F731360029B43B9934A944B52
:10443000C8F31300002814BF1846104600E0904847
:10444000249B002B00F04A85C37813B100F10803C8
:1044500000E0C31C249A136000F040BDDDE9024572
:10446000002200232046294602F03CFA074658B1B4
:10447000229A01231360249B002B00F0228581489F
:104480001860013800F02ABD14AB019315AB0093FE
:1044900022462B46504601F0B4FBC8F30A5605905D
:1044A00056B1C5F3130343F07F51204641F4401148
:1044B000A6F2FF3611971DE0159B149E1E4406F2CE
:1044C0003243202B0ADD029A06F21240C3F1400368
:1044D00022FA00F008FA03F3184304E0C3F12000C5
:1044E000029B03FA00F001F01FFF0123A1F1F87114
:1044F000013E11930022644B01F0D8FD58A3D3E98B
:10450000002301F087FF58A3D3E9002301F0D0FD79
:10451000044630460D4601F017FF55A3D3E90023AA
:1045200001F078FF02460B462046294601F0C0FD07
:1045300004460D4602F008FA002283460023204676
:10454000294602F0D9F958B1584601F0FDFE02465D
:104550000B462046294602F0C5F908B90BF1FF3B8E
:10456000BBF1160F0DD8494901EBCB01DDE9022360
:10457000D1E9000102F0DEF930B10BF1FF3B00237D
:1045800000E00123109300E01090149B9E1B731E0B
:10459000089343BFC3F10009002308934FF00009BB
:1045A000BBF1000F07DB089BCDF834B05B440893E8
:1045B0000023099306E0CBF1000309930023CBEB22
:1045C00009090D93209B092B27D8052BC4BF043B59
:1045D0002093209BA3F10203CCBF00250125032BD0
:1045E00020D8DFE803F0060E0204012302E00123D5
:1045F00008E000230C93219B002B1CDD06939846BA
:104600001EE000230C93219B5B4403F101080693F9
:104610004346012BB8BF012312E00125002320935C
:104620000C9501E001230C934FF0FF33069398465D
:104630000022122303E00123069398461A46219292
:10464000DAF8244000226260042101F114029A4247
:104650001ED86268013262604900F6E7AFF300805D
:1046600061436F63A787D23FB3C8608B288AC63F78
:10467000FB799F501344D33F0000F07F316E000858
:104680003A6E0008B66C00080000F83F486E00085B
:104690006168504600F07EFFDAF8243020601B6825
:1046A0000793B8F10E0F00F25D81002D00F05A81E2
:1046B0009DED027BBBF1000F8DED0E7B31DDA04A3D
:1046C0000BF00F0302EBC30393ED007B4FEA2B14B7
:1046D000E2068DED0A7B0CD59A4BDDE90E01D3E99C
:1046E000082301F0C1FF04F00F04CDE90201032605
:1046F00000E00226934D6CB1E30708D5DDE90A011D
:10470000D5E9002301F086FECDE90A0101366410E7
:104710000835F0E7DDE90A23DDE9020101F0A4FF35
:1047200020E0CBF1000404B3854B864D04F00F026A
:1047300003EBC203D3E90023DDE90E0101F06AFEB9
:10474000CDE9020124110023022654B1E70705D563
:10475000D5E9002301F05EFE01360123641008351F
:10476000F3E71BB1CDE9020100E00226109BEBB19B
:10477000DDE902450022744B2046294602F0BCF8D0
:10478000A0B1B8F1000F11D0069B002B40F3E680DA
:104790000BF1FF330A9300226C4B2046294601F0AF
:1047A00039FE0136CDE90201069F02E0CDF828B0BE
:1047B0004746304601F0C8FDDDE9022301F02AFE3C
:1047C0000022634B01F074FC0446A1F15075CFB98F
:1047D0000022604BDDE9020101F068FC22462B4615
:1047E000CDE9020102F0A6F8002840F041822246FD
:1047F00005F10043DDE9020102F07EF8002840F0F7
:104800002E82ABE00C9A4E4B791E002A4AD003EB65
:10481000C103D3E9002300204F4901F025FF2246C0
:104820002B4601F043FC079C05460E46DDE90201DC
:1048300002F08AF8129001F087FD02460B46DDE98E
:10484000020101F033FC129B303304F8013B2A468D
:104850003346CDE9020102F04FF8002840F02183F1
:10486000DDE902230020384901F020FC2A463346C6
:1048700002F042F8002840F0D280079BE31ABB42C6
:104880006CDA0022314B2846314601F0C3FD00228C
:1048900005460E462D4BDDE9020101F0BBFDCDE9D9
:1048A0000201C3E703EBC10122462B46D1E9000117
:1048B00001F0B0FD079BCDE91201DC191D46DDE9D1
:1048C000020102F041F8064601F03EFD3036024694
:1048D0000B46DDE9020101F0E9FB05F8016BAC4292
:1048E000CDE902014FF0000223D11B4BDDE912019B
:1048F00001F0DEFB02460B46DDE9020102F01AF888
:10490000002840F08C80DDE912230020124901F0DC
:10491000CDFB02460B46DDE9020101F0EDFFE8B1F7
:1049200014F8013C302B04F1FF3240F0BA821446F7
:10493000F6E7064B01F06EFDCDE90201BFE700BFCF
:10494000486E0008106F00080000F03F000024408F
:1049500000001C40000014400000E03FDDE90E3480
:10496000CDE90234159B002B7CDBBBF10E0F79DC0B
:104970008F4B03EBCB03D3E90067219B002B14DAA9
:10498000B8F1000F11DC40F06C810022894B3046F9
:10499000394601F03FFDDDE9022301F0C1FF454644
:1049A0004646002840F05F8166E1079C32463B4660
:1049B000DDE9020101F058FE01F0C6FF054601F0F5
:1049C000C3FC32463B4601F025FD0B460246DDE9BD
:1049D000020101F06BFB05F1300E04F801EB079BBF
:1049E000C3EB040EF045CDE902012ED102460B4681
:1049F00001F05EFB8046894602460B46304639464A
:104A000001F07AFF78B942464B463046394601F00C
:104A100069FF002800F04782E90704D443E2DDF88B
:104A200028B000E01C4614F8012C392A04F1FF33A9
:104A300007D1079A9A42F5D1079930220BF1010B61
:104A40000A701A7801321A702DE200225A4B01F0D6
:104A5000E1FC00220023CDE9020101F043FF002820
:104A6000A4D020E20C9A002A2DD0209A012A0ADC38
:104A7000119A12B103F2334302E0149BC3F13603DF
:104A8000099D4C4615E0099B08F1FF35AB42BFBFBD
:104A9000099B0995EA1A0D9BB7BF9B185D1B0D93E7
:104AA0000025B8F1000FB9BFC8EB090400234C463C
:104AB0004346089A01211A4450469944089200F04E
:104AC0007BFE064602E0099D0C9E4C465CB1089BAD
:104AD000002B08DDA342089AA8BF2346C3EB0909AF
:104AE000E41AD31A0893099B002B1DDD0C9BABB174
:104AF00085B131462A46504600F0F8FE059A014637
:104B00000646504600F061FE05990746504600F003
:104B100076FD0597099B5A1B06D000E0099A059976
:104B2000504600F0E3FE05900121504600F044FE9F
:104B30000D9B05465BB31A460146504600F0D6FE73
:104B4000209B012B054618DC029B83B9039BC3F312
:104B5000130373B9039B23F000473F0D3F054FB18B
:104B6000089B013309F101090893012702E000279E
:104B700000E0029F0D9B73B100E000272B6905EB5D
:104B80008303186900F0CBFDC0F1200004E0209BF6
:104B9000012BD9DD0D9F0120089B184410F01F0048
:104BA0000ED0C0F12003042B08DDC0F11C0008E08A
:104BB000486E0008000014400000244006D018464B
:104BC0001C30089B0344814404440893B9F1000F4E
:104BD00005DD4A460599504600F0D6FE0590089B33
:104BE000002B05DD29461A46504600F0CDFE05464D
:104BF000109BEBB12946059800F017FF002817DA43
:104C000000230A220599504600F010FD0C9B0590E8
:104C10000BF1FF3B002B00F05881002331460A22A4
:104C2000504600F003FD069B002B064637DC33E0C0
:104C3000B8F1000F2ADC209B022B27DDCDF818806D
:104C4000069B83B929460522504600F0EFFC014639
:104C50000546059800F0E9FE00280DDC03E03D461E
:104C600000E000252E46219B079C6FEA030B0AE01B
:104C7000DDF828B03D463E46079B079A5C1C312371
:104C800013700BF1010BB0460026F7E00C9BCDF83A
:104C9000188023B9079CB1E0209B022BD0DC002CAC
:104CA00005DD31462246504600F06EFE06469FB1B5
:104CB0007168504600F06EFC326902320446920080
:104CC00006F10C010C30FDF743FA01222146504653
:104CD00000F05AFE804600E0B046029BDDF81C90D2
:104CE00003F00103089329460598FFF7D1FA3146EE
:104CF000044600F13007059800F097FE4246029006
:104D00002946504600F0ADFEC36802463BB9014655
:104D10000990059800F089FE099A034600E00123F6
:104D200011465046099300F06AFC099B4BB9209A42
:104D30003AB9089A2AB9392F28D0029B002B1ADCDD
:104D40001BE0029A002A04DB1AD1209AC2B9089A01
:104D5000B2B9002B11DD01220599504600F014FE76
:104D60002946059000F061FE002802DC05D1FA0713
:104D700003D5392F0AD004F1310709F101040CE001
:104D8000002B09F101040BDD392F05D1392389F8F6
:104D9000003009F1010954E0013789F800706DE035
:104DA000079B069A04F8017CE31A9342A1463AD085
:104DB00000230A220599504600F038FC464505902C
:104DC0004FF000034FF00A023146504604D100F084
:104DD0002DFC0646804686E700F028FC4146064644
:104DE00000230A22504600F021FC80467BE7002386
:104DF0000A220599504600F019FC059029460598AD
:104E0000FFF746FA00F1300704F8017B079B069A8A
:104E1000E31A9342EBDB079B012AACBF9B180133DB
:104E2000B0469946002601220599504600F0ACFD97
:104E30002946059000F0F9FD002802DC15D1FB079A
:104E400013D54C4614F8013C392B04F1FF3209D13B
:104E5000079B934204D10BF1010B3123079A02E027
:104E60001446EFE70133137008E04C4614F8013C98
:104E7000302B04F1FF3201D11446F7E729465046A2
:104E800000F0BDFBB8F1000F0DD02EB1464503D0A8
:104E90003146504600F0B3FB4146504600F0AFFBB0
:104EA00001E0DDF828B00599504600F0A8FB00238A
:104EB000229A23700BF101031360249B1BB11C6029
:104EC00001E008480AE0079808E0069B002B3FF73E
:104ED000E1AE209B022B7FF7DDAEB1E617B0BDE857
:104EE000F08F00BFB56C000838B5074C00230546AD
:104EF000084611462360FCF775FE431C02D1236867
:104F000003B12B6038BD00BF78050020F0B50669FD
:104F10004B11B34200F1140527DA11F01F0105EB24
:104F2000860605EB830201D1294616E0141D55F8CB
:104F30002320C1F1200ECA402B46B44209D2276873
:104F400007FA0EF73A4343F8042B54F8042BCA40EF
:104F5000F3E71A6052B1043308E0B2420B4605D2BF
:104F600052F8043B41F8043BF7E72B465B1B9B10D0
:104F7000036103B94361F0BDA0F13003092B01D8EF
:104F800020380AE0A0F16103052B01D8473804E07E
:104F9000A0F14103052B02D82738C0B2704700208A
:104FA00070472DE9F04F8BB08A46904606930290E9
:104FB00000F0DAFA036803931846FEF7C4F9039B7E
:104FC000019003444FF0000B13F8013C0793DAF80B
:104FD000003002331F4613F8010B302802D10BF1C9
:104FE000010BF7E7FFF7C8FF0446E0B9019A039900
:104FF0003846FEF7B0F9002834D1019BF85CFE1862
:10500000FFF7BAFF80B33346187830281F4603F104
:105010000103F9D0FFF7B0FFB0FA80F56D0934460F
:105020004FF0010B01E000252C463A4616460132AE
:105030003078FFF7A1FF0028F8D1019A0399304694
:10504000FEF789F950B954B9019BF4182246164667
:1050500001323078FFF790FF0028F8D134B1A41B5B
:10506000A40003E03E4600E0044601253378502BBF
:1050700001D0702B2AD173782B2B08D02D2B03D085
:10508000711C4FF0000905E04FF0010901E04FF0FD
:105090000009B11C0878FFF76FFF431EDBB2182B25
:1050A00014D8A0F1100211F8010FFFF765FF431E9D
:1050B000DBB2182B04D80A2303FB0202103AF2E7F2
:1050C000B9F1000F00D05242144400E03146CAF852
:1050D00000102DB1BBF1000F14BF002006207CE1B1
:1050E000F31B013B2946072B02DD01315B10FAE778
:1050F000029800F04FFA019B00F1140A4FF00009EA
:10510000C3F101030546CDF810A0CB460893B74282
:105110002FD2731E0593079A16F8013C93420BD0C9
:10512000BBF1200F16D1049BC3F8009004334FF05D
:1051300000090493CB460DE0059B089A13449F4257
:10514000EED81846019A03990993FEF704F9099BD2
:1051500068B1E5E716F8010CFFF70EFF00F00F004D
:1051600000FA0BF0059B49EA00090BF1040B1E46FF
:10517000CDE7049840F8049BCAEB0000801028613A
:105180004701484600F0CBFAD8F80060381AB04220
:1051900026DD871B3946284600F0C4FDC8B17B1EBA
:1051A000591103F01F024FF001095AF8211009FAB2
:1051B00002F20A420ED04B4502DC4FF0020909E030
:1051C000B91E284600F0AEFD0028F6D04FF00309C6
:1051D00000E0814639462846FFF798FE3C440CE043
:1051E00009DA371A29463A46029800F0CDFBE41B4B
:1051F000054600F1140A4FF00009D8F808309C4227
:1052000008DD0298294600F0FAF9149A0023136089
:10521000A320E2E0D8F80400844253DA041BA6423B
:105220002EDCD8F80C30022B1AD0032B1CD0012B0B
:105230001DD1A6421BD1012E0BDC069AD8F80430F2
:10524000136001232B61CAF80030149B62201D609B
:10525000C3E0711E284600F065FD0028EDD106E090
:10526000159B002BE9D002E0159B002BE5D102989D
:10527000294600F0C4F9149A002313605020ACE0D2
:10528000671EB9F1000F06D13FB13946284600F03C
:1052900049FD814601E04FF001097A11012307F031
:1052A0001F0703FA07F75AF8223021461F42284603
:1052B00018BF49F00209361BFFF728FE0227D8F86D
:1052C000044000E00127B9F1000F00F08180D8F818
:1052D0000C30022B0ED0032B10D0012B76D119F0FD
:1052E000020F73D0DAF8000049EA000919F0010F43
:1052F00007D16BE0159BC3F101031593159B002BA0
:1053000064D0D5F810A005F114034FEA8A0903EB25
:10531000090100201A68B2F1FF3F02D001321A6081
:1053200020E043F8040B9942F4D8AB689A4512DBAD
:1053300069680298013100F02DF92A69023205F1FD
:105340000C01834692000C30FCF702FF29460298BC
:1053500000F055F95D462B695A1C05EB83032A6161
:1053600001225A61022F05F1140211D1D8F8003040
:10537000013B9E4227D17111012306F01F0603FA5B
:1053800006F652F821301E420CBF022701271AE010
:105390002B699A450ADA01212846FFF7B7FDD8F8AC
:1053A000083001349C423FF72CAF0BE016F01F068B
:1053B00008D09144C6F1200659F8040C00F0AFF96A
:1053C000B042E8DB012747F0200701E047F0100773
:1053D000149B1D60069B38461C600BB0BDE8F08F27
:1053E000C2F10802920070B5C2F120064368056858
:1053F00003FA06F42C43D340046040F8043F88428B
:10540000F4D370BD30B5036811F8014B01334CB1D2
:105410001A78A2F14105192D98BF2032A242F3D08B
:10542000002030BD0360012030BD2DE9F04F0B6836
:10543000D0F800B05E1102EB860613F01F0385B0B2
:1054400018BF0436351F174600228246019346F8DE
:10545000042CA8462C46009291461BF8011F0029F7
:105460003CD0084603920291FFF786FD039A00BBE9
:105470000299202916D8009B9945EEDD444505D2B6
:10548000072A03DC41462046FFF7AAFFBC4223D986
:105490000023A4F1040844F8043CCDF800904446ED
:1054A0001A46DAE7292948D10BF10103CAF800307E
:1054B00014E00132082A09F1010906DDBC42CCD909
:1054C000002344F8043C0122043C216800F00F0052
:1054D00040EA01102060C0E70822BEE7B9F1000FE2
:1054E0002BD0444505D2072A03DC41462046FFF76E
:1054F00077FFBC420CD93B4654F8042B43F8042BED
:10550000A542F9D2002243F8042B9D42FBD20BE0C6
:10551000019B4BB1C3F120024FF0FF33D34056F84B
:10552000042C134046F8043C2B6843B9BD4202D119
:1055300001232B6003E0043DF6E7042000E0052092
:1055400005B0BDE8F08F000038B5064C00230546D5
:1055500008462360FCF722FB431C02D1236803B1F9
:105560002B6038BD7805002000487047F801002006
:1055700038B5074C054608461146002222601A46F7
:10558000FCF71EFB431C02D1236803B12B6038BD1E
:105590007805002070B5456A04460E463DB91020D6
:1055A000FCF77CFD6062456085600560C560656AEA
:1055B000EB6843B1636ADB6853F8260078B1026890
:1055C00043F8262017E021220421204600F0CCFBDE
:1055D000636AE860DB68002BECD1002070BD01211C
:1055E00001FA06F56A1D9200204600F0BDFB002876
:1055F000F3D04660856000230361C36070BD70B561
:10560000446A06460D463CB91020FCF747FD70621F
:10561000446084600460C4603DB1736A6A68DB689A
:1056200053F82210296043F8225070BD2DE9F04153
:105630000D691F4606460C4601F1140E0023DEF8E4
:10564000000081B202FB01710F0C000C02FB007024
:1056500089B2013301EB00419D424FEA10474EF8F9
:10566000041BECDCD7B1A3689D4212DB61683046B5
:105670000131FFF78FFF2269023204F10C018046ED
:1056800092000C30FCF764FD21463046FFF7B7FF6F
:10569000444604EB850301355F6125612046BDE882
:1056A000F0812DE9F8430C4615461F4609220833C0
:1056B000064693FBF2F3002101229A4202DA5200DD
:1056C0000131FAE73046FFF765FF089B4361092D7A
:1056D0004FF00103036111DD04F10908C1462C44B8
:1056E00019F8013B0146303B0A223046FFF79EFF86
:1056F000A145F5D108EB0504083C01E00A34092571
:105700002D1B63199F4208DD14F8013B0146303B15
:105710000A223046FFF78AFFF3E7BDE8F883030C5F
:105720001B0413B90004102300E0002310F07F4F86
:1057300004BF0002083310F0704F04BF00010433AF
:1057400010F0404F04BF80000233002803DB42000A
:1057500003D5581C704718467047202070470368CF
:1057600013F007020BD0D90722D49A074BBF5B086E
:105770009B08036003604CBF01200220704799B270
:1057800009B91B0C102213F0FF0F04BF1B0A0832CB
:10579000190704BF1B090432990704BF9B08023292
:1057A000D90702D45B0805D0013203601046704768
:1057B000002070472020704710B50C460121FFF7EC
:1057C000E9FE01224461026110BD2DE9F74F144644
:1057D0000A6923699A42B8BF0B468846BCBFA046F7
:1057E0001C46D8F81070D4F81090D8F80830D8F8C3
:1057F000041007EB09069E42C8BF0131FFF7CAFE3D
:1058000000F1140505EB860C2B460022634502D2FD
:1058100043F8042BFAE704F1140208F1140102EB37
:10582000890301EB87070093009B0192934257D9AC
:10583000B2F800B0BBF1000F23D08946AE464FF05E
:10584000000859F8044BBEF800A0A3B20BFB03A359
:105850004FEA144ADEF8004043444FEA14480BFB79
:105860000A8404EB1344F2469BB243EA04434F45D7
:105870004FEA14484AF8043B01D9D646E1E7CEF88E
:105880000480019BB3F802A00432BAF1000F21D0CA
:105890002B682C4689464FF00008B9F800E0B4F8B0
:1058A00002B00AFB0EBEF044A3469BB243EA084393
:1058B0004BF8043B59F8043BB4F804E01B0C0AFB1A
:1058C00003E303EB18434F454FEA134801D95C4605
:1058D000E3E763600435A7E75CF8043D13B9013ED4
:1058E000002EF9DC066103B0BDE8F08F2DE9F84326
:1058F000154612F0030206460F4607D0013A214C26
:10590000002354F82220FFF791FE0746AD1036D051
:10591000746A3CB91020FCF7C1FB7062446084607B
:105920000460C460D6F82480D8F808404CB940F22E
:1059300071213046FFF740FF0023C8F808000446F5
:1059400003604FF00008EB070AD53946224630467F
:10595000FFF73BFF394681463046FFF750FE4F4682
:105960006D100CD0206808B10446ECE722462146B1
:105970003046FFF72AFF2060C0F80080F4E7384681
:10598000BDE8F883386F00082DE9F0470C464FEA70
:10599000621A26694968A368564407469146751CF1
:1059A000AB4202DA01315B00FAE73846FFF7F2FD5D
:1059B0000023804600F114011A46534503DA41F8EA
:1059C00023200133F9E72AEAEA73206901EB830314
:1059D00019F01F0904F1140101EB800E14D0C9F174
:1059E000200C0022086800FA09F002439A4643F8A6
:1059F000042B51F8042B8E4522FA0CF2F2D8CAF887
:105A0000042042B1B51C06E0043B51F8042B43F8D6
:105A1000042F8E45F9D8013D3846C8F8105021466C
:105A2000FFF7EDFD4046BDE8F08703690A699B1A60
:105A300010B511D192001430143183180A4453F870
:105A4000044D52F8041D8C4202D007D3012010BD32
:105A50009842F4D3002010BD184610BD4FF0FF301F
:105A600010BD2DE9F8430C46074611462046154661
:105A7000FFF7DBFF061E08D131463846FFF78AFDE7
:105A8000012303614661BDE8F883BCBF23462C4671
:105A900038466168BABF1D4601260026FFF77AFD29
:105AA0002B69C660266905F11409143404EB8607D6
:105AB00009EB830800F114054FF0000C54F8043B87
:105AC00059F8042B1CFA83F11FFA82FE120CCEEB5C
:105AD0000101C2EB134303EB214389B24FEA234C8C
