:020000040800F2
:1000000000000220FD32000851330008513300087F
:10001000513300085133000851330008000000003C
:10002000000000000000000000000000693100082E
:100030005133000800000000BD3100081D320008E7
:100040005133000851330008513300085133000880
:100050005133000851330008513300085133000870
:100060005133000851330008513300085133000860
:100070005133000851330008513300085133000850
:100080005133000851330008513300085133000840
:100090005133000851330008513300085133000830
:1000A0005133000851330008513300085133000820
:1000B0005133000851330008513300085133000810
:1000C0005133000851330008513300085133000800
:1000D00051330008513300085133000851330008F0
:1000E00051330008513300085133000851330008E0
:1000F00051330008513300085133000851330008D0
:1001000051330008513300085133000851330008BF
:1001100051330008513300085133000851330008AF
:10012000513300085133000851330008513300089F
:10013000513300085133000851330008513300088F
:10014000513300085133000851330008513300087F
:10015000513300085133000851330008513300086F
:10016000513300085133000851330008513300085F
:1001700051330008513300085133000800000000DB
:10018000513300085133000810B5054C237833B9BA
:10019000044B13B10448AFF300800123237010BD5A
:1001A000A0020020000000008CE0000808B5064B0B
:1001B0001BB106480649AFF300800648036813B137
:1001C000054B03B1984708BD000000008CE0000813
:1001D000A40200209C02002000000000154B002B10
:1001E00008BF134B9D46A3F5803A00218B460F466E
:1001F0001348144A121A06F082FB0F4B002B00D052
:1002000098470E4B002B00D0984700200021040097
:100210000D000D48002802D00C48AFF3008006F016
:10022000A1FA2000290005F0C3FE05F037FF00BF4A
:100230000000080000000220000000000000000094
:10024000A002002040FD002000000000000000008F
:10025000F7B5424D2C68631C2B60414B1868543035
:1002600005F058FD3F4B4049185508782C461E466E
:100270000F4610B1012827D06EE02A68012A05D167
:100280001B78412B68D00023236065E0022A02D14D
:100290005B78432BF6E7032A02D19B78512BF1E7D9
:1002A000062A02D15B794F2BECE7072A54D19A79C1
:1002B0004B2AE8D11A79DB78286003EB02222B4B1A
:1002C0001A8001230B7047E0284A2B6811888B4263
:1002D000154641D1D81E325C452A3AD1334413F831
:1002E000022C4E2A35D113F8013C442B31D105F0B4
:1002F000B5FE1F4A00231060298803398B4204DAB7
:100300001168F05CC8540133F6E70025256002ACA3
:10031000184B44F8045D186815493D7022462B4679
:1003200002F021FA144B1149186822462B4602F0BC
:100330001AFA124B2146186802F043FA019B5BB18E
:100340000F4B4FF080521A60BFF34F8FBFF36F8F88
:1003500002E0002323603B7003B0F0BDC402002024
:10036000C0020020C8020020BC020020CC040020F3
:10037000D0040020580500200405002000050020BE
:1003800004ED00E0F8B506466C200F46154605F072
:1003900051FE2A46044600233946084D05F0C4FBA9
:1003A00020464FF4E1312C6005F00EFC286804492A
:1003B000002205F011FC3046F8BD00BFC00200204D
:1003C0005102000870B50D4616460024B44207DA03
:1003D000044B295D1868543005F090FC0134F5E7B2
:1003E000012070BDC002002037B502F10A0014469A
:1003F0000D4605F033FE164B4122186002701A6854
:10040000432151701A68512191701A68E01CD07014
:100410001A684F215171C0F307204B21107191715F
:100420000022A24205DA1868A95C10440132C171A9
:10043000F7E71A6822444521D1711A6822444E21F7
:1004400011721A68144444226272186803B030BDF5
:10045000C804002038B504461546FFF7C5FF05F16E
:100460000A02014692B22046BDE83840FFF7AABF13
:1004700030B587B00021012201A8FFF783FF704B40
:1004800003A918684FF0FF32012302F0C3F96D4B46
:1004900004A918684FF0FF32012302F0BBF96A4B40
:1004A00005A918684FF0FF32012302F0B3F9674B3A
:1004B000002118684FF0FF320B4602F0ABF9644B95
:1004C00002A918684FF0FF32002302F0A3F9614B34
:1004D0000DF1060118684FF0FF32002302F09AF97F
:1004E0005D4B9A6811685A68114201D1DB6801E0DE
:1004F000DB6812041A60029B1B78013B102BD6D8D4
:1005000001A252F823F000BF4D0500084D05000878
:100510005D0500086F05000893050008B505000893
:10052000AF040008AF040008AF040008AF040008DF
:10053000AF040008AF040008AF040008AF040008CF
:10054000AF040008AF040008E1050008022005F030
:1005500085FD029B1B780370044612E0022005F023
:100560007DFD029B1B7803700446049B07E002207C
:1005700005F074FD029B1B780370059B04461B78F5
:100580000BB1AA2300E0FF23637001A821460222D9
:1005900023E0052005F062FD029B1B7803700446F2
:1005A0000023049A1A445178E2180133042B517045
:1005B000F7D10FE0052005F051FD029B1B78037079
:1005C00004460023059A1A445178E2180133042B9B
:1005D0005170F7D101A821460522FFF73BFF2BE020
:1005E000BDF80600013805F039FD00230446BDF8CA
:1005F0000620013A934203F1010305DA029AD15C25
:10060000E21802F8011CF2E72146039801F09DFD73
:10061000022005F023FD029B1B7803700546AA23E8
:100620004370294601A80222FFF714FF284605F06F
:10063000FFFC002C3FF43BAF204605F0F9FC36E709
:100640004805002050050020E80400200005002097
:100650005805002004050020300500202DE9F04356
:10066000ADF55D7D5CAE00214FF4007230461CADEF
:1006700006F045F9924F00214FF48072284606F0AB
:100680003EF9002138684FF0FF320B4602F0C2F805
:1006900001281ED1002002F001FF049004A806F0FA
:1006A00087F820210346874A0CA807F0E5F81323B2
:1006B0000CAA00938449854B854805F035FB854994
:1006C000834805F031FB002138680A460B4601F0EB
:1006D000ABFF814B02A918684FF0FF32012302F0F3
:1006E00099F800247D4B002118684FF0FF320B462B
:1006F00002F090F8002138684FF0FF320B4602F00C
:1007000089F801281FD1002002F0C8FE049004A837
:1007100006F04EF8202103466A4A0CA807F0ACF810
:1007200019230CAA00936849684B694805F0FCFA44
:100730006B49674805F0F8FA614B002118680A46D2
:100740000B4601F071FF0CA80021402206F0D7F8FB
:10075000DFF89481029804A900F092FE9DF81190B0
:10076000B8F1010809F010095FFA89F900F0A380D7
:100770000A2002F013FBB9F1000FEBD040220CA9C4
:10078000029800F0D8FE0221029801F05CF802986D
:1007900001F09FFC9DF83030532B40F087809DF88E
:1007A0003130542B40F082809DF83230412B7DD186
:1007B0009DF83330522B79D19DF83430542B75D1BC
:1007C0009DF83B304F2B71D19DF83C304B2B6DD1B8
:1007D0009DF835309DF836E09DF838109DF83A20A8
:1007E00003EB0E2E9DF8373003EB01219DF83930D5
:1007F00003EB02220CAB13441B7B442B56D10CABF6
:100800001344D87A4E2851D19B7A452B4ED14FF0C4
:10081000300C0CFB01FC0023D01E83420BD20DF1E7
:100820003008984406EB0C00184498F80D8000F846
:10083000308C0133F0E77145044437D100220023A6
:10084000AB540132B2F5807FF9D1A34203D0F25C00
:10085000EA540133F9E7002138684FF0FF320B46C4
:1008600001F0D8FF012820D1002002F017FE0390EC
:1008700003A805F09DFF20210346124A04A806F0B4
:10088000FBFF4C2300931049104B114804AA05F0BC
:100890004BFA14490E482A4605F046FA084B002147
:1008A00018680A460B4601F0BFFE0024029840215A
:1008B00000F0B3FF16E70DF55D7DBDE8F08300BFE6
:1008C0001805002014D1000829D100083DD10008E6
:1008D000C005002055D10008EC040020D8050020F8
:1008E0006DD100087FD1000890D003002DE9F043BE
:1008F000A94E002195B030684FF0FF320B4601F051
:1009000089FF01281ED1002002F0C8FD0A900AA824
:1009100005F04EFF20210346A04A0CA806F0ACFFCC
:1009200012230CAA00939E499E4B9F4805F0FCF9A8
:100930009E499D4805F0F8F9002130680A460B46AB
:1009400001F072FE0A2005F075FB14A9984B41F8DE
:10095000440D4FF0FF321868002301F065FE34208B
:1009600005F068FB4FF0FF350523072106220095AF
:10097000814605F069F8102005F05CFB0021074670
:10098000102205F0BCFF02210122384602F012FDC0
:10099000102005F04FFB00210446102205F0AFFFA8
:1009A00020464521012202F005FD142005F042FBFE
:1009B000234649463A46804600F042FD14A97D4B45
:1009C00041F8408D18682A46002301F02DFE049856
:1009D00000F056FE044638BB306821462A462346BE
:1009E00001F018FF01281FD1204602F057FD0A90A0
:1009F0000AA805F0DDFE20210346684A0CA806F08F
:100A00003BFF1E230CAA00936549664B664805F020
:100A10008BF96949644805F087F95F4B21461868EE
:100A20002246234601F000FE049800F0A9FF044688
:100A300040BB306821464FF0FF32234601F0EAFE0A
:100A400001281FD1204602F029FD0A900AA805F0CE
:100A5000AFFE20210346514A0CA806F00DFF2323C8
:100A60000CAA00934E494F4B4F4805F05DF953498E
:100A70004D4805F059F9484B21461868224623464F
:100A800001F0D2FD04980F2101F006FB044640BBA3
:100A9000306821464FF0FF32234601F0BBFE0128AB
:100AA0001FD1204602F0FAFC0A900AA805F080FE49
:100AB00020210346394A0CA806F0DEFE28230CAAA2
:100AC00000933749374B384805F02EF93C493648F2
:100AD00005F02AF9304B214618682246234601F0DA
:100AE000A3FD08230093049804210322062301F0A8
:100AF000B3FA044640BB306821464FF0FF3223462C
:100B000001F088FE01281FD1204602F0C7FC0A90A0
:100B10000AA805F04DFE20210346204A0CA806F045
:100B2000ABFE2D230CAA00931D491E4B1E4805F059
:100B3000FBF824491C4805F0F7F8174B21461868C4
:100B40002246234601F070FD04980AA900F0CAFD70
:100B50000446002844D1306821464FF0FF32234636
:100B600001F058FE01283BD1204602F097FC089086
:100B700008A805F01DFE20210346084A0CA806F02F
:100B80007BFE33230CAA00930549064B064805F06B
:100B9000CBF80D491AE000BF1805002014D1000859
:100BA00029D1000882D10008C00500208DD100089D
:100BB000E8040020480500209CD10008ADD10008C1
:100BC000CDD10008E5D10008FED10008A64805F007
:100BD000ABF8A64B214618682246234601F024FDB7
:100BE000002130684FF0FF320B4601F013FE012860
:100BF00025D1002002F052FC089008A805F0D8FD8D
:100C0000202103469A4A0CA806F036FE35230093AD
:100C10009849994B94480CAA05F086F89DF82A301B
:100C20009DF829209549904803EB022205F07CF8B5
:100C30008E4B002118680A460B4601F0F5FC04981B
:100C40008F4900F011FE044640BB306821464FF04A
:100C5000FF32234601F0DEFD01281FD1204602F0BD
:100C60001DFC089008A805F0A3FD20210346804A3A
:100C70000CA806F001FE39230CAA00937D497E4B97
:100C8000794805F051F87F49774805F04DF8774BE2
:100C9000214618682246234601F0C6FC0021306830
:100CA0004FF0FF320B4601F0B5FD012820D10020A6
:100CB00002F0F4FB089008A805F07AFD2021034615
:100CC0006B4A0CA806F0D8FD3B23009369496A4B98
:100CD00065480CAA05F028F86B49694A624805F096
:100CE00023F8624B002118680A460B4601F09CFC71
:100CF00014A90024002561E90E45049800F01CFDAC
:100D0000074640BB306839464FF0FF323B4601F0A2
:100D100081FD01281FD1384602F0C0FB089008A8C9
:100D200005F046FD20210346514A0CA806F0A4FD1B
:100D300040230CAA00934F494F4B4B4804F0F4FF5B
:100D40005249494804F0F0FF484B394618683A4682
:100D50003B4601F069FC0498052100F074FD07464C
:100D600048BB306839464FF0FF323B4601F052FD38
:100D7000012820D1384602F091FB089008A805F020
:100D800017FD202103463A4A0CA806F075FD4523BD
:100D900000933849384B34480CAA04F0C5FF3C494D
:100DA0003148052204F0C0FF304B394618683A46F6
:100DB0003B4601F039FC4FF4967001F0EFFF0498C8
:100DC000022100F040FD074648BB306839464FF02D
:100DD000FF323B4601F01EFD012820D1384602F0CB
:100DE0005DFB089008A805F0E3FC20210346204A9B
:100DF0000CA806F041FD4C2300931E491E4B1A48D7
:100E00000CAA04F091FF22491748022204F08CFF3B
:100E1000164B394618683A463B4601F005FC0498E3
:100E2000072100F010FD0746002841D130683946FF
:100E30004FF0FF323B4601F0EDFC012838D1384637
:100E400002F02CFB089008A805F0B2FC2021034614
:100E5000074A0CA806F010FD512300930549064BE4
:100E600001480CAA16E000BFC005002018050020AC
:100E700014D1000829D1000882D1000813D200083B
:100E80008047A11925D2000844D2000865D2000885
:100E900082D2000804F048FF41494248072204F08A
:100EA00043FF414B394618683A463B4601F0BCFBCC
:100EB000049801F00EF9074640BB306839464FF000
:100EC000FF323B4601F0A6FC01281FD1384602F054
:100ED000E5FA089008A805F06BFC20210346334A88
:100EE0000CA806F0C9FC56230CAA00933049314BDC
:100EF0002C4804F019FF30492A4804F015FF2A4B0A
:100F0000394618683A463B4601F08EFBCDE9084564
:100F100004980AA900F0E6FB9DF82930442B039BB6
:100F200005D19DF82A20632A01D1012200E0002288
:100F30001A7008A9049800F0FFFB002130684FF0F8
:100F4000FF320B4601F066FC012823D1002002F09D
:100F5000A5FA14AB43F83C0D184605F029FC2021F6
:100F60000346124A0CA806F087FC6223009310493E
:100F7000104B0C480CAA04F0D7FEDDE908230F49FA
:100F8000084804F0D1FE084B002118680A460B46B9
:100F900001F04AFB4FF47A7001F000FFB8E700BFA0
:100FA00082D20008C00500201805002014D10008D6
:100FB00029D1000882D10008A7D20008C0D20008B9
:100FC000104B07B59A6811685A68114201D1DB6865
:100FD00001E0DB68120402A91A60002341F8043D15
:100FE000094B186801F0EDFB019B3BB1074B4FF03B
:100FF00080521A60BFF34F8FBFF36F8F03B05DF85D
:1010000004FB00BF30050020D805002004ED00E0FF
:101010002DE9F043AF4C002193B020684FF0FF3230
:101020000B4601F0F7FB01281ED1002002F036FA32
:10103000089008A805F0BCFB20210346A64A0AA890
:1010400006F01AFC0F230AAA0093A449A44BA54852
:1010500004F06AFEA449A34804F066FE002120685B
:101060000A460B4601F0E0FA0A2004F0E3FF12A959
:101070009E4B41F83C0D4FF0FF321868002301F001
:10108000D3FA342004F0D6FF4FF0FF352A232C2169
:101090002B220095814604F0D7FC102004F0CAFFF3
:1010A00000210746102205F02AFC2921012238469A
:1010B00002F080F9102004F0BDFF00210646102246
:1010C00005F01DFC3D210122304602F073F9142089
:1010D00004F0B0FF49463A463346804600F0B0F986
:1010E00012A9834B41F8388D18682A46002301F075
:1010F0009BFA002120682A460B4601F08BFB012851
:101100001FD1002002F0CAF9089008A805F050FB92
:1011100020210346704A0AA806F0AEFB1C230AAA47
:1011200000936E496E4B6F4804F0FEFD71496D48A7
:1011300004F0FAFD674B002118680A460B4601F0DF
:1011400073FA049800F09CFA054640BB20682946D3
:101150004FF0FF322B4601F05DFB01281FD12846DE
:1011600002F09CF9089008A805F022FB2021034614
:10117000594A0AA806F080FB1F230AAA0093574980
:10118000574B584804F0D0FD5B49564804F0CCFD5D
:10119000504B294618682A462B4601F045FA002193
:1011A00020684FF0FF320B4601F034FB01281FD1BD
:1011B000002002F073F9089008A805F0F9FA202140
:1011C0000346454A0AA806F057FB21230AAA0093C2
:1011D0004249434B434804F0A7FD4849414804F0C5
:1011E000A3FD3C4B002118680A460B4601F01CFA8F
:1011F0001A2118220823049800F079FA0823009392
:10120000042103220623049800F026FF049800F02E
:101210006DFD054640BB206829464FF0FF322B4646
:1012200001F0F8FA01281FD1284602F037F908909A
:1012300008A805F0BDFA20210346274A0AA806F0AF
:101240001BFB29230AAA00932449254B254804F0B7
:101250006BFD2B49234804F067FD1E4B2946186897
:101260002A462B4601F0E0F92649049800F0FCFAE2
:101270000621049800F0E7FA0221049800F0E3FA4E
:10128000049800F026FF049808A900F02BFA054600
:10129000002844D1206829464FF0FF322B4601F048
:1012A000B9FA01283BD1284602F0F8F8069006A8C2
:1012B00005F07EFA20210346074A0AA806F0DCFA68
:1012C00034230AAA00930549054B064804F02CFD77
:1012D0001AE000BF1805002014D1000829D1000829
:1012E000D8D20008C0050020E3D200085005002035
:1012F000EC040020F2D2000807D3000821D3000834
:1013000036D30008400ECF194449454804F00CFD7F
:10131000444B294618682A462B4601F085F90021DE
:1013200020684FF0FF320B4601F074FA012825D1F6
:10133000002002F0B3F8069006A805F039FA202143
:101340000346394A0AA806F097FA3623009337492C
:10135000374B33480AAA04F0E7FC9DF822309DF889
:10136000212034492E4803EB022204F0DDFC2D4BF2
:10137000002118680A460B4601F056F92E4A0498D7
:10138000402100F083FF00220023CDE906230498CA
:1013900008A900F0A7F99DF82130442B039B05D143
:1013A0009DF82220632A01D1012200E000221A7058
:1013B00006A9049800F0C0F9002120684FF0FF3220
:1013C0000B4601F027FA012823D1002002F066F82D
:1013D00012AB43F8340D184605F0EAF92021034614
:1013E000114A0AA806F048FA422300930F49104B0D
:1013F0000B480AAA04F098FC039A104908480132E5
:1014000004F092FC074B002118680A460B4601F0D5
:101410000BF94FF47A7001F0C1FCB8E74BD3000828
:10142000C00500201805002014D1000829D10008AB
:10143000D8D2000860D30008C10F000872D300089A
:1014400010B54160D968C3605B6882600B60D36887
:1014500052681A600446012001F060F942F21073EC
:10146000206023616068054904F03EFB6068082144
:10147000002204F02FFB204610BD00BF809698008C
:1014800070B50E46002104464FF0FF3200680B464F
:1014900001F0C0F901281DD1A3686068DA685B68B3
:1014A0001B041360036850211B689847002560687F
:1014B0000368FF211B68984770550135042DF6D14C
:1014C000A3682068DA685B68136000210A460B464F
:1014D00001F0AAF8012070BDF8B50E4600210446BF
:1014E000154600684FF0FF320B4601F093F90128D2
:1014F0001FD1A3686068DA685B681B041360036827
:1015000066211B68984700235F1CDBB2AB4206D202
:101510006068F15C0268126890473B46F4E7A36894
:101520002068DA685B68136000210A460B4601F008
:101530007BF80120F8BD2DE9F0410F46002104465B
:10154000164600684FF0FF320B4601F063F90128A0
:1015500021D1A3686068DA685B681B0413600368C4
:1015600077211B6898470023DDB2B54203F10108DB
:1015700007D260680368FF211B6898474346785587
:10158000F2E7A3682068DA685B68136000210A4606
:101590000B4601F049F80120BDE8F0812DE9F0414A
:1015A0000E460021044690461F4600684FF0FF3269
:1015B0000B4601F02FF901285ED1A368DA685B6859
:1015C0001B0413600025EBB2434506D26068715DD1
:1015D00003681B6898470135F5E7A368DA685B681C
:1015E0001360012001F0DAFBA368DA685B681B0472
:1015F0001360002523699D421BD260680368442163
:101600001B68984760680368FF211B689847C0B251
:10161000FF2805F101050CD0A368DA685B68136048
:10162000012001F0BBFBA268D368526812041A6063
:10163000E0E723699D4201D2002508E000212068EF
:101640000A460B4600F0F0FF0020BDE8F081EBB247
:10165000BB4207D260680368FF211B68984770553A
:101660000135F4E7A3682068DA685B68136000213D
:101670000A460B4600F0D8FF0120BDE8F0810000CB
:1016800013B5002104464FF0FF3200680B4601F00D
:10169000C1F8012813D1E368DA685B68136001F0D0
:1016A0007DFBE368DA685B681B0413600F2001F0C0
:1016B00075FB002120680A460B4600F0B5FF084B79
:1016C00018689A889B790090ADF804208DF8063050
:1016D0002046694607220023FFF760FF02B010BDD5
:1016E0008AD3000801220A700823FFF757BF37B5D5
:1016F000002401941324082B8DF800404FF00305BB
:101700004FF002048DF801108DF8022069464FF069
:1017100008024FF000038DF803408DF8045004BF19
:101720008DF803508DF80440FFF738FF003018BFE4
:10173000012003B030BD00002DE9F74300230093E2
:10174000019314238DF80030102388468DF8013062
:10175000694602220823FFF721FF81469DF8060013
:101760000BF014F900221E4B0AF0D4FF00221D4B8F
:101770000BF082F904469DF805000D460BF006F9C2
:1017800006469DF804000F460BF000F90022164BA8
:101790000BF072F902460B46304639460AF0BAFFA2
:1017A00002460B46204629460BF066F904469DF892
:1017B00007000D460BF0EAF800220C4B0BF05CF929
:1017C0000022094B0AF0A6FF02460B462046294696
:1017D0000AF09EFFC8E90001484603B0BDE8F08367
:1017E000000089400000303F000070400000E03FF2
:1017F0001FB50023312202938DF808200A0A8DF8C4
:101800000B208DF80C10052202A9FFF7C7FE00304F
:1018100018BF012005B05DF804FB1FB5002332227C
:1018200002938DF808200A0A03938DF80B208DF897
:101830000C10082202A9FFF7B1FE003018BF0120EA
:1018400005B05DF804FB07B534238DF804308DF83E
:101850000510022201A90023FFF7A0FE003018BFE7
:10186000012003B05DF804FB2DE9FF413E4B994296
:1018700007460C4669D83D4B994269D8A3F12463C9
:10188000A3F50343994266D8394B994266D8394B40
:10189000994294BF0522042294BF182510252023C5
:1018A0008DF801300123083200268DF802305123D3
:1018B0004FF011088DF803308DF804203846694642
:1018C000052233468DF80080FFF768FE002848D0D7
:1018D000294B029606EE904A93FBF5F5B8EE667A30
:1018E00006EE905AF8EEE67AB4FBF5F1C7EE277AE9
:1018F000013940248DF809408DF80C1004248DF82E
:1019000008808DF80A4006EE901AB8EE667A02A9B1
:1019100077EEC77A9FED197A67EE877AFCEEE77A61
:1019200017EE903A1A0CA3EB0243180A8DF80D201B
:101930008DF80E008DF80F30384608223346FFF739
:101940002DFE801B18BF01200BE000220425A6E716
:1019500001220625A3E702220825A0E703220C2581
:101960009DE704B0BDE8F0813F72052A3FDD4A1FC4
:10197000BFD93E0E3FCE8C0A00879303000000497A
:10198000F0B5084DC3B004462B79286801908DF856
:101990000830204601A905220023FFF7FFFD18B9F2
:1019A000002092E191D300082B4603A953F8050FBC
:1019B00003901B798DF81030204605220023FFF795
:1019C000EDFD0028ECD02B4613A953F80A0F139015
:1019D0009B88ADF85030204606220023FFF7DEFD3D
:1019E0000028DDD02B4605A953F8100F05901B7970
:1019F0008DF81830204605220023FFF7CFFD002880
:101A0000CED02B4607A953F8150F07901B798DF8F8
:101A10002030204605220023FFF7C0FD0028BFD05C
:101A20002B4615A953F81A0F15909A889B79ADF893
:101A300058208DF85A30204607220023FFF7AEFDCC
:101A40000028ADD02B4609A953F8210F09901B7926
:101A50008DF82830204605220023FFF79FFD00283F
:101A60009ED02EAA05F12603174636351868596808
:101A7000164603C60833AB423246F7D120463946F4
:101A800010220023FFF78AFD002889D0904B32AA4C
:101A900003F1100796463E4618685968154603C577
:101AA0000833BB422A46F7D1204671461022002354
:101AB000FFF774FD00283FF473AF306833790B9063
:101AC0008DF8303020460BA905220023FFF766FD74
:101AD00000283FF465AF7F4D286869681DAB03C3DC
:101AE000A86818601DA920460C220023FFF756FDA8
:101AF00000283FF455AF26AA05F10C03174614350C
:101B000018685968164603C60833AB423246F7D107
:101B100018681B7930603371204639460D22002346
:101B2000FFF73CFD00283FF43BAF6B4D2868696828
:101B3000AA7A17AB03C3298919809A70204617A97E
:101B40000B220023FFF72AFD00283FF429AF2B4684
:101B50000DA953F80B0F0D901B798DF838302046E6
:101B600005220023FFF71AFD00283FF419AF2AAA27
:101B700005F110031746183518685968164603C64C
:101B80000833AB423246F7D118681B7930603371A5
:101B9000204639460D220023FFF700FD00283FF4C0
:101BA000FFAE4E4D2868696820AB03C3A868186073
:101BB00020A920460C220023FFF7F0FC00283FF468
:101BC000EFAE2B460FA953F80C0F0F901B798DF831
:101BD0004030204605220023FFF7E0FC00283FF4B8
:101BE000DFAE2B4611A953F8110F11901B798DF818
:101BF0004830204605220023FFF7D0FC00283FF4A0
:101C0000CFAE36AA05F1160317462635186859686F
:101C1000164603C60833AB423246F7D12046394652
:101C200010220023FFF7BAFC00283FF4B9AE2C4B7A
:101C30003AAA03F11007164618685968154603C5F5
:101C40000833BB422A46F7D12046314610220023F2
:101C5000FFF7A4FC00283FF4A3AE224B3EAA03F1F9
:101C6000100796463D4618685968164603C608335D
:101C7000BB423246F7D12046714610220023FFF7BF
:101C80008DFC00283FF48CAE28686968AA7A1AABEC
:101C900003C3298919809A7020461AA90B220023B0
:101CA000FFF77CFC00283FF47BAE0F4A10685168B8
:101CB00023AB03C39068186023A920460C2200239D
:101CC000FFF76CFC003018BF012043B0F0BD00BF2F
:101CD000C7D30008DCD30008F5D3000812D40008ED
:101CE00038D4000848D4000863D40008F0B5084D83
:101CF000C1B004462B79286800908DF80430204646
:101D0000694605220023FFF749FC18B9002091E13C
:101D100091D300082B4602A953F8050F02901B79B6
:101D20008DF80C30204605220023FFF737FC0028F1
:101D3000ECD02B4610A953F8DE0F10909A889B79AF
:101D4000ADF844208DF84630204607220023FFF7E7
:101D500025FC0028DAD02B4604A953F8150F04906F
:101D60001B798DF81430204605220023FFF716FC5E
:101D70000028CBD02B4612A953F81A0F12909A883C
:101D80009B79ADF84C208DF84E3020460722002379
:101D9000FFF704FC0028B9D02B4606A953F8210F01
:101DA00006901B798DF81C30204605220023FFF792
:101DB000F5FB0028AAD02CAA05F1260317463635D4
:101DC00018685968164603C60833AB423246F7D145
:101DD0002046394610220023FFF7E0FB002895D06B
:101DE000954B30AA03F1100796463E46186859688D
:101DF000154603C50833BB422A46F7D12046714633
:101E000010220023FFF7CAFB00283FF47FAF3068A1
:101E1000337908908DF82430204608A90522002344
:101E2000FFF7BCFB00283FF471AF844D2868696858
:101E30001AAB03C3A86818601AA920460C22002315
:101E4000FFF7ACFB00283FF461AF20AA05F10C03BB
:101E50001746143518685968164603C60833AB424E
:101E60003246F7D118681B79306033712046394605
:101E70000D220023FFF792FB00283FF447AF704D7F
:101E800028686968AA7A14AB03C3298919809A70F3
:101E9000204614A90B220023FFF780FB00283FF403
:101EA00035AF2B460AA953F80B0F0A901B798DF812
:101EB0002C30204605220023FFF770FB00283FF45A
:101EC00025AF24AA05F1100317461835186859687C
:101ED000164603C60833AB423246F7D118681B7961
:101EE00030603371204639460D220023FFF756FB40
:101EF00000283FF40BAF534B28AA03F108071646FE
:101F000018685968154603C50833BB422A46F7D1FD
:101F1000186899889B792860A980AB712046314662
:101F20000F220023FFF73AFB00283FF4EFAE464DA7
:101F300028682B790C908DF8343020460CA90522A6
:101F40000023FFF72BFB00283FF4E0AE2B460EA941
:101F500053F8050F0E901B798DF83C302046052272
:101F60000023FFF71BFB00283FF4D0AE34AA05F195
:101F70000A0317461A3518685968164603C6083307
:101F8000AB423246F7D12046394610220023FFF7F4
:101F900005FB00283FF4BAAE2C4B38AA03F110071A
:101FA000164618685968154603C50833BB422A46C9
:101FB000F7D12046314610220023FFF7EFFA002820
:101FC0003FF4A4AE224B3CAA03F1100796463D46CF
:101FD00018685968164603C60833BB423246F7D123
:101FE0002046714610220023FFF7D8FA00283FF45C
:101FF0008DAE28686968AA7A17AB03C3298919804E
:102000009A70204617A90B220023FFF7C7FA002871
:102010003FF47CAE0F4A106851681DAB03C3906853
:1020200018601DA920460C220023FFF7B7FA0030E4
:1020300018BF012041B0F0BDC7D30008DCD30008B1
:10204000F5D3000876D400081ED4000838D4000860
:1020500048D4000863D4000837B500241125009443
:102060008DF806308DF800509DF818308DF804106A
:1020700002258DF801508DF805208DF807300425D4
:102080006946082223468DF80250FFF787FA001BA5
:1020900018BF012003B030BD13B5002311220093F7
:1020A0008DF8002022228DF80120042201938DF862
:1020B00002208DF8051008221D2469468DF80420A1
:1020C0008DF80740FFF76AFA003018BF012002B010
:1020D00010BD07B5002302A900930193202301F846
:1020E000083D042269460823FFF758FA003018BF5C
:1020F000012003B05DF804FB73B505461446FFF7F5
:10210000EBF908B900201EE028462146FFF770FBD6
:102110000028F7D04FF4FA74284601A9FFF7B0F968
:102120009DF8046006F02006F6B2012000F036FEAD
:1021300026B9013CA4B2002CEED100E001242846CF
:10214000FFF7C7FF204602B070BD2DE9F04395B000
:102150001646804640220F4604A8002104F0CFFB1B
:102160003023B6FBF3F503FB1566332201350292EB
:10217000F21C0095039203FB05F9012453238DF80B
:10218000103041238DF8123052238DF813309DF812
:1021900000308DF815309DF801308DF8163054223E
:1021A000C4F30723AC4201948DF811208DF814205C
:1021B0008DF817408DF8183037D19DF80C308DF818
:1021C00019309DF80D308DF81A304F238DF81B30E3
:1021D0004B238DF81C30002303F10D02B342D2B221
:1021E0000AD014A90A4407EB09011944013311F874
:1021F000301C02F8401CEFE7F3B203F10D0214A902
:1022000051FA82F2452102F8401C03F10E0214A992
:1022100051FA82F24E2102F8401C0F3314AA52FAEE
:1022200083F3442203F8402C23E09DF808308DF816
:1022300019309DF809308DF81A304F238DF81B3076
:1022400030204B238DF81C3000FB04700023C11894
:1022500004AA1A44013311F8301C5173302BF6D103
:1022600045238DF84D304E238DF84E3044238DF8A4
:102270004F30404604A940220134FFF73DFFAC42F5
:102280007FF67CAF012015B0BDE8F083F0B585B0D6
:1022900017460C460646FFF71CFF542003F0CAFE03
:1022A0003921054603F06EFB0D4B284639461D606B
:1022B00003F094FB0023322202938DF80820220AB7
:1022C0008DF80B20304602A9082203938DF80C40AC
:1022D000FFF764F9003018BF012005B0F0BD00BF62
:1022E000D4040020014B0360704700BF90D4000865
:1022F00010B5034B0360044603F096FE204610BD64
:1023000090D4000810B5074B036003F118024C335A
:10231000044642658365543003F0AAFC024B2360F7
:10232000204610BD10D9000890D40008A0F1580034
:10233000FFF7E8BFA0F15400FFF7E4BF10B5044673
:10234000FFF7E0FF204603F06FFE204610BDA0F12E
:102350005800F3E7A0F15400F0E770B504460E46CC
:1023600015460021102204F0CAFA204631462A46BA
:1023700001F020F8204670BD10B503210122174856
:10238000174CFFF7EAFF1A2100221648FFF7E5FF76
:102390001B2100221448FFF7E0FF232100221348ED
:1023A000FFF7DBFF212101221148FFF7D6FF432170
:1023B00000221048FFF7D1FF142100220E48FFF73A
:1023C000CCFF2046002101220C4B03F0ADFB204640
:1023D0000B490C4ABDE8104003F021BE5C0500200B
:1023E0006C050020DC05002030050020F0040020F2
:1023F000080500201C050020D804002098D40008FF
:10240000052300088801002000F1080343604FF015
:10241000FF32C360036100238260036070470023C2
:102420000361704743684B609A688A609A6851609C
:1024300099600368086101330360704730B50C6828
:10244000631C01D1036907E000F108035A681568AD
:10245000A54201D81346F9E75A684A6091608B603B
:102460005960036808610133036030BD41688268C8
:1024700003698A60826851605968814208BF5A6066
:1024800000220261186801381860704738B5154697
:10249000026C044632B9056845BB406800F0EAFDAD
:1024A000656024E06DB9806804F005FAA268236CC9
:1024B00013446268A360934218D32368A36028463C
:1024C00015E0C06804F0F7F9236CE26821685B420C
:1024D0001A448A42E26002D262681344E360022D29
:1024E00004D1A36B13B1A36B013BA3630020A36BC7
:1024F0000133A36338BD026C30B503466AB1C468CA
:1025000045681444AC42C46024BF0468C460BDE89C
:1025100030400846D96804F0CEB930BD10B5044645
:1025200000F032FEA36C002B0CDD636A53B104F1A2
:10253000240000F0E7FC08B100F04CFDA36C013B67
:10254000A364EFE74FF0FF33A36400F02DFE00F02B
:102550001BFE636C002B0CDD236953B104F11000EA
:1025600000F0D0FC08B100F035FD636C013B636402
:10257000EFE74FF0FF336364BDE8104000F014BE96
:1025800038B504460D4600F0FFFD226CE06B236871
:10259000A3605043821A191813446160E36000215C
:1025A0004FF0FF33A1636364A36485B92369B3B1BA
:1025B00004F1100000F0A6FC012810D10A4B4FF0E6
:1025C00080521A60BFF34F8FBFF36F8F07E004F1A3
:1025D0001000FFF719FF04F12400FFF715FF00F0CA
:1025E000E3FD012038BD00BF04ED00E0F8B506466C
:1025F00017460D4611B14843013000E008465430FB
:1026000000F052FE044668B10DB9206002E000F10E
:1026100054030360E663256420460121FFF7B0FF01
:1026200084F850702046F8BD2DE9FF4104468846E5
:1026300001921D46002600F0A7FDA26BE36B9A42B3
:1026400001D3022D1AD1204641462A46FFF71EFF2C
:10265000636A33B104F1240000F054FC012809D16D
:1026600000E038B12C4B4FF080521A60BFF34F8F0F
:10267000BFF36F8F00F098FD012049E0019F17B96B
:1026800000F092FD43E016B902A800F071FC00F0E2
:102690008BFD00F093FA00F077FD636C013304BF0B
:1026A00000236364A36C013304BF0023A36400F020
:1026B0007BFD02A801A900F067FC18BB00F064FDD7
:1026C000A76BE66B00F070FDB74215D104F1100066
:1026D000019900F0E9FB2046FFF720FF00F0F6FA31
:1026E00008B10126A7E70C4B4FF080521A60BFF3E8
:1026F0004F8FBFF36F8FF4E72046FFF70FFF00F017
:10270000E5FAEEE72046FFF709FF00F0DFFA0020C8
:1027100004B0BDE8F08100BF04ED00E070B50646EE
:10272000542000F0C1FD0446D8B101230025C36345
:102730004FF0FF33856345604364056083648560C3
:10274000C560056480F850601030FFF75DFE04F14D
:102750002400FFF759FE204629462A462B46FFF75C
:1027600063FF204670BD70B504461546EFF3118631
:102770004FF4807282F31188BFF36F8FBFF34F8FD6
:10278000806BE26B904201D3022B16D11A46204691
:10279000FFF77CFEA36C01330AD1636A5BB104F1DD
:1027A000240000F0AFFB30B12DB10120286005E01E
:1027B000A36C0133A364012000E0002086F311889C
:1027C00070BD38B50C46EFF311854FF4807383F379
:1027D0001188BFF36F8FBFF34F8F826BC36B9A4229
:1027E00014D2836B01338363836C013309D1436A51
:1027F00053B1243000F086FB30B12CB101202060B1
:1028000005E0836C01338364012000E0002085F340
:10281000118838BD2DE9FF4104460F4601929846C4
:10282000002500F0B1FCA36B63B320463946E56890
:10283000FFF761FEB8F1000F10D1A36B013BA3635A
:10284000236813B900F04EFC60602369B3B104F152
:10285000100000F057FB012810D107E0636AE56023
:1028600063B104F1240000F04DFB38B12F4B4FF061
:1028700080521A60BFF34F8FBFF36F8F00F094FC4C
:10288000012050E0019E16B900F08EFC4AE015B917
:1028900002A800F06DFB00F087FC00F08FF900F05B
:1028A00073FC636C013304BF00236364A36C0133C6
:1028B00004BF0023A36400F077FC02A801A900F084
:1028C00063FB50BB00F060FCA56B00F06DFCF5B93C
:1028D000236833B900F058FC606800F081FB00F019
:1028E00063FC04F12400019900F0DEFA2046FFF7B2
:1028F00015FE00F0EBF908B1012592E70B4B4FF004
:1029000080521A60BFF34F8FBFF36F8FF4E72046FA
:10291000FFF704FE00F0DAF9EEE72046FFF7FEFDD0
:1029200000F0D4F9002004B0BDE8F08104ED00E02F
:10293000064A13681968064B11B94FF0FF3203E0DD
:102940001268D268D26852681A607047F005002099
:102950003C0700200E4B1A6810B550600D4A1268F3
:102960009042044607D20C4A10681968BDE810402E
:102970000431FFF763BD094A106819680431FFF795
:102980005DFD074B1A68944238BF1C6010BD00BF44
:102990001C0700203807002010060020F00500204A
:1029A0003C0700202DE9F84F0C9D0A9F824688467F
:1029B0009346994635B9900000F076FC054600280C
:1029C00000F0A980582000F06FFC044678B14FEA6F
:1029D0008B0B05635A462846A52103F090FF236B15
:1029E000ABF1040B5B4423F00706002506E0284604
:1029F00000F082FC8FE001350C2D08D0621918F828
:102A0000051082F8341018F80520002AF3D10025AB
:102A10000B2F34BFBB464FF00B0B04F104084046AC
:102A200084F83F50C4F82CB0C4F848B0E564FFF710
:102A3000F6FC04F11800FFF7F2FCCBF10C02A261E6
:102A400025652461646284F85450304651464A46F4
:102A500000F078FB0B9B206003B11C6000F094FB3E
:102A60002F4B304D1A68DFF8E89001321A602E685B
:102A700016BB2C601B68012B26D109EB060014360F
:102A8000FFF7C2FCF02EF8D1DFF8C8A0264E504662
:102A9000FFF7BAFC3046FFF7B7FC2448FFF7B4FC59
:102AA0002348FFF7B1FC2348FFF7AEFC224BC3F8E5
:102AB00000A0224B1E6007E0214B1B6823B92B6846
:102AC000DB6ABB4298BF2C601E4A13680133136057
:102AD0001D4A2364E36A1168012404FA03F00143E8
:102AE0001420116000FB03904146FFF79BFC00F0AF
:102AF0005BFB134B1B685BB12B68DB6ABB4207D2E5
:102B0000124B4FF080521A60BFF34F8FBFF36F8F9D
:102B10000120BDE8F88F4FF0FF30BDE8F88F00BF0F
:102B2000440700201C070020480700202007002041
:102B3000080700205C070020F00500201006002098
:102B4000F4050020400700207007002004ED00E09D
:102B500018060020FC0500201FB5002300930193F8
:102B600002930393104811495022FFF71BFF0128DD
:102B700016D14FF4807383F31188BFF36F8FBFF3C7
:102B80004F8F0B4B4FF0FF321A600A4B01221A6035
:102B9000094B00221A6005B05DF804EB00F068BB39
:102BA00005B05DF804FB00BF012E0008A2D40008A8
:102BB0003C070020F405002038070020024B1A686B
:102BC00001321A60704700BF34070020344B1B6885
:102BD0002DE9F047002B34D1324B1A6801321A60CC
:102BE0001E685EB9304A314B116818681060196070
:102BF0002F4B1A6801321A60FFF79AFE2D4FDFF84B
:102C0000C4803B68DFF8C0909E424FF000040DD3B3
:102C1000254B1A68126812B94FF0FF3305E01B68A4
:102C2000DB68DD686B689E4211D23B60D9F80030EA
:102C3000DB6A1422534358F80330022B28BF0124C7
:102C400025E01D4B1A6801321A6000241FE005F1CF
:102C5000040A5046FFF70AFCAB6A1BB105F11800E5
:102C6000FFF704FC154AEB6A106801219940014303
:102C70001420116000FB03805146FFF7D3FBD9F805
:102C80000030EA6ADB6A9A4228BF0124C0E70C4B95
:102C90001B68002B18BF01242046BDE8F08700BF49
:102CA0003407002038070020F0050020100600201F
:102CB000EC0500203C0700201406002070070020CF
:102CC00074070020180600201C07002070B500F0D3
:102CD0005BFA294B1A68013A1A601B680BB1002491
:102CE00046E0264B1B68002BF9D0254B1A680AB327
:102CF000DB68DC68261D04F11800FFF7B7FB3046DF
:102D0000FFF7B4FB1F4AE36A1168012505FA03F0D7
:102D1000014311601C4A142000FB03203146FFF7D9
:102D200081FB1A4BE26A1B68DB6A9A4224BF184B8C
:102D30001D60DAE7174C2368B3B9154B1B68012BEC
:102D4000CDD1154B4FF080521A60BFF34F8FBFF3B8
:102D50006F8F01240CE0FFF739FF10B10C4B0122FB
:102D60001A602368013B23602368002BF3D1E4E75A
:102D700000F01AFA204670BD3407002044070020F6
:102D80002007002070070020180600201C070020E4
:102D9000740700201406002004ED00E038B5044656
:102DA00040B9134B4FF080521A60BFF34F8FBFF3FF
:102DB0006F8F38BDFFF702FF0E4B1D6825440E4C88
:102DC00020680430FFF752FB48B90C4B19682268A1
:102DD000D26A012000FA02F221EA02021A602846B1
:102DE000FFF7B8FDFFF772FF0028DAD038BD00BF4B
:102DF00004ED00E0380700201C07002070070020C9
:102E000008B5114C2368002BFBD0104DFFF7D6FE00
:102E10002E68FFF75BFF002EF3D000F0B5F9EB68EA
:102E2000DD68281DFFF722FB094B1A68013A1A607A
:102E30002368013B236000F0B7F9286B00F05CFACF
:102E4000284600F059FADCE7F805002008070020C2
:102E5000440700200F4B1A680F4B0AB1012217E0FC
:102E60001A600E4B1B68B3FA83F30D4ADBB21421D0
:102E7000C3F11F0301FB032303F108015A685268E1
:102E80005A608A4204BF52685A605B68DA68054B30
:102E90001A60704734070020740700207007002074
:102EA000180600201C07002038B5124C0D4621687A
:102EB0001831FFF7C3FA20680430FFF7D7FA48B992
:102EC0000D4B19682268D26A012000FA02F221EA49
:102ED00002021A606B1C06D1216808480431BDE863
:102EE0003840FFF79FBA064B18682844BDE83840C1
:102EF000FFF730BD1C070020700700205C07002092
:102F00003807002038B5C368DC6804F11805284686
:102F1000FFF7ACFA104B1B687BB9251D2846FFF75D
:102F2000A5FA0E4AE36A1068012199400143116035
:102F30000B4A142000FB032000E00A482946FFF753
:102F400071FA094BE26A1B68DB6A9A4283BF074B3E
:102F500001201860002038BD3407002070070020D1
:102F600018060020200700201C07002074070020FE
:102F7000034B1B680360034B1B684360704700BF33
:102F8000EC0500203807002038B50D46044600F057
:102F9000FBF80E4B1A682B68591C10D00C490868B6
:102FA00021688842606801D082420AD2111A99428F
:102FB00007D2821A13442B602046FFF7D9FF002462
:102FC00000E0012400F0F0F8204638BD380700206A
:102FD000EC050020014B01221A60704774070020A5
:102FE0002DE9F041044600283BD01F4DC36A2A68F2
:102FF000D26A934235D28269002A04DB2A68D26AF7
:10300000C2F10C028261194F62694FF0140808FB8B
:1030100003739A4222D1261D3046FFF727FA144B3C
:1030200060B9E26A08FB02F857F8081031B919686C
:10303000012000FA02F221EA02021A602A681868E6
:10304000D26AE2620121914001431420196000FB21
:1030500002703146BDE8F041FFF7E4B92B68DB6A46
:10306000E362BDE8F08100BF1C07002018060020C5
:103070007007002070B5044608B9002070BDC36C0D
:10308000C16A826C013B9142C364F6D0002BF4D13B
:10309000051D2846FFF7EAF91049114B58B9E26AB5
:1030A00014205043085830B91868012606FA02F275
:1030B00020EA02021A60A26CE262C2F10C00A06176
:1030C0001868012404FA02F630431860142000FB4B
:1030D00002102946FFF7A6F9204670BD1806002009
:1030E00070070020044B1A681AB11A68D16C0131BC
:1030F000D1641868704700BF1C0700204FF480732C
:1031000083F31188BFF36F8FBFF34F8FFEE700008B
:1031100006480068006880F3088862B661B6BFF3AD
:103120004F8FBFF36F8F00DF00BF000008ED00E09E
:10313000DFF80C00016841F4700101607047000085
:1031400088ED00E04FF0807300E90A00054B40F87D
:103150000C3C6FF0020340F8202C40F8243C44382B
:10316000704700BFFD300008064B19680868B0E8DA
:10317000F04F80F30988BFF36F8F4FF0000080F3AA
:10318000118870471C0700204FF4807383F3118867
:10319000BFF36F8FBFF34F8F024B1A6801321A6073
:1031A000704700BF8C010020034A1368013B136085
:1031B0000BB983F3118870478C010020EFF309806D
:1031C000BFF36F8F144B1A681EF0100F08BF20ED6D
:1031D000108A20E9F04F10604DF8043D4FF48070E4
:1031E00080F31188BFF34F8FBFF36F8FFFF732FE6D
:1031F0004FF0000080F3118808BC19680868B0E837
:10320000F04F1EF0100F08BFB0EC108A80F3098851
:10321000BFF36F8F704700BF1C07002008B5EFF3A6
:1032200011834FF4807282F31188BFF36F8FBFF365
:103230004F8FFFF7CBFC18B1034B4FF080521A6051
:10324000002383F3118808BD04ED00E0064B1A68E3
:103250004FF47A73B2FBF3F2044B013A1A6007227F
:1032600043F8042C704700BFA001002014E000E0E8
:1032700008B50A4B1A681A601A681A60FFF7E6FF69
:10328000074B00221A60FFF753FF064B1A6842F003
:1032900040421A60FFF73CFFFFF730FF20ED00E0EF
:1032A0008C01002034EF00E038B5430704461CBF12
:1032B00020F007040834FFF781FC0C490B681BB9A8
:1032C0000B4B23F007030B600A4A13684EF6F770A6
:1032D0001C44844205D89C4203D90D6814601D44E7
:1032E00000E00025FFF7F2FC284638BD7CF70020FF
:1032F000840700207807002070470000DFF838D0EE
:10330000002100F004B80D4B5B58435004310C48C9
:103310000C4B42189A42FFF4F6AF0B4A00F003B888
:10332000002342F8043B094B9A42FFF4F9AF01F045
:1033300029FAFCF753FF70470000022098E00008CC
:1033400088010020A0020020A002002040FD0020F3
:10335000FFF7FEBF08B572B6962000F0E8F8962099
:1033600000F0E5F8F8E700000FB407B5054B04AA34
:103370001B6852F8041BD868019205F0C5FB0120B8
:1033800002F08CFE0802002070B50E460446154679
:1033900001F03EFA013609D02046002101F051FA31
:1033A00020462946BDE8704001F047BA70BD0022B2
:1033B000FFF7EABF70B50E460446154601F028FA3D
:1033C00001360ED0E368616805B90904204619602A
:1033D000012101F036FA20460021BDE8704001F0DD
:1033E0002CBA70BD10B50446013001D110BD0C31AE
:1033F000B1F900305A1C0BD0A342F8D1204689689D
:1034000001F0EAFB20460021BDE8104001F008BCB5
:103410000248BDE81040FFF7A7BF00BFA7D40008CF
:10342000884208B50AD0431C07D0013106D00448B1
:10343000FFF79AFF4FF0FF3008BD084608BD00BFF8
:10344000B8D40008B1F900305A1C05D0834201D12C
:10345000486870470C31F5E718467047421C10B5B4
:10346000044607D0FFF7EEFF431C044602D1024892
:10347000FFF77AFF204610BDC9D40008054B1B6832
:1034800010B5044603B19847034B1B680BB12046A7
:10349000984710BD900100209C010020084B1B683C
:1034A00010B504461BB1984708B9FFF7E7FF054B75
:1034B0001B680BB1984700E0184604B1206010BDAE
:1034C000940100209801002038B50368DB680446A9
:1034D000984763685A68236812B99B68984738BD53
:1034E0005B6815689847281A0028636808DC5A68E2
:1034F000916859601B68002BEBD050689847E8E74B
:103500005A68216810680B69984738BD0148FFF771
:10351000DBBF00BF1CD5000838B5044601F0B2FF80
:10352000054601F0AFFF401BA042FAD338BD4FF46F
:103530007A735843FFF7F0BF7047000008B5094B96
:103540001A6842F400721A601A6842F480621A60C3
:10355000032000F017F80F2000F0E2FFFFF7ECFF68
:10356000002008BD003C0240024B1A6801321A607C
:10357000704700BF88F70020014B1868704700BFF4
:1035800088F70020074AD36823F4E0631B041B0C70
:1035900043F0BF6343F4003300F0070043EA002325
:1035A000D360704700ED00E02DE9F7430F6800237A
:1035B00001229A4002EA0705954240F0CF804C680C
:1035C00024F01006022E16D14FEAD30C00EB8C0C1F
:1035D00003F00708DCF820204FEA88084FF00F09B5
:1035E00009FA08F922EA09090A6902FA08F849EA17
:1035F0000802CCF820205A004FF0030CD0F80090BD
:103600000CFA02FC6FEA0C0C04F003080CEA09093E
:1036100008FA02F8013E49EA0808012EC0F80080C5
:1036200010D886680CEA0608CE68964048EA060676
:103630008660466826EA0508C4F300169E4048EAFC
:1036400006064660C6680CEA060C8E6896404CEA90
:103650000602C260E20040F18180444A566C46F4A2
:1036600080465664526C23F0030606F1804602F44D
:10367000804206F59C36019203F0030C019AB26871
:103680004FEA8C0C4FF00F0808FA0CF822EA0808F1
:10369000374A904222D002F58062904220D002F553
:1036A000806290421ED002F5806290421CD002F5EA
:1036B000806290421AD002F58062904218D002F5E2
:1036C0008062904216D002F58062904214D002F5DA
:1036D0008062904214BF092208220EE000220CE012
:1036E00001220AE0022208E0032206E0042204E0AC
:1036F000052202E0062200E0072202FA0CF242EA6A
:103700000802B2601B4ED6F800C0EA4314F4803FB2
:1037100014BF45EA0C0C02EA0C0CC6F800C076682F
:1037200014F4003F14BF45EA060C02EA060C114EE1
:10373000C6F804C0D6F808C014F4801F14BF45EAC8
:103740000C0C02EA0C0CC6F808C0F668A40258BFBC
:1037500002EA0605074A48BF3543D5600133102BFE
:103760007FF426AF03B0BDE8F08300BF003802400D
:1037700000000240003C01404FF4807393FAA3F331
:10378000B3FA83F3DBB29B0003F1844303F56023B8
:1037900001221A6070470000036873B5DE07044613
:1037A00003D423689D074CD48FE0854B9A6802F0C0
:1037B0000C02042A07D09A6802F00C02082A0BD1E6
:1037C0005B68580208D57E4B1B689903E9D563688E
:1037D000002BE6D101205FE17A4D00232B70FFF72B
:1037E000CBFE0646764B1B689A0308D5FFF7C4FE4E
:1037F00041F28833801B9842F4D903204CE12379AD
:103800002B70636873B1FFF7B7FE05466C4B1B68FE
:103810009B03C6D4FFF7B0FE41F28833401B9842A9
:10382000F4D9EAE7FFF7A8FE0546654B1B689E033F
:10383000B7D5FFF7A1FE41F28833401B9842F4D977
:10384000DBE75F4B9A6812F00C0F07D09A6802F022
:103850000C02082A0AD15B68580207D4584B1A6830
:10386000910715D5E268012AB4D111E0E268564B00
:10387000EAB101221A60FFF77FFE0546504B1A6835
:10388000920705D4FFF778FE401B6428F6D9B4E709
:103890001A68F82191FAA1F1B1FA81F12369C9B24C
:1038A00022F0F8028B401343454A13600DE01A6082
:1038B000FFF762FE0546424B1B689B0705D5FFF7E5
:1038C0005BFE401B6428F6D997E723681E0703D4E4
:1038D00023685D074BD51FE062693C4B72B1012242
:1038E0001A60FFF749FE0546354B5B6F9807EFD42A
:1038F000FFF742FE401B6428F6D97EE71A60FFF707
:103900003BFE05462E4B5B6F9907E1D5FFF734FE72
:10391000401B6428F6D970E7294B1A6C42F080529C
:103920001A641B6C03F080530193019B284B1A68A7
:1039300042F480721A60FFF71FFE0546244B1B6895
:10394000DA0517D5234D00232B70FFF715FE064629
:103950001B4B1B6F9B0713D4237A2B70A368FBB1FF
:10396000FFF70AFE0546164B1B6F9E0710D5A3698D
:1039700093BB76E0FFF700FE401B6428DED93CE7EE
:10398000FFF7FAFD41F28833801B9842E0D934E713
:10399000FFF7F2FD41F28833401B9842E3D92CE750
:1039A000FFF7EAFD0546064B1B6F9807DFD5FFF7CB
:1039B000E3FD41F28833401B9842F4D91DE700BF74
:1039C000003802400238024000004742800E474261
:1039D0000070004070380240304A926802F00C02D9
:1039E000082A3FF4F7AE2E4D022B4FF000032B6058
:1039F00045D1FFF7C1FD0646284B1B68990132D41B
:103A000047F6C07393FAA3F3B3FA83F34FF4403647
:103A100096FAA6F6B6FA86F64FF0706090FAA0F025
:103A2000B0FA80F0216AE2690A43D9B2636A8B4036
:103A30001A43A36A5B08013BF6B203FA06F642EAB0
:103A40000603E26AC0B202FA00F00343134843607F
:103A500001232B60FFF790FD0446104B1B689A0171
:103A600007D5002018E0FFF787FD801B6428C3D925
:103A7000C3E6FFF781FD001B6428EED9BDE6FFF722
:103A80007BFD0446054B1B689B01EAD5FFF774FDDF
:103A9000001B6428F6D9B0E602B070BD00380240C1
:103AA000600047427E4B1A6802F00F02914270B5E7
:103AB00004460D4677D9CAB21A701B6803F00F038B
:103AC0008B4201D0012070BD03689E0706D5754A60
:103AD000A168906820F0F00001439160DD070BD4ED
:103AE0002368580740F1CC806E4AE168906820F462
:103AF000E05001439160C3E063686A4A012B03D13F
:103B0000126812F4003F08E0991E0129126802D8D9
:103B100012F0007F01E012F0020FD3D0614A9168E9
:103B200021F003010B439360FFF726FD6368012B2F
:103B300005460ED15B4B9B6803F00C03042BCFD0E2
:103B4000FFF71AFD41F28833401B9842F2D9032057
:103B500070BD022B0DD1534B9B6803F00C03082B57
:103B6000BED0FFF709FD41F28833401B9842F2D9DD
:103B7000EDE7032B05D04B4B9B6813F00C0F0AD1DC
:103B8000AEE7484B9B68FFF7F7FC41F28833401BD8
:103B90009842F6D9DBE7FFF7EFFC41F28833401B90
:103BA0009842E8D9D3E70368990706D53D4AA1684A
:103BB000906820F0F00001439160DA0709D4384B97
:103BC000EAB21A701B6803F00F03AB427FF47AAFBE
:103BD00086E76368334A012B03D1126812F4003F71
:103BE00008E0991E0129126802D812F0007F01E056
:103BF00012F0020F3FF466AF2A4A916821F00301E8
:103C00000B439360FFF7B8FC6368012B06460DD1A8
:103C1000244B9B6803F00C03042BD0D0FFF7ACFCC3
:103C200041F28833801B9842F2D990E7022B0DD1E4
:103C30001C4B9B6803F00C03082BC0D0FFF79CFCC7
:103C400041F28833801B9842F2D980E7032B05D0DC
:103C5000144B9B6813F00C0F0AD1B0E7114B9B6813
:103C6000FFF78AFC41F28833801B9842F6D96EE751
:103C7000FFF782FC41F28833801B9842E8D966E75F
:103C80001B0707D5074B21699A6822F4604242EA74
:103C9000C1029A600F2000F043FC002070BD00BFFD
:103CA000003C0240003802401F4B9A6802F00C02B0
:103CB000042A37D0082A01D01C48704759685A682E
:103CC000586812F4800F01F03F0147F6C0720BD024
:103CD00092FAA2F3B3FA83F3DBB20240DA40144B58
:103CE000B3FBF1F353430CE092FAA2F2B2FA82F280
:103CF00047F6C07303400D48D2B2D340B0FBF1F198
:103D00004B43094A50684FF4403292FAA2F2B2FA99
:103D100082F2D2B200F44030D04001304000B3FB18
:103D2000F0F0704702487047003802400024F40069
:103D300000127A0008B5FFF7B7FF094B9A68F02325
:103D400093FAA3F3B3FA83F302F0F002DBB222FAA0
:103D500003F3044AD35CD840034B186008BD00BF8E
:103D60000038024024D50008A001002008B5FFF764
:103D7000E1FF084B9A684FF4E05393FAA3F3B3FAC8
:103D800083F302F4E052DBB222FA03F3024AD35C7B
:103D9000D84008BD0038024024D5000808B5FFF718
:103DA000C9FF084B9A684FF4604393FAA3F3B3FA40
:103DB00083F302F46042DBB222FA03F3024AD35CDB
:103DC000D84008BD0038024024D50008704738B5F7
:103DD0000368DA6822F0A002DA600446FFF7CCFB41
:103DE00005462368DB689B0607D4FFF7C5FB401B2D
:103DF000B0F57A7FF5D9032038BD002038BD38B53D
:103E00000368DA685206044601D5002038BD4FF039
:103E1000FF32DA60FFF7B0FB05462368DB685B061C
:103E2000F3D4FFF7A9FB401BB0F57A7FF5D9032047
:103E300038BD10B5044600283DD0437F03F0FF0293
:103E400013B90277FFF7C2FF022363772368CA2200
:103E50005A6253225A622046FFF7D1FF236820B1ED
:103E6000FF225A620423637725E09A6822F4E00275
:103E700022F040029A6099686268114322691143F6
:103E800062690A439A60E2681A611969A26841EAA4
:103E900002421A61DA6822F08002DA601A6C22F4B7
:103EA00080221A64196CA2690A431A64FF225A62BA
:103EB0000123637710BD012010BD0023092803D919
:103EC0000A380133C0B2F9E740EA0310C0B27047C4
:103ED0002DE9F843037F012B04460D464FF00206FF
:103EE00066D00123037703684677087891F801804C
:103EF0008E789B68AAB913F0400308BFCB70FFF718
:103F0000DCFF81464046FFF7D8FF80463046FFF78A
:103F1000D4FFEF7840EA074040EA094747EA08271C
:103F20000BE013F0400308BFCB704FEA082848EAC3
:103F30000040CF78064346EA07472368CA225A6200
:103F400053225A622046FFF75AFF2368064630B1D3
:103F5000FF225A6204236377002323771FE007F0D0
:103F60007F3020F0FE4018609A6822F480229A6028
:103F70009968EA680A4329690A439A60DA6822F074
:103F80008002DA609B689B060BD42046FFF71FFF78
:103F900038B12368FF225A6204236377267701260B
:103FA00006E02368FF225A62012363770023237708
:103FB0003046BDE8F8832DE9F843037F012B044622
:103FC0000D464FF0020310D00121017743776B7843
:103FD000E87895F802802F78002A4AD1DA0606D5CB
:103FE00023F010030A336B7001E01D4649E0FFF730
:103FF00064FF81466878FFF760FF05464046FFF79B
:104000005CFF40EA473040EA094646EA0526236855
:10401000CA225A6253225A622046FFF7F0FE2368F2
:10402000054630B1FF225A620423637700232377C9
:1040300015E026F07F4020F0C0005860DA6822F0DA
:104040008002DA609B689B060BD42046FFF7BFFE18
:1040500038B12368FF225A6204236377257701254C
:104060000FE02368FF225A6201236377002323773E
:1040700007E01E0246EA004646EA080646EA4736D8
:10408000C5E72846BDE8F883030903EB830300F086
:104090000F0000EB4300C0B27047036870B50C46D8
:1040A000996A616019691B68C3F30540C3F306266A
:1040B00003F07F0503F48003C1F30E011B0CA16024
:1040C00020706670A570E37052B9FFF7DDFF2070B5
:1040D0003046FFF7D9FF60702846FFF7D5FFA07084
:1040E000002070BD03685B6870B5C3F30740C3F37D
:1040F000042603F03F05C3F342330C46C8704E70EC
:104100008D700B7052B9FFF7BFFFE0703046FFF7BC
:10411000BBFF60702846FFF7B7FFA070002070BD9E
:10412000704710B50446002836D090F8513003F09F
:10413000FF021BB980F85020FFF7F2FF6168A0680A
:104140000843E1680843216902230843616984F850
:10415000513023680843E1691A680843216A22F054
:1041600040021A600843A269A16A014302F4007088
:1041700001431960120C616A02F004021143E26A01
:1041800059601A61DA6922F40062DA6100200123C1
:10419000606584F8513010BD012010BD70470000EB
:1041A0002E4A0368904212D0B0F1804F0FD0A2F592
:1041B0007C4290420BD002F58062904207D002F51B
:1041C0008062904203D002F57842904218D14A684A
:1041D00023F070031343214A904237D0B0F1804F4F
:1041E00034D01F4A904231D002F5806290422DD0E7
:1041F00002F58062904229D002F57842904225D0A3
:10420000184A904222D002F5806290421ED002F5F8
:10421000806290421AD0A2F59832904216D002F5F0
:104220008062904212D002F5806290420ED003600C
:104230008B68C3620B688362084B98420BD003F50E
:104240008063984207D0012343617047CA6823F412
:1042500040731343EBE70B690363F4E7000001408D
:10426000000400400040014010B50446A0B190F8A1
:10427000393003F0FF021BB980F83820FFF78EFFBA
:10428000022384F839302068211DFFF789FF0123BC
:1042900084F83930002010BD012010BD10B5012375
:1042A000046A8B4024EA03030362036A8A401343CF
:1042B000036210BD10B5044601220068FFF7EEFF4F
:1042C0002368084A934203D002F58062934203D1E7
:1042D0005A6C42F400425A641A6842F001021A60B1
:1042E000002010BD000001402DE9F8430568C368B7
:1042F0002A69044622F44052A1681343C269006946
:104300002B61EB680843616923F4164301431143B1
:1043100023F00C030B43EB606969A36921F440713E
:104320000B43B2F5004F6B61404B36D19D4203D039
:1043300003F580639D4216D1FFF730FD63681927AE
:1043400078435B00B0FBF3F8FFF728FD6368642651
:10435000B8FBF6F878435B004FEA0818B0FBF3F9B6
:10436000FFF71CFD15E0FFF701FD636819275B00EF
:104370007843B0FBF3F8FFF7F9FC63686426B8FBF9
:10438000F6F878435B004FEA0818B0FBF3F9FFF743
:10439000EDFC636878435B0034E09D4202D0244B1F
:1043A0009D4216D1FFF7FAFC6368192778439B00FA
:1043B000B0FBF3F8FFF7F2FC63686426B8FBF6F88D
:1043C00078439B004FEA0818B0FBF3F9FFF7E6FCCF
:1043D00015E0FFF7CBFC636819279B007843B0FB1F
:1043E000F3F8FFF7C3FC63686426B8FBF6F878437C
:1043F0009B004FEA0818B0FBF3F9FFF7B7FC6368BE
:1044000078439B00B0FBF3F7B7FBF6F706FB179971
:104410004FEA091909F13209B9FBF6F606F00F0661
:1044200046EA0806AE60BDE8F88300BF0010014010
:1044300000140140704710B5044630B390F839308D
:1044400003F0FF021BB980F83820FFF7F3FF0223C7
:1044500084F839302368DA6822F40052DA602046A2
:10446000FFF742FF23681A6922F490421A615A69E1
:1044700022F02A025A61DA6842F40052DA6000201F
:104480000123E06384F8393010BD012010BD000025
:104490000C4A10B594689268B2F1006F23460DD1B2
:1044A000094B04F160420432D25843F8042F074A02
:1044B0009342F6D1034A4FF000539360103043F813
:1044C000201010BD00ED00E0FCFFFF1F8401002064
:1044D000114A38B51368D96811F0020F144604D098
:1044E0006FF002021A61FFF711F82368DA685207C9
:1044F00011D56FF00402094D1A615C6A2B68E31A4A
:10450000B3F57A7F07D3FFF72FF8034B2C601B68B6
:1045100004F57A729A6338BD90F700208CF700207A
:10452000254B37B51A6C254C244842F008021A6412
:104530001A6C02F008020192019A1A6A42F008020B
:104540001A621A6A22F008021A62A3F50B3323607A
:104550004FF0FF33E3601A4B1A4A1B6893421BBFAC
:10456000194AB3FBF2F30F2303F1FF330025636015
:104570002561A5606561FFF777FE32201349FFF7DB
:1045800087FF134B0D484FF480225A602946FFF7EE
:1045900091FE04210948FFF78DFE23680D495A6AF0
:1045A0000A6002F57A729A63DA68284642F00402D9
:1045B000DA6003B030BD00BF0038024090F7002041
:1045C000A00100200024F40080841E00D1440008D3
:1045D00000E100E08CF70020174A184B916801F0C9
:1045E0000C01042903D0082903D0154A18E0154A04
:1045F00016E05068516810F4800F506814BF114ADB
:104600000F4A01F03F01B2FBF1F20B494968C1F3D7
:104610000141C0F38810013142434900B2FBF1F27D
:104620001A60054A08499268C2F30312895C1A6845
:10463000CA401A60704700BF00380240A001002045
:104640000024F40000127A0034D50008214B30B564
:104650001A6C42F080521A641B6C95B003F08053C0
:104660000193019B1C4B1A6822F480421A601B685C
:1046700003F480430293029B0123089300B10523B6
:1046800009934FF480030F93082310934FF4A873FA
:1046900002240025119308A807230B950E94129469
:1046A0001393FFF779F888B90F2303934FF4A053BE
:1046B0000590069303A84FF48053052107930494B3
:1046C000FFF7F0F9431B5842584100E0284615B067
:1046D00030BD00BF0038024000700040204B30B5B4
:1046E0001A6C42F080521A641B6C95B003F0805330
:1046F0000193019B1B4B1A6822F480421A601B68CD
:1047000003F480430293029B0323089301230B933A
:1047100010230C9310934FF4A873002402251193D7
:1047200008A8072309940E950F9412951393FFF789
:1047300033F888B90F2303934FF4A05305900693E1
:1047400003A84FF48053052107930495FFF7AAF9B6
:10475000031B5842584100E0204615B030BD00BF51
:10476000003802400070004008B50120FFF76EFFDE
:1047700030B9FFF76BFF18B9FFF7B0FF00B9FEE7DC
:1047800008BD0000184BD3F8882010B542F4700221
:10479000164CC3F888202268002142F001022260F2
:1047A000A160226822F0847222F480322260104AD2
:1047B0006260226822F4802222604FF00062E16091
:1047C0009A600C4B0C4A1A60FEF7B8FEFFF7CCFF5C
:1047D000FFF702FF236A43F008032362236A23F0F2
:1047E0000803236210BD00BF00ED00E00038024066
:1047F00010300024A00100200024F40010B5002196
:10480000044604F00F0400F0E7F90120A04010BDB9
:1048100070B504464B1C0D4621800DD0C1F303102A
:1048200000F046F906462846FFF7E8FF06F11003B8
:1048300018366060A360E66070BDB0F9000000F05B
:10484000EFB90129B0F9000018BF002100F0C4B988
:10485000F8B5154B4C2606FB00360F4634460025AE
:10486000BD4220D00123326803FA05F1114217D06E
:104870000E48626BD0F814C0E16903FA02F212EA42
:104880000C0F0DD04261606850B109690A42084AB4
:1048900003D113680221984702E012681946904735
:1048A00001350434DCE7F8BDCCF70020003C0140C2
:1048B000E0F9002000200121FFF7CABF01200146D6
:1048C000FFF7C6BF02200121FFF7C2BF032001216D
:1048D000FFF7BEBF04200121FFF7BABF0520014644
:1048E000FFF7B6BF06200146FFF7B2BF2DE9F74F2D
:1048F00001924A1C80460F4664D001F00F0909F16D
:10490000FF32C1F303100E2A09D8DFE802F00C10C1
:1049100014181C1C1C1C1C202020202020002B4EA6
:104920000025062416E02A4E0125072412E0294E10
:10493000022508240EE0284E032509240AE0274E0C
:1049400004250A2406E0264E0525172402E0254EFC
:1049500006252824009300F0ABF84FFA84FA83462A
:104960000721384600F038F931465046FFF790FDF0
:1049700001264FEA5A1204F01F001B49009B06FA59
:1049800000F041F822004C21C8F804504D4317496B
:10499000174A51F8291088F80040A8F80C705459AB
:1049A00057198E4007EB810100203443C8F80800F6
:1049B00054514B600F4B019AC1F81CB0C1F83490B0
:1049C0001A6000E0084603B0BDE8F08FB548000863
:1049D000BD480008C5480008CD480008D548000873
:1049E000DD480008E548000800E100E044D5000883
:1049F000CCF70020E0F90020F8B543680E490546E1
:104A000080894C225A4300F00F040C4B53F8243099
:104A10008C5801278E189F4024EA070406EB830375
:104A20008C5000245C60DC615C6300B2214600F0C5
:104A3000D3F8AC60F8BD00BFCCF7002044D5000827
:104A4000A2B1012905D18368023B012B08D98160FD
:104A50001EE002291FD1836823F00203012B03D13A
:104A600003238360082117E0816007E0012907D153
:104A70008368023B012B0DD80223836007210BE0E2
:104A8000022908D1836823F00203012B02D183603D
:104A9000062101E082600C21B0F90C0000F09CB806
:104AA00008B5FFF799FDBDE80840FEF747BD0000D7
:104AB00000B58BB0082872D8DFE800F005111D2979
:104AC00035414D596500394B39481A6B42F00102A6
:104AD0001A631B6B03F001030193019B63E0334BEB
:104AE00034481A6B42F002021A631B6B03F0020394
:104AF0000293029B57E02D4B2F481A6B42F00402A1
:104B00001A631B6B03F004030393039B4BE0274BD7
:104B10002A481A6B42F008021A631B6B03F0080361
:104B20000493049B3FE0214B25481A6B42F010028E
:104B30001A631B6B03F010030593059B33E01B4BBB
:104B400020481A6B42F020021A631B6B03F020030B
:104B50000693069B27E0154B1B481A6B42F0400258
:104B60001A631B6B03F040030793079B1BE00F4B7B
:104B700016481A6B42F080021A631B6B03F0800325
:104B80000893089B0FE0094B11481A6B42F480729E
:104B90001A631B6B03F480730993099B03E00D48B0
:104BA000FEF7E2FB00200BB05DF804FB003802408A
:104BB000000002400004024000080240000C0240D5
:104BC000001002400014024000180240001C024085
:104BD0000020024084D5000830B5054687B0C0F3F8
:104BE00003100C4605F00F05FFF762FF012304F0E8
:104BF0000F0203FA05F5094B019553F82230029391
:104C0000C4F302130393C4F3C314032301A904934D
:104C10000594FEF7C9FC07B030BD00BFA8D5000859
:104C200038B500F00F05C0F303100C46FFF740FF46
:104C30006B00C16803229A4021EA0202C260032C81
:104C4000C26828BF002404FA03F31343C36038BDCD
:104C5000F0B5304B1E688FB0002E59D101272E4C75
:104C60002E4D1F602E4B2B60236C43F0805323642A
:104C7000236C03F080530193019BFEF77DFD294BCC
:104C800002A81F601E600423029308960497FEF793
:104C900083FD70B9A36823F4F813A360A36823F419
:104CA000F813A360236F43F4807323674FF400422B
:104CB0001AE00C2302A80293089604960797FEF7C1
:104CC0006BFD10B11848FEF74FFB134B9A6822F4A6
:104CD000F8129A609A6822F4F8129A601A6F42F4F5
:104CE00000721A674FF4FA42104B0C480121D209A6
:104CF0001960013A00237F216B60A960EA602B6193
:104D00006B61AB61FFF795F810B10948FEF72CFB1A
:104D10000FB0F0BD04FA002000380240E4F9002092
:104D200000280040400E4742DCD500083C0E4742B8
:104D300008D60008014B1868704700BF04FA00202D
:104D400010B5154C154B236090B002A920460022E7
:104D5000FFF7A3F901A900222046FFF7C3F99DF848
:104D600004300D939DF80530013B0B939DF8063000
:104D70000A939DF8073064330C939DF8083009932B
:104D800010A89DF8093008939DF80A3040F8243D9A
:104D900001F090FE10B010BDE4F9002000280040A2
:104DA00030B589B008AB184D43F81C0D174A2A607E
:104DB000184601F0FDFC82698DF808200269013275
:104DC0008DF80920C2688DF80A204269643A8DF88E
:104DD0000B2082688DF80C2042688DF80D20036846
:104DE0008DF80E300024402302A9224628468DF873
:104DF0000F3006940794FFF7DEF8284603A92246F1
:104E0000FFF766F809B030BDE4F900200028004043
:104E100008B5124B02681A6082685A60C2689A60CC
:104E20000269DA6042691A6100229A61B0F91A20B7
:104E3000013201D1082205E0B0F9182001320CBF7F
:104E400004220C2205485A61FFF7F5FA20B1044804
:104E5000BDE80840FEF788BA08BD00BF30FA002060
:104E60002ED6000870B5124A124D0346286052F83B
:104E700021000C461646C8B11B685A0607D50E4BD2
:104E800001211B6898472B686FF040021A602B685D
:104E90001B689B060AD5084B56F824001B680021A6
:104EA0009847044B1B686FF020021A6070BD00BF6A
:104EB0000CFA002030FA00202CFA002001480021D2
:104EC000FFF7D0BF0010014001480121FFF7CABF22
:104ED0000044004001480221FFF7C4BF00480040E1
:104EE00001480321FFF7BEBF004C004001480421E8
:104EF000FFF7B8BF0050004001480521FFF7B2BFDF
:104F000000140140F0B5044687B008460E465149EA
:104F10001546FEF7A3FA504907462846FEF79EFAC3
:104F200001463846FEF77CFA4C4A2060904243D056
:104F300013D8A2F50062904232D002F5806290420E
:104F400052D1474B1A6C42F480221A641B6C03F452
:104F500080230293029B022345E0424A904213D0F1
:104F600002F58062904233D0A2F5444290423BD198
:104F70003B4B1A6C42F480121A641B6C03F48013CE
:104F80000493049B04232EE0354B5A6C42F010022C
:104F90005A645B6C03F010030093009B002322E033
:104FA0002F4B1A6C42F400321A641B6C03F400336A
:104FB0000193019B012316E0294B1A6C42F4002255
:104FC0001A641B6C03F400230393039B03230AE07E
:104FD000234B5A6C42F020025A645B6C03F02003AE
:104FE0000593059B0523636030461A49FEF7FAF9DD
:104FF00028461949FEF7F6F9721C03D03046012104
:10500000FFF70EFE6B1C03D028460121FFF708FEB8
:105010004FF41653A3600023E3602361636126838A
:1050200065832046FFF7F4FE23680F4A93420FD1B1
:105030000E4B01221A600E4B04F1180520686168BE
:105040001A4603C20834AC421346F7D120681060F8
:1050500007B0F0BD40D70008ECD60008004C004077
:1050600000380240001001400014014008FA0020FE
:1050700070FA00208160FFF7CBBE0000034B19607F
:105080004168034B43F82120704700BF2CFA0020F1
:105090000CFA002038B50D462F4903680B602F49E4
:1050A0008B421FD00AD8A1F500618B4217D001F5C1
:1050B00080618B421CD12A4927241BE029498B425D
:1050C0000AD001F580618B420FD0A1F544418B429B
:1050D0000ED1254935240DE0244925240AE0244930
:1050E000262407E02349342404E02349472401E02F
:1050F00000210C46AAB1DA6815B942F0200201E09D
:1051000042F0400265B2DA602846FFF7C1F904F0C8
:105110001704012303FA04F46D09184B43F82540E2
:1051200038BDDA6835B922F02002DA60DB681A0689
:1051300006D538BD22F08002DA60DB689B0609D410
:105140006209012304F0170403FA04F420320B4B24
:1051500043F8224038BD00BF30FA0020004C004028
:10516000D54E000800100140ED4E0008BD4E00086D
:10517000C94E0008E14E0008F94E000800E100E0C9
:105180000368034A18681360C0F34010704700BFFB
:1051900030FA002038B5056804462046FFF7F0FFD6
:1051A0000028FAD06868C0F3080038BD0368034AD5
:1051B00018681360C0F3C010704700BF30FA0020B9
:1051C00070B5056804460E462046FFF7EFFF00283D
:1051D000FAD0C6F308066E6070BD000003681A6856
:1051E00010B5124C22F0400223601A60C2680369B5
:1051F000626182682261072263608369E2624268B9
:10520000E361E26000234269A3602046A362236257
:10521000A2616362FEF785FF10B10548FEF7A4F8AE
:1052200023681A6842F040021A6010BD8CFA002010
:1052300045D600082DE9F04F87B004468946084658
:105240003D49BDF9405090461F46FEF707F93B49DE
:10525000034640460193FEF701F9394906463846B0
:10526000FEF7FCF8374983462846FEF7F7F8019B1E
:10527000314682461846FEF7D3F851460646584650
:10528000FEF7CEF801463046FEF7CAF82E4B2060F6
:1052900098420BD103F584335A6C42F480525A641D
:1052A0005B6C03F480530393039B1CE0274B9842F1
:1052B0000BD103F500331A6C42F480421A641B6C64
:1052C00003F480430493049B0DE0214B98420AD1E0
:1052D00003F5FE331A6C42F400421A641B6C03F4AB
:1052E00000430593059B48461349FEF77BF840466B
:1052F0001249FEF777F838461149FEF773F8002394
:105300006360A360E3603823A3616B1CA4F81C8076
:10531000A4F81E902784658404D028460949FEF726
:1053200061F802E04FF4007363612046FFF756FF17
:1053300007B0BDE8F08F00BF94D700085CD6000826
:10534000A4D60008DCD70008003001400038004037
:10535000003C004010290CBF4FF400610021012ADD
:10536000416004D0022A05D03AB9826008E00021E9
:10537000816005E08260002202E002228260012258
:10538000C2604269B2F5007F05D0002B0CBF4FF41C
:10539000802200224261002B0CBF4FF48273002355
:1053A0000361FFF71BBF00001B4B994201DC382350
:1053B0002FE0A1F51223194AA3F5F863934201D80F
:1053C000302326E0A1F57423154AA3F51073934208
:1053D00001D828231DE0A1F5F413124AA3F5906328
:1053E000934201D8202314E00F4B104A0B44934200
:1053F00001D818230DE00E4B0E4A0B44934201D8FE
:10540000102306E00C4B0D4A0B44934294BF082333
:1054100000238361FFF7E2BEBF2709007F1A060061
:105420003F420F00BFC62D00C0B4B3FF3F4B4C003E
:10543000806967FFBFD8A700C090BFFE3F6F4001E3
:1054400003689A689007FCD589B2D9609A68D20738
:10545000FCD5024AD8681360704700BF8CFA002060
:10546000054B186830B901221A60044B044A1A60CF
:10547000FFF756B8704700BF20FB0020E4FA002079
:10548000000C004008B5044B1B680BB9FFF7E8FFA0
:10549000024B586A08BD00BF20FB0020000C0040F2
:1054A000034B1B685863DA6842F00202DA60704707
:1054B000E4FA0020034B1B68DA6822F00202DA608B
:1054C000704700BFE4FA0020024B1B686FF0020235
:1054D0001A617047E4FA002010B5234C00218CB00B
:1054E00020684FF0FF320B46FDF794F9012820D1D8
:1054F0000020FDF7D3FF0CAB43F8240D184601F054
:1055000057F920210346194A04A802F0B5F93723B8
:1055100004AA00931649174B174800F005FC1749D9
:10552000154800F001FC002120680A460B46FDF7F3
:105530007BF8134B9A6811685A68114201D1DB68F5
:1055400001E0DB6812041A600E4B9A6811685A6811
:10555000114202D0DB68120400E0DB681A604FF4ED
:105560007A70FDF71BFCE4E71805002014D1000851
:1055700029D1000818D80008C005002021D800084B
:105580005C050020DC05002030B55F4B5F4CDA681D
:105590005B6813608FB00120FDF7C0F80021206028
:1055A00003220120FDF722F8594B00211860032245
:1055B0000120FDF71BF8574B042118600022012041
:1055C000FDF714F8544B0421186000220120FDF768
:1055D0000DF8524B0421186000220120FDF706F857
:1055E0004F4B0421186000220120FCF7FFFF4D4BB8
:1055F0000421186000220120FCF7F8FF4A4B00222A
:10560000186002210120FCF7F1FF484B4FF4E13113
:105610001860474800F0D8FA04A8FDF73FFF0028BB
:1056200002DC0020FDF72AFF002120684FF0FF3246
:105630000B46FDF7EFF8012823D10020FDF72EFFE0
:105640000EAB43F8240D184601F0B2F820210346B2
:10565000384A06A802F010F91E2300933649374B4A
:10566000374806AA00F060FB364B37491A683448C1
:1056700000F05AFB254B002118680A460B46FCF740
:10568000D3FF0B2300240093304B01933049029445
:105690004FF40072234603942E48FDF783F90A2540
:1056A0002D4B009501932D4902944FF4007223462F
:1056B00003942B48FDF776F92A4B009501932A496C
:1056C00002944FF40072234603942848FDF76AF9C8
:1056D0000525274B0193274900954FF40072234677
:1056E000029403942448FDF75DF9244B0193244967
:1056F00000954FF400722346029403942148FDF76D
:1057000051F9FDF729FAFEE71C05002018050020D5
:10571000D805002000050020EC04002048050020EA
:1057200050050020E8040020580500200405002052
:105730006C05002014D1000829D1000818D80008F1
:10574000C0050020A001002031D800082C05002051
:105750006AD80008D95400084005002072D8000813
:10576000710400084C05002079D800085D06000887
:105770005405002080D800081110000844050020BE
:1057800087D80008ED080008094B036083686BB1F7
:10579000084A1368834202D14368136070475A680D
:1057A000824201D01346FAE742685A60704700BF50
:1057B00098D8000824FB002010B50446FFF7E4FF4A
:1057C000204600F031FC204610BD0000054B036070
:1057D000002343608160027319B1034B1A68426071
:1057E0001860704798D8000824FB0020F8B50B4BD0
:1057F0001C6807460E4674B1A56855B1284639465F
:10580000324602F077FC20B9284602F06BFCB04229
:1058100001D06468EFE72046F8BD00BF24FB0020FC
:10582000007B7047036870B51B69002101220446A4
:105830009847431C05460ED0236820461B6900216B
:1058400002229847236806461B6920462946002203
:105850009847304670BD70BD10B5074B03F1080284
:1058600034330446026040F8043FFFF78DFF2046C2
:1058700000F06EFA204610BDA0D80008A0F1040088
:10588000FFF7EABF10B50446FFF7E6FF204600F039
:10589000CBFB204610BDA0F10400FFF7F3BF0000D2
:1058A00010B5074B0446002240F8043BFFF78EFF7B
:1058B000044B03F10802343322606360204610BDBC
:1058C000E0D90008A0D8000810B5002303604360A9
:1058D0000A782F2A044613D14A788AB1481C2060DE
:1058E000194623681A782F2A02D10133236004E075
:1058F0001AB1013301312360F3E7FFF777FF6060EE
:10590000204610BD00687047406808B520B1FFF719
:1059100087FF431E5842584108BD10B50446FFF7A3
:10592000F3FF00B1606810BD406808B528B1FFF70B
:1059300077FFD0F1010038BF002008BD10B5044644
:10594000FFF7F2FF10B1606800B1043810BD406885
:10595000003018BF0120704710B5044A044640F8D3
:10596000142BFFF749F8204610BD00BFE8D8000807
:1059700010B50446FFF7F0FF204600F055FB204627
:1059800010BD00002DE9F0410546124B45F8043BDF
:1059900004464FF010080E46424604F1140728460C
:1059A000002100F0ACFF42463846002100F0A7FF7E
:1059B00000236362A363E36323653146064A2346FB
:1059C0003846FEF793FF28463146FDF7F0FC2046A7
:1059D000BDE8F081E8D80008115A000803460A46DD
:1059E000143029B10022596201219A630A4600E06D
:1059F0000121FFF725B808B5436901461BB90368C3
:105A00002BB1984708BD006808B10431984708BD1C
:105A1000012908B502D0022902D008BD243000E0D7
:105A20003C30FFF7E8FF08BD014B0360704700BF43
:105A3000F8D8000810B5034B0360044600F0F4FAF0
:105A4000204610BDF8D800082DE9F74305469946D1
:105A5000134B45F8043B0446884617462846002168
:105A6000242200F04CFF0823A3620E4B2363002680
:105A7000BDF928300093284641463A464B46E66237
:105A8000FFF7D8FB2846A16AE26A3346FFF762FCBB
:105A90002846216BFFF788FC204603B0BDE8F08361
:105AA000F8D8000840420F0070B5094D2B688342BA
:105AB00004460BD0061D3046A16AE26A0023FFF7B8
:105AC00049FC3046216BFFF76FFC2C6070BD00BFB6
:105AD00028FB0020034BC262816200221A60FFF79C
