:020000040800F2
:1000000000000220E11700082D1800082D18000834
:100010002D1800082D1800082D18000800000000F9
:100020000000000000000000000000004916000869
:100030002D180008000000009D160008FD1600089D
:100040002D1800082D1800082D1800082D1800087C
:100050002D1800082D1800082D1800082D1800086C
:100060002D1800082D1800082D1800082D1800085C
:100070002D1800082D1800082D1800082D1800084C
:100080002D1800082D1800082D1800082D1800083C
:100090002D1800082D1800082D1800082D1800082C
:1000A0002D1800082D1800082D1800082D1800081C
:1000B0002D1800082D1800082D1800082D1800080C
:1000C0002D1800082D1800082D1800082D180008FC
:1000D0002D1800082D1800082D1800082D180008EC
:1000E0002D1800082D1800082D1800082D180008DC
:1000F0002D1800082D1800082D1800082D180008CC
:100100002D1800082D1800082D1800082D180008BB
:100110002D1800082D1800082D1800082D180008AB
:100120002D1800082D1800082D1800082D1800089B
:100130002D1800082D1800082D1800082D1800088B
:100140002D1800082D1800082D1800082D1800087B
:100150002D1800082D1800082D1800082D1800086B
:100160002D1800082D1800082D1800082D1800085B
:100170002D1800082D1800082D1800080000000098
:100180002D1800082D180008044B05481B1A062BD3
:1001900002D9044B03B11847704700BFA7020020E3
:1001A000A40200200000000005490648091A891031
:1001B00001EBD171491002D0034B03B118477047CE
:1001C000A4020020A40200200000000010B5064C8C
:1001D000237843B9FFF7D8FF044B13B10448AFF3BA
:1001E00000800123237010BDA40200200000000045
:1001F00054BD000808B5084B1BB108490848AFF3C7
:1002000000800848036813B9BDE80840CCE7064BF6
:10021000002BF9D09847F7E700000000A802002063
:1002200054BD0008A002002000000000154B002B68
:1002300008BF134B9D46A3F5803A00218B460F461D
:100240001348144A121A04F0D1FA0F4B002B00D0B5
:1002500098470E4B002B00D0984700200021040047
:100260000D000D48002802D00C48AFF3008004F0C8
:10027000C9F82000290003F0A3FD03F0EFFD00BF43
:100280000000080000000220000000000000000044
:10029000A4020020C4F800200000000000000000BC
:1002A0002DE97043B74C0023AAB04FF0FF32194636
:1002B000206800F005FD012820D1002001F050FB4E
:1002C0002AAB43F8540D184604F0C2F8AE4A034670
:1002D00020211DA806F06EF80F231DAA0093AB493C
:1002E000AB4BAC4803F038FCAB49AA4803F034FCF4
:1002F00000231A461946206800F03EFC4FF0FF35F7
:100300002A232B222C2100951DA803F0F9FA102294
:10031000002108A804F06AFA0022292108A801F0A7
:10032000B1FA102200210CA804F060FA00223D214D
:100330000CA801F0A7FA0CAB08AA1DA910A800F0A0
:10034000C3F900232A461946206800F0B9FC0128A9
:100350001FD1002001F004FB069006A804F078F8F5
:10036000894A0346202115A806F024F8162315AA69
:1003700000938649864B874803F0EEFB8749854802
:1003800003F0EAFB7F4800231A461946006800F094
:10039000F3FB10A800F02CFA054640BB03460146CB
:1003A0004FF0FF32206800F08BFC01281FD1284657
:1003B00001F0D6FA069006A804F04AF8724A0346FD
:1003C000202115A805F0F6FF182315AA00936F4900
:1003D0006F4B704803F0C0FB71496E4803F0BCFBE3
:1003E00068482B462A462946006800F0C5FB0023D2
:1003F0004FF0FF321946206800F062FC01281FD13F
:10040000002001F0ADFA069006A804F021F85E4A3B
:100410000346202115A805F0CDFF192315AA009346
:100420005A495B4B5B4803F097FB5E49594803F020
:1004300093FB544800231A461946006800F09CFBC1
:1004400010A800F007FA054640BB034601464FF0EE
:10045000FF32206800F034FC01281FD1284601F04B
:100460007FFA069006A803F0F3FF474A03462021CF
:1004700015A805F09FFF1B2315AA00934349444B81
:10048000444803F069FB4849424803F065FB3D4896
:100490002B462A462946006800F06EFB00234FF0E9
:1004A000FF321946206800F00BFC01281FD1002004
:1004B00001F056FA069006A803F0CAFF324A034636
:1004C000202115A805F076FF1C2315AA00932F49BB
:1004D0002F4B304803F040FB34492E4803F03CFBDF
:1004E000284800231A461946006800F045FB06A973
:1004F00010A800F0BAF9054640BB034601464FF08C
:10050000FF32206800F0DCFB01281FD1284601F0F3
:1005100027FA049004A803F09BFF1B4A03462021FE
:1005200015A805F047FF202315AA00931749184B7B
:10053000184803F011FB1C49164803F00DFB114845
:100540002B462A462946006800F016FB00234FF090
:10055000FF321946206800F0B3FB01283CD100208F
:1005600001F0FEF9049004A803F072FF064A034666
:10057000202115A805F01EFF2123009315AA044B86
:10058000024915E0C00200209CB00008BCB0000881
:10059000B1B0000840030020D0B00008DFB0000870
:1005A000F4B0000805B100081AB100082FB1000826
:1005B0003D4803F0D1FA9DF81A309DF819203B49C7
:1005C000394803EB022203F0C7FA394800231A46E0
:1005D0001946006800F0D0FA354E4FF000084FF091
:1005E000000904A910A8CDE9048900F043F90546E3
:1005F00048BB034601464FF0FF32206800F060FB25
:10060000012820D1284601F0ABF92AAB43F89C0D14
:10061000184603F01DFF274A0346202115A805F0C0
:10062000C9FE272315AA00932349244B1E4803F033
:1006300093FA23491C4803F08FFA2B462A46294691
:10064000306800F099FA00234FF0FF321946206815
:1006500000F036FB012822D1002001F081F92AABFD
:1006600043F89C0D184603F0F3FE124A034620217E
:1006700015A805F09FFE2823009315AA0F4B0E49DD
:10068000094803F069FADDE904230E49064803F03E
:1006900063FA00231A461946306800F06DFA4FF4E9
:1006A0007A7000F0E9FD9CE74003002048B10008A3
:1006B000C00200209CB00008BCB00008B1B0000827
:1006C00057B1000874B1000810B54160D968C36023
:1006D0005B6882600B60D36852681A600446012030
:1006E00000F0C8FA42F21073206023616068054987
:1006F00003F056F960680022082103F047F920460C
:1007000010BD00BF20A107002DE9F8431D460023BE
:1007100004468846164619464FF0FF32006800F03E
:10072000CFFA012860D1A368DA685B6808F1FF3767
:100730001B04013E13604644B946B14506D06068CB
:1007400019F8011F03681B689847F6E7A368DA6881
:100750005B681360012000F08FFDA368DA685B68B6
:100760001B04136000262369B3421BD96068036829
:1007700044211B68984760680368FF211B689847FD
:10078000C0B2FF2806F101060CD0A368DA685B68E6
:100790001360012000F070FDA368DA685B681B0439
:1007A0001360E0E72369B34208D800231A461946CC
:1007B000206800F0E1F90020BDE8F883013D4544E0
:1007C000AF4207D060680368FF211B68984707F8AD
:1007D000010FF5E7A3682068DA685B6813600023FF
:1007E0001A46194600F0C8F90120BDE8F883000058
:1007F000002313B54FF0FF3204461946006800F09D
:100800005FFA012813D1E368DA685B68136000F0CF
:1008100033FDE368DA685B681B0413600F2000F0A7
:100820002BFD00231A461946206800F0A5F9084B55
:1008300018689A889B790090ADF804208DF80630EE
:100840000722002369462046FFF75EFF02B010BD75
:100850008EB1000807B502A9002301F8013D01226D
:10086000FFF752FF03B05DF804FB01220A70082372
:10087000FFF74ABFF7B500230093019314238DF8C7
:10088000003010230D468DF80130022208236946FE
:10089000FFF73AFF04469DF804000AF04BF80022E7
:1008A0001D4B0AF0BDF806469DF805000F460AF0FC
:1008B00041F802460B463046394609F0FFFE06462F
:1008C0009DF806000F460AF035F80022134B09F098
:1008D000F5FE0022124B0AF0A3F802460B46304602
:1008E00039460AF09DF806469DF807000F460AF0C3
:1008F00021F800220B4B0AF093F80022064B09F076
:10090000DDFE02460B463046394609F0D5FEC5E904
:100910000001204603B0F0BD000070400000894097
:100920000000303F0000E03F7047000010B5064B6C
:10093000036003F118024C3304464265836554306A
:1009400003F0F8F8204610BDA0B50008A0F154004F
:10095000ECE7A0F15800E9E710B5044603F068FAA7
:10096000204610BD70B504460D46164600211022E3
:1009700003F03CFF20463246294600F083FF204624
:1009800070BD10B50446FFF7D1FF204603F050FAC2
:10099000204610BDA0F15400F3E7A0F15800F0E7A5
:1009A00010B5012203210D480D4CFFF7DBFF00229B
:1009B0001A210C48FFF7D6FF00221B210A48FFF737
:1009C000D1FF012200212046084B03F009F8204600
:1009D000074A0849BDE8104003F025BADC020020B0
:1009E000EC02002058030020CC02002095B1000842
:1009F000880100202D09000800F1080343604FF032
:100A0000FF32C360036100238260036070470023EC
:100A10000361704743684B609A688A609A685160C6
:100A20009960036808610133036070470A68531CCA
:100A300030B501D1036907E000F108035C6825685F
:100A4000AA4201D32346F9E75A684A6091608B6055
:100A50005960036808610133036030BD41688268F2
:100A600003698A60826851605968884208BF5A6089
:100A700000220261186801381860704738B51546C1
:100A8000026C044632B9056845BB406800F062FD5F
:100A9000656024E06DB9806803F082FEA268236C73
:100AA00013446268A360934218D32368A360284666
:100AB00015E0C06803F074FE236CE26821685B42B5
:100AC0001A448A42E2603EBF62689B18E360022DCE
:100AD00004D1A36B13B1A36B013BA3630020A36BF1
:100AE0000133A36338BD034610B41A6C084662B1E3
:100AF000D9685C681144A142D96024BF1968D960E3
:100B0000D9685DF8044B03F04BBE5DF8044B7047A9
:100B100038B5044600F0A8FD04F12405A36C002BB1
:100B20000BDD636A4BB1284600F05EFC08B100F0B3
:100B3000C5FCA36C013BA364F0E74FF0FF33A36453
:100B400000F0A2FD00F090FD04F11005636C002B95
:100B50000BDD23694BB1284600F046FC08B100F0DC
:100B6000ADFC636C013B6364F0E74FF0FF336364FB
:100B7000BDE8384000F088BD2DE9FF470026DFF8CA
:100B8000F0A00192044689461F46B04600F06CFD75
:100B9000A26BE36B9A4201D3022F1AD13A4649461F
:100BA0002046FFF76BFF636A33B104F1240000F0C5
:100BB0001BFC012809D100E038B12D4B4FF08052C9
:100BC0001A60BFF34F8FBFF36F8F00F05DFD012000
:100BD0004AE0019D1DB900F057FD284644E016B9D2
:100BE00002A800F039FC00F04FFD00F045FA00F0DB
:100BF0003BFD636C013308BFC4F84480A36C013330
:100C000008BFC4F8488000F03FFD01A902A800F029
:100C10002FFC18BB00F028FDA66BE56B00F034FD3F
:100C2000AE4215D1019904F1100000F0AFFB20464F
:100C3000FFF76EFF00F0B4FA08B10126A6E74FF007
:100C40008053CAF80030BFF34F8FBFF36F8FF4E7C4
:100C50002046FFF75DFF00F0A3FAEEE72046FFF71E
:100C600057FF00F09DFA002004B0BDE8F08700BFF8
:100C700004ED00E070B50646542000F087FD044600
:100C8000D8B101230025C3634FF0FF33856345606E
:100C90004364056083648560C560056480F85060C6
:100CA0001030FFF7A9FE04F12400FFF7A5FE2B4644
:100CB0002A4629462046FFF75FFF204670BD000008
:100CC0002DE9FF470026DFF814A10192044688466B
:100CD0009946374600F0C8FCA36B63B341462046F3
:100CE000E568FFF700FFB9F1000F10D1A36B013BDE
:100CF000A363236813B900F065FC60602369B3B196
:100D000004F1100000F070FB012810D107E0636AC5
:100D1000E56063B104F1240000F066FB38B12F4BAD
:100D20004FF080521A60BFF34F8FBFF36F8F00F008
:100D3000ABFC01204FE0019D1DB900F0A5FC284649
:100D400049E016B902A800F087FB00F09DFC00F016
:100D500093F900F089FC636C013308BF6764A36CEE
:100D6000013308BFA76400F08FFC01A902A800F0BE
:100D70007FFB50BB00F078FCA56B00F085FCF5B95B
:100D8000236833B900F070FC606800F09DFB00F050
:100D90007BFC019904F1240000F0F8FA2046FFF7EB
:100DA000B7FE00F0FDF908B1012693E74FF080533C
:100DB000CAF80030BFF34F8FBFF36F8FF4E72046C0
:100DC000FFF7A6FE00F0ECF9EEE72046FFF7A0FEE5
:100DD00000F0E6F9002004B0BDE8F08704ED00E083
:100DE000064A13681968064B11B94FF0FF3203E049
:100DF0001268D268D26852681A6070476C0300208B
:100E0000B80400200E4B1A6810B550600D4A1268E5
:100E10009042044607D20C4A10681968BDE8104099
:100E20000431FFF703BE094A106819680431FFF75F
:100E3000FDFD074B1A68944238BF1C6010BD00BF0F
:100E400098040020B40400208C0300206C030020D0
:100E5000B80400202DE9F84F9A460C9B0A9F814662
:100E60000E4615463BB9900000F090FC83460028E2
:100E700000F0B28000E09B46582000F087FC04465A
:100E800088B1AD002A46C0F830B0A521584603F01D
:100E9000ADFC236B043D1D4425F00705731E04F1D2
:100EA00033020B3605E0584600F098FC94E09E4271
:100EB00006D013F8011F02F8011F19780029F6D196
:100EC0000B2F4FF00008BB4604F1040628BF4FF07B
:100ED0000B0B304684F83F80C4F82CB0C4F848B0FF
:100EE000C4F84C80FFF793FD04F11800FFF78FFD65
:100EF000CBF10C03A361C4F850802461646284F8D0
:100F0000548052464946284600F08CFB0B9B2060DB
:100F100003B11C6000F0A8FB314A324D1368DFF8C2
:100F2000EC90013313602B683BBB2C601268012AE4
:100F30002BD1984609EB080008F11408FFF75CFD77
:100F4000B8F1F00FF6D1DFF8C8A0DFF8C88050463E
:100F5000FFF752FD4046FFF74FFD2348FFF74CFDDA
:100F60002248FFF749FD2248FFF746FD214BC3F811
:100F700000A0214BC3F8008007E0204B1B6823B979
:100F80002B68DB6A9F4228BF2C601D4A1D491368ED
:100F900001331360E26A23640B68012404FA02F04F
:100FA000034314200B6000FB02903146FFF732FD33
:100FB00000F06AFB114B1B685BB12B68DB6A9F4238
:100FC00007D9114B4FF080521A60BFF34F8FBFF318
:100FD0006F8F2046BDE8F88F4FF0FF30BDE8F88FE7
:100FE000C0040020980400209C04002084040020F9
:100FF000D80400206C0300208C0300207003002024
:10100000BC040020EC04002004ED00E09403002068
:1010100078030020C40400201FB500240394029428
:1010200001940094234650220E490F48FFF712FF07
:10103000012814D14FF0800383F31188BFF36F8F21
:10104000BFF34F8F094B4FF0FF321A60084B186007
:10105000084B1C6004B0BDE8104000F07BBB04B03E
:1010600010BD00BF9FB10008D9120008B8040020CD
:1010700070030020B4040020024A13680133136097
:10108000704700BFB00400203A4B1B682DE9F74FB2
:10109000002B30D1384B1A6801321A601D685DB9D7
:1010A000364A374B116818681060364A1960136861
:1010B00001331360FFF794FE334C01942368334EE1
:1010C000334F9D424FF0000B0BD3DFF8B080DFF8B9
:1010D000CC90D8F800201268A2B9019B4FF0FF32E3
:1010E0001A603A68D16A14224A43B258022A28BFC9
:1010F0004FF0010B34E0274A1368013313604FF0BF
:10110000000B2DE0D8F80020D268D46861688D42C9
:1011100002D2019B1960E4E704F1040A5046FFF78C
:101120009DFCA16A19B104F11800FFF797FCE06A71
:10113000D9F80010012303FA00FE4EEA01014FF036
:10114000140EC9F800100EFB00605146FFF762FC58
:101150003868E16AC26A914228BF4FF0010BB8E7D4
:101160000D4A1268002A18BF4FF0010B584603B011
:10117000BDE8F08FB0040020B40400206C03002010
:101180008C03002068030020B80400209403002092
:101190009804002090030020F0040020EC040020BC
:1011A0002DE9F84300F060FA2A4B1A68013A1A60F8
:1011B0001B680BB1002447E0274B1B68002BF9D0BC
:1011C000264D274EDFF8AC802B6803B3EB68DC6854
:1011D00004F1040904F11800FFF740FC4846FFF74A
:1011E0003DFCE26A3368012707FA02F114200B4341
:1011F00000FB028049463360FFF70CFC194BE26AA2
:101200001B68DB6A9A42DFD3174B1F60DAE7174C83
:10121000236863B9144B1C68012CCBD1144B4FF0DD
:1012200080521A60BFF34F8FBFF36F8F0CE00E4DEB
:1012300001262368002BEDD0FFF726FF00B12E60BA
:101240002368013B2360F4E700F01EFA2046BDE866
:10125000F88300BFB0040020C00400209C040020DC
:10126000EC04002098040020F004002090030020EB
:1012700004ED00E09403002038B540B9124B4FF064
:1012800080521A60BFF34F8FBFF36F8F38BDFFF7E7
:10129000F3FE0E4B0E4D1B68C41828680430FFF790
:1012A000DDFB40B92B680B49D86A0A6801238340EB
:1012B00022EA03030B602046FFF7A4FDFFF770FF4F
:1012C0000028DBD038BD00BF04ED00E0B4040020EE
:1012D00098040020EC04002080B5124D2E46124FD9
:1012E0002B68002BFBD0FFF7C7FE3C68FFF758FFC9
:1012F000002CF5D000F0B8F90B4BDB68DC68201D42
:10130000FFF7ACFB094A1368013B13603368013BEC
:10131000336000F0B9F9206B00F060FA204600F06D
:101320005DFADDE77403002084040020C00400207F
:10133000114B1A68114B30B50AB101221AE01A603C
:101340000F4B1B68B3FA83F3DBB20E49C3F11F03E3
:10135000142000FB03F28C18083265686D68656024
:101360000A44954204BF6A68626000FB03135B682D
:10137000DA68054B1A6030BDB0040020F00400208C
:10138000EC040020940300209804002038B5124C8F
:101390000D4621681831FFF749FB20680430FFF73C
:1013A0005DFB40B923680D49D86A0A680123834070
:1013B00022EA03030B606B1C06D121680848043144
:1013C000BDE83840FFF726BB064B18682844BDE847
:1013D0003840FFF717BD00BF98040020EC04002040
:1013E000D8040020B4040020C36870B5DC6804F1A0
:1013F00018052846FFF732FB114B1B6883B9261DE1
:101400003046FFF72BFB0F49E56A0A680123AB4022
:1014100013430B600C4B1420314600FB053001E0F8
:101420000A482946FFF7F6FA094BE26A1B68DB6AAD
:101430009A4283BF074B01201860002070BD00BF97
:10144000B0040020EC040020940300209C04002041
:1014500098040020F0040020034B1B680360034B3A
:101460001B684360704700BF68030020B40400207D
:1014700038B504460D4600F0F7F80E4B18682B6897
:101480005A1C10D00C4A216812689142626801D03F
:1014900090420AD2811A8B4207D9121A13442B6048
:1014A0002046FFF7D9FF002400E0012400F0ECF80B
:1014B000204638BDB404002068030020014B0122FF
:1014C0001A607047F00400202DE9F041044600281E
:1014D00038D01D4DC36A2A68D26A934232D28269DB
:1014E0001A4E002AA1BF2A68D26AC2F10C02826198
:1014F0001427426907FB03639A4220D100F10408D4
:101500004046FFF7ABFA124B48B9E06A4743F2593D
:101510002AB919680122824021EA02021A602A6867
:10152000D26AE26201201C689040204318601420B7
:10153000414600FB0260BDE8F041FFF76BBA2B6843
:10154000DB6AC362BDE8F0819804002094030020A8
:10155000EC040020F8B5044608B90020F8BDC36CBF
:10156000C16A826C013B9142C364F6D0002BF4D176
:10157000051D2846FFF772FA104E114A50B9E76A66
:101580001421794373582BB910680123BB4020EA1A
:1015900003031360A36C1068E362C3F10C01A16143
:1015A000012404FA03F108431060142000FB0360D7
:1015B0002946FFF72FFA2046F8BD00BF940300200C
:1015C000EC040020044B1A681AB11968CA6C013285
:1015D000CA641868704700BF980400204FF0800369
:1015E00083F31188BFF36F8FBFF34F8FFEE70000C7
:1015F00006480068006880F3088862B661B6BFF3E9
:101600004F8FBFF36F8F00DF00BF000008ED00E0D9
:10161000DFF80C00016841F47001016070470000C0
:1016200088ED00E04FF0807300E90A00054B40F8B8
:101630000C3C6FF0020340F8202C40F8243C443866
:10164000704700BFDD150008064B19680868B0E850
:10165000F04F80F30988BFF36F8F4FF0000080F3E5
:1016600011887047980400204FF0800383F311889D
:10167000BFF36F8FBFF34F8F024A136801331360BC
:10168000704700BF8C010020034A1368013B1360C0
:101690000BB983F3118870478C010020EFF30980A8
:1016A000BFF36F8F144B1A681EF0100F08BF20EDA8
:1016B000108A20E9F04F10604DF8043D4FF0800093
:1016C00080F31188BFF34F8FBFF36F8FFFF730FEAA
:1016D0004FF0000080F3118808BC19680868B0E872
:1016E000F04F1EF0100F08BFB0EC108A80F309888D
:1016F000BFF36F8F704700BF9804002008B5EFF369
:1017000011834FF0800282F31188BFF36F8FBFF314
:101710004F8FFFF7B9FC18B1034B4FF080521A609E
:10172000002383F3118808BD04ED00E0064B4FF45D
:101730007A721B68B3FBF2F3044A013B1360044B5B
:1017400007221A60704700BFA001002014E000E0EB
:1017500010E000E008B50A4B1A681A601A681A60AF
:10176000FFF7E4FF074B00221A60FFF751FF064A1C
:10177000136843F040431360FFF73AFFFFF72EFF73
:1017800020ED00E08C01002034EF00E038B5430785
:1017900004461CBF20F007040834FFF76DFC0C4A18
:1017A00013681BB90B4B23F0070313600A490B683E
:1017B0004EF6F7701C44844205D8A34203D2156844
:1017C0000C601D4400E00025FFF7EAFC284638BD08
:1017D000F804002004050020F404002070470000F5
:1017E000DFF830D0002103E00B4B5B58435004314D
:1017F0000A480B4B42189A42F6D30A4A02E00023E9
:1018000042F8043B084B9A42F9D301F011FAFEF773
:101810000DFD70470000022060BD00088801002017
:10182000A4020020A4020020C4F80020FEE708B5AE
:1018300072B6962000F0DDF8962000F0DAF8F8E7AE
:101840000FB407B5054B04AA1B6852F8041BD868EF
:10185000019203F001FC012002F000FB08020020CD
:1018600038B50D460446C168436802B91B040B60D5
:101870002046012101F03BFA29462046BDE83840C8
:1018800001F031BA70B50E460446154601F016FA5D
:10189000013606D02A4620460021BDE87040FFF7F9
:1018A000DFBF70BD10B50446013001D110BD0C3151
:1018B000B1F900305A1C0BD09C42F8D120468968FF
:1018C00001F0B8FA20460021BDE8104001F0D6BA78
:1018D0000248BDE81040FFF7B3BF00BFA4B1000845
:1018E000884208B50AD0431C07D0013106D004480D
:1018F000FFF7A6FF4FF0FF3008BD084608BD00BF48
:10190000B5B10008B1F900305A1C05D0834201D1AD
:10191000486870470C31F5E718467047421C10B50F
:10192000044607D0FFF7EEFF431C044602D10248ED
:10193000FFF786FF204610BDC6B10008064B1B68A6
:1019400010B5044603B19847044B1B681BB12046F1
:10195000BDE81040184710BD900100209C010020F8
:10196000074B1B6810B504461BB1984708B9FFF731
:10197000E5FF044B186800B1804704B1206010BD3A
:101980009401002098010020036870B5DB680446CC
:10199000984763685A6823681AB99B68BDE8704025
:1019A00018475B68156898476368281A00285A68C2
:1019B00007DC916859601B68002BEAD05068984793
:1019C000E7E7236810681B69BDE87040184700000E
:1019D0000148FFF7D9BF00BF18B2000838B5044668
:1019E00001F0B4FD054601F0B1FD401BA042FAD361
:1019F00038BD4FF47A735843FFF7F0BF70470000CB
:101A000008B5094B1A6842F400721A601A6842F469
:101A100080621A60032000F017F80F2000F0DCFF4E
:101A2000FFF7ECFF002008BD003C0240024A1368AB
:101A300001331360704700BF04F50020014B1868A4
:101A4000704700BF04F50020074AD36823F4E06321
:101A50001B041B0C43F0BF63000243F4003300F48B
:101A6000E0600343D360704700ED00E02DE9F04FE4
:101A70006C4E0B68DFF8B4C1DFF8B48185B0B646B0
:101A8000019300230122019C9A4032EA040440F0B1
:101A9000C1804C6824F01009B9F1020F14D14FEA4B
:101AA000D30A00EB8A0A03F0070BDAF820704FEA3A
:101AB0008B0B0F2505FA0BF527EA05050F6907FAC9
:101AC0000BF72F43CAF820704FEA430A0325076833
:101AD00005FA0AF5ED4304F0030B2F400BFA0AFB5D
:101AE00009F1FF394BEA0707B9F1010F076012D876
:101AF000876805EA0709CF6807FA0AF747EA09077E
:101B000087604768C4F3001927EA020709FA03F956
:101B100049EA07074760C7683D408F6807FA0AF738
:101B20003D43C560E50075D5DCF8445045F480457B
:101B3000CCF84450DCF8445023F0030707F1804709
:101B400005F4804507F59C37039503F0030A039DD0
:101B5000D7F808B04FF00F094FEA8A0A09FA0AF5D8
:101B60002BEA0509304DA84220D005F58065A84232
:101B70001ED005F58065A8421CD005F58065A842F9
:101B80001AD005F58065A84218D0404518D005F553
:101B90000065A84216D005F58065A84214D005F569
:101BA0008065A84214BF092508250EE000250CE039
:101BB00001250AE0022508E0032506E0042504E0EB
:101BC000052502E0062500E0072505FA0AF545EAA5
:101BD0000905BD603568D74314F4803F0CBF3D4014
:101BE0001543CEF80050DEF8045014F4003F0CBF4B
:101BF0003D4015437560B56814F4801F0CBF3D402F
:101C00001543CEF80850DEF80C50A40254BF3D40F6
:101C10001543F5600133102B7FF434AF05B0BDE8F8
:101C2000F08F00BF003C014000000240003802403D
:101C3000001402404FF4807393FAA3F3B3FA83F3D2
:101C4000DBB29B0003F1844303F5602301221A6099
:101C50007047000003682DE9F341DD07044603D413
:101C6000236898074CD49EE08B4B9A6802F00C02D4
:101C7000042A07D09A6802F00C02082A0BD15B688C
:101C8000590208D5844B1B689A03E9D56368002B79
:101C9000E6D1012067E1814D7F4E00232B70FFF7D5
:101CA000CDFE41F28838074633689B0306D5FFF71F
:101CB000C5FEC01B4045F7D9032054E123792B70A2
:101CC000636873B1FFF7BAFE734D064641F2883779
:101CD0002B689803C4D4FFF7B1FE801BB842F7D934
:101CE000EAE7FFF7ABFE6C4D064641F288372B68FA
:101CF0009903B5D5FFF7A2FE801BB842F7D9DBE701
:101D0000654B9A6812F00C0F07D09A6802F00C022B
:101D1000082A18D15B685A0215D45F4A13689B07DA
:101D200002D5E368012BB4D11168F82393FAA3F329
:101D3000B3FA83F32069DBB200FA03F321F0F80170
:101D40000B4313602FE0E268554BF2B101221A6099
:101D5000FFF774FE504D06462B684F489F0705D489
:101D6000FFF76CFE801B6428F6D9A5E70268F8230C
:101D700093FAA3F3B3FA83F32169DBB201FA03F315
:101D800022F0F802134303600DE01A60FFF756FEDD
:101D9000414D06462B68990705D5FFF74FFE801B7E
:101DA0006428F7D988E723681A0703D423685B07F8
:101DB0004ED51FE062693B4B72B101221A60FFF7FA
:101DC0003DFE354D06466B6F9F07EFD4FFF736FE9D
:101DD000801B6428F7D96FE71A60FFF72FFE2E4D9E
:101DE00006466B6F9807E1D5FFF728FE801B642835
:101DF000F7D961E7284B2C4D1A6C42F080521A64D7
:101E00001B6C03F080530193019B2B6843F4807398
:101E10002B60FFF713FE06462B68D9051BD5234D13
:101E20001D4E00232B70FFF709FE41F2883807464C
:101E3000336F9A0715D4237A2B70A368EBB1FFF7A1
:101E4000FDFD154D064641F288372B6F9B070ED5D9
:101E5000A2696ABB6CE0FFF7F1FD801B6428DBD947
:101E60002AE7FFF7EBFDC01B4045E1D924E7FFF768
:101E7000E5FD801BB842E8D91EE7FFF7DFFD064D00
:101E8000064641F288372B6F9807E1D5FFF7D6FD5C
:101E9000801BB842F7D90FE70038024002380240F1
:101EA00000004742800E47420070004070380240F8
:101EB0002E4DAB6803F00C03082B3FF4EAAE2C4E1A
:101EC0000023022A336042D1FFF7B8FD80462B6819
:101ED000264F99012ED447F6C07292FAA2F2B2FAB6
:101EE00082F24FF4403393FAA3F3B3FA83F54FF041
:101EF000706191FAA1F1B1FA81F0E169236A0B43B3
:101F0000616AD2B291401943A36A5B085A1EEBB2D0
:101F100002FA03F3E26A0B43C1B28A4013437B60C7
:101F200001233360FFF78AFD04463B689A0108D518
:101F3000002018E0FFF782FDC8EB00006428C6D936
:101F4000BAE6FFF77BFD001B6428EED9B4E6FFF785
:101F500075FD04462B689B01EAD5FFF76FFD001B5A
:101F60006428F7D9A8E602B0BDE8F0810038024045
:101F7000600047427B4B1A6802F00F028A422DE94B
:101F8000F04105460E4674D2CAB21A701B6803F0BF
:101F90000F03994202D00120BDE8F08101688F074C
:101FA00006D57148836823F0F002AB681343836061
:101FB000CE070BD429684C0740F1C3806A48836878
:101FC00023F4E052EB6813438360BAE06B68664A1F
:101FD000012B03D1126812F4003F08E0991E012979
:101FE000126802D812F0007F01E012F0020FD2D086
:101FF0005D4CA26822F003021343A360FFF71EFDAD
:102000006B68012B06460ED141F28837A36803F0B6
:102010000C03042BCED0FFF711FD801BB842F5D97D
:102020000320BDE8F081022B0CD141F28837A36870
:1020300003F00C03082BBDD0FFF700FD801BB84256
:10204000F5D9EDE7032B08D141F28835A368FFF7F6
:10205000F5FC801BA842F9D9E2E741F28837A36872
:1020600013F00C0FA6D0FFF7E9FC801BB842F6D99D
:10207000D6E70168880706D53B48836823F0F0025D
:10208000AB6813438360CA0709D4364BF2B21A70A7
:102090001B6803F00F039E427FF47DAF8AE76B68F5
:1020A000314A012B03D1126812F4003F08E0991E57
:1020B0000129126802D812F0007F01E012F0020F2D
:1020C0003FF469AF284CA26822F003021343A360D7
:1020D000FFF7B4FC6B68012B07460CD141F288383E
:1020E000A36803F00C03042BCFD0FFF7A7FCC01BA1
:1020F0004045F5D994E7022B0CD141F28838A3680A
:1021000003F00C03082BC0D0FFF798FCC01B404520
:10211000F5D985E7032B08D141F28835A368FFF78D
:102120008DFCC01BA842F9D97AE741F28838A36830
:1021300013F00C0FA9D0FFF781FCC01B4045F6D966
:102140006EE70B0707D5084A2969936823F46043B3
:1021500043EAC10393600F2000F03EFC0020BDE87D
:10216000F08100BF003C0240003802401F498B68EC
:1021700003F00C03042B34D0082B34D148684B688F
:1021800000F03F0013F4800F47F6C0724B6892FADC
:10219000A2F2B2FA82F247F6C071D2B201EA0301AA
:1021A00015BF21FA02F3D140114A124A14BFB2FB03
:1021B000F0F0B2FBF0F00D4A0CBF00FB01F343431B
:1021C0004FF44031506891FAA1F1B1FA81F100F475
:1021D0004032C8B222FA00F001304000B3FBF0F008
:1021E0007047034870470348704700BF00380240FB
:1021F00000127A000024F40008B5FFF7B7FF094B7E
:102200009A68F02393FAA3F3B3FA83F302F0F0028F
:10221000DBB222FA03F3044AD35CD840034B1860C4
:1022200008BD00BF0038024020B20008A001002015
:1022300008B5FFF7E1FF084B9A684FF4E05393FAB3
:10224000A3F3B3FA83F302F4E052DBB222FA03F30E
:10225000024AD35CD84008BD0038024020B20008D2
:1022600008B5FFF7C9FF084B9A684FF4604393FA2B
:10227000A3F3B3FA83F302F46042DBB222FA03F36E
:10228000024AD35CD84008BD0038024020B20008A2
:102290007047026838B5D36823F0A003D3600446C2
:1022A000FFF7CCFB05462368DB689B0607D4FFF7E6
:1022B000C5FB401BB0F57A7FF5D9032038BD00205F
:1022C00038BD38B50368DA685206044601D50020E7
:1022D00038BD4FF0FF32DA60FFF7B0FB05462368E8
:1022E000DB685B06F3D4FFF7A9FB401BB0F57A7FF0
:1022F000F5D9032038BD10B5044600283DD0437FF2
:1023000003F0FF0213B90277FFF7C2FF02236377DE
:102310002368CA225A6253225A622046FFF7D1FF2D
:10232000236820B1FF225A620423637725E09A686C
:1023300022F4E00222F040029A6099686268114338
:102340002269114362690A439A60E2681A611A6954
:10235000A16842EA01421A61DA6822F08002DA607A
:102360001A6C22F480221A64196CA2690A431A6456
:10237000FF225A620123637710BD012010BD0023A4
:10238000092803D90A380133C0B2F9E740EA03103B
:10239000C0B27047F8B5037F012B06460F464FF0D9
:1023A000020564D001230377036845770878BD7878
:1023B00049789B68AAB913F0400308BFFB70FFF788
:1023C000DEFF04460846FFF7DAFF02462846FFF71D
:1023D000D6FFFB7840EA034040EA044040EA02248A
:1023E0000AE013F0400308BFFB70090241EA004411
:1023F000F878254345EA00443368CA225A625322DA
:102400005A623046FFF75DFF3368054630B1FF2260
:102410005A6204237377002333771FE004F07F3080
:1024200020F0FE4018609A6822F480229A60996831
:10243000FA6811433A690A439A60DA6822F0800226
:10244000DA609B689B060BD43046FFF722FF38B159
:102450003368FF225A62042373773577012506E03B
:102460003368FF225A6201237377002333772846AB
:10247000F8BDF8B5037F012B06464FF0020557D093
:102480000123037745774B78C8788D780F78002A39
:1024900047D1DA0603D523F010020A324A70FFF75B
:1024A0006EFF04464878FFF76AFF02462846FFF7AA
:1024B00066FF40EA473040EA044040EA02243368BD
:1024C000CA225A6253225A623046FFF7FAFE336834
:1024D000054630B1FF225A62042373770023337715
:1024E00015E024F07F4020F0C0005860DA6822F048
:1024F0008002DA609B689B060BD43046FFF7C9FE6A
:1025000038B13368FF225A62042373773577012587
:102510000EE03368FF225A6201237377002333777A
:1025200006E01B0243EA0040284340EA4734C6E77E
:102530002846F8BD00F00F03000900EB800003EB14
:102540004000C0B270470368986A486070B5186967
:102550001D6805F07F3323F0FE43C0F30E001E0C10
:102560008860C3F3062406F03F0005F07F0506F0FF
:10257000400608704C708D70CE7052B9FFF7DAFFCC
:1025800008702046FFF7D6FF48702846FFF7D2FFB5
:102590008870002070BD38B503685C6824F07F4304
:1025A00023F0C003180CC3F3042504F03F04C3F365
:1025B0004233C8704D708C700B7052B9FFF7BAFF80
:1025C000C8702846FFF7B6FF48702046FFF7B2FFF5
:1025D0008870002038BD704710B50446002836D0FA
:1025E00090F8513003F0FF021BB980F85020FFF73C
:1025F000F2FFA16860680843E1680843216902238B
:102600000843616984F8513023680843E1691A6816
:102610000843216A22F040021A600843A269A16AB5
:10262000084302F4007101431960120C616A02F060
:1026300004020A435A60E26A1A61DA6922F400620B
:10264000DA6100200123606584F8513010BD01205B
:1026500010BD70472E4A0368904212D0B0F1804FEF
:102660000FD0A2F57C4290420BD002F580629042DE
:1026700007D002F58062904203D002F57842904282
:1026800018D14A6823F070031343214A904237D08F
:10269000B0F1804F34D01F4A904231D002F58062B1
:1026A00090422DD002F58062904229D002F5784206
:1026B000904225D0184A904222D002F58062904282
:1026C0001ED002F5806290421AD0A2F59832904254
:1026D00016D002F58062904212D002F580629042DC
:1026E0000ED003608B68C3620B688362084B98420C
:1026F0000BD003F58063984207D0012343617047F4
:10270000CA6823F440731343EBE70B690363F4E7F0
:1027100000000140000400400040014010B50446A4
:10272000A0B190F8393003F0FF021BB980F83820CF
:10273000FFF78FFF022384F839302068211DFFF74F
:1027400089FF012384F83930002010BD012010BD1D
:1027500010B50123046A8B4024EA03030362036A71
:102760008A4042EA0301016210BD000010B5044630
:1027700001220068FFF7ECFF2368084A934203D068
:1027800002F58062934203D15A6C42F400425A64CB
:102790001A6842F001021A60002010BD00000140DA
:1027A000FFF7E4BF2DE9F84305682B69074623F4DA
:1027B0004052C368B968C06913433A692B61EB683A
:1027C00011437A6923F416430A43024323F00C03AE
:1027D0001343EB606B6923F44072BB69B0F5004FA3
:1027E00043EA02036B613F4B36D19D4203D003F5B0
:1027F00080639D4216D1FFF733FD7E681924604344
:102800007600B0FBF6F6FFF72BFD7A684FF0640810
:102810006043B6FBF8F652003601B0FBF2F9FFF761
:102820001FFD15E0FFF704FD7E6819246043760064
:10283000B0FBF6F6FFF7FCFC7A684FF064086043E3
:10284000B6FBF8F652003601B0FBF2F9FFF7F0FCE8
:1028500044437868400034E09D4202D0224B9D42C0
:1028600016D1FFF7FDFC7E6819246043B600B0FB6B
:10287000F6F6FFF7F5FC7A684FF064086043B6FBA4
:10288000F8F692003601B0FBF2F9FFF7E9FC15E02B
:10289000FFF7CEFC7E6819246043B600B0FBF6F665
:1028A000FFF7C6FC7A684FF064086043B6FBF8F6A1
:1028B00092003601B0FBF2F9FFF7BAFC44437868A6
:1028C0008000B4FBF0F0B0FBF8F008FB10921201AE
:1028D0003232B2FBF8F303F00F033343AB60BDE8D1
:1028E000F88300BF0010014000140140704710B58C
:1028F000044630B390F8393003F0FF021BB980F87A
:102900003820FFF7F3FF2268022384F83930D368B8
:1029100023F40053D3602046FFF744FF23681A696D
:1029200022F490421A615A6922F02A025A61DA6846
:1029300042F40052DA6000200123E06384F8393069
:1029400010BD012010BD000030B50C4CA268A46879
:10295000B4F1006F13460CD1131F094C094A53F808
:10296000045F42F8045FA242F9D1044A4FF00053D9
:102970009360103043F8201030BD00BF00ED00E040
:1029800084010020FCFFFF1F38B5114B1A68D16885
:1029900011F0020F1C4604D06FF002031361FFF721
:1029A00017F82368DA68520711D56FF00402094D51
:1029B0001A615C6A2B68E31AB3F57A7F07D3FFF7D5
:1029C00035F8034B2C601B6804F57A729A6338BDA6
:1029D0000CF5002008F50020264B37B51A6C264C64
:1029E000254842F008021A641A6C02F008020192AB
:1029F000019A1A6A42F008021A621A6A22F0080260
:102A00001A62A3F50B3323604FF0FF33E3601B4BD7
:102A10001B4A1B6893420EBF0F231A4AB3FBF2F303
:102A20004FF0000518BF03F1FF3363602561A56017
:102A30006561FFF773FE14493220FFF785FF134BE2
:102A40000D484FF480225A602946FFF7A9FE042161
:102A50000948FFF7A5FE23680D495A6A0A6002F586
:102A60007A729A63DA68284642F00402DA6003B0A8
:102A700030BD00BF003802400CF50020A00100204E
:102A80000024F40080841E008929000800E100E091
:102A900008F500207FB50F23019302230293002342
:102AA00003934FF4A053049305214FF4805301A8DE
:102AB0000593FFF75FFAB0FA80F0400907B05DF8C0
:102AC00004FB0000174A1849936803F00C03042B19
:102AD00003D0082B03D0154B18E0154B16E05068B7
:102AE000536810F4800F03F03F03506814BF104A7E
:102AF0000E4AB2FBF3F30B4A5268C2F30142C0F331
:102B00008810013243435200B3FBF2F30B60054BD4
:102B1000084A9B68C3F30313D25C0B68D3400B6075
:102B2000704700BF00380240A00100200024F400DC
:102B300000127A0030B20008194B10B51A6C42F03E
:102B400080521A641B6C8EB003F080530093009B7C
:102B5000144B1A6822F480421A601B6803F4804305
:102B60000193019B0123029300B105234FF48002DE
:102B70000393099202230822002408930A920C93DB
:102B80004FF4A872072302A805940B920D93FFF748
:102B900061F810B9FFF77EFF00E020460EB010BDCF
:102BA0000038024000700040184B10B51A6C42F01B
:102BB00080521A641B6C8EB003F080530093009B0C
:102BC000134B1A6822F480421A601B6803F4804396
:102BD0000193019B032302930123102205930223F7
:102BE0000024069208930A920C934FF4A8720723CC
:102BF00002A8039409940B920D93FFF72BF810B9D8
:102C0000FFF748FF00E020460EB010BD003802403C
:102C10000070004008B50120FFF78EFF30B9FFF7C4
:102C20008BFF18B9FFF7C0FF00B9FEE708BD000031
:102C3000184AD2F8883010B543F47003164CC2F825
:102C400088302368002143F001032360A1602368DA
:102C500023F0847323F480332360104B6360236874
:102C600023F4802323604FF00063E16093600C4BFA
:102C70000C4A1A60FEF7C4FEFFF7CCFFFFF722FFF5
:102C8000236A43F008032362236A23F008032362C4
:102C900010BD00BF00ED00E00038024010300024FD
:102CA000A00100200024F40010B50021044604F027
:102CB0000F0400F0BFF80120A04010BD70B504461D
:102CC0004B1C0E4621800DD0C1F3031000F01EF8FE
:102CD00005463046FFF7E8FF05F110031835606040
:102CE000A360E56070BDB0F9000000F0C7B801292D
:102CF000B0F9000018BF002100F09CB808B5FFF73C
:102D0000E1FEBDE80840FEF77BBE000000B58BB0D9
:102D1000082872D8DFE800F005111D2935414D590A
:102D20006500394B39481A6B42F001021A631B6B7C
:102D300003F001030193019B63E0334B34481A6BAA
:102D400042F002021A631B6B03F002030293029B20
:102D500057E02D4B2F481A6B42F004021A631B6B8D
:102D600003F004030393039B4BE0274B2A481A6BA1
:102D700042F008021A631B6B03F008030493049BE0
:102D80003FE0214B25481A6B42F010021A631B6B7F
:102D900003F010030593059B33E01B4B20481A6B8F
:102DA00042F020021A631B6B03F020030693069B7C
:102DB00027E0154B1B481A6B42F040021A631B6B4D
:102DC00003F040030793079B1BE00F4B16481A6B59
:102DD00042F080021A631B6B03F080030893089B88
:102DE0000FE0094B11481A6B42F480721A631B6B97
:102DF00003F480730993099B03E00D48FEF720FD5F
:102E000000200BB05DF804FB0038024000000240D7
:102E10000004024000080240000C02400010024082
:102E20000014024000180240001C02400020024032
:102E300040B2000830B5054687B0C0F303100C4619
:102E400005F00F05FFF762FF012304F00F0203FAFC
:102E500005F5094B019553F822300293C4F3021390
:102E60000393C4F3C314032301A904930594FEF749
:102E7000FDFD07B030BD00BF64B2000838B500F0FA
:102E80000F05C0F303100C46FFF740FF6900C2684E
:102E900003238B4022EA0303032CC360C36828BFCB
:102EA00000248C401C43C46038BD0000F0B5304B9A
:102EB0001E688FB0002E59D101272E4D2E4C1F6059
:102EC0002E4B23602B6C43F080532B642B6C03F050
:102ED00080530193019BFEF7ADFE294B02A81F60B2
:102EE0001E600423029308960497FEF7B3FE70B9A0
:102EF000AB6823F4F813AB60AB6823F4F813AB6052
:102F00002B6F43F480732B674FF400431AE00C23BC
:102F100002A80293089604960797FEF79BFE10B14D
:102F20001848FEF78DFC134B9A6822F4F8129A6049
:102F30009A6822F4F8129A601A6F42F400721A67C3
:102F40004FF4FA43104A0C480121DB091160013BA0
:102F500000227F216260A160E36022616261A26160
:102F6000FFF7C9F910B10948FEF76AFC0FB0F0BDD0
:102F700068F500200038024048F500200028004095
:102F8000400E474298B200083C0E4742C4B20008C7
:102F9000014B1868704700BF68F5002010B5154C4C
:102FA000154B236090B002A900222046FFF7CBFA10
:102FB000002201A92046FFF7EEFA9DF804300D9398
:102FC0009DF80530013B0B939DF806300A939DF860
:102FD000073064330C939DF80830099310A89DF8CE
:102FE000093008939DF80A3040F8243D01F0E2FCD6
:102FF00010B010BD48F500200028004030B589B061
:1030000008AB184D43F81C0D174A2A60184601F00A
:103010001FFA83698DF80830036901338DF8093090
:10302000C3688DF80A304369643B8DF80B308368C0
:103030008DF80C3043688DF80D3003688DF80E3034
:1030400000244023224602A928468DF80F3006941A
:103050000794FFF70EFA224603A92846FFF79AF9CC
:1030600009B030BD48F500200028004008B5124BDB
:1030700002681A6082685A60C2689A600269DA60FF
:1030800042691A6100229A61B0F91A20013201D115
:10309000082205E0B0F9182001320CBF04220C22EE
:1030A00005485A61FFF723FC20B10448BDE80840F9
:1030B000FEF7C6BB08BD00BF94F50020EAB20008C9
:1030C000F0B50E4687B00446514930461546FEF726
:1030D00025FC504907462846FEF720FC01463846A5
:1030E000FEF7FEFB4C4B2060984243D013D8A3F56B
:1030F0000063984232D003F58063984252D1474B27
:103100001A6C42F480221A641B6C03F4802302932D
:10311000029B022345E0424B984213D003F58063A3
:10312000984233D0A3F5444398423BD13B4B1A6CB1
:1031300042F480121A641B6C03F480130493049B02
:1031400004232EE0354B5A6C42F010025A645B6C3B
:1031500003F010030093009B002322E02F4B1A6C16
:1031600042F400321A641B6C03F400330193019B98
:10317000012316E0294B1A6C42F400221A641B6CDE
:1031800003F400230393039B03230AE0234B5A6CAD
:1031900042F020025A645B6C03F020030593059B08
:1031A000052363601A493046FEF77CFB194928461F
:1031B000FEF778FB721C03D001213046FFF75EFE5C
:1031C0006B1C03D001212846FFF758FE4FF416531D
:1031D000A3600023E3602361636126836583204647
:1031E000FFF744FF22680F4B9A420FD10E4B01228A
:1031F0001A600E4B04F11805206861681A4603C274
:103200000834AC421346F7D12068106007B0F0BD17
:10321000FCB30008A8B30008004C0040003802408E
:10322000001001400014014090F50020D4F500206A
:103230008160FFF71BBF0000034B19604168034B1F
:1032400043F82120704700BF8CF500206CF500206A
:103250000368034A18681360C0F34010704700BF4A
:1032600094F5002010B5046801460846FFF7F0FF0A
:103270000028FAD06068C0F3080010BD0368034A54
:1032800018681360C0F3C010704700BF94F50020A9
:1032900038B5056804462046FFF7F0FF0028FAD04D
:1032A000C1F30801696038BD03681A6810B5124C93
:1032B00022F0400223601A60C2680369626182687A
:1032C0002261072263608369E2624268E361E2602F
:1032D00000234269A3602046A3622362A261636265
:1032E000FFF77AF910B10548FEF7AAFA22681368C9
:1032F00043F04003136010BDF0F5002001B3000857
:103300002DE9F04F0F4687B004463D49BDF94050C6
:10331000384690461E46FEF701FB3A498146404634
:10332000FEF7FCFA384901903046FEF7F7FA3749C4
:1033300082462846FEF7F2FA019B83461946484624
:10334000FEF7CEFA594681465046FEF7C9FA0146C5
:103350004846FEF7C5FA2E4B206098420BD103F584
:1033600084335A6C42F480525A645B6C03F4805389
:103370000393039B1CE0274B98420BD103F50033CA
:103380001A6C42F480421A641B6C03F48043049369
:10339000049B0DE0204B98420AD103F5FE331A6CD2
:1033A00042F400421A641B6C03F400430593059B2E
:1033B00013493846FEF776FA12494046FEF772FA8C
:1033C00011493046FEF76EFA00236360A360E360A4
:1033D0003823A3616B1CA4F81C80E78326846584D2
:1033E00004D00A492846FEF75DFA02E04FF4007364
:1033F00063612046FFF758FF07B0BDE8F08F00BFBC
:1034000050B4000818B3000860B3000898B400086E
:103410000030014000380040003C004010290CBF43
:103420004FF400610021012A416004D0022A05D036
:103430003AB9826008E00021816005E082600022E4
:1034400002E0022282600122C2604269B2F5007F7E
:1034500005D0002B14BF00224FF480224261002BC4
:1034600014BF00234FF482730361FFF71DBF0000F8
:103470001B4B994201DC38232FE0A1F51223194A96
:10348000A3F5F863934201D8302326E0A1F5742315
:10349000154AA3F51073934201D828231DE0A1F526
:1034A000F413124AA3F59063934201D8202314E049
:1034B0000F4B104A0B44934201D818230DE00E4BDA
:1034C0000E4A0B44934201D8102306E00C4B0D4AE0
:1034D0000B44934294BF082300238361FFF7E4BEAB
:1034E000BF2709007F1A06003F420F00BFC62D000C
:1034F000C0B4B3FF3F4B4C00806967FFBFD8A70043
:10350000C090BFFE3F6F400103689A689007FCD5EA
:10351000044A89B21360D9609A68D207FCD5D8688A
:10352000704700BFF0F50020054B186830B9012244
:103530001A60044B044A1A60FFF74EBA704700BF86
:1035400084F6002048F60020000C004008B5044B2B
:103550001B680BB9FFF7E8FF024B586A08BD00BFB4
:1035600084F60020000C0040034B1B685863DA68A7
:1035700042F00202DA60704748F60020034B1A68F6
:10358000D36823F00203D360704700BF48F60020E1
:10359000024B1B686FF002021A61704748F6002068
:1035A00030B5234C00238DB04FF0FF321946206810
:1035B000FDF786FB012820D10020FEF7D1F90CABE6
:1035C00043F8240D184600F043FF1A4A0346202111
:1035D00004A802F0EFFE272304AA00931649174B14
:1035E000174800F0B9FA1749154800F0B5FA00235A
:1035F0001A4619462068FDF7BFFA134D134CAB6805
:103600001A686B681A4201D1EA6801E0EA681B0493
:103610001360A3681A6863681A4202D0E2681B0448
:1036200000E0E26813604FF47A70FDF725FEE6E7EC
:10363000C00200209CB00008BCB00008D4B4000850
:1036400040030020DDB40008DC0200205803002005
:1036500010B501208EB0FDF70DFB2D4C4FF4E1317C
:1036600020602C4800F008FA04A8FEF779F9002839
:1036700002DC0020FEF762F900234FF0FF3219460A
:103680002068FDF71DFB012823D10020FEF768F913
:103690000EAB43F8240D184600F0DAFE1E4A03462E
:1036A000202106A802F086FE1123009306AA1B4BD8
:1036B0001B491C4800F050FA1B4B1C491A6819485A
:1036C00000F04AFA124800231A4619460068FDF72E
:1036D00053FA174B019300240B2300934FF400720D
:1036E00023461449039402941348FDF7B3FB134B8C
:1036F0000193052300934FF400722346104903946D
:1037000002941048FDF7A6FBFDF786FCFEE700BF1C
:10371000C0020020EC0200209CB00008D4B40008D5
:10372000BCB0000840030020A0010020EDB4000858
:10373000C802002026B50008A1350008C4020020F8
:103740002EB50008A1020008094B036083686BB125
:10375000084A1368984202D14368136070475A6858
:10376000904201D01346FAE742685A60704700BFA2
:1037700040B5000888F6002010B50446FFF7E4FFC6
:10378000204600F055FB204610BD0000054B0360AD
:10379000002343608160027319B1034B1A684260D1
:1037A0001860704740B5000888F60020F8B50B4B4C
:1037B0001C6807460E4674B1A56855B132463946B5
:1037C000284603F0B3FA20B9284603F0A7FA864248
:1037D00001D06468EFE72046F8BD00BF88F60020FE
:1037E000007B7047036870B51B6901220021054604
:1037F0009847431C04460ED02B6802221B69002107
:10380000284698472B6806461B6900222146284611
:103810009847304670BD70BD10B5074B0446002276
:1038200040F8043BFFF7B2FF044B03F108023433C6
:1038300022606360204610BD78B6000848B50008D5
:1038400010B5074B03F1080234330446026040F818
:10385000043FFFF779FF204600F0A0F9204610BD95
:1038600048B5000810B50023036043600A782F2A8A
:10387000044613D14A788AB1481C2060194623684F
:103880001A782F2A02D10133236004E01AB10133E0
:1038900001312360F3E7FFF789FF6060204610BD28
:1038A00000687047406808B520B1FFF799FF431ED4
:1038B0005842584108BD10B50446FFF7F3FF00B168
:1038C000606810BD406808B520B1FFF789FFB0FA05
:1038D00080F0400908BD10B50446FFF7F3FF10B1B2
:1038E000606800B1043810BD4068003018BF012086
:1038F0007047704710B5044600F09AFA204610BD94
:103900002DE9F74305469946134B45F8043B044619
:103910000F46904600212422284600F067FF082326
:10392000A3620E4B23630026BDF928300093424664
:103930004B4639462846E662FFF7E2FC3346E26A28
:10394000A16A2846FFF76AFD2846216BFFF790FD24
:10395000204603B0BDE8F0838CB5000840420F005C
:1039600070B5094D2B68834204460BD0061DC26A10
:10397000816A00233046FFF751FD216B3046FFF787
:1039800077FD2C6070BD00BF8CF60020034BC26237
:10399000816200221A60FFF7E3BF00BF8CF60020AF
:1039A000024B016300221A60FFF7DABF8CF6002099
:1039B00038B504460D46FFF7D3FF2946201DBDE864
:1039C0003840FFF7A1BD00F05FB8A0F15400FFF749
:1039D000FABF00F05CB8A0F15400FFF7FABF000096
:1039E00038B504461D4600F021F8294604F154007C
:1039F00000F07EF8054B03F10802226003F120027B
:103A000054336265A365204638BD00BF98B50008F1
:103A10001823594343185A6B1B6A0AB92BB118472C
:103A20001BB101442431184610477047F8B50546CC
:103A30000F4B45F8043B04460E46174600211C2256
:103A4000284600F0D3FE002323626363A363E3648C
:103A50004FF4165323653A4631462846FFF730FBAC
:103A6000284622460349FFF7E7FB2046F8BD00BF82
:103A7000FCB50008113A000838B504460D4604307C
:103A8000FFF7D6FB256538BD0430FFF7EBBB10B55B
:103A900004300C46FFF7FCFB204610BDF8B5074686
:103AA0000D468E180C46B44208D03B6814F8011B32
:103AB0005B6A384698470130F5D12646701BF8BD41
:103AC000F8B506460D468F180C46BC4208D0336840
:103AD00030469B6A9847431C02D004F8010BF4E778
:103AE000601BF8BD00207047002070470020704721
:103AF0001FB50446FFF790FE0B4B0C4903F108027B
:103B00003C33636000236361226001A8224602F017
:103B100053FB074901A800F0C1FB606100F080F988
:103B2000204604B010BD00BF04B6000848B6000827
:103B30004CB6000810B5074B03F108023C330446AD
:103B400002604360406900F0EFF92046FFF778FE1D
:103B5000204610BD04B600080EB433B505AB0446CC
:103B600053F8045B4069019300F098FA019A606988
:103B7000294601F071FA02B0BDE8304003B0704749
:103B8000044B1B6823B9272226210348FFF798BA64
:103B9000704700BF90F50020D4F5002010B5074B0A
:103BA0000360074A0023194652F82340A04208BF89
:103BB00042F823100133402BF6D110BD78B600082F
:103BC00090F60020F7B50E462C49054602F087FB1B
:103BD000044610B9FFF7D4FF4CE02949284602F00B
:103BE0007EFB18B9FFF7CCFF012443E025492846A6
:103BF00002F075FB18B9FFF7C3FF02243AE0224B2D
:103C0000002453F8242072B10134402CF9D107E08C
:103C100029466846FFF726FE6846FFF765FE60B94D
:103C20004FF0FF3426E02B783A2BF1D16A46174942
:103C3000284602F0E5FA009816E06846FFF742FED3
:103C400018B16846FFF747FE0EE06846FFF733FEFF
:103C500005460028E4D0036868469F68FFF720FE09
:103C6000324601462846B8470028D9D0064B43F8CB
:103C700024000334204603B0F0BD00BF4FB6000857
:103C800068B6000856B6000890F6002048B600084E
:103C900002284FF0000309DDC21E074951F8220037
:103CA00041F8223020B103685B6818471846704716
:103CB0004FF0FF30704700BF90F60020022870B52B
:103CC0000C4615460FDC0E4B1B680BB9FFF758FF6F
:103CD0006619B44205D014F8011B0A48FFF7D8FA58
:103CE000F7E7284670BD0338074B53F8200020B192
:103CF0000368BDE870401B6818474FF0FF3070BD87
:103D000090F50020D4F5002090F60020022810B590
:103D10000C460ADC0B4B1B680BB9FFF731FF0A4856
:103D2000FFF7A0FA2070012010BD0338074B53F8AD
:103D3000200020B10368BDE810409B6818474FF091
:103D4000FF3010BD90F50020D4F5002090F6002043
:103D5000022807DD0338064B53F8200020B1036822
:103D6000DB681847012070474FF0FF30704700BFF5
:103D700090F60020022807DD0338064B53F8200098
:103D800020B103681B691847002070474FF0FF30CF
:103D9000704700BF90F60020022808B504D84FF401
:103DA00000534B60002008BD00F052F80923036067
:103DB0004FF0FF3008BD08B5012000F04FF8704704
:103DC00008B5FEF79BFFFFF7FAFFBDE80840FFF7D5
:103DD0003FBC0000074A13681844EFF3088188428B
:103DE00029BF054B10600C224FF0FF302CBF1A602A
:103DF00018467047A4010020C0F80020074C08B501
:103E000023680546986800F049F92368D86800F0EF
:103E100045F90DB1FDF70BFDFEE700BF08020020DC
:103E2000002102F034B90B460146184600F002B8F2
:103E300000F05CBC10B5054C13462CB10A46014697
:103E40000220AFF3008010BD204610BD000000002E
:103E5000014B1868704700BF0802002008B5074BE7
:103E6000044613B10021AFF30080054B1868836A44
:103E700003B198472046FFF7C1FF00BF00000000D4
:103E800000B7000870B505460C4609B9002070BDA2
:103E900018B183690BB900F053F9204B9C4201D152
:103EA0006C6808E01E4B9C4201D1AC6803E01D4BDE
:103EB0009C4208BFEC68B4F90C30002BE6D02146D8
:103EC000284600F039F8236B064633B1216A2846AC
:103ED00098470028B8BF4FF0FF36A3891B0603D5CB
:103EE0002169284600F0D8FE616B41B104F144031A
:103EF000994202D0284600F0CFFE00236363A16CF4
:103F000021B1284600F0C8FE0023A36400F084F924
:103F10000023A38100F081F9304670BD9CB60008F3
:103F2000BCB60008DCB60008024B01461868FFF773
:103F3000A9BF00BF080200208A892DE9F04105468B
:103F400010070C4659D44B68002B02DC0B6C002B7D
:103F500017DDE66AAEB102F48052002392B22F68F8
:103F60002B600AB1606D15E0216A01232846B04735
:103F7000411C0FD12B686BB11D2B01D0162B03D127
:103F80002F600020BDE8F081A38943F04003A381A6
:103F9000BDE8F081A3895A0705D56368C01A636B31
:103FA0000BB1236CC01A00230246E66A216A284638
:103FB000B047431CA38906D129681D293AD8214A54
:103FC000CA40D60736D500226260D9042269226031
:103FD00004D5421C01D12B6803B96065616B2F6069
:103FE0000029CED004F14403994202D0284600F0C3
:103FF00053FE00206063BDE8F0810F69002FC0D040
:1040000093070E6808BF4B690F6018BF0023C7EB0A
:1040100006088B6002E00744C0EB0808B8F1000F07
:10402000AFDD43463A46216AA66A2846B0470028D3
:10403000F1DCA38943F04003A3814FF0FF30BDE8DA
:10404000F08100BF0100402038B50B6905460C46E1
:10405000DBB118B183690BB900F072F80C4B9C42CC
:1040600001D16C6808E00B4B9C4201D1AC6803E0C5
:10407000094B9C4208BFEC68B4F90C302BB12146C7
:104080002846BDE83840FFF757BF002038BD00BFC5
:104090009CB60008BCB60008DCB60008014620B992
:1040A000044B0549186800F08FB9044B1868FFF7F6
:1040B000CBBF00BF00B7000849400008080200203D
:1040C000014900F081B900BF49400008002310B544
:1040D000044603604360836081814366C28103615B
:1040E00043618361194608225C3000F07FFB054B79
:1040F0006362054BA362054BE362054B24622363B5
:1041000010BD00BF556200087B620008B362000862
:10411000D762000870B568234D1E5D430E4605F159
:10412000740100F0FFFD044640B1002180E8420028
:104130000C30A06005F1680200F058FB204670BD0D
:10414000836910B5044633BB8364C3640365124BB3
:10415000124A1B688262984204BF0123836100F007
:104160001FF86060204600F01BF8A060204600F0B9
:1041700017F80022E06004216068FFF7A7FF012222
:104180000921A068FFF7A2FF02221221E068FFF7D1
:104190009DFF0123A36110BD00B70008C1400008C6
:1041A000F8B51C4B1E68B369074613B93046FFF7D4
:1041B000C7FF4836B4687368013B04D4B4F90C50A7
:1041C0007DB16834F8E733680BB13668F2E7042153
:1041D0003846FFF79FFF30600028F6D10C233B6084
:1041E000F8BD4FF6FF73E3810123A3816566256067
:1041F000A560656025616561A5610822294604F115
:104200005C0000F0F3FA6563A563A564E5642046ED
:10421000F8BD00BF00B7000870477047F7B50F46FC
:10422000114601AA054604F063FE064608B90020BF
:1042300029E02846FFF7B4FF04460028F7D04FF4E2
:10424000DB73019A3946284601F0A4FE002806DAFD
:104250000025FFF7E1FFA581FFF7DFFFE7E70B4B45
:1042600063620B4BA3620B4BE3620B4B2363F305BF
:10427000E081A681246205D502230022214628463A
:1042800000F014F8204603B0F0BD00BF55620008EE
:104290007B620008B3620008D7620008024B0A463E
:1042A00001461868FFF7BABF0802002000F000B806
:1042B0002DE9F8430C4690461E46054618B1836921
:1042C0000BB9FFF73DFF3D4B9C4201D16C6808E004
:1042D0003B4B9C4201D1AC6803E03A4B9C4208BF87
:1042E000EC68A38903F48473B3F5847F03D121467A
:1042F0002846FFF7A9FEE76A0FB91D232BE0012E20
:1043000004D0022E2BD056B3162324E02146284693
:10431000FFF79AFEA28902F4805292B20AB1606D50
:1043200005E0216A33462846B847411C14D0A389CA
:104330005A0706D56368C01A636B4BB1236CC01A69
:1043400006E01B0704D5236813B122699B1A1844A1
:104350008044002603E02B604FF0FF392BE02369F7
:104360001BB92146284600F06BF921462846FFF785
:104370006BFE81460028EFD133464246216A28462B
:10438000B8470130E8D0616B41B104F14403994270
:1043900002D0284600F080FC002363632369236079
:1043A000A389002123F402636160A381082204F140
:1043B0005C0000F01BFA4846BDE8F8839CB6000894
:1043C000BCB60008DCB600082DE9F84380468946F3
:1043D00000F14804002694B1A5686768013F0CD439
:1043E000AB89012B07D9B5F90E30013303D029462B
:1043F0004046C84706436835F0E72468EBE7304697
:10440000BDE8F88370B50E4B0E4CE41AA4100025DD
:104410001E46A54204D056F8253098470135F8E7E6
:1044200006F030FE084C094BE41AA41000251E4685
:10443000A54204D056F8253098470135F8E770BDFD
:1044400094020020940200209C020020940200208C
:1044500038B5074B1C68E36B05461BB9242000F0F8
:104460003DF9E063E16B2846BDE8384000F002B852
:10447000080200202DE9F0410C46804605F0E4F8E2
:1044800021460746404605F0E3F8466906F26C7699
:10449000B307044605D1642296FBF2F302FB1363D3
:1044A0004BB94FF4C87596FBF5F305FB1365B5FAE8
:1044B00085F35B0900E001235F4A302505FB0325F6
:1044C00003F02CFC03F02CFC5C4B1B68F3B17B6805
:1044D0009E4205D13968D8F80030FA6941B90AE03E
:1044E000304603F073FB0028F4D14FF0FF330DE0AA
:1044F000934208DB01E0934207DABA6B9342ACBF08
:104500000023012302E0002300E001232362236A49
:10451000012B0CBFF96B396A4FF461633C2091FBAE
:10452000F3F603FB1613616893FBF0F200FB123005
:104530002368891AA26861601B1A921B3B2B2360B7
:10454000A26003DD013161603C3B04E0002B03DA33
:10455000013961603C33236063683B2B03DD01322A
:10456000A2603C3B04E0002B03DA013AA2603C333A
:104570006360A368172B22DDE2690132E261A26960
:104580000132062AC8BF0022A261E268183B01324C
:10459000A3602369E26055F823108A4246DD0133A7
:1045A0000C2B0CBF63692361A2EB0102E26001BF27
:1045B000013300222261636108BFE26136E0002B13
:1045C00034DAE269013AE261A269013A48BF06229F
:1045D000A261E2681833013AE260A36032BB23694A
:1045E000013B01D423611DE00B23236163695A1E43
:1045F00012F0030F626103F26B7305D1642193FB28
:10460000F1F201FB12324AB94FF4C87193FBF1F297
:1046100001FB1233B3FA83F35B0900E0012303F5D6
:10462000B673E361236955F82330E36003F077FB49
:104630002046BDE8F08100BF64B70008B4F8002050
:10464000F0B58B899D0791B006460C4626D4B1F98A
:104650000E10002909DAA38913F0800F4FF000052E
:1046600014BF40274FF480670DE001AA04F078FCE6
:104670000028F0DB029D05F47045A5F500514D4280
:104680004D414FF480673946304600F04BFB60B92E
:10469000A3899A051DD443F00203A38104F14703C3
:1046A000236023610123636113E00B4BB362A38991
:1046B000206043F08003A381206167614DB1B4F9AC
:1046C0000E10304605F05CF818B1A38943F00103E1
:1046D000A38111B0F0BD00BFC1400008024B0146EC
:1046E000186800F01FBB00BF08020020024B014603
:1046F000186800F0D1BA00BF0802002000000000D6
:1047000001F0FF01102A2BDB10F0070F08D010F882
:10471000013B013A8B422DD010F0070F42B3F6D186
:10472000F0B441EA012141EA014122F007047FF09F
:1047300000070023F0E80256083C85EA010586EAF6
:10474000010685FA47F5A3FA87F586FA47F6A5FA32
:1047500087F68EB9EED1F0BC01F0FF0102F007023E
:1047600032B110F8013B013A83EA010313B1F8D1E9
:104770000020704701387047002D06BF35460338CA
:10478000073815F0010F07D1013015F4807F02BF03
:10479000013015F4C03F0130F0BC0138704700BF54
:1047A00010B5431E0A44914204D011F8014B03F89E
:1047B000014FF8E710BD884210B501EB020301D8A4
:1047C000421E0BE09842FBD28118D21AD34204D089
:1047D00013F8014D01F8014DF8E710BD994204D0DE
:1047E00011F8014B02F8014FF8E710BD02440346EF
:1047F000934202D003F8011BFAE77047F7B501684E
:104800003B29044611D93C22684603F031FD019A48
:1048100063680099002A0B446360BBBF3C3203F11C
:10482000FF3322602260B8BF636061683B2911D901
:104830003C22684603F01CFD019AA168009B002AF7
:104840000B44A360BBBF3C3203F1FF336260626084
:10485000B8BFA360A168172911D91822684603F0D0
:1048600007FD019AE168009B002A0B44E360BBBF8F
:10487000183203F1FF33A260A260B8BFE360216980
:104880000B2911D90C22684603F0F2FC019A6169E8
:10489000009B002A0B446361BBBF0C3203F1FF3362
:1048A00022612261B8BF63616369990712D16421F3
:1048B00093FBF1F201FB123272B903F26C734FF405
:1048C000C87193FBF1F201FB1233002B14BF1C23C0
:1048D0001D2302E01C2300E01D23E268002A06DD00
:1048E000334F4FF0000E64254FF4C87639E0304F57
:1048F0000B2664204FF4C875D4F80CE0BEF1000F0D
:1049000053DC216901392161013118D163692661C4
:10491000591E8A0761610FD191FBF0F200FB121161
:1049200061B903F26B7393FBF5F205FB1233002BB5
:1049300014BF1C231D2302E01C2300E01D23226959
:10494000012A14BF57F822201A467244E260D3E7C6
:104950008B422ADA18460132091A0C2AE1602261D8
:1049600008D02269E168012AF2D057F8220081427A
:10497000F1DC1AE06369C4F810E05A1C9107626127
:104980000FD192FBF5F105FB112262B903F26D73B1
:1049900093FBF6F206FB1233002B14BF1C231D23DE
:1049A000DFE71C23DDE71D23DBE703B0F0BD00BF1D
:1049B00034B700082DE9F047054604F045FE81466E
:1049C0002846FFF71BFF95E80C003C2101FB032361
:1049D000AA68EC684FF4616808FB02312B69AB4AA6
:1049E00052F82320013C012B14446B6911DD9E0712
:1049F0000FD1642093FBF0F200FB123242B903F2B4
:104A00006C764FF4C87296FBF2F002FB106202B9AA
:104A1000013403F51C52103244F620608242EC61EE
:104A20001F4600F22E81462B22DD462240F26D1CED
:104A300064264FF4C87E900710D192FBF6F006FB77
:104A4000102070B902F26C7898FBFEF00EFB10801B
:104A5000002814BF60464FF4B77004E040F26D10B8
:104A600001E04FF4B770013293420444E3D144E0D3
:104A700043D0452240F26D1E64264FF4C8779A4217
:104A80001ADD900710D192FBF6F006FB102070B9EA
:104A900002F26C7C9CFBF7F007FB10C0002814BFEF
:104AA00070464FF4B77004E040F26D1001E04FF42F
:104AB000B770241A013AE2E7452BA8BF45239E07A9
:104AC0001F4614D1642293FBF2F302FB13738BB9DC
:104AD00007F26C704FF4C87390FBF3F203FB120300
:104AE000002B40F26D1308BF4FF4B77304E040F29F
:104AF0006D1301E04FF4B773E41A654800FB041826
:104B000003F00CF903F00CF9624B1E68002E00F064
:104B1000A4802B6A6869012BA8BF01239A46D9F8A3
:104B2000043000F26C7098420DD1D9F83820D9F8D1
:104B30002030D9F83C00D9F81C10D61AB045A1EBAA
:104B4000000105DA07E003F041F80028EDD176E036
:104B5000121A904573DBD9F8002012B1884577DB33
:104B600001E0884507DAB045ACBF00260126BAF15E
:104B7000000F04DA64E0BAF1000F63DB01268AEA71
:104B8000060ABAF1010F5BD11B1A06B95B422A680B
:104B9000D5F80CA01A442A6028469844FFF72EFE48
:104BA000EB68B3EB0A034BD0012B03DC981CD8BF96
:104BB000012301E04FF0FF33EA691C449B181DD527
:104BC0007B1E990714D1642193FBF1F201FB123390
:104BD0008BB907F26B774FF4C87297FBF2F302FBC5
:104BE0001377002F40F26D1318BF4FF4B67324E013
:104BF0004FF4B67321E040F26D131EE0BA0714D1F2
:104C0000642197FBF1F201FB12728AB907F26C770B
:104C10004FF4C87197FBF1F201FB1277002F40F2BD
:104C20006D1208BF4FF4B77204E040F26D1201E05C
:104C30004FF4B7729A42D8BF9B1AEB6100E0564618
:104C4000012E0AD1D9F83C00012608EB000708E044
:104C5000BAF1000F4FF0000691DAD9F8200008EB06
:104C6000000703F05CF80434072394FBF3F3C3EB71
:104C7000C303E41A48BF07342E62AC613846BDE86E
:104C8000F0874FF0FF30BDE8F08700BF04B70008A1
:104C900080510100B4F8002030B500293ED051F811
:104CA000042C0B1F1E49002AB8BF9B180A680C462B
:104CB00012B95A600B6030BD9A420ED91968581863
:104CC000824204BF106852685A6004BF0918196014
:104CD000236030BD994203D80A4651680029F9D1B2
:104CE000146815199D420AD11B682344D0188142CB
:104CF000136013D10868034413604B680DE002D9B8
:104D00000C23036030BD18681C18A14204BF0C6856
:104D10004968596004BF00191860536030BD00BF76
:104D200094F7002070B5CD1C25F0030508350C2D37
:104D300038BF0C25002D064603DA0C233360002013
:104D400070BDA942F9D81F4B1C681A462146A1B173
:104D50000B685B1B0ED40B2B03D90B60CC18CD500A
:104D60001EE08C420DBF63684B686360136018BF20
:104D70000C4615E00C464968E9E7134C23681BB95B
:104D8000304601F043F920602946304601F03EF9F3
:104D9000431CD2D0C41C24F00304A0420AD12560D5
:104DA00004F10B00231D20F00700C31A09D05A425A
:104DB000E25070BD211A304601F028F90130EED1E1
:104DC000BBE770BD94F7002090F700209368013B8B
:104DD000002B10B4936009DA9469A34202DBCBB2D2
:104DE0000A2B03D15DF8044B03F05CB91368581C1F
:104DF00010601970C8B25DF8044B7047F8B50646EC
:104E00000F461446D518AC4208D03A4614F8011B98
:104E10003046FFF7DBFF431CF5D100E00020F8BD72
:104E20002DE9F04F9DB00C4617460393064618B186
:104E300083690BB9FFF784F97F4B9C4201D17468F9
:104E400008E07E4B9C4201D1B46803E07C4B9C425D
:104E500008BFF468A38918070CD5236953B1002350
:104E6000099320238DF8293030238DF82A30DFF87C
:104E7000D4B144E02146304603F07AF90028EED060
:104E80004FF0FF30D5E0039A111D12680391002AFC
:104E900080F28C80524243F002000792049098F80E
:104EA00000302E2B00F08480032298F80010654813
:104EB000FFF726FC48B14023CBEB000003FA00F0DB
:104EC000049B1843049008F1010898F800105E480C
:104ED0008DF82810062208F10107FFF711FC0028C1
:104EE00000F09580594B002B40F08880039B0733DE
:104EF00023F0070308330393099B53440993B846EF
:104F0000454615F8013B1BB9B8EB07090FD003E084
:104F1000252BF9D0A846F3E74B463A4621463046C2
:104F2000FFF76CFF01307FD0099B4B44099398F841
:104F30000030002B78D000234FF0FF32049307930A
:104F4000059206938DF853301A930127052229788C
:104F50003F48FFF7D5FB05F10108049B38B13C4AF7
:104F6000801A07FA00F0184304904546EEE7D90688
:104F700044BF20228DF853201A0744BF2B228DF8FE
:104F800053202A782A2A3FF47EAF079A00210A206C
:104F9000A846013598F80030303B092B03D800FBB8
:104FA00002320121F4E700293FF479AF079276E756
:104FB00098F801302A2B0BD1039B1A1D1B68039212
:104FC000002BB8BF4FF0FF3308F1020805936BE7E1
:104FD0000023059308F1010019460A258046013097
:104FE00098F80020303A092A03D805FB0121012353
:104FF000F4E7002B3FF458AF059155E703AB00935E
:105000002246144B04A9304600F0C2F807E003AB77
:10501000009322460F4B04A9304600F065FBB0F127
:10502000FF3F82467FF468AFA3895B063FF528AF58
:1050300009981DB0BDE8F08F9CB60008BCB600080A
:10504000DCB60008CAB70008CEB7000891510008C6
:10505000C4B70008FD4D000813460A460146024841
:105060000068FFF7DDBE00BF080200202DE9F04711
:1050700088B0002B149F1299109EDDF84CA01D469D
:1050800027F02007BBBF03F100431D4600232D235B
:105090001446B8BF1446462F0B7003D0452F03D1DA
:1050A000013601E0032300E0022307AA049206AAC6
:1050B00003928DE8480422462B4603F07DF9472FE2
:1050C000804602D1119BDB0728D5462F08EB060945
:1050D00011D198F80030302B0AD10022002320464D
:1050E000294605F005FF18B9C6F10106CAF80060A7
:1050F000DAF800309944002200232046294605F0C2
:10510000F7FE08B9302202E0CDF81C9006E0079BBC
:10511000994503D9591C07911A70F8E7079B159A0E
:10512000C8EB03034046136008B0BDE8F08773B5D1
:1051300003460029B8BF494203F8022BB4BF2D2211
:105140002B220929427019DD0DF1070216460A25A6
:1051500091FBF5F405FB14113031092C02F8011D07
:105160002146F5DC3031541E02F8011CB4421A46C7
:105170000AD214F8012B03F8012BF7E730241A4662
:10518000214402F8024B5970101A02B070BD0000A1
:105190002DE9F04F8FB00C4616461F46DDF86080B3
:1051A000054604F001FBD0F800B0584601F0B6FD0A
:1051B00000230C93D8F800300890073323F007033E
:1051C00003F1080294F81890C8F80020D3E90023EE
:1051D000C4E91223D4E9120100F0EEFE012819D12E
:1051E00000220023D4E9120105F08CFE10B12D231A
:1051F00084F843309A4B9B4AB9F1470F8CBF9046D5
:10520000984603232361236823F0040323604FF0AF
:10521000000A93E0D4E9120100F0CEFE236848B9F9
:10522000914A9249B9F1470F8CBF884690460322B4
:105230002261E9E7D4F804E0BEF1FF3FD4E91201AE
:1052400001D106220AE0B9F1670F02D0B9F1470F88
:1052500005D1BEF1000F40F0B6810122626000224C
:1052600006920CAA43F4806305920BAA2360039272
:1052700001930DF12B0263680292009302460B46E4
:10528000CDF810902846FFF7F1FE09F0DF03472B19
:10529000804609D10B9BD81C02DB6268934230DD4B
:1052A000A9F102095FFA89F9B9F1650F0B9912D8D2
:1052B00001394A4604F150000B91FFF738FF0C9A70
:1052C0008318012A8246236102DC2268D1072FD588
:1052D000013323612CE0B9F1660F14D10029636812
:1052E00007DD216113B92268D2071DD501330B44B4
:1052F00019E013B92268D00701D5023313E0012366
:1053000011E04FF067090B9B0C9A934205DB226872
:105310002361D10708D5013305E0002BD4BFC3F1C9
:1053200002030123134423610B9BA3654FF0000A82
:105330009DF82B3013B12D2384F84330009733466A
:105340000DAA2146284600F059F9013002D14FF04C
:10535000FF3050E123685A0501D4236965E0B9F1B3
:10536000650F40F2D58000220023D4E9120105F038
:10537000BFFD78B301233E4A31462846B847013085
:10538000E5D00C9B0B9A9A420BDB2368D80708D414
:1053900023689B0740F111814FF0000804F11909BF
:1053A00006E1089B5A4631462846B8470130CED020
:1053B0004FF0000804F11A090C9B013B9845E7DA0D
:1053C00001234A4631462846B8470130BFD008F18C
:1053D0000108F1E70B9B002B29DC0123244A31460D
:1053E0002846B8470130B2D00B9B23B90C9B13B9A8
:1053F0002368D907CCD5089B5A4631462846B8477A
:105400000130A4D04FF0000904F11A0A0B9B5B4253
:10541000994509DA0123524631462846B8470130FA
:1054200095D009F10109F1E70C9B4246A7E00C9ADF
:10543000A36D9A42A8BF1A46002A914607DC04F1E0
:105440001A034FF0000A29EAE97909931CE0134690
:10545000314642462846B8470130F0D177E700BFD1
:10546000D5B70008D9B70008DDB70008E1B70008D4
:105470002EB800080123099A31462846B847013062
:105480003FF465AF0AF1010AA36DC9EB030292452F
:10549000F0DB08EB03090B9A0C9B9A420FDB2368A5
:1054A000DA070CD40C9B0B9A9844C9EB08089B1A9A
:1054B0009845A8BF9846B8F1000F08DC0FE0089B9C
:1054C0005A4631462846B8470130EBD13FE74346BC
:1054D0004A4631462846B84701303FF438AF4FF0CE
:1054E000000928EAE87804F11A0A09E00123524683
:1054F00031462846B84701303FF429AF09F1010988
:105500000B9A0C9B9B1AC8EB03039945EEDB3FE714
:105510000C9A012A01DCDB0738D5012342463146CB
:105520002846B84701303FF412AF089B5A4631462F
:105530002846B84701303FF40AAF00220023D4E9DF
:10554000120105F0D5FC20B14FF0000804F11A0952
:105550000EE00C9B08F10102013B19E001234A46D1
:1055600031462846B84701303FF4F1AE08F1010852
:105570000C9B013B9845F1DB534604F15002314648
:105580002846B84701307FF403AFE0E601234246E6
:1055900031462846B8470130EED1D8E601234A46C5
:1055A00031462846B84701303FF4D1AE08F1010832
:1055B000E3680D9A9B1A9845F0DBE0680D9B9842D2
:1055C000B8BF184617E0002206920CAA05920BAA53
:1055D00043F4806303920DF12B0223600292019346
:1055E0000246CDF81090CDF800E00B462846FFF7B4
:1055F0003DFD80464EE60FB0BDE8F08F2DE9F04747
:1056000091461F460A698B68DDF820809342B8BF37
:105610001346C9F8003091F8432006460C4612B1F3
:105620000133C9F800302368990642BFD9F8003029
:105630000233C9F80030256815F0060510D104F1D1
:10564000190A07E00123524639463046C047013067
:105650001AD00135E368D9F800209B1A9D42F1DB8E
:1056600094F843302268003318BF012392060FD507
:10567000E1185A1C302081F84300224494F8451068
:1056800082F84310023303E04FF0FF30BDE8F087AB
:1056900004F1430239463046C0470130F4D0226855
:1056A000D9F80050E36802F00602042A08BF5D1B27
:1056B0002269A3680CBF25EAE57500259342C4BFA3
:1056C0009B1AED184FF000091A344D4509D00123FB
:1056D000224639463046C0470130D5D009F101098C
:1056E000F3E70020BDE8F0872DE9F04317460A7E76
:1056F00085B06E2A984606460C460C9B01F1430E77
:1057000000F0AE8011D8632A22D009D8002A00F018
:10571000BB80582A40F0CA8081F84520834955E073
:10572000642A1ED0692A1CD0C0E0732A00F0B08021
:1057300009D86F2A2ED0702A40F0B8800A6842F04B
:1057400020020A603EE0752A24D0782A3AD0ADE0E3
:105750001A6801F14205111D1960136884F842307E
:10576000A8E021681A6811F0800F02D0111D19609D
:1057700008E011F0400F02F10401196002D0B2F903
:10578000003000E01368002B3CDA2D225B4284F8E5
:10579000432037E021681A6811F0800F02D0111DF4
:1057A000196007E011F0400F02F10401196001D007
:1057B000138800E01368227E5C496F2A14BF0A2216
:1057C00008221BE078225A4984F84520226818688C
:1057D00012F0800F00F104051D6003D1550601D5BC
:1057E000038800E00368D00744BF42F02002226033
:1057F0001BB9226822F0200222601022002084F8C7
:10580000430001E049490A226568A560002D08DBD4
:10581000206820F0040020602BB9002D7DD1754652
:105820000CE0002B79D07546B3FBF2F002FB10338D
:10583000CB5C05F8013D03460028F5D1082A0BD1C1
:105840002368DA0708D5236962689A42DEBF3023ED
:1058500005F8013C05F1FF35C5EB0E0323612EE091
:1058600008681A68496910F0800F03D0101D18608D
:10587000136808E010F0400F02F10400186013688C
:1058800001D0198000E0196000232361754616E0FD
:105890001A68111D19601568626800212846FEF714
:1058A0002FFF08B1401B6060636804E004F142050B
:1058B00084F8422001232361002384F84330CDF88B
:1058C00000803B4603AA21463046FFF797FE013091
:1058D00002D14FF0FF3026E023692A463946304690
:1058E000C0470130F5D023689B0710D5002504F18F
:1058F000190907E001234A4639463046C0470130BE
:10590000E7D00135E368039A9B1A9D42F2DBE06819
:10591000039B9842B8BF184605E00B7884F84230E4
:1059200004F142058AE705B0BDE8F083E5B7000859
:10593000F6B700082DE9F04F9A468B6816465A1EB6
:10594000B2F5AE7F87B083BF6FF4AE729B18019340
:10595000002386BF40F25D138B6001930B6888467D
:1059600043F4F06348F81C3B4FF0000B07460C462D
:1059700045465A46CDF810B0CDF80CB0D946CDF812
:1059800008B0A168002900F0E58033681B78492B36
:1059900070D016D8392B0DD8312B40D22D2B46D0B4
:1059A00002D82B2B43D0D5E02E2B00F09280302B49
:1059B00023D0CFE0452B00F09580462B77D0412BAC
:1059C0000CE0652B00F08E800AD8542B75D002D8DD
:1059D0004E2B34D0BEE0592B75D0612B46D0B9E0A8
:1059E0006E2B2CD004D8662B61D0692B42D0B1E04D
:1059F000742B62D0792B66D0ACE0206810F4807FE5
:105A00000DD0019B20F08000206009F10109002BDE
:105A100000F08780013B01310193A16081E012EB2E
:105A20000B0F40F09780216821F4C07105E02168D8
:105A3000080640F18F8021F0800121606FE06AB993
:105A4000B9F1000F0CD1216801F4E060B0F5E06F0E
:105A500006D121F4F0612160012260E0022A5DD0CC
:105A6000BBF1010F1ED0BBF1040F1AE0012A71D166
:105A7000022254E0BBF1000F0ED1B9F1000F6CD13E
:105A8000216801F4E060B0F5E06F6AD121F4F061C3
:105A900021604FF0010B42E0BBF1030F02D0BBF1DC
:105AA000050F57D10BF1010B5FFA8BFB37E0BBF110
:105AB000020F4FD14FF0030B31E0BBF1060F49D17C
:105AC0004FF0070B2BE0BBF1070F43D14FF0080B52
:105AD00025E0216888053DD521F420712160CDF8AD
