:020000040800F2
:100000000000022079280008C5280008C52800083B
:10001000C5280008C5280008C52800080000000001
:10002000000000000000000000000000E1260008C1
:10003000C5280008000000003527000895270008A3
:10004000C5280008C5280008C5280008C5280008DC
:10005000C5280008C5280008C5280008C5280008CC
:10006000C5280008C5280008C5280008C5280008BC
:10007000C5280008C5280008C5280008C5280008AC
:10008000C5280008C5280008C5280008C52800089C
:10009000C5280008C5280008C5280008C52800088C
:1000A000C5280008C5280008C5280008C52800087C
:1000B000C5280008C5280008C5280008C52800086C
:1000C000C5280008C5280008C5280008C52800085C
:1000D000C5280008C5280008C5280008C52800084C
:1000E000C5280008C5280008C5280008C52800083C
:1000F000C5280008C5280008C5280008C52800082C
:10010000C5280008C5280008C5280008C52800081B
:10011000C5280008C5280008C5280008C52800080B
:10012000C5280008C5280008C5280008C5280008FB
:10013000C5280008C5280008C5280008C5280008EB
:10014000C5280008C5280008C5280008C5280008DB
:10015000C5280008C5280008C5280008C5280008CB
:10016000C5280008C5280008C5280008C5280008BB
:10017000C5280008C5280008C528000800000000A0
:10018000C5280008C5280008044B05481B1A062B83
:1001900002D9044B03B11847704700BFA3020020E7
:1001A000A00200200000000005490648091A891035
:1001B00001EBD171491002D0034B03B118477047CE
:1001C000A0020020A00200200000000010B5064C94
:1001D000237843B9FFF7D8FF044B13B10448AFF3BA
:1001E00000800123237010BDA00200200000000049
:1001F000ECC9000808B5084B1BB108490848AFF323
:1002000000800848036813B9BDE80840CCE7064BF6
:10021000002BF9D09847F7E700000000A402002067
:10022000ECC900089C02002000000000154B002BC8
:1002300008BF134B9D46A3F5803A00218B460F461D
:100240001348144A121A05F069FE0F4B002B00D018
:1002500098470E4B002B00D0984700200021040047
:100260000D000D48002802D00C48AFF3008005F0C7
:1002700061FC2000290005F0ABF805F00BF900BF88
:100280000000080000000220000000000000000044
:10029000A0020020E8FB0020000000000000000099
:1002A000F7B5424D2C68631C2B60414B18685430E5
:1002B00004F064FF3F4B4049185508782C461F4610
:1002C0000E4610B1012827D06DE02A68012A05D119
:1002D0001B78412B67D00023236064E0022A02D1FF
:1002E0005B78432BF6E7032A02D19B78512BF1E789
:1002F000062A02D15B794F2BECE7072A53D19A7972
:100300004B2AE8D11A79DB78286003EB02232B4AC9
:10031000138001230B7046E0284D22682B889342FE
:1003200041D1D81E3A5C452A3AD13B4413F8022CFD
:100330004E2A35D113F8013C442B31D105F092F807
:100340001F4A00231060298803398B4204DA1168A0
:10035000F85CC8540133F6E70025256002AC194863
:1003600044F8045D2B46224615490068357001F0BB
:100370009CFC1548114900682B46224601F095FC6B
:10038000124B2146186801F0BEFC019B5BB1104B7B
:100390004FF080521A60BFF34F8FBFF36F8F02E0B0
:1003A00000232360337003B0F0BD00BFC4020020FF
:1003B000C0020020C8020020BC020020CC040020A3
:1003C000D004002044050020D8040020F4040020BC
:1003D00004ED00E0F8B506466C200C46174605F023
:1003E00030F8002305463A462146084C04F0ECFD5F
:1003F00028464FF4E131256004F032FE20680449BC
:10040000002204F035FE3046F8BD00BFC0020020D7
:10041000A1020008F8B5084E0D4617460C46631BAE
:100420009F4206DD306814F8011B543004F09AFE38
:10043000F5E70120F8BD00BFC002002037B502F18A
:100440000A0014460D4605F00DF8412202704322C1
:10045000427051228270E21CC270C2F307220F4B1D
:1004600002714F2242714B22827118600022A24217
:1004700005DA1868A95C10440132C171F7E71A68FF
:1004800022444521D1711A6822444E2111721A6802
:10049000144444226272186803B030BDC8040020BE
:1004A00038B505461446FFF7C9FF04F10A020146B4
:1004B00092B22846BDE83840FFF7ACBFF0B587B030
:1004C0000122002101A8FFF785FF6E486E4D0068EC
:1004D0006E4E01234FF0FF3203A901F03DFC6C4842
:1004E00001234FF0FF3204A9006801F035FC694890
:1004F00001234FF0FF3205A9006801F02DFC002315
:1005000019464FF0FF32286801F026FC00234FF017
:10051000FF3202A9306801F01FFC5F4800234FF052
:10052000FF320DF10601006801F016FC5B4A93688A
:1005300019685368194201D1D26801E0D2681B04DE
:100540001360029B1B78013B102BD8D801A252F8F4
:1005500023F000BF9905000899050008A9050008C7
:10056000BB050008DB050008FD050008FF040008C6
:10057000FF040008FF040008FF040008FF0400084F
:10058000FF040008FF040008FF040008FF0400083F
:10059000FF0400082B060008022004F063FF029B02
:1005A0001B780370044612E0022004F05BFF029BFC
:1005B0001B7803700446049B07E0022004F052FFFE
:1005C000029B1B780370059B04461B780BB1AA2382
:1005D00000E0FF236370022221E0052004F042FFC7
:1005E000029B1B780370049B04460246191D13F8F6
:1005F000010F02F8010F8B42F9D10FE0052004F042
:1006000031FF029B1B780370059B04460246191DAF
:1006100013F8010F02F8010F8B42F9D10522214690
:1006200001A8FFF73DFF204629E0BDF8060001388C
:1006300004F018FFBDF8062007460298013A791E1B
:1006400003461C1AA24204DD13F8014F01F8014FC2
:10065000F7E73946039801F06DF8022004F002FF35
:10066000029B1B780370AA234370014604460222B2
:1006700001A8FFF715FF204604F0DFFE384604F01E
:10068000DCFE3CE738050020F4040020440500208F
:1006900040050020DC040020D804002020050020B4
:1006A00070B51D481D4E006892B001234FF0FF3217
:1006B000694601F051FB002319464FF0FF323068C4
:1006C000174D01F049FB4022002102A805F026FC4D
:1006D00001A9009800F0A6F99DF80540013D04F03D
:1006E0001004E4B215D00A2001F012FE002CEFD065
:1006F000402202A9009800F0F1F90221009800F0D0
:1007000091FB009800F0DBFF4021009800F073FBA4
:10071000D1E712B070BD00BFE00400205C050020EE
:1007200090D003002DE9F0410A2088B004F089FE42
:1007300008A9002341F8180D47484FF0FF32006820
:1007400001F010FA342004F07CFE4FF0FF34052352
:10075000062207210094804604F09EFB102004F03E
:1007600070FE10220546002105F0D8FB012202216F
:10077000284602F0E9F8102004F063FE1022064635
:10078000002105F0CBFB01224521304602F0DCF8C8
:10079000142004F056FE2A4633464146074600F030
:1007A00021F908A92D4841F8147D2246002300684C
:1007B00001F0D8F9039800F037FA039800F0D6FB5F
:1007C0000F21039800F05EFF082303220093042109
:1007D0000623039800F036FF06A9039800F056FAA6
:1007E0001F49039800F030FB0022002308A961E9AB
:1007F0000423039800F090FA0521039800F012FBFF
:100800004FF4967001F084FD0221039800F00AFB7A
:100810000721039800F006FB039800F050FF002426
:10082000012506A9039800F031FA9DF81930442BF0
:10083000029B05D19DF81A20632A01D11D7000E0AA
:100840001C7002990398013100F049FA4FF47A7054
:1008500001F05EFDE5E700BFDC0400203805002064
:100860008047A11907B5104A93681968536819425F
:1008700001D1D26801E0D2681B0402A913600023F1
:1008800041F8043D094B186801F03DFA019B3BB16A
:10089000074B4FF080521A60BFF34F8FBFF36F8F3B
:1008A00003B05DF804FB00BF200500205C050020BC
:1008B00004ED00E02DE9F0410A2086B004F0C1FD0E
:1008C00006A9002341F8100D42484FF0FF3200689E
:1008D00001F048F9342004F0B4FD4FF0FF342A232E
:1008E0002B222C210094804604F0D6FA102004F02C
:1008F000A8FD10220546002105F010FB0122292148
:10090000284602F021F8102004F09BFD1022064634
:10091000002105F003FB01223D21304602F014F8CE
:10092000142004F08EFD2A4633464146074600F067
:1009300059F806A9284841F80C7D22460023006892
:1009400001F010F9039800F06FF9082318221A211A
:10095000039800F0A0F908230322042100930398D0
:10096000062300F06FFE039800F0B6FC1B490398C5
:1009700000F06AFA0621039800F054FA0221039865
:1009800000F050FA039800F09AFE04A9039800F0D2
:100990007DF9134A0398402100F068FF00240125E7
:1009A00004A9039800F072F99DF81130442B029BC2
:1009B00005D19DF81220632A01D11D7000E01C7042
:1009C00002990398013100F08AF94FF47A7001F02E
:1009D0009FFCE5E740050020E0040020400ECF1911
:1009E0006508000810B54160D968C3605B68826023
:1009F0000B60D36852681A600446012001F030F998
:100A000042F21073206023616068054904F094FA93
:100A100060680022082104F085FA204610BD00BF5E
:100A200080969800002370B54FF0FF3204460D46C3
:100A30000068194601F090F901281ED1A36860688A
:100A4000DA685B681B041360036850211B689847D1
:100A50006E1E033560680368FF211B68984706F81F
:100A6000010FAE42F6D1A3682068DA685B681360B4
:100A700000231A46194601F075F8012070BDF8B53B
:100A8000002304460D46164619464FF0FF32006813
:100A900001F062F901281FD1A3686068DA685B6819
:100AA0001B041360036866211B68984700235F1CC2
:100AB000DBB2B34206D26068E95C02681268904714
:100AC0003B46F4E7A3682068DA685B68136000239C
:100AD0001A46194601F046F80120F8BD00232DE919
:100AE000F04104460E46174619464FF0FF320068A3
:100AF00001F032F9012821D1A3686068DA685B68E7
:100B00001B041360036877211B6898470023DDB23C
:100B1000BD4203F1010807D260680368FF211B682A
:100B2000984743467055F2E7A3682068DA685B6827
:100B3000136000231A46194601F014F80120BDE89D
:100B4000F0812DE9F8431D460023044688461646E9
:100B500019464FF0FF32006801F0FEF8012860D11D
:100B6000A368DA685B6808F1FF371B04013E136075
:100B70004644B946B14506D0606819F8011F0368BC
:100B80001B689847F6E7A368DA685B681360012082
:100B900001F0BEFBA368DA685B681B0413600026E3
:100BA0002369B3421BD96068036844211B689847D6
:100BB00060680368FF211B689847C0B2FF2806F1F0
:100BC00001060CD0A368DA685B681360012001F0AD
:100BD0009FFBA368DA685B681B041360E0E7236986
:100BE000B34208D800231A461946206800F0BAFF1D
:100BF0000020BDE8F883013D4544AF4207D060685E
:100C00000368FF211B68984707F8010FF5E7A36801
:100C10002068DA685B68136000231A46194600F002
:100C2000A1FF0120BDE8F883002313B54FF0FF3288
:100C300004461946006801F08FF8012813D1E368D3
:100C4000DA685B68136001F063FBE368DA685B688D
:100C50001B0413600F2001F05BFB00231A461946AA
:100C6000206800F07FFF084B18689A889B790090F5
:100C7000ADF804208DF8063007220023694620468F
:100C8000FFF75FFF02B010BDB0BF000801220A707D
:100C90000823FFF756BF37B5002401941324082B0F
:100CA0008DF800404FF003054FF002048DF801105D
:100CB0008DF802204FF000034FF0080269468DF8CE
:100CC00003408DF8045004BF8DF803508DF80440A4
:100CD000FFF737FF003018BF012003B030BD13B558
:100CE00000230093019314238DF8003010230C4649
:100CF0008DF80130022208236946FFF722FF631EA8
:100D00000DF10302033412F8011F03F8011FA3427F
:100D1000F9D102B010BD0000F7B500230093019394
:100D200014238DF8003010230D468DF80130022277
:100D300008236946FFF705FF04469DF804000AF002
:100D400073FD00221D4B0AF0E5FD06469DF80500E7
:100D50000F460AF069FD02460B46304639460AF056
:100D600027FC06469DF806000F460AF05DFD0022AE
:100D7000134B0AF01DFC0022124B0AF0CBFD024679
:100D80000B46304639460AF0C5FD06469DF8070079
:100D90000F460AF049FD00220B4B0AF0BBFD002272
:100DA000064B0AF005FC02460B46304639460AF06F
:100DB000FDFBC5E90001204603B0F0BD0000704016
:100DC000000089400000303F0000E03F1FB50023D5
:100DD000312202938DF808200A0A8DF80B208DF835
:100DE0000C10052202A9FFF7ACFE003018BF01204D
:100DF00005B05DF804FB1FB50023322202938DF885
:100E000008200A0A8DF80B20082203938DF80C1095
:100E10000DEB0201FFF795FE003018BF012005B071
:100E20005DF804FB07B534238DF804308DF8051008
:100E30000023022201A9FFF784FE003018BF012021
:100E400003B05DF804FB00002DE9FF41414B9942DE
:100E500006460C466AD8404B99426BD8A3F12463EE
:100E6000A3F50343994269D83C4B99426AD83C4B5D
:100E7000994295BF052304234FF018084FF010083E
:100E800020228DF801200122083300258DF8022050
:100E9000512211278DF803208DF8043005222B46AE
:100EA000694630468DF80070FFF74BFE00284DD0A4
:100EB00007EE904A2B4B93FBF8F3F8EE676A07EEC8
:100EC000903AB4FBF3F2B8EEE77A013AC6EE877ACD
:100ED00040248DF80C2002958DF8094004248DF8EB
:100EE00008708DF80A4007EE102AB8EE477A0822FB
:100EF00077EEC77A9FED1C7A67EE877AFCEEE77A89
:100F000017EE903A190CA3EB0143180A8DF80D1057
:100F10008DF80E008DF80F300DEB02012B46304698
:100F2000FFF70FFE401B18BF01200FE000234FF01A
:100F30000408A5E701234FF00608A1E702234FF0BC
:100F400008089DE703234FF00C0899E704B0BDE8BB
:100F5000F08100BF3F72052A3FDD4A1FBFD93E0E18
:100F60003FCE8C0A0087930300000049F0B5084D7E
:100F7000C3B004462B79286801908DF8083005220B
:100F8000002301A92046FFF7DCFD18B9002092E1FB
:100F9000B7BF00082B46052253F8050F03901B79B5
:100FA0008DF8103003A900232046FFF7CAFD002862
:100FB000ECD02B46062253F80A0F13909B88ADF80D
:100FC000503013A900232046FFF7BBFD0028DDD0D9
:100FD0002B46052253F8100F05901B798DF8183019
:100FE00005A900232046FFF7ACFD0028CED02B46F4
:100FF000052253F8150F07901B798DF8203007A9AB
:1010000000232046FFF79DFD0028BFD02B4615A9E1
:1010100053F81A0F15909A889B79ADF858208DF8DF
:101020005A30072200232046FFF78BFD0028ADD061
:101030002B46052253F8210F09901B798DF8283093
:1010400009A900232046FFF77CFD00289ED02EAA88
:1010500005F126031746363518685968164603C643
:101060000833AB423246F7D10023102239462046DE
:10107000FFF767FD002889D0904B32AA03F11007D3
:1010800096463E4618685968154603C50833BB4264
:101090002A46F7D10023102271462046FFF751FD62
:1010A00000283FF473AF306833790B908DF83030FF
:1010B000052200230BA92046FFF743FD00283FF43B
:1010C00065AF7F4D286869681DAB03C3A8681860C9
:1010D0000C2200231DA92046FFF733FD00283FF412
:1010E00055AF26AA05F10C03174614351868596840
:1010F000164603C60833AB423246F7D118681B794F
:10110000306033710D22002339462046FFF719FD68
:1011100000283FF43BAF6B4D28686968AA7A17AB8B
:1011200003C3298919809A7017A900230B2220462E
:10113000FFF707FD00283FF429AF2B46052253F89F
:101140000B0F0D901B798DF838300DA90023204628
:10115000FFF7F7FC00283FF419AF2AAA05F11003A6
:101160001746183518685968164603C60833AB4247
:101170003246F7D118681B79306033710D22002395
:1011800039462046FFF7DDFC00283FF4FFAE4E4D08
:101190002868696820AB03C3A86818600C22002384
:1011A00020A92046FFF7CDFC00283FF4EFAE2B46E8
:1011B000052253F80C0F0F901B798DF840300FA9C2
:1011C00000232046FFF7BDFC00283FF4DFAE2B468E
:1011D000052253F8110F11901B798DF8483011A991
:1011E00000232046FFF7ADFC00283FF4CFAE36AA1F
:1011F00005F116031746263518685968164603C6C2
:101200000833AB423246F7D100231022394620463C
:10121000FFF797FC00283FF4B9AE2C4B3AAA03F134
:101220001007164618685968154603C50833BB42AF
:101230002A46F7D10023102231462046FFF781FCD1
:1012400000283FF4A3AE224B3EAA03F110079646B6
:101250003D4618685968164603C60833BB423246F5
:10126000F7D10023102271462046FFF76AFC0028C0
:101270003FF48CAE28686968AA7A1AAB03C329893F
:1012800019809A701AA900230B222046FFF759FCF7
:1012900000283FF47BAE0F4A1068516823AB03C3AC
:1012A000906818600C22002323A92046FFF749FC10
:1012B000003018BF012043B0F0BD00BFEDBF0008F3
:1012C00002C000081BC0000838C000085EC000084B
:1012D0006EC0000889C00008F0B5084DC1B00446D2
:1012E0002B79286800908DF8043005220023694688
:1012F0002046FFF726FC18B9002091E1B7BF00088F
:101300002B46052253F8050F02901B798DF80C30FF
:1013100002A900232046FFF714FC0028ECD02B463E
:1013200010A953F8DE0F10909A889B79ADF84420ED
:101330008DF84630072200232046FFF702FC0028E4
:10134000DAD02B46052253F8150F04901B798DF83F
:10135000143004A900232046FFF7F3FB0028CBD06C
:101360002B4612A953F81A0F12909A889B79ADF860
:101370004C208DF84E30072200232046FFF7E1FB7A
:101380000028B9D02B46052253F8210F06901B796F
:101390008DF81C3006A900232046FFF7D2FB002859
:1013A000AAD02CAA05F126031746363518685968C5
:1013B000164603C60833AB423246F7D1002310224B
:1013C00039462046FFF7BDFB002895D0954B30AA43
:1013D00003F1100796463E4618685968154603C53E
:1013E0000833BB422A46F7D100231022714620461B
:1013F000FFF7A7FB00283FF47FAF306833790890F0
:101400008DF824300522002308A92046FFF799FB18
:1014100000283FF471AF844D286869681AAB03C394
:10142000A86818600C2200231AA92046FFF789FB40
:1014300000283FF461AF20AA05F10C0317461435CC
:1014400018685968164603C60833AB423246F7D1CE
:1014500018681B79306033710D220023394620460D
:10146000FFF76FFB00283FF447AF704D28686968AD
:10147000AA7A14AB03C3298919809A7014A900238E
:101480000B222046FFF75DFB00283FF435AF2B46CB
:10149000052253F80B0F0A901B798DF82C300AA9FE
:1014A00000232046FFF74DFB00283FF425AF24AA78
:1014B00005F110031746183518685968164603C613
:1014C0000833AB423246F7D118681B79306033716C
:1014D0000D22002339462046FFF733FB00283FF456
:1014E0000BAF534B28AA03F1080716461868596832
:1014F000154603C50833BB422A46F7D118689988B8
:101500009B792860A980AB710F22002331462046C9
:10151000FFF717FB00283FF4EFAE464D28682B7904
:101520000C908DF83430052200230CA92046FFF7DB
:1015300008FB00283FF4E0AE2B46052253F8050FC8
:101540000E901B798DF83C300EA900232046FFF742
:10155000F8FA00283FF4D0AE34AA05F10A03174682
:101560001A3518685968164603C60833AB42324626
:10157000F7D10023102239462046FFF7E2FA00286F
:101580003FF4BAAE2C4B38AA03F110071646186880
:101590005968154603C50833BB422A46F7D10023D4
:1015A000102231462046FFF7CCFA00283FF4A4AEC3
:1015B000224B3CAA03F1100796463D46186859682D
:1015C000164603C60833BB423246F7D10023102229
:1015D00071462046FFF7B5FA00283FF48DAE286823
:1015E0006968AA7A17AB03C3298919809A7017A969
:1015F00000230B222046FFF7A4FA00283FF47CAE1C
:101600000F4A106851681DAB03C3906818600C2224
:1016100000231DA92046FFF794FA003018BF0120CF
:1016200041B0F0BDEDBF000802C000081BC00008BB
:101630009CC0000844C000085EC000086EC00008DE
:1016400089C0000837B50024112500948DF80630B4
:101650008DF800509DF818308DF8041002258DF893
:1016600001508DF805208DF8073004252346082207
:1016700069468DF80250FFF764FA001B18BF01207D
:1016800003B030BD13B50023112200938DF8002064
:1016900022228DF80120042201938DF802208DF87A
:1016A000051008221D2469468DF804208DF8074096
:1016B000FFF747FA003018BF012002B010BD07B590
:1016C00000230093019320238DF800300422082387
:1016D0006946FFF736FA003018BF012003B05DF805
:1016E00004FB73B506461446FFF7C9F908B9002094
:1016F0001EE021463046FFF769FB0028F7D04FF483
:10170000FA7401A93046FFF78DF99DF8045005F0F1
:101710002005EDB2012000F0FBFD25B9013CA4B28B
:10172000002CEED100E001243046FFF7C8FF204630
:1017300002B070BD2DE9F04794B017460E468146C1
:101740004022002104A804F0E9FB3023B7FBF3F5A5
:1017500003FB15775FFA87F833230135029308F10D
:101760000D0AFB1C00950393303601245FFA8AFAB8
:1017700053238DF8103054238DF811308DF8143028
:101780009DF800308DF8153041229DF801308DF81C
:1017900012208DF816305222C4F30723AC42019474
:1017A0008DF813208DF817408DF818302ED19DF844
:1017B0000C308DF819309DF80D308DF81A304F230C
:1017C0008DF81B304B238DF81C300023BB4207D013
:1017D000F11804AA1A4411F8301C51730133F5E7CB
:1017E00014AB5344452203F8402C14AA08F10E030D
:1017F00052FA83F34E2203F8402C14AA08F10F0387
:1018000052FA83F3442203F8402C20E09DF808307C
:101810008DF819309DF809308DF81A304F238DF866
:101820001B304B238DF81C300023F11804AA1A44F6
:10183000013311F8301C5173302BF6D145238DF84C
:101840004D304E238DF84E3044238DF84F304022DA
:1018500004A948460134FFF744FFA54206F13006CB
:1018600086D2012014B0BDE8F0870000F0B585B045
:1018700017460C460646FFF722FF542003F0E1FD11
:101880003921054603F0AAFA0D4B394628461D605A
:1018900003F0D0FA0023322202938DF80820220AA6
:1018A0008DF80B2008220DEB0201304603938DF8D2
:1018B0000C40FFF746F9003018BF012005B0F0BD1D
:1018C000D404002070B504460D46164600211022AF
:1018D00004F024FB20463246294601F035F8204624
:1018E00070BD000008B5012203210E48FFF7EAFF92
:1018F00000221A210C48FFF7E5FF00221B210B48AC
:10190000FFF7E0FF002223210948FFF7DBFF012258
:1019100021210848FFF7D6FF002243210648FFF7A0
:10192000D1FF08BD480500206005002020050020EB
:10193000E4040020F80400200C05002000F1080356
:1019400043604FF0FF32C360036100238260036095
:10195000704700230361704743684B609A688A6050
:101960009A685160996003680861013303607047A9
:101970000A68531C30B501D1036907E000F1080380
:101980005C682568AA4201D32346F9E75A684A6091
:1019900091608B605960036808610133036030BD5A
:1019A0004168826803698A60826851605968884228
:1019B00008BF5A6000220261186801381860704739
:1019C00038B51546026C044632B9056845BB406817
:1019D00000F00CFE656024E06DB9806804F078FAD0
:1019E000A268236C13446268A360934218D32368EF
:1019F000A360284615E0C06804F06AFA236CE26828
:101A000021685B421A448A42E2603EBF62689B18CA
:101A1000E360022D04D1A36B13B1A36B013BA3635D
:101A20000020A36B0133A36338BD034610B41A6CC6
:101A3000084662B1D9685C681144A142D96024BFEC
:101A40001968D960D9685DF8044B04F041BA5DF8B3
:101A5000044B704738B5044600F052FE04F12405EB
:101A6000A36C002B0BDD636A4BB1284600F008FD28
:101A700008B100F06FFDA36C013BA364F0E74FF0E9
:101A8000FF33A36400F04CFE00F03AFE04F11005B1
:101A9000636C002B0BDD23694BB1284600F0F0FC92
:101AA00008B100F057FD636C013B6364F0E74FF051
:101AB000FF336364BDE8384000F032BE38B50446F9
:101AC0000D4600F01DFE206CE36B2268A2604343CC
:101AD000D1181B1A13446160E36000214FF0FF33FB
:101AE000A1636364A36485B92369B3B104F11000F1
:101AF00000F0C6FC012810D10A4B4FF080521A604A
:101B0000BFF34F8FBFF36F8F07E004F11000FFF7B3
:101B100015FF04F12400FFF711FF00F001FE012082
:101B200038BD00BF04ED00E0F8B5064617460D4687
:101B300011B14843013000E00846543000F072FE15
:101B4000044668B10DB9206002E000F1540303605F
:101B5000E663256401212046FFF7B0FF84F850704A
:101B60002046F8BD2DE9FF470026DFF8F0A00192DE
:101B7000044689461F46B04600F0C2FDA26BE36BE7
:101B80009A4201D3022F1AD13A4649462046FFF71E
:101B900017FF636A33B104F1240000F071FC0128DF
:101BA00009D100E038B12D4B4FF080521A60BFF3DD
:101BB0004F8FBFF36F8F00F0B3FD01204AE0019D0E
:101BC0001DB900F0ADFD284644E016B902A800F0AA
:101BD0008FFC00F0A5FD00F09BFA00F091FD636C16
:101BE000013308BFC4F84480A36C013308BFC4F8B4
:101BF000488000F095FD01A902A800F085FC18BB03
:101C000000F07EFDA66BE56B00F08AFDAE4215D1BB
:101C1000019904F1100000F005FC2046FFF71AFFBF
:101C200000F00AFB08B10126A6E74FF08053CAF87E
:101C30000030BFF34F8FBFF36F8FF4E72046FFF7FD
:101C400009FF00F0F9FAEEE72046FFF703FF00F086
:101C5000F3FA002004B0BDE8F08700BF04ED00E017
:101C600070B50646542000F0DDFD0446D8B10123CE
:101C70000025C3634FF0FF3385634560436405600F
:101C800083648560C560056480F850601030FFF79C
:101C900055FE04F12400FFF751FE2B462A46294643
:101CA0002046FFF75FFF204670BD70B5044615461D
:101CB000EFF311864FF4807282F31188BFF36F8FB8
:101CC000BFF34F8F806BE26B904201D3022B16D192
:101CD0001A462046FFF774FEA36C01330AD1636AEB
:101CE0005BB104F1240000F0CBFB30B12DB1012039
:101CF000286005E0A36C0133A364012000E000200C
:101D000086F3118870BD38B50C46EFF311854FF49A
:101D1000807383F31188BFF36F8FBFF34F8F826B94
:101D2000C36B9A4214D2836B01338363836C013398
:101D300009D1436A53B1243000F0A2FB30B12CB179
:101D40000120206005E0836C01338364012000E002
:101D5000002085F3118838BD2DE9FF470026DFF804
:101D600014A10192044688469946374600F0C8FC03
:101D7000A36B63B341462046E568FFF756FEB9F111
:101D8000000F10D1A36B013BA363236813B900F0CC
:101D900065FC60602369B3B104F1100000F070FBD2
:101DA000012810D107E0636AE56063B104F1240003
:101DB00000F066FB38B12F4B4FF080521A60BFF332
:101DC0004F8FBFF36F8F00F0ABFC01204FE0019D00
:101DD0001DB900F0A5FC284649E016B902A800F09C
:101DE00087FB00F09DFC00F093F900F089FC636C28
:101DF000013308BF6764A36C013308BFA76400F018
:101E00008FFC01A902A800F07FFB50BB00F078FC1A
:101E1000A56B00F085FCF5B9236833B900F070FCC0
:101E2000606800F09DFB00F07BFC019904F1240048
:101E300000F0F8FA2046FFF70DFE00F0FDF908B1BA
:101E4000012693E74FF08053CAF80030BFF34F8F5D
:101E5000BFF36F8FF4E72046FFF7FCFD00F0ECF9CD
:101E6000EEE72046FFF7F6FD00F0E6F9002004B0AB
:101E7000BDE8F08704ED00E0064A13681968064BD8
:101E800011B94FF0FF3203E01268D268D26852688D
:101E90001A60704774050020C00600200E4B1A68B7
:101EA00010B550600D4A12689042044607D20C4AA1
:101EB00010681968BDE810400431FFF759BD094AA0
:101EC000106819680431FFF753FD074B1A689442F4
:101ED00038BF1C6010BD00BFA0060020BC0600205B
:101EE0009405002074050020C00600202DE9F84F5D
:101EF0009A460C9B0A9F81460E4615463BB99000B8
:101F000000F090FC8346002800F0B28000E09B4681
:101F1000582000F087FC044688B1AD002A46C0F87E
:101F200030B0A521584603F0F9FF236B043D1D4452
:101F300025F00705731E04F133020B3605E0584601
:101F400000F098FC94E09E4206D013F8011F02F8BE
:101F5000011F19780029F6D10B2F4FF00008BB465E
:101F600004F1040628BF4FF00B0B304684F83F8085
:101F7000C4F82CB0C4F848B0C4F84C80FFF7E9FCB2
:101F800004F11800FFF7E5FCCBF10C03A361C4F8E2
:101F900050802461646284F8548052464946284641
:101FA00000F08CFB0B9B206003B11C6000F0A8FBD1
:101FB000314A324D1368DFF8EC90013313602B681F
:101FC0003BBB2C601268012A2BD1984609EB080014
:101FD00008F11408FFF7B2FCB8F1F00FF6D1DFF802
:101FE000C8A0DFF8C8805046FFF7A8FC4046FFF7BE
:101FF000A5FC2348FFF7A2FC2248FFF79FFC2248DC
:10200000FFF79CFC214BC3F800A0214BC3F80080D4
:1020100007E0204B1B6823B92B68DB6A9F4228BF6F
:102020002C601D4A1D49136801331360E26A236462
:102030000B68012404FA02F0034314200B6000FB38
:1020400002903146FFF788FC00F06AFB114B1B68D9
:102050005BB12B68DB6A9F4207D9114B4FF080526E
:102060001A60BFF34F8FBFF36F8F2046BDE8F88F24
:102070004FF0FF30BDE8F88FC8060020A006002012
:10208000A40600208C060020E00600207405002035
:102090009405002078050020C4060020F4060020E6
:1020A00004ED00E09C05002080050020CC06002007
:1020B0001FB50024039402940194009423465022F7
:1020C0000E490F48FFF712FF012814D14FF4807317
:1020D00083F31188BFF36F8FBFF34F8F094B4FF01E
:1020E000FF321A60084B1860084B1C6004B0BDE852
:1020F000104000F07BBB04B010BD00BFABC00008B7
:1021000071230008C006002078050020BC060020CE
:10211000024A136801331360704700BFB8060020FD
:102120003A4B1B682DE9F74F002B30D1384B1A681A
:1021300001321A601D685DB9364A374B116818685C
:102140001060364A1960136801331360FFF794FE7C
:10215000334C01942368334E334F9D424FF0000BB4
:102160000BD3DFF8B080DFF8CC90D8F800201268ED
:10217000A2B9019B4FF0FF321A603A68D16A14226B
:102180004A43B258022A28BF4FF0010B34E0274AD5
:102190001368013313604FF0000B2DE0D8F80020D6
:1021A000D268D46861688D4202D2019B1960E4E76D
:1021B00004F1040A5046FFF7F3FBA16A19B104F1D8
:1021C0001800FFF7EDFBE06AD9F80010012303FACD
:1021D00000FE4EEA01014FF0140EC9F800100EFB8C
:1021E00000605146FFF7B8FB3868E16AC26A914265
:1021F00028BF4FF0010BB8E70D4A1268002A18BF3C
:102200004FF0010B584603B0BDE8F08FB806002030
:10221000BC060020740500209405002070050020F5
:10222000C00600209C050020A00600209805002084
:10223000F8060020F40600202DE9F84300F060FACB
:102240002A4B1A68013A1A601B680BB1002447E058
:10225000274B1B68002BF9D0264D274EDFF8AC80AA
:102260002B6803B3EB68DC6804F1040904F118007F
:10227000FFF796FB4846FFF793FBE26A33680127B6
:1022800007FA02F114200B4300FB02804946336039
:10229000FFF762FB194BE26A1B68DB6A9A42DFD3E5
:1022A000174B1F60DAE7174C236863B9144B1C689F
:1022B000012CCBD1144B4FF080521A60BFF34F8FDB
:1022C000BFF36F8F0CE00E4D01262368002BEDD07D
:1022D000FFF726FF00B12E602368013B2360F4E77F
:1022E00000F01EFA2046BDE8F88300BFB8060020C3
:1022F000C8060020A4060020F4060020A006002046
:10230000F80600209805002004ED00E09C05002060
:1023100038B540B9124B4FF080521A60BFF34F8F5F
:10232000BFF36F8F38BDFFF7F3FE0E4B0E4D1B68EA
:10233000C41828680430FFF733FB40B92B680B49F9
:10234000D86A0A680123834022EA03030B6020460F
:10235000FFF7A4FDFFF770FF0028DBD038BD00BFFA
:1023600004ED00E0BC060020A0060020F4060020DA
:1023700080B5124D2E46124F2B68002BFBD0FFF775
:10238000C7FE3C68FFF758FF002CF5D000F0B8F905
:102390000B4BDB68DC68201DFFF702FB094A136862
:1023A000013B13603368013B336000F0B9F9206BE7
:1023B00000F060FA204600F05DFADDE77C050020C1
:1023C0008C060020C8060020114B1A68114B30B54E
:1023D0000AB101221AE01A600F4B1B68B3FA83F3AB
:1023E000DBB20E49C3F11F03142000FB03F28C186B
:1023F000083265686D6865600A44954204BF6A6882
:10240000626000FB03135B68DA68054B1A6030BD3D
:10241000B8060020F8060020F40600209C050020E5
:10242000A006002038B5124C0D4621681831FFF780
:102430009FFA20680430FFF7B3FA40B923680D49CA
:10244000D86A0A680123834022EA03030B606B1CED
:1024500006D1216808480431BDE83840FFF77CBA4E
:10246000064B18682844BDE83840FFF717BD00BF89
:10247000A0060020F4060020E0060020BC06002094
:10248000C36870B5DC6804F118052846FFF788FAC0
:10249000114B1B6883B9261D3046FFF781FA0F499F
:1024A000E56A0A680123AB4013430B600C4B142010
:1024B000314600FB053001E00A482946FFF74CFA97
:1024C000094BE26A1B68DB6A9A4283BF074B012013
:1024D0001860002070BD00BFB8060020F406002080
:1024E0009C050020A4060020A0060020F80600207D
:1024F000034B1B680360034B1B684360704700BFBE
:1025000070050020BC06002038B504460D4600F0DA
:10251000F7F80E4B18682B685A1C10D00C4A21682B
:1025200012689142626801D090420AD2811A8B42AD
:1025300007D9121A13442B602046FFF7D9FF002455
:1025400000E0012400F0ECF8204638BDBC06002075
:1025500070050020014B01221A607047F806002028
:102560002DE9F0410446002838D01D4DC36A2A6881
:10257000D26A934232D282691A4E002AA1BF2A68D7
:10258000D26AC2F10C0282611427426907FB03631D
:102590009A4220D100F104084046FFF701FA124B9D
:1025A00048B9E06A4743F2592AB9196801228240C2
:1025B00021EA02021A602A68D26AE26201201C68DB
:1025C0009040204318601420414600FB0260BDE8A3
:1025D000F041FFF7C1B92B68DB6AC362BDE8F08147
:1025E000A00600209C050020F4060020F8B5044653
:1025F00008B90020F8BDC36CC16A826C013B9142EE
:10260000C364F6D0002BF4D1051D2846FFF7C8F9A6
:10261000104E114A50B9E76A1421794373582BB907
:1026200010680123BB4020EA03031360A36C106809
:10263000E362C3F10C01A161012404FA03F1084330
:102640001060142000FB03602946FFF785F920463F
:10265000F8BD00BF9C050020F4060020044B1A685A
:102660001AB11968CA6C0132CA641868704700BF91
:10267000A00600204FF4807383F31188BFF36F8F9F
:10268000BFF34F8FFEE7000006480068006880F344
:10269000088862B661B6BFF34F8FBFF36F8F00DF5C
:1026A00000BF000008ED00E0DFF80C00016841F415
:1026B000700101607047000088ED00E04FF080730A
:1026C00000E90A00054B40F80C3C6FF0020340F8AB
:1026D000202C40F8243C4438704700BF7526000881
:1026E000064B19680868B0E8F04F80F30988BFF31B
:1026F0006F8F4FF0000080F311887047A006002014
:102700004FF4807383F31188BFF36F8FBFF34F8F44
:10271000024A136801331360704700BF880100202C
:10272000034A1368013B13600BB983F311887047A8
:1027300088010020EFF30980BFF36F8F144B1A68F4
:102740001EF0100F08BF20ED108A20E9F04F106036
:102750004DF8043D4FF4807080F31188BFF34F8F24
:10276000BFF36F8FFFF730FE4FF0000080F311884A
:1027700008BC19680868B0E8F04F1EF0100F08BFD9
:10278000B0EC108A80F30988BFF36F8F704700BFE9
:10279000A006002008B5EFF311834FF4807282F396
:1027A0001188BFF36F8FBFF34F8FFFF7B9FC18B1DC
:1027B000034B4FF080521A60002383F3118808BD49
:1027C00004ED00E0064B4FF47A721B68B3FBF2F3A2
:1027D000044A013B1360044B07221A60704700BF94
:1027E0009C01002014E000E010E000E008B50A4B76
:1027F0001A681A601A681A60FFF7E4FF074B002294
:102800001A60FFF751FF064A136843F04043136014
:10281000FFF73AFFFFF72EFF20ED00E088010020D0
:1028200034EF00E038B5430704461CBF20F007042E
:102830000834FFF76DFC0C4A13681BB90B4B23F0EF
:10284000070313600A490B684EF6F7701C44844274
:1028500005D8A34203D215680C601D4400E0002592
:10286000FFF7EAFC284638BD000700200C070020CF
:10287000FC06002070470000DFF830D0002103E0A4
:102880000B4B5B58435004310A480B4B42189A4299
:10289000F6D30A4A02E0002342F8043B084B9A426E
:1028A000F9D301F027FAFDF7C1FC704700000220C0
:1028B000F8C9000888010020A0020020A002002022
:1028C000E8FB0020FEE708B572B6962000F0F3F8AA
:1028D000962000F0F0F8F8E70FB407B5054B04AA0E
:1028E0001B6852F8041BD868019203F04DFF0120C9
:1028F00002F0D0FD0402002070B50E4604461546D5
:1029000001F03EFA013609D02046002101F051FACB
:1029100029462046BDE8704001F047BA70BD38B581
:102920000D460446C168436802B91B040B6020468B
:10293000012101F03EFA29462046BDE8384001F069
:1029400034BA0022FFF7D8BF70B50E4604461546CC
:1029500001F016FA013606D02A4620460021BDE8CD
:102960007040FFF7DCBF70BD10B50446013001D1E7
:1029700010BD0C31B1F900305A1C0BD09C42F8D17B
:102980002046896801F0E8FB20460021BDE81040A0
:1029900001F006BC0248BDE81040FFF79DBF00BF34
:1029A000B0C00008884208B50AD0431C07D00131E6
:1029B00006D00448FFF790FF4FF0FF3008BD0846EF
:1029C00008BD00BFC1C00008B1F900305A1C05D0D5
:1029D000834201D1486870470C31F5E718467047CB
:1029E000421C10B5044607D0FFF7EEFF431C044617
:1029F00002D10248FFF770FF204610BDD2C0000888
:102A0000064B1B6810B5044603B19847044B1B687E
:102A10001BB12046BDE81040184710BD8C010020B6
:102A200098010020074B1B6810B504461BB198475E
:102A300008B9FFF7E5FF044B186800B1804704B1FF
:102A4000206010BD9001002094010020036870B543
:102A5000DB680446984763685A6823681AB99B681C
:102A6000BDE8704018475B68156898476368281A86
:102A700000285A6807DC916859601B68002BEAD06F
:102A800050689847E7E7236810681B69BDE8704005
:102A9000184700000148FFF7D9BF00BF24C1000854
:102AA00038B5044601F0AAFF054601F0A7FF401B18
:102AB000A042FAD338BD4FF47A735843FFF7F0BF02
:102AC0007047000008B5094B1A6842F400721A609A
:102AD0001A6842F480621A60032000F017F80F2091
:102AE00000F0DCFFFFF7ECFF002008BD003C0240D7
:102AF000024A136801331360704700BF0CF70020CF
:102B0000014B1868704700BF0CF70020074AD368D4
:102B100023F4E0631B041B0C43F0BF63000243F487
:102B2000003300F4E0600343D360704700ED00E041
:102B30002DE9F04F6C4E0B68DFF8B4C1DFF8B481BB
:102B400085B0B646019300230122019C9A4032EAE7
:102B5000040440F0C1804C6824F01009B9F1020F60
:102B600014D14FEAD30A00EB8A0A03F0070BDAF814
:102B700020704FEA8B0B0F2505FA0BF527EA0505A8
:102B80000F6907FA0BF72F43CAF820704FEA430A80
:102B90000325076805FA0AF5ED4304F0030B2F40FF
:102BA0000BFA0AFB09F1FF394BEA0707B9F1010FEC
:102BB000076012D8876805EA0709CF6807FA0AF79D
:102BC00047EA090787604768C4F3001927EA020744
:102BD00009FA03F949EA07074760C7683D408F686B
:102BE00007FA0AF73D43C560E50075D5DCF84450A7
:102BF00045F48045CCF84450DCF8445023F00307FA
:102C000007F1804705F4804507F59C37039503F0ED
:102C1000030A039DD7F808B04FF00F094FEA8A0A5C
:102C200009FA0AF52BEA0509304DA84220D005F52E
:102C30008065A8421ED005F58065A8421CD005F528
:102C40008065A8421AD005F58065A84218D0404595
:102C500018D005F50065A84216D005F58065A84294
:102C600014D005F58065A84214BF092508250EE09B
:102C700000250CE001250AE0022508E0032506E016
:102C8000042504E0052502E0062500E0072505FAF5
:102C90000AF545EA0905BD603568D74314F4803F5D
:102CA0000CBF3D401543CEF80050DEF8045014F43C
:102CB000003F0CBF3D4015437560B56814F4801F9C
:102CC0000CBF3D401543CEF80850DEF80C50A4026E
:102CD00054BF3D401543F5600133102B7FF434AFF2
:102CE00005B0BDE8F08F00BF003C0140000002408D
:102CF00000380240001402404FF4807393FAA3F3AB
:102D0000B3FA83F3DBB29B0003F1844303F5602342
:102D100001221A607047000003682DE9F341DD07C6
:102D2000044603D4236898074CD49EE08B4B9A68E2
:102D300002F00C02042A07D09A6802F00C02082A5A
:102D40000BD15B68590208D5844B1B689A03E9D5FF
:102D50006368002BE6D1012067E1814D7F4E00239F
:102D60002B70FFF7CDFE41F28838074633689B038E
:102D700006D5FFF7C5FEC01B4045F7D9032054E137
:102D800023792B70636873B1FFF7BAFE734D064663
:102D900041F288372B689803C4D4FFF7B1FE801B3B
:102DA000B842F7D9EAE7FFF7ABFE6C4D064641F2B1
:102DB00088372B689903B5D5FFF7A2FE801BB84270
:102DC000F7D9DBE7654B9A6812F00C0F07D09A68C9
:102DD00002F00C02082A18D15B685A0215D45F4A27
:102DE00013689B0702D5E368012BB4D11168F8235F
:102DF00093FAA3F3B3FA83F32069DBB200FA03F387
:102E000021F0F8010B4313602FE0E268554BF2B15B
:102E100001221A60FFF774FE504D06462B684F489A
:102E20009F0705D4FFF76CFE801B6428F6D9A5E741
:102E30000268F82393FAA3F3B3FA83F32169DBB2B0
:102E400001FA03F322F0F802134303600DE01A6065
:102E5000FFF756FE414D06462B68990705D5FFF74B
:102E60004FFE801B6428F7D988E723681A0703D42C
:102E700023685B074ED51FE062693B4B72B10122AC
:102E80001A60FFF73DFE354D06466B6F9F07EFD486
:102E9000FFF736FE801B6428F7D96FE71A60FFF74B
:102EA0002FFE2E4D06466B6F9807E1D5FFF728FEE3
:102EB000801B6428F7D961E7284B2C4D1A6C42F02F
:102EC00080521A641B6C03F080530193019B2B68A2
:102ED00043F480732B60FFF713FE06462B68D90579
:102EE0001BD5234D1D4E00232B70FFF709FE41F229
:102EF00088380746336F9A0715D4237A2B70A36856
:102F0000EBB1FFF7FDFD154D064641F288372B6FFB
:102F10009B070ED5A2696ABB6CE0FFF7F1FD801B31
:102F20006428DBD92AE7FFF7EBFDC01B4045E1D958
:102F300024E7FFF7E5FD801BB842E8D91EE7FFF75D
:102F4000DFFD064D064641F288372B6F9807E1D525
:102F5000FFF7D6FD801BB842F7D90FE700380240D3
:102F60000238024000004742800E47420070004095
:102F7000703802402E4DAB6803F00C03082B3FF471
:102F8000EAAE2C4E0023022A336042D1FFF7B8FD8F
:102F900080462B68264F99012ED447F6C07292FACC
:102FA000A2F2B2FA82F24FF4403393FAA3F3B3FAE7
:102FB00083F54FF0706191FAA1F1B1FA81F0E16906
:102FC000236A0B43616AD2B291401943A36A5B083A
:102FD0005A1EEBB202FA03F3E26A0B43C1B28A4013
:102FE00013437B6001233360FFF78AFD04463B688F
:102FF0009A0108D5002018E0FFF782FDC8EB000019
:103000006428C6D9BAE6FFF77BFD001B6428EED919
:10301000B4E6FFF775FD04462B689B01EAD5FFF780
:103020006FFD001B6428F7D9A8E602B0BDE8F08167
:1030300000380240600047427B4B1A6802F00F02E2
:103040008A422DE9F04105460E4674D2CAB21A7082
:103050001B6803F00F03994202D00120BDE8F08104
:1030600001688F0706D57148836823F0F002AB68CA
:1030700013438360CE070BD429684C0740F1C3800B
:103080006A48836823F4E052EB6813438360BAE034
:103090006B68664A012B03D1126812F4003F08E006
:1030A000991E0129126802D812F0007F01E012F087
:1030B000020FD2D05D4CA26822F003021343A3603A
:1030C000FFF71EFD6B68012B06460ED141F28837D3
:1030D000A36803F00C03042BCED0FFF711FD801B77
:1030E000B842F5D90320BDE8F081022B0CD141F2A2
:1030F0008837A36803F00C03082BBDD0FFF700FD51
:10310000801BB842F5D9EDE7032B08D141F2883591
:10311000A368FFF7F5FC801BA842F9D9E2E741F26A
:103120008837A36813F00C0FA6D0FFF7E9FC801BCB
:10313000B842F6D9D6E70168880706D53B488368C8
:1031400023F0F002AB6813438360CA0709D4364BFF
:10315000F2B21A701B6803F00F039E427FF47DAF3A
:103160008AE76B68314A012B03D1126812F4003FE1
:1031700008E0991E0129126802D812F0007F01E0D0
:1031800012F0020F3FF469AF284CA26822F003024C
:103190001343A360FFF7B4FC6B68012B07460CD107
:1031A00041F28838A36803F00C03042BCFD0FFF75B
:1031B000A7FCC01B4045F5D994E7022B0CD141F286
:1031C0008838A36803F00C03082BC0D0FFF798FCE5
:1031D000C01B4045F5D985E7032B08D141F288355E
:1031E000A368FFF78DFCC01BA842F9D97AE741F22A
:1031F0008838A36813F00C0FA9D0FFF781FCC01B1F
:103200004045F6D96EE70B0707D5084A2969936848
:1032100023F4604343EAC10393600F2000F03EFCB7
:103220000020BDE8F08100BF003C024000380240B1
:103230001F498B6803F00C03042B34D0082B34D1C6
:1032400048684B6800F03F0013F4800F47F6C072E7
:103250004B6892FAA2F2B2FA82F247F6C071D2B289
:1032600001EA030115BF21FA02F3D140114A124AC3
:1032700014BFB2FBF0F0B2FBF0F00D4A0CBF00FB44
:1032800001F343434FF44031506891FAA1F1B1FA90
:1032900081F100F44032C8B222FA00F0013040005F
:1032A000B3FBF0F07047034870470348704700BF16
:1032B0000038024000127A000024F40008B5FFF73D
:1032C000B7FF094B9A68F02393FAA3F3B3FA83F399
:1032D00002F0F002DBB222FA03F3044AD35CD840D6
:1032E000034B186008BD00BF003802402CC1000825
:1032F0009C01002008B5FFF7E1FF084B9A684FF4E6
:10330000E05393FAA3F3B3FA83F302F4E052DBB28F
:1033100022FA03F3024AD35CD84008BD00380240C9
:103320002CC1000808B5FFF7C9FF084B9A684FF495
:10333000604393FAA3F3B3FA83F302F46042DBB27F
:1033400022FA03F3024AD35CD84008BD0038024099
:103350002CC100087047026838B5D36823F0A00379
:10336000D3600446FFF7CCFB05462368DB689B0669
:1033700007D4FFF7C5FB401BB0F57A7FF5D90320D2
:1033800038BD002038BD38B50368DA6852060446F7
:1033900001D5002038BD4FF0FF32DA60FFF7B0FBF7
:1033A00005462368DB685B06F3D4FFF7A9FB401BE7
:1033B000B0F57A7FF5D9032038BD10B50446002852
:1033C0003DD0437F03F0FF0213B90277FFF7C2FF3E
:1033D000022363772368CA225A6253225A62204624
:1033E000FFF7D1FF236820B1FF225A6204236377DD
:1033F00025E09A6822F4E00222F040029A6099687F
:10340000626811432269114362690A439A60E26863
:103410001A611A69A16842EA01421A61DA6822F067
:103420008002DA601A6C22F480221A64196CA26994
:103430000A431A64FF225A620123637710BD0120F8
:1034400010BD0023092803D90A380133C0B2F9E7B7
:1034500040EA0310C0B27047F8B5037F012B06465F
:103460000F464FF0020564D00123037703684577C8
:103470000878BD7849789B68AAB913F0400308BF63
:10348000FB70FFF7DEFF04460846FFF7DAFF02464F
:103490002846FFF7D6FFFB7840EA034040EA0440A5
:1034A00040EA02240AE013F0400308BFFB7009025F
:1034B00041EA0044F878254345EA00443368CA22CB
:1034C0005A6253225A623046FFF75DFF3368054661
:1034D00030B1FF225A6204237377002333771FE051
:1034E00004F07F3020F0FE4018609A6822F48022B9
:1034F0009A609968FA6811433A690A439A60DA68EF
:1035000022F08002DA609B689B060BD43046FFF7FE
:1035100022FF38B13368FF225A620423737735776C
:10352000012506E03368FF225A62012373770023E6
:1035300033772846F8BDF8B5037F012B06464FF0D8
:10354000020557D00123037745774B78C8788D78EB
:103550000F78002A47D1DA0603D523F010020A3289
:103560004A70FFF76EFF04464878FFF76AFF02468D
:103570002846FFF766FF40EA473040EA044040EA49
:1035800002243368CA225A6253225A623046FFF735
:10359000FAFE3368054630B1FF225A62042373777E
:1035A0000023337715E024F07F4020F0C0005860FE
:1035B000DA6822F08002DA609B689B060BD4304602
:1035C000FFF7C9FE38B13368FF225A6204237377CC
:1035D000357701250EE03368FF225A6201237377A5
:1035E0000023337706E01B0243EA0040284340EA09
:1035F0004734C6E72846F8BD00F00F03000900EB8A
:10360000800003EB4000C0B270470368986A4860CE
:1036100070B518691D6805F07F3323F0FE43C0F3D1
:103620000E001E0C8860C3F3062406F03F0005F070
:103630007F0506F0400608704C708D70CE7052B950
:10364000FFF7DAFF08702046FFF7D6FF48702846DC
:10365000FFF7D2FF8870002070BD38B503685C6842
:1036600024F07F4323F0C003180CC3F3042504F0B7
:103670003F04C3F34233C8704D708C700B7052B965
:10368000FFF7BAFFC8702846FFF7B6FF487020461C
:10369000FFF7B2FF8870002038BD704710B50446B0
:1036A000002836D090F8513003F0FF021BB980F8A3
:1036B0005020FFF7F2FFA16860680843E168084303
:1036C000216902230843616984F851302368084363
:1036D000E1691A680843216A22F040021A6008432F
:1036E000A269A16A084302F4007101431960120C37
:1036F000616A02F004020A435A60E26A1A61DA69F6
:1037000022F40062DA6100200123606584F8513000
:1037100010BD012010BD70472E4A0368904212D0A0
:10372000B0F1804F0FD0A2F57C4290420BD002F551
:103730008062904207D002F58062904203D002F589
:103740007842904218D14A6823F070031343214A0B
:10375000904237D0B0F1804F34D01F4A904231D0E0
:1037600002F5806290422DD002F58062904229D00D
:1037700002F57842904225D0184A904222D002F5B4
:10378000806290421ED002F5806290421AD0A2F56B
:103790009832904216D002F58062904212D002F523
:1037A000806290420ED003608B68C3620B688362B4
:1037B000084B98420BD003F58063984207D0012351
:1037C00043617047CA6823F440731343EBE70B6906
:1037D0000363F4E7000001400004004000400140A2
:1037E00010B50446A0B190F8393003F0FF021BB9C0
:1037F00080F83820FFF78FFF022384F839302068E3
:10380000211DFFF789FF012384F83930002010BD06
:10381000012010BD10B50123046A8B4024EA030384
:103820000362036A8A4042EA0301016210BD00009C
:1038300010B5044601220068FFF7ECFF2368084A30
:10384000934203D002F58062934203D15A6C42F452
:1038500000425A641A6842F001021A60002010BD4A
:1038600000000140FFF7E4BF2DE9F84305682B692C
:10387000074623F44052C368B968C06913433A69E4
:103880002B61EB6811437A6923F416430A43024320
:1038900023F00C031343EB606B6923F44072BB69A4
:1038A000B0F5004F43EA02036B613F4B36D19D42B6
:1038B00003D003F580639D4216D1FFF733FD7E6888
:1038C000192460437600B0FBF6F6FFF72BFD7A680B
:1038D0004FF064086043B6FBF8F652003601B0FBC7
:1038E000F2F9FFF71FFD15E0FFF704FD7E681924CC
:1038F00060437600B0FBF6F6FFF7FCFC7A684FF009
:1039000064086043B6FBF8F652003601B0FBF2F9EA
:10391000FFF7F0FC44437868400034E09D4202D059
:10392000224B9D4216D1FFF7FDFC7E6819246043AF
:10393000B600B0FBF6F6FFF7F5FC7A684FF06408C6
:103940006043B6FBF8F692003601B0FBF2F9FFF7E0
:10395000E9FC15E0FFF7CEFC7E6819246043B60051
:10396000B0FBF6F6FFF7C6FC7A684FF064086043D8
:10397000B6FBF8F692003601B0FBF2F9FFF7BAFC9D
:10398000444378688000B4FBF0F0B0FBF8F008FB2B
:10399000109212013232B2FBF8F303F00F033343FB
:1039A000AB60BDE8F88300BF001001400014014087
:1039B000704710B5044630B390F8393003F0FF0279
:1039C0001BB980F83820FFF7F3FF2268022384F840
:1039D0003930D36823F40053D3602046FFF744FF07
:1039E00023681A6922F490421A615A6922F02A0265
:1039F0005A61DA6842F40052DA6000200123E06381
:103A000084F8393010BD012010BD000030B50C4CD9
:103A1000A268A468B4F1006F13460CD1131F094CBF
:103A2000094A53F8045F42F8045FA242F9D1044AFC
:103A30004FF000539360103043F8201030BD00BFAA
:103A400000ED00E084010020FCFFFF1F38B5114BA2
:103A50001A68D16811F0020F1C4604D06FF00203FF
:103A60001361FFF717F82368DA68520711D56FF072
:103A70000402094D1A615C6A2B68E31AB3F57A7F78
:103A800007D3FFF735F8034B2C601B6804F57A72F7
:103A90009A6338BD14F7002010F70020264B37B585
:103AA0001A6C264C254842F008021A641A6C02F07F
:103AB00008020192019A1A6A42F008021A621A6A0E
:103AC00022F008021A62A3F50B3323604FF0FF3394
:103AD000E3601B4B1B4A1B6893420EBF0F231A4A1D
:103AE000B3FBF2F34FF0000518BF03F1FF3363603F
:103AF0002561A5606561FFF773FE14493220FFF769
:103B000085FF134B0D484FF480225A602946FFF77A
:103B1000A9FE04210948FFF7A5FE23680D495A6A4A
:103B20000A6002F57A729A63DA68284642F0040263
:103B3000DA6003B030BD00BF0038024014F7002047
:103B40009C0100200024F40080841E004D3A0008EF
:103B500000E100E010F700207FB50F23019302235E
:103B60000293002303934FF4A053049305214FF4D1
:103B7000805301A80593FFF75FFAB0FA80F040097F
:103B800007B05DF804FB0000174A1849936803F07A
:103B90000C03042B03D0082B03D0154B18E0154B56
:103BA00016E05068536810F4800F03F03F0350682C
:103BB00014BF104A0E4AB2FBF3F30B4A5268C2F329
:103BC0000142C0F38810013243435200B3FBF2F3C9
:103BD0000B60054B084A9B68C3F30313D25C0B6868
:103BE000D3400B60704700BF003802409C010020AA
:103BF0000024F40000127A003CC10008194B10B5F3
:103C00001A6C42F080521A641B6C8EB003F0805321
:103C10000093009B144B1A6822F480421A601B68C0
:103C200003F480430193019B0123029300B1052318
:103C30004FF4800203930992022308220024089380
:103C40000A920C934FF4A872072302A805940B92D2
:103C50000D93FFF761F810B9FFF77EFF00E02046F3
:103C60000EB010BD0038024000700040184B10B577
:103C70001A6C42F080521A641B6C8EB003F08053B1
:103C80000093009B134B1A6822F480421A601B6851
:103C900003F480430193019B032302930123102229
:103CA000059302230024069208930A920C934FF482
:103CB000A872072302A8039409940B920D93FFF7AF
:103CC0002BF810B9FFF748FF00E020460EB010BDFA
:103CD000003802400070004008B50120FFF78EFF59
:103CE00030B9FFF78BFF18B9FFF7C0FF00B9FEE747
:103CF00008BD0000184AD2F8883010B543F47003AC
:103D0000164CC2F888302368002143F00103236079
:103D1000A160236823F0847323F480332360104B65
:103D20006360236823F4802323604FF00063E16025
:103D300093600C4B0C4A1A60FEF7C4FEFFF7CCFFF1
:103D4000FFF722FF236A43F008032362236A23F06C
:103D50000803236210BD00BF00ED00E00038024000
:103D6000103000249C0100200024F40010B5002134
:103D7000044604F00F0400F0EFF90120A04010BD4C
:103D800070B504464B1C0E4621800DD0C1F30310C4
:103D900000F04EF905463046FFF7E8FF05F1100345
:103DA00018356060A360E56070BDB0F9000000F0F8
:103DB000F7B90129B0F9000018BF002100F0CCB913
:103DC000F8B54C23144E584300F11C0434440F46FC
:103DD00000250644BD421DD00121336801FA05F2D9
:103DE0001A4214D00D4AA369506901FA03F3034241
:103DF0000DD0D4F800E0536154F8180C38B1DEF857
:103E000010201342064B08BF02211B68984701355A
:103E10000434DFE7F8BD00BF50F70020003C01404C
:103E200064F9002001210020FFF7CABF01210846E4
:103E3000FFF7C6BF01210220FFF7C2BF0121032007
:103E4000FFF7BEBF01210420FFF7BABF05210846D6
:103E5000FFF7B6BF06210846FFF7B2BF2DE9F74FBF
:103E60009B464B1C07460D46009263D001F00F089D
:103E700008F1FF33C1F303100E2B09D8DFE803F07C
:103E80000C1014181C1C1C1C1C202020202020009E
:103E90002A4B0024062616E0294B0124072612E0AF
:103EA000284B022408260EE0274B032409260AE0AB
:103EB000264B04240A2606E0254B0524172602E09B
:103EC000244B06242826019300F0B2F807218246ED
:103ED000284600F041F9019B4FFA86F919464846F9
:103EE000FFF794FD4FEA591206F01F0101231A480B
:103EF00003FA01F140F82210BD81184A18493E70BA
:103F00004C25654352F828604A597C60B3401343FE
:103F10000020B8604B51132303FB046401EB8403BE
:103F2000009AC3F804B0C3F81CA0C3F834800D4B4A
:103F30001A6000E0084603B0BDE8F08F253E000897
:103F40002D3E0008353E00083D3E0008453E000875
:103F50004D3E0008553E000800E100E04CC100085D
:103F600050F7002064F90020F8B54268124B05466E
:103F7000808900F00F014C2453F821300F4954433D
:103F8000012606FA03F70E5926EA07060E511324F6
:103F900004FB023301EB8302002454609A1D0C33AE
:103FA00001EB820201EB830354605C60214600B2A6
:103FB00000F0D2F8AC60F8BD4CC1000850F700200A
:103FC000A2B1012905D18368023B012B08D9816088
:103FD0001EE002291FD1836823F00203012B03D1C5
:103FE00003238360082117E0816007E0012907D1DE
:103FF0008368023B012B0DD80223836007210BE06D
:10400000022908D1836823F00203012B02D18360C7
:10401000062101E082600C21B0F90C0000F09CB890
:1040200008B5FFF7B1FDBDE80840FEF74BBD000045
:1040300000B58BB0082872D8DFE800F005111D2903
:1040400035414D596500394B39481A6B42F0010230
:104050001A631B6B03F001030193019B63E0334B75
:1040600034481A6B42F002021A631B6B03F002031E
:104070000293029B57E02D4B2F481A6B42F004022B
:104080001A631B6B03F004030393039B4BE0274B62
:104090002A481A6B42F008021A631B6B03F00803EC
:1040A0000493049B3FE0214B25481A6B42F0100219
:1040B0001A631B6B03F010030593059B33E01B4B46
:1040C00020481A6B42F020021A631B6B03F0200396
:1040D0000693069B27E0154B1B481A6B42F04002E3
:1040E0001A631B6B03F040030793079B1BE00F4B06
:1040F00016481A6B42F080021A631B6B03F08003B0
:104100000893089B0FE0094B11481A6B42F4807228
:104110001A631B6B03F480730993099B03E00D483A
:10412000FEF7DAFB00200BB05DF804FB003802401C
:10413000000002400004024000080240000C02405F
:10414000001002400014024000180240001C02400F
:10415000002002408CC1000830B5054687B0C0F38E
:1041600003100C4605F00F05FFF762FF012304F072
:104170000F0203FA05F5094B019553F8223002931B
:10418000C4F302130393C4F3C314032301A90493D8
:104190000594FEF7CDFC07B030BD00BFB0C10008EC
:1041A00038B500F00F05C0F303100C46FFF740FFD1
:1041B0006900C26803238B4022EA0303032CC36017
:1041C000C36828BF00248C401C43C46038BD000075
:1041D000F0B5304B1E688FB0002E59D101272E4DFF
:1041E0002E4C1F602E4B23602B6C43F080532B64AE
:1041F0002B6C03F080530193019BFEF77DFD294B4F
:1042000002A81F601E600423029308960497FEF71D
:1042100083FD70B9AB6823F4F813AB60AB6823F48B
:10422000F813AB602B6F43F480732B674FF400439C
:104230001AE00C2302A80293089604960797FEF74B
:104240006BFD10B11848FEF747FB134B9A6822F438
:10425000F8129A609A6822F4F8129A601A6F42F47F
:1042600000721A674FF4FA43104A0C480121DB0927
:104270001160013B00227F216260A160E360226146
:104280006261A261FFF799F810B10948FEF724FBBB
:104290000FB0F0BD88F900200038024068F9002016
:1042A00000280040400E4742E4C100083C0E47424F
:1042B00010C20008014B1868704700BF88F9002041
:1042C00010B5154C154B236090B002A90022204672
:1042D000FFF79BF9002201A92046FFF7BEF99DF8E0
:1042E00004300D939DF80530013B0B939DF806308B
:1042F0000A939DF8073064330C939DF808300993B6
:1043000010A89DF8093008939DF80A3040F8243D24
:1043100001F0E8FE10B010BD68F900200028004050
:1043200030B589B008AB184D43F81C0D174A2A6008
:10433000184601F025FC83698DF8083003690133C4
:104340008DF80930C3688DF80A304369643B8DF8F5
:104350000B3083688DF80C3043688DF80D3003689E
:104360008DF80E3000244023224602A928468DF8FD
:104370000F3006940794FFF7DEF8224603A928467B
:10438000FFF76AF809B030BD68F900200028004046
:1043900008B5124B02681A6082685A60C2689A6057
:1043A0000269DA6042691A6100229A61B0F91A2042
:1043B000013201D1082205E0B0F9182001320CBF0A
:1043C00004220C2205485A61FFF7F3FA20B1044891
:1043D000BDE80840FEF780BA08BD00BFB4F9002070
:1043E00036C20008124A70B552F82130114C0E4600
:1043F00020601546D3B10268520608D50E4A184609
:1044000012680121904723686FF040021A60236808
:104410001B689B060AD5084B55F826001B6800212F
:104420009847044B1B686FF020021A6070BD00BFF4
:104430008CF90020B4F90020ACF9002000210148DB
:10444000FFF7D0BF0010014001210148FFF7CABFAC
:104450000044004002210148FFF7C4BF004800406B
:1044600003210148FFF7BEBF004C00400421014872
:10447000FFF7B8BF0050004005210148FFF7B2BF69
:1044800000140140F0B50E4687B00446514930464D
:104490001546FEF7A5FA504907462846FEF7A0FA4A
:1044A00001463846FEF77EFA4C4B2060984243D0D6
:1044B00013D8A3F50063984232D003F58063984285
:1044C00052D1474B1A6C42F480221A641B6C03F4DD
:1044D00080230293029B022345E0424B984213D073
:1044E00003F58063984233D0A3F5444398423BD10F
:1044F0003B4B1A6C42F480121A641B6C03F4801359
:104500000493049B04232EE0354B5A6C42F01002B6
:104510005A645B6C03F010030093009B002322E0BD
:104520002F4B1A6C42F400321A641B6C03F40033F4
:104530000193019B012316E0294B1A6C42F40022DF
:104540001A641B6C03F400230393039B03230AE008
:10455000234B5A6C42F020025A645B6C03F0200338
:104560000593059B052363601A493046FEF7FCF965
:1045700019492846FEF7F8F9721C03D0012130468C
:10458000FFF70EFE6B1C03D001212846FFF708FE43
:104590004FF41653A3600023E36023616361268315
:1045A00065832046FFF7F4FE22680F4B9A420FD135
:1045B0000E4B01221A600E4B04F118052068616849
:1045C0001A4603C20834AC421346F7D12068106083
:1045D00007B0F0BD48C30008F4C20008004C00401A
:1045E000003802400010014000140140B0F90020E2
:1045F000F4F900208160FFF7CBBE0000034B196087
:104600004168034B43F82120704700BFACF90020FC
:104610008CF9002038B50D462F4903680B602F49EF
:104620008B421FD00AD8A1F500618B4217D001F54B
:1046300080618B421CD12A4927241BE029498B42E7
:104640000AD001F580618B420FD0A1F544418B4225
:104650000ED1254935240DE0244925240AE02449BA
:10466000262407E02349342404E02349472401E0B9
:1046700000210C46AAB1DA6815B942F0200201E027
:1046800042F0400265B2DA602846FFF7BFF904F055
:104690001704012303FA04F46D09184B43F825406D
:1046A00038BDDA6835B922F02002DA60DB681A0614
:1046B00006D538BD22F08002DA60DB689B0609D49B
:1046C0006309012204F0170402FA04F420330B4AB0
:1046D00042F8234038BD00BFB4F90020004C004030
:1046E00055440008001001406D4400083D44000896
:1046F00049440008614400087944000800E100E0F2
:104700000368034A18681360C0F34010704700BF85
:10471000B4F9002010B5046801460846FFF7F0FF21
:104720000028FAD06068C0F3080010BD0368034A8F
:1047300018681360C0F3C010704700BFB4F90020C0
:1047400038B5056804462046FFF7F0FF0028FAD088
:10475000C1F30801696038BD03681A6810B5124CCE
:1047600022F0400223601A60C268036962618268B5
:104770002261072263608369E2624268E361E2606A
:1047800000234269A3602046A3622362A2616362A0
:10479000FEF784FF10B10548FEF79EF82268136803
:1047A00043F04003136010BD10FA00204DC2000812
:1047B0002DE9F04F0F4687B004463D49BDF9405002
:1047C000384690461E46FEF70BF93A498146404668
:1047D000FEF706F9384901903046FEF701F93749EE
:1047E00082462846FEF7FCF8019B83461946484658
:1047F000FEF7D8F8594681465046FEF7D3F80146F1
:104800004846FEF7CFF82E4B206098420BD103F5B7
:1048100084335A6C42F480525A645B6C03F48053C4
:104820000393039B1CE0274B98420BD103F5003305
:104830001A6C42F480421A641B6C03F480430493A4
:10484000049B0DE0204B98420AD103F5FE331A6C0D
:1048500042F400421A641B6C03F400430593059B69
:1048600013493846FEF780F812494046FEF77CF8B7
:1048700011493046FEF778F800236360A360E360D7
:104880003823A3616B1CA4F81C80E783268465840D
:1048900004D00A492846FEF767F802E04FF4007397
:1048A00063612046FFF758FF07B0BDE8F08F00BFF7
:1048B0009CC3000864C20008ACC20008E4C300083E
:1048C0000030014000380040003C004010290CBF7F
:1048D0004FF400610021012A416004D0022A05D072
:1048E0003AB9826008E00021816005E08260002220
:1048F00002E0022282600122C2604269B2F5007FBA
:1049000005D0002B14BF00224FF480224261002BFF
:1049100014BF00234FF482730361FFF71DBF000033
:104920001B4B994201DC38232FE0A1F51223194AD1
:10493000A3F5F863934201D8302326E0A1F5742350
:10494000154AA3F51073934201D828231DE0A1F561
:10495000F413124AA3F59063934201D8202314E084
:104960000F4B104A0B44934201D818230DE00E4B15
:104970000E4A0B44934201D8102306E00C4B0D4A1B
:104980000B44934294BF082300238361FFF7E4BEE6
:10499000BF2709007F1A06003F420F00BFC62D0047
:1049A000C0B4B3FF3F4B4C00806967FFBFD8A7007E
:1049B000C090BFFE3F6F400103689A689007FCD526
:1049C000044A89B21360D9609A68D207FCD5D868C6
:1049D000704700BF10FA0020054B186830B901225B
:1049E0001A60044B044A1A60FFF758B8704700BFBA
:1049F000A4FA002068FA0020000C004008B5044B1F
:104A00001B680BB9FFF7E8FF024B586A08BD00BFEF
:104A1000A4FA0020000C0040034B1B685863DA68BE
:104A200042F00202DA60704768FA0020034B1A680D
:104A3000D36823F00203D360704700BF68FA0020F8
:104A4000024B1B686FF002021A61704768FA00207F
:104A500008B50D4D0D4CAB681A686B681A4202D050
:104A6000EA681B0400E0EA681360A3681A686368D8
:104A70001A4201D1E26801E0E2681B0413604FF4BE
:104A80007A70FDF745FCE6E7480500206005002048
:104A900030B5012087B0FDF7E3F8424B03221860E0
:104AA00000210120FDF740F83F4B03221860002150
:104AB0000120FDF739F83D4B002218600421012048
:104AC000FDF732F83A4B0022186004210120FDF76F
:104AD0002BF8384B0022186004210120FDF724F840
:104AE000354B0022186004210120FDF71DF8334BDF
:104AF0000022186004210120FDF716F8304B002237
:104B0000186002210120FDF70FF82E4B186005A850
:104B1000FDF788FF002802DC0020FDF771FF2A4B1B
:104B2000019300240B2300934FF40072234627497E
:104B3000039402942648FDF7D9F90A25254B0193E1
:104B4000009523464FF400722349039402942348AE
:104B5000FDF7CCF9224B0193009523464FF40072E8
:104B60002049039402942048FDF7C0F905251F4B06
:104B700001934FF4007223461D490394029400955B
:104B80001C48FDF7B3F91C4B01934FF40072234608
:104B90001A490394029400951948FDF7A7F9FDF707
:104BA00087FAFEE7080500205C050020F4040020D9
:104BB000E00400203805002040050020DC0400202F
:104BC00044050020D80400201C05002020C4000853
:104BD000514A00083005002028C40008BD04000820
:104BE0003C0500202FC40008A1060008580500203D
:104BF00036C40008B5080008340500203DC400088C
:104C000025070008094B036083686BB1084A1368E5
:104C1000984202D14368136070475A68904201D0AD
:104C20001346FAE742685A60704700BF4CC4000858
:104C3000A8FA002010B50446FFF7E4FF204600F074
:104C4000FEFB204610BD0000054B036000234360BF
:104C50008160027319B1034B1A6842601860704793
:104C60004CC40008A8FA0020F8B50B4B1C68074696
:104C70000E4674B1A56855B132463946284603F050
:104C800016F820B9284603F00AF8864201D0646875
:104C9000EFE72046F8BD00BFA8FA0020007B704770
:104CA000036870B51B690122002105469847431C23
:104CB00004460ED02B6802221B6900212846984723
:104CC0002B6806461B690022214628469847304635
:104CD00070BD70BD10B5074B0446002240F8043B80
:104CE000FFF7B2FF044B03F1080234332260636024
:104CF000204610BD94C5000854C4000810B5074BE9
:104D000003F1080234330446026040F8043FFFF721
:104D100079FF204600F04AFA204610BD54C400082E
:104D200010B50023036043600A782F2A044613D18C
:104D30004A788AB1481C2060194623681A782F2ABD
:104D400002D10133236004E01AB101330131236041
:104D5000F3E7FFF789FF6060204610BD00687047E9
:104D6000406808B520B1FFF799FF431E58425841EB
:104D700008BD10B50446FFF7F3FF00B1606810BD31
:104D8000406808B520B1FFF789FFB0FA80F040090C
:104D900008BD10B50446FFF7F3FF10B1606800B11D
:104DA000043810BD4068003018BF01207047000073
:104DB00010B5044B044640F8143BFFF7D5F82046E5
:104DC00010BD00BF98C4000810B50446FFF7F0FFFF
:104DD000204600F034FB204610BD00002DE9F041D4
:104DE0000546124B45F8043B04464FF010080E46AA
:104DF000424604F114070021284601F08FF842468C
:104E00000021384601F08AF800236362A363E3635C
:104E10002365074A234631463846FFF71FF82846E0
:104E20003146FDF78EFD2046BDE8F08198C40008AC
:104E3000654E000803460A46143029B100229A63E1
:104E400001225962114600E00121FFF7B9B8436918
:104E5000014613B9036823B11847006808B104314B
:104E600018477047012908B502D0022902D008BDB1
:104E7000243000E03C30FFF7EAFF08BD704710B572
:104E8000044600F0DCFA204610BD704710B5044619
:104E900000F0D5FA204610BD2DE9F74305469946A6
:104EA000134B45F8043B04460F469046002124224C
:104EB000284601F033F80823A3620E4B2363002633
:104EC000BDF92830009342464B4639462846E662F3
:104ED000FFF76EFC3346E26AA16A2846FFF7F6FC4C
:104EE0002846216BFFF71CFD204603B0BDE8F08388
:104EF000A8C4000840420F0070B5094D2B688342DA
:104F000004460BD0061DC26A816A00233046FFF7B3
:104F1000DDFC216B3046FFF703FD2C6070BD00BF48
:104F2000ACFA0020034BC262816200221A60FFF7D4
:104F3000E3BF00BFACFA0020024B016300221A60FD
:104F4000FFF7DABFACFA002038B504460D46FFF78C
:104F5000D3FF2946201DBDE83840FFF72DBD00F0E6
:104F600098B8A0F15400FFF7FABF00F095B8A0F18F
:104F70005400FFF7FABF000010B5074B03F1080219
:104F8000026003F1200254330446426583655430C5
:104F900000F0D6F8204610BDB4C40008A0F15400BB
:104FA000EAE7A0F15800E7E710B50446FFF7E4FF91
:104FB000204600F044FA204610BDA0F15400F3E76B
:104FC000A0F15800F0E7000038B504461D4600F097
:104FD00021F8294604F1540000F090F8054B03F144
:104FE0000802226003F1200254336265A365204663
:104FF00038BD00BFB4C400081823594343185A6B86
:105000001B6A0AB92BB118471BB101442431184659
:1050100010477047F8B505460F4B45F8043B04466A
:105020000E46174600211C22284600F077FF002379
:1050300023626363A363E3644FF4165323653A4624
:1050400031462846FFF71EFA284622460349FFF755
:10505000D5FA2046F8BD00BF18C50008F94F000872
:1050600038B504460D460430FFF7C4FA256538BD4F
:1050700030B40546144604300A4631B1182303FB08
:10508000045300225A6319620122214630BCFFF703
:10509000C1BA0430FFF73EBB10B504300C46FFF731
:1050A0004FFB204610BDF8B507460D468E180C463E
:1050B000B44208D03B6814F8011B5B6A3846984735
:1050C0000130F5D12646701BF8BDF8B506460D46F1
:1050D0008F180C46BC4208D0336830469B6A98470C
:1050E000431C02D004F8010BF4E7601BF8BD00205C
:1050F0007047002070470020704700001FB504462D
:10510000FFF7E8FD0B4B0C4903F108023C336360E9
:1051100000236361226001A8224602F023FD0749B3
:1051200001A800F00BFC606100F082F9204604B099
:1051300010BD00BF20C5000864C5000868C5000890
:1051400010B5074B03F108023C330446026043608C
:10515000406900F005FA2046FFF7D0FD204610BD5B
:1051600020C5000838B504460D46406900F0B2FA83
:1051700061692846BDE8384000F00CBC10B5044613
:10518000406900F0A7FA6069BDE8104000F053B92B
:10519000044B1B6823B9272226210348FFF772B965
:1051A000704700BFB0F90020F4F9002010B5074B9C
:1051B0000360074A0023194652F82340A04208BF63
:1051C00042F823100133402BF6D110BD94C50008DE
:1051D000B0FA0020F7B50E462C49054602F055FD01
:1051E000044610B9FFF7D4FF4CE02949284602F0E5
:1051F0004CFD18B9FFF7CCFF012443E025492846B0
:1052000002F043FD18B9FFF7C3FF02243AE0224B36
:10521000002453F8242072B10134402CF9D107E066
:1052200029466846FFF77CFD6846FFF7BBFD60B97D
:105230004FF0FF3426E02B783A2BF1D16A4617491C
:10524000284602F0B3FC009816E06846FFF798FD88
:1052500018B16846FFF79DFD0EE06846FFF789FD2F
:1052600005460028E4D0036868469F68FFF776FD8E
:10527000324601462846B8470028D9D0064B43F8A5
:1052800024000334204603B0F0BD00BF6BC5000806
:1052900084C5000872C50008B0FA002064C5000883
:1052A00002284FF0000309DDC21E074951F8220011
:1052B00041F8223020B103685B68184718467047F0
:1052C0004FF0FF30704700BFB0FA0020022870B5E1
:1052D0000C4615460FDC0E4B1B680BB9FFF758FF49
:1052E0006619B44205D014F8011B0A48FFF728FAE2
:1052F000F7E7284670BD0338074B53F8200020B16C
:105300000368BDE870401B6818474FF0FF3070BD60
:10531000B0F90020F4F90020B0FA0020022810B5FE
:105320000C460ADC0B4B1B680BB9FFF731FF0A4830
:10533000FFF7F0F92070012010BD0338074B53F838
:10534000200020B10368BDE810409B6818474FF06B
:10535000FF3010BDB0F90020F4F90020B0FA0020B1
:10536000022807DD0338064B53F8200020B10368FC
:10537000DB681847012070474FF0FF30704700BFCF
:10538000B0FA0020022807DD0338064B53F820004E
:1053900020B103681B691847002070474FF0FF30A9
:1053A000704700BFB0FA0020022808B504D84FF4B7
:1053B00000534B60002008BD00F066F8092303602D
:1053C0004FF0FF3008BD08B5012000F063F87047CA
:1053D00008B5FEF725FEFFF7FAFFBDE80840FFF726
:1053E00057BB0000074A13681844EFF3088188424E
:1053F00029BF054B10600C224FF0FF302CBF1A6004
:1054000018467047A0010020E4FB0020074C08B5B7
:1054100023680546986800F05DF92368D86800F0B5
:1054200059F90DB1FDF74FFAFEE700BF0402002065
:10543000002102F0BCBA00F08BB900F000B800F017
:10544000EDBC10B5002814BF04460124204600F02E
:10545000DDFC30B900F008F808B900F00DF880471D
:10546000F4E710BDFFF7EDBF024B1868BFF35F8F85
:10547000704700BFB0FB002008B5062002F056FBC5
:105480000120FFF7C3FF0000014B1868704700BF01
:105490000402002008B5074B044613B10021AFF306
:1054A0000080054B1868836A03B198472046FFF7D0
:1054B000ADFF00BF000000001CC6000870B5054627
:1054C0000C4609B9002070BD18B183690BB900F012
:1054D00087F9204B9C4201D16C6808E01E4B9C422E
:1054E00001D1AC6803E01D4B9C4208BFEC68B4F9E5
:1054F0000C30002BE6D02146284600F039F8236B0B
:10550000064633B1216A284698470028B8BF4FF0B5
:10551000FF36A3891B0603D52169284600F054FFF6
:10552000616B41B104F14403994202D0284600F076
:105530004BFF00236363A16C21B1284600F044FFB8
:105540000023A36400F0B8F90023A38100F0B5F9AB
:10555000304670BDB8C50008D8C50008F8C50008B9
:10556000024B01461868FFF7A9BF00BF04020020E4
:105570008A892DE9F041054610070C4659D44B683D
:10558000002B02DC0B6C002B17DDE66AAEB102F4D7
:105590008052002392B22F682B600AB1606D15E033
:1055A000216A01232846B047411C0FD12B686BB1FB
:1055B0001D2B01D0162B03D12F600020BDE8F081F8
:1055C000A38943F04003A381BDE8F081A3895A0772
:1055D00005D56368C01A636B0BB1236CC01A002336
:1055E0000246E66A216A2846B047431CA38906D1D1
:1055F00029681D293AD8214ACA40D60736D5002243
:105600006260D9042269226004D5421C01D12B6852
:1056100003B96065616B2F600029CED004F14403AB
:10562000994202D0284600F0CFFE00206063BDE81A
:10563000F0810F69002FC0D093070E6808BF4B6937
:105640000F6018BF0023C7EB06088B6002E0074419
:10565000C0EB0808B8F1000FAFDD43463A46216AB7
:10566000A66A2846B0470028F1DCA38943F040032E
:10567000A3814FF0FF30BDE8F08100BF0100402062
:1056800038B50B6905460C46DBB118B183690BB917
:1056900000F0A6F80C4B9C4201D16C6808E00B4B63
:1056A0009C4201D1AC6803E0094B9C4208BFEC6806
:1056B000B4F90C302BB121462846BDE83840FFF73D
:1056C00057BF002038BD00BFB8C50008D8C50008C6
:1056D000F8C50008014620B9044B0549186800F0D8
:1056E0000BBA044B1868FFF7CBBF00BF1CC60008FD
:1056F000815600080402002038B50C46054618B152
:1057000083690BB900F06CF80E4B9C4201D16C68B8
:1057100008E00D4B9C4201D1AC6803E00B4B9C426E
:1057200008BFEC686368013B002B636005DA214623
:105730002846BDE8384002F0A3B823685A1C22600E
:10574000187838BDB8C50008D8C50008F8C50008E5
:10575000024B01461868FFF7CFBF00BF04020020CC
:10576000014900F0C9B900BF81560008002310B5F7
:10577000044603604360836081814366C2810361A4
:1057800043618361194608225C3000F0C7FB054B7A
:105790006362054BA362054BE362054B24622363FE
:1057A00010BD00BF017C0008277C00085F7C00085A
:1057B000837C000870B568234D1E5D430E4605F1DD
:1057C000740100F047FE044640B1002180E8420029
:1057D0000C30A06005F1680200F0A0FB204670BD0F
:1057E000836910B5044633BB8364C3640365124BFD
:1057F000124A1B688262984204BF0123836100F051
:105800001FF86060204600F01BF8A060204600F002
:1058100017F80022E06004216068FFF7A7FF01226B
:105820000921A068FFF7A2FF02221221E068FFF71A
:105830009DFF0123A36110BD1CC60008615700082D
:10584000F8B51C4B1E68B369074613B93046FFF71D
:10585000C7FF4836B4687368013B04D4B4F90C50F0
:105860007DB16834F8E733680BB13668F2E704219C
:105870003846FFF79FFF30600028F6D10C233B60CD
:10588000F8BD4FF6FF73E3810123A38165662560B0
:10589000A560656025616561A5610822294604F15E
:1058A0005C0000F03BFB6563A563A564E5642046EE
:1058B000F8BD00BF1CC6000870477047F7B50F461B
:1058C000114601AA054604F0C3FA064608B90020AD
:1058D00029E02846FFF7B4FF04460028F7D04FF42C
:1058E000DB73019A3946284601F0ECFE002806DAFF
:1058F0000025FFF7E1FFA581FFF7DFFFE7E70B4B8F
:1059000063620B4BA3620B4BE3620B4B2363F30508
:10591000E081A681246205D5022300222146284683
:1059200000F040F8204603B0F0BD00BF017C000845
:10593000277C00085F7C0008837C0008024B0A4635
:1059400001461868FFF7BABF0402002070B50E4682
:105950001446054618B183690BB9FFF741FF0A4B9E
:105960009C4201D16C6808E0084B9C4201D1AC68B4
:1059700003E0074B9C4208BFEC68224631462846AC
:10598000BDE8704001F0B0BEB8C50008D8C5000839
:10599000F8C50008024B0A4601461868FFF7D6BF53
:1059A0000402002000F000B82DE9F8430C469046B0
:1059B0001E46054618B183690BB9FFF711FF3D4B31
:1059C0009C4201D16C6808E03B4B9C4201D1AC6821
:1059D00003E03A4B9C4208BFEC68A38903F484734C
:1059E000B3F5847F03D121462846FFF749FEE76AD5
:1059F0000FB91D232BE0012E04D0022E2BD056B35D
:105A0000162324E021462846FFF73AFEA28902F435
:105A1000805292B20AB1606D05E0216A3346284691
:105A2000B847411C14D0A3895A0706D56368C01A29
:105A3000636B4BB1236CC01A06E01B0704D52368C7
:105A400013B122699B1A18448044002603E02B609E
:105A50004FF0FF392BE023691BB92146284600F09F
:105A600087F921462846FFF70BFE81460028EFD133
:105A700033464246216A2846B8470130E8D0616B78
:105A800041B104F14403994202D0284600F09CFC45
:105A90000023636323692360A389002123F4026345
:105AA0006160A381082204F15C0000F037FA4846E7
:105AB000BDE8F883B8C50008D8C50008F8C50008D7
:105AC0002DE9F041884600F1480400268CB1A56814
:105AD0006768013F0BD4AB89012B06D9B5F90E30AD
