:020000040800F2
:100000000000022081330008CD330008CD33000802
:10001000CD330008CD330008CD33000800000000C8
:10002000000000000000000000000000E9310008AE
:10003000CD330008000000003D3200089D3200086A
:10004000CD330008CD330008CD330008CD33000890
:10005000CD330008CD330008CD330008CD33000880
:10006000CD330008CD330008CD330008CD33000870
:10007000CD330008CD330008CD330008CD33000860
:10008000CD330008CD330008CD330008CD33000850
:10009000CD330008CD330008CD330008CD33000840
:1000A000CD330008CD330008CD330008CD33000830
:1000B000CD330008CD330008CD330008CD33000820
:1000C000CD330008CD330008CD330008CD33000810
:1000D000CD330008CD330008CD330008CD33000800
:1000E000CD330008CD330008CD330008CD330008F0
:1000F000CD330008CD330008CD330008CD330008E0
:10010000CD330008CD330008CD330008CD330008CF
:10011000CD330008CD330008CD330008CD330008BF
:10012000CD330008CD330008CD330008CD330008AF
:10013000CD330008CD330008CD330008CD3300089F
:10014000CD330008CD330008CD330008CD3300088F
:10015000CD330008CD330008CD330008CD3300087F
:10016000CD330008CD330008CD330008CD3300086F
:10017000CD330008CD330008CD3300080000000067
:10018000CD330008CD33000810B5054C237833B9C2
:10019000044B13B10448AFF300800123237010BD5A
:1001A000D403002000000000E0E800080C4B43B13D
:1001B0000C480D4910B5AFF300800C48036823B913
:1001C00010BD0A48036833B97047094B002BF7D0BC
:1001D000BDE810401847064B002BF5D0184700BF6C
:1001E00000000000E0E80008D8030020D003002051
:1001F00000000000154B002B08BF134B9D46A3F5D4
:10020000803A00218B460F461348144A121A06F012
:10021000B4FC0F4B002B00D098470E4B002B00D0A6
:1002200098470020002104000D000D48002802D04E
:100230000C48AFF3008006F09DFA2000290005F07D
:10024000D1FE05F043FF00BF0000080000000220BF
:100250000000000000000000D4030020A8FD0020E2
:100260000000000000000000F7B5424D2C68631C40
:100270002B60414B1868543005F070FD3F4B4049EE
:10028000185508782C461F460E4618B1012828D06C
:1002900003B0F0BD2A68012A05D11B78412BF7D0A5
:1002A00000232360F4E7022A02D15B78432BF6E7B0
:1002B000032A02D19B78512BF1E7062A02D15B7900
:1002C0004F2BECE7072AE3D19A794B2AE8D11A7928
:1002D000DB78286003EB02232A4A138001230B708A
:1002E000D6E7284D22682B889342D1D1D81E3A5C9C
:1002F000452A3BD13B4413F8022C4E2A36D113F841
:10030000013C442B32D105F0C2FE1F4A002310608D
:10031000298803398B4204DA1168F85CC854013328
:10032000F6E70025256002AC184844F8045D2B462A
:10033000224615490068357002F045FA1448114903
:1003400000682B46224602F03EFA124B21461868FE
:1003500002F06AFA019B002B9AD00F4B4FF08052AB
:100360001A60BFF34F8FBFF36F8F91E700232360B5
:1003700033708DE700060020FC050020F403002008
:10038000F405002004060020F80500201C060020CB
:1003900038060020B006002004ED00E0F8B506465F
:1003A0006C200C46174605F054FE002305463A46DD
:1003B0002146084C05F0F2FB28464FF4E131256058
:1003C00005F040FC20680449002205F043FC30465B
:1003D000F8BD00BFFC05002069020008F8B5084E12
:1003E0000D4617460C46631B9F4206DD306814F825
:1003F000011B543005F0A6FCF5E70120F8BD00BF55
:10040000FC05002037B502F10A0014460D4605F040
:100410003EFE412202704322427051228270E21C51
:10042000C270C2F307220F4B02714F2242714B225E
:10043000827118600022A24205DA1868A95C104493
:100440000132C171F7E71A6822444521D1711A6857
:1004500022444E2111721A682244442151721868B4
:1004600003B030BDF003002038B505461446FFF751
:10047000C9FF04F10A02014692B22846BDE838409D
:10048000FFF7ACBF2DE9F04186B00122002101A8A1
:10049000FFF784FF6E486F4D00686F4E6F4F01236A
:1004A0004FF0FF3203A902F0EBF96D4801234FF042
:1004B000FF3204A9006802F0E3F96A4801234FF013
:1004C000FF3205A9006802F0DBF9002319464FF05E
:1004D000FF32286802F0D4F900234FF0FF3202A95E
:1004E000306802F0CDF900234FF0FF320DF1060124
:1004F000386802F0C5F95C4A936819685368D26895
:10050000194218BF1B041360029B1B78013B102B80
:10051000DBD801A252F823F05D0500085D05000854
:10052000810500089B050008AD050008D3050008FB
:10053000CB040008CB040008CB040008CB0400085F
:10054000CB040008CB040008CB040008CB0400084F
:10055000CB040008CB040008F7050008022005F0D2
:1005600096FD029B1B7803700446AA236370022247
:10057000214601A8FFF778FF204605F08AFDA4E791
:10058000022005F084FD029B1B780370049B044647
:100590001B78002BE9D1FF23E8E7022005F077FD67
:1005A000029B1B7803700446059BF1E7052005F0CC
:1005B0006EFD029B1B780370049B04465A1C014687
:1005C000053312F8010B01F8010F9A42F9D1052207
:1005D000CEE7052005F05BFD029B1B780370059BB1
:1005E00004465A1C0146053312F8010B01F8010FAD
:1005F0009A42F9D1EBE7BDF80600013805F047FD56
:10060000BDF8062080460298013A08F1FF31034602
:100610001C1AA24204DD13F8014F01F8014FF7E75D
:100620004146039801F090FD022005F030FD029B49
:100630001B780370AA23437001460446022201A8D6
:10064000FFF712FF204605F024FD404695E700BF66
:100650002C060020B00600201C06002038060020D2
:100660002806002030060020900600202DE9F04FDB
:10067000ADF55D7D5CAF4FF40072002138461CAED5
:1006800006F07BFA934C4FF480720021304606F05E
:1006900074FA00234FF0FF321946206802F0F0F898
:1006A00001281ED1002002F043FF049004A806F0A8
:1006B00085F8894A034620210CA808F0B9FE1323C7
:1006C0000CAA00938549864B864805F051FB864964
:1006D000844805F04DFB00231A461946206801F0B6
:1006E000D1FF8248DFF81082006801234FF0FF320B
:1006F00002A902F0C5F80025A946002319464FF0CB
:10070000FF32D8F8000002F0BBF800234FF0FF32B0
:100710001946206802F0B4F801281ED1002002F02A
:1007200007FF049004A806F049F86B4A034620210D
:100730000CA808F07DFE19230CAA00936749684BAA
:10074000684805F015FB6A49664805F011FB00236F
:100750001A461946206801F095FF402200210CA896
:1007600006F00BFADFF894B1029804A900F080FEBD
:100770009DF811A0BBF1010B0AF0100A00F0A58052
:100780000A2002F04BFBBAF1000FEDD040220CA979
:10079000029800F0CAFE0221029801F04FF8029878
:1007A00001F099FC9DF83030532B40F089809DF882
:1007B0003130542B40F084809DF83230412B7FD172
:1007C0009DF83330522B7BD19DF83430542B77D1A8
:1007D0009DF83B304F2B73D19DF83C304B2B6FD1A4
:1007E0009DF836309DF835009DF837109DF83A2079
:1007F00000EB03209DF8383001EB03219DF83930E0
:1008000003EB02230CAA1A44127B442A58D10CAAE7
:100810001A4492F80BE0BEF14E0F51D1927A452A5C
:100820004ED14FF0300C0CFB01FC0022033B9342F5
:100830000BD90DF1300A0CEB020E9244BE449AF82B
:100840000DA00EF830AC0132F1E788421D4437D1DB
:10085000002306F803900133B3F5807FF9D100231C
:10086000AB4203D0FA5CF2540133F9E700234FF0B6
:10087000FF321946206802F003F801281FD100203A
:1008800002F056FE039003A805F098FF124A0346B3
:10089000202104A808F0CCFD4C23009304AA104B9F
:1008A0000E49104805F064FA324612490D4805F029
:1008B0005FFA00231A461946206801F0E3FE00257E
:1008C0004021029800F0A3FF17E70DF55D7DBDE81C
:1008D000F08F00BF0C06002044D9000871D9000831
:1008E00059D900080807002085D9000824060020EF
:1008F0009DD90008AFD900081006002090D0030051
:100900002DE9F047C24C0023D4B04FF0FF32194616
:10091000206801F0B5FF012814AD1ED1002002F0BF
:1009200007FE0C900CA805F049FFBA4A03462021A7
:10093000284608F07DFD12232A460093B649B74B9E
:10094000B74805F015FAB749B54805F011FA002384
:100950001A461946206801F095FE0A2005F079FB39
:100960000390B14800234FF0FF3203A9006801F063
:1009700089FE342005F06DFB4FF0FF37052306227A
:1009800007210097824605F099F8102005F061FBD9
:1009900010220646002106F0F0F80122022130461E
:1009A00002F057FD102005F054FB10228046002174
:1009B00006F0E3F801224521404602F04AFD1420EA
:1009C00005F047FB324643465146814600F030FD74
:1009D0009648CDF8109000233A4604A9006801F02B
:1009E00051FE049800F048FE064630BB034601461F
:1009F0003A46206801F044FF01281ED1304602F03B
:100A000097FD0C900CA805F0D9FE824A03462021E0
:100A1000284608F00DFD1E232A4600937E497F4B91
:100A20007F4805F0A5F982497D4805F0A1F93346D4
:100A300032463146206801F025FE049800F0A0FF00
:100A4000064638BB034601464FF0FF32206801F0EE
:100A500017FF01281ED1304602F06AFD0C900CA849
:100A600005F0ACFE6B4A03462021284608F0E0FC66
:100A700023232A4600936849684B694805F078F9B2
:100A80006C49674805F074F93346324631462068B0
:100A900001F0F8FD3221049801F000FB064638BB56
:100AA000034601464FF0FF32206801F0E9FE0128BD
:100AB0001ED1304602F03CFD0C900CA805F07EFEE5
:100AC000544A03462021284608F0B2FC28232A462F
:100AD00000935149514B524805F04AF95649504844
:100AE00005F046F9334632463146206801F0CAFD2A
:100AF00008230093032206230421049801F0AEFA90
:100B0000064638BB034601464FF0FF32206801F02D
:100B1000B7FE01281ED1304602F00AFD0C900CA849
:100B200005F04CFE3B4A03462021284608F080FC95
:100B30002D232A4600933849384B394805F018F9D7
:100B40003E49374805F014F93346324631462068AD
:100B500001F098FD0AA9049800F0C0FD064638BBD4
:100B6000034601464FF0FF32206801F089FE01285C
:100B70001ED1304602F0DCFC0C900CA805F01EFEE5
:100B8000244A03462021284608F052FC33232A46F3
:100B900000932149214B224805F0EAF828492048D2
:100BA00005F0E6F8334632463146206801F06AFD2A
:100BB00000234FF0FF321946206801F061FE012842
:100BC00042D1002002F0B4FC0C900CA805F0F6FD18
:100BD000104A03462021284608F02AFC35230093BA
:100BE0002A460E4B0C490E4805F0C2F89DF82A30F3
:100BF0009DF8292013490A4803EB022205F0B8F8B2
:100C000000231A461946206801F03CFD1CE000BF95
:100C10000C06002044D9000871D90008B2D9000898
:100C200008070020BDD90008300600202C0600204F
:100C3000CCD90008DDD90008FDD9000815DA000874
:100C40002EDA000843DA0008B249049800F008FEE2
:100C5000064638BB034601464FF0FF32206801F0DC
:100C60000FFE01281ED1304602F062FC0C900CA849
:100C700005F0A4FDA84A03462021284608F0D8FB29
:100C800039232A460093A549A54BA64805F070F8DC
:100C9000A549A44805F06CF8334632463146206831
:100CA00001F0F0FC00234FF0FF321946206801F0FC
:100CB000E7FD01281FD1002002F03AFC0C900CA89F
:100CC00005F07CFD944A03462021284608F0B0FB3D
:100CD0003B2300932A46924B9049924805F048F8EE
:100CE0008C4A92498F4805F043F800231A4619466A
:100CF000206801F0C7FC4FF000084FF0000906A97A
:100D00000498CDE9068900F013FD064638BB03467A
:100D100001464FF0FF32206801F0B2FD01281ED1DC
:100D2000304602F005FC0C900CA805F047FD7A4A0D
:100D300003462021284608F07BFB40232A460093E7
:100D40007649774B774805F013F87949754805F0EF
:100D50000FF8334632463146206801F093FC0521F6
:100D6000049800F06BFD064640BB034601464FF079
:100D7000FF32206801F084FD01281FD1304602F0C7
:100D8000D7FB0C900CA805F019FD634A03462021FF
:100D9000284608F04DFB452300932A46604B5F49E7
:100DA000604804F0E5FF052262495E4804F0E0FF78
:100DB000334632463146206801F064FC4FF49670A9
:100DC00002F02CF80221049800F038FD064640BBE2
:100DD000034601464FF0FF32206801F051FD012823
:100DE0001FD1304602F0A4FB0C900CA805F0E6FCE5
:100DF000494A03462021284608F01AFB4C23009359
:100E00002A46474B4549474804F0B2FF0222494968
:100E1000444804F0ADFF334632463146206801F0C5
:100E200031FC0721049800F009FD064640BB03464B
:100E300001464FF0FF32206801F022FD01281FD14A
:100E4000304602F075FB0C900CA805F0B7FC324A56
:100E500003462021284608F0EBFA512300932A4646
:100E60002F4B2E492F4804F083FF072231492D488C
:100E700004F07EFF334632463146206801F002FC22
:100E8000049801F028F9064638BB034601464FF0A6
:100E9000FF32206801F0F4FC01281ED1304602F038
:100EA00047FB0C900CA805F089FC1B4A0346202147
:100EB000284608F0BDFA56232A4600931749184BD6
:100EC000184804F055FF1C49164804F051FF3346FA
:100ED00032463146206801F0D5FBCDE90889002370
:100EE000EB540133B3F5807FFAD10B4FDFF830803C
:100EF00000260AA9049800F0F1FB9DF82930442B44
:100F000055D19DF82A30632B51D1039B01221A70D1
:100F100014E000BF8047A11944D9000871D9000826
:100F2000B2D900080807002055DA000874DA000872
:100F300095DA0008B2DA0008D7DA000808A90498A0
:100F400000F0F6FB00234FF0FF321946206801F055
:100F500097FC012820D1002002F0EAFA059005A8AC
:100F600005F02CFC3A46034620210CA808F060FA54
:100F7000672300930CAA43460E490F4804F0F8FE7D
:100F8000DDE908230D490C4804F0F2FE00231A465F
:100F90001946206801F076FB4FF4807229460498C8
:100FA00001F0D2F84FF47A7001F038FFA1E7039B0B
:100FB0001E70C3E771D9000808070020F0DA0008A6
:100FC00007B50F4A936819685368D268194218BF69
:100FD0001B0402A91360002341F8043D094B186863
:100FE00001F022FC019B3BB1074B4FF080521A608D
:100FF000BFF34F8FBFF36F8F03B05DF804FB00BFEB
:10100000900600201006002004ED00E02DE9F043DA
:10101000BF4C002393B04FF0FF321946206801F017
:101020002FFC01281ED1002002F082FA089008A8A7
:1010300005F0C4FBB74A034620210AA808F0F8F9D6
:101040000F230AAA0093B449B44BB54804F090FEAC
:10105000B449B34804F08CFE00231A4619462068B0
:1010600001F010FB0A2004F0F4FF12A9002341F85C
:101070003C0DAD484FF0FF32006801F003FB342017
:1010800004F0E7FF4FF0FF352A232B222C21009597
:10109000814604F013FD102004F0DBFF1022064609
:1010A000002105F06AFD01222921304602F0D1F924
:1010B000102004F0CEFF10220746002105F05DFD50
:1010C00001223D21384602F0C4F9142004F0C1FF8A
:1010D0003B4632464946804600F0AAF912A9934899
:1010E00041F8388D00232A46006801F0CBFA00232E
:1010F0002A461946206801F0C3FB01281ED10020B2
:1011000002F016FA089008A805F058FB814A034639
:1011100020210AA808F08CF91C230AAA00937E4912
:101120007E4B7F4804F024FE81497D4804F020FE78
:1011300000231A461946206801F0A4FA049800F02A
:101140009BFA054638BB034601464FF0FF32206844
:1011500001F096FB01281ED1284602F0E9F908901B
:1011600008A805F02BFB6B4A034620210AA808F0CB
:101170005FF91F230AAA00936749684B684804F087
:10118000F7FD6C49664804F0F3FD2B462A462946D4
:10119000206801F077FA00234FF0FF3219462068EB
:1011A00001F06EFB01281ED1002002F0C1F9089069
:1011B00008A805F003FB574A034620210AA808F0B7
:1011C00037F921230AAA00935349544B544804F099
:1011D000CFFD5949524804F0CBFD00231A46194669
:1011E000206801F04FFA082318221A21049800F011
:1011F0007AFA08230093032206230421049800F0BE
:101200002DFF049800F072FD054638BB03460146E9
:101210004FF0FF32206801F033FB01281ED1284631
:1012200002F086F9089008A805F0C8FA394A034682
:1012300020210AA808F0FCF829230AAA00933649BD
:10124000364B374804F094FD3C49354804F090FD96
:101250002B462A462946206801F014FA384904989A
:1012600000F0FEFA0621049800F0E8FA0221049842
:1012700000F0E4FA049800F02EFF08A9049800F0AA
:101280002DFA054638BB034601464FF0FF32206871
:1012900001F0F6FA01281ED1284602F049F906901D
:1012A00006A805F08BFA1B4A034620210AA808F07D
:1012B000BFF834230AAA00931749184B184804F0C2
:1012C00057FD2049164804F053FD2B462A4629466F
:1012D000206801F0D7F900234FF0FF32194620684B
:1012E00001F0CEFA012842D1002002F021F9069047
:1012F00006A805F063FA074A034620210AA808F069
:1013000097F8362300930AAA044B03491CE000BF58
:101310000C06002044D9000871D9000808DB000839
:101320000807002013DB0008280600202406002000
:1013300022DB000837DB000851DB000866DB000811
:10134000400ECF197BDB0008324804F011FD9DF8F8
:1013500022309DF8212030492E4803EB022204F070
:1013600007FD00231A461946206801F08BF92B4A25
:1013700004982B4E2B4F402100F0BEFF002200238B
:10138000CDE90623002508A9049800F0A7F99DF8E7
:101390002130442B039B3AD19DF82220632A36D179
:1013A00001221A7006A9049800F0C2F900234FF038
:1013B000FF321946206801F063FA012822D100208B
:1013C00002F0B6F812AB43F8340D184605F0F6F902
:1013D0003246034620210AA808F02AF84223009347
:1013E0000AAA3B4610490B4804F0C2FCDDE906237B
:1013F0000E49084804F0BCFC00231A461946206830
:1014000001F040F94FF47A7001F008FDBBE71D7060
:10141000C8E700BF0807002090DB0008C10F0008E4
:1014200044D9000808DB000871D90008A2DB0008D5
:1014300010B54160D968C3605B6882600B60D36897
:1014400052681A600446012001F098F942F21073C4
:10145000206023616068054904F080FB6068002219
:10146000082104F071FB204610BD00BF8096980053
:10147000002370B54FF0FF3204460D460068194650
:1014800001F0FEF901281FD1A3686068DA685B6883
:101490001B041360036850211B6898476E1E0335B8
:1014A000B54207D060680368FF211B68984706F8BB
:1014B000010FF5E7A3682068DA685B681360002312
:1014C0001A46194601F0DEF8012070BDF8B5002378
:1014D00004460D46164619464FF0FF32006801F0EB
:1014E000CFF901281FD1A3686068DA685B681B0424
:1014F0001360036866211B68984700235F1CDBB2FA
:10150000B34206DA6068E95C0268126890473B46BD
:10151000F4E7A3682068DA685B68136000231A4662
:10152000194601F0AFF80120F8BD00232DE9F04184
:1015300004460E46174619464FF0FF32006801F088
:101540009FF9012821D1A3686068DA685B681B04F1
:101550001360036877211B6898470023DDB2BD4202
:1015600003F1010807DA60680368FF211B689847E8
:1015700043467055F2E7A3682068DA685B68136039
:1015800000231A46194601F07DF80120BDE8F081DC
:101590002DE9F0411F46002304460E461546194624
:1015A0004FF0FF32006801F06BF9012861D1A368A8
:1015B000DA685B681B041360002303F10108DBB2E7
:1015C000AB4206DA6068F15C0268126890474346F5
:1015D000F3E7A368DA685B681360012001F01EFC82
:1015E000A368DA685B681B04136000252369AB42BB
:1015F0001BD96068036844211B68984760680368CA
:10160000FF211B689847C0B2FF2805F101050CD0E7
:10161000A368DA685B681360012001F0FFFBA36830
:10162000DA685B681B041360E0E72369AB424FF0A4
:1016300000030CD9DDB2BD4203F101080FDA606886
:101640000368FF211B68984743467055F2E71A4626
:101650001946206801F016F80020BDE8F081A36863
:101660002068DA685B68136000231A46194601F0A7
:1016700009F80120BDE8F081002313B54FF0FF32D7
:1016800004461946006801F0FBF8012813D1E3680D
:10169000DA685B68136001F0C1FBE368DA685B68D5
:1016A0001B0413600F2001F0B9FB00231A461946F2
:1016B000206800F0E7FF084B18689A889B79009033
:1016C000ADF804208DF80630072200236946204635
:1016D000FFF75EFF02B010BDBADB000801220A70FE
:1016E0000823FFF755BF37B5002401941324082BB6
:1016F0008DF800404FF003054FF002048DF8011003
:101700008DF802204FF000034FF0080269468DF873
:1017100003408DF8045004BF8DF803508DF8044049
:10172000FFF736FF003018BF012003B030BD0000C6
:10173000F7B500230093019314238DF80030102394
:101740000D468DF80130022208236946FFF720FF7D
:1017500004469DF804000BF01BFD00221D4B0BF00E
:101760008DFD06469DF805000F460BF011FD024663
:101770000B46304639460BF0CFFB06469DF8060077
:101780000F460BF005FD0022134B0BF0C5FB0022AA
:10179000124B0BF073FD02460B46304639460BF0F8
:1017A0006DFD06469DF807000F460BF0F1FC002288
:1017B0000B4B0BF063FD0022064B0BF0ADFB02461A
:1017C0000B46304639460BF0A5FBC5E90001204623
:1017D00003B0F0BD00007040000089400000303FC1
:1017E0000000E03F1FB50023312202938DF808204E
:1017F0000A0A8DF80B208DF80C10052202A9FFF7BC
:10180000C7FE003018BF012005B05DF804FB1FB50E
:101810000023322202938DF808200A0A8DF80B204B
:10182000082203938DF80C100DEB0201FFF7B0FEB8
:10183000003018BF012005B05DF804FB07B5342364
:101840008DF804308DF805100023022201A9FFF75E
:101850009FFE003018BF012003B05DF804FB0000BC
:101860002DE9FF41404B994206460C466BD83F4B51
:1018700099426CD8A3F12463A3F5034399426AD833
:101880003B4B99426BD83B4B994295BF05230423B0
:101890004FF018084FF0100820228DF80120012287
:1018A000083300258DF80220512211278DF80320DE
:1018B0008DF8043005222B46694630468DF80070BD
:1018C000FFF766FE00283BD007EE904A2A4B93FBB9
:1018D000F8F3B8EE677A07EE903AB4FBF3F2F8EE5D
:1018E000E76A013AC7EE267A402002958DF80C206F
:1018F0008DF8090004208DF80A0030468DF8087034
:1019000007EE102AB8EE477A082277EEC77A9FEDE5
:101910001B7A67EE877AFCEEE77A17EE903A99B277
:101920001B0C8DF80D300B0A8DF80E308DF80F1052
:101930002B460DEB0201FFF72BFE401B18BF0120C9
:1019400004B0BDE8F08100234FF00408A4E70123B0
:101950004FF00608A0E702234FF008089CE7032396
:101960004FF00C0898E700BF3F72052A3FDD4A1F81
:10197000BFD93E0E3FCE8C0A00879303000000497A
:10198000F0B5094DC3B004462B79286801908DF855
:1019900008300522002301A92046FFF7F9FD28B9E8
:1019A000002043B0F0BD00BFC1DB00082B4605227C
:1019B00053F8050F03901B798DF8103003A900230D
:1019C0002046FFF7E5FD0028EAD02B46062253F813
:1019D0000A0F13909B88ADF8503013A900232046BE
:1019E000FFF7D6FD0028DBD02B46052253F8100F59
:1019F00005901B798DF8183005A900232046FFF7C4
:101A0000C7FD0028CCD02B46052253F8150F0790B0
:101A10001B798DF8203007A900232046FFF7B8FD79
:101A20000028BDD02B4615A953F81A0F15909A8897
:101A30009B79ADF858208DF85A30072200232046B4
:101A4000FFF7A6FD0028ABD02B46052253F8210F47
:101A500009901B798DF8283009A900232046FFF74B
:101A600097FD00289CD02EAA05F12603174636358F
:101A700018685968164603C60833AB423246F7D198
:101A80000023102239462046FFF782FD002887D028
:101A90008F4B32AA03F1100796463E4618685968E4
:101AA000154603C50833BB422A46F7D1002310224E
:101AB00071462046FFF76CFD00283FF471AF306897
:101AC00033790B908DF83030052200230BA9204686
:101AD000FFF75EFD00283FF463AF7E4D286869681C
:101AE0001DAB03C3A86818600C2200231DA9204663
:101AF000FFF74EFD00283FF453AF26AA05F10C0373
:101B00001746143518685968164603C60833AB42A1
:101B10003246F7D118681B79306033710D220023EB
:101B200039462046FFF734FD00283FF439AF6A4DAF
:101B300028686968AA7A17AB03C3298919809A7043
:101B400017A900230B222046FFF722FD00283FF4AF
:101B500027AF2B46052253F80B0F0D901B798DF8FC
:101B600038300DA900232046FFF712FD00283FF46E
:101B700017AF2AAA05F110031746183518685968D7
:101B8000164603C60833AB423246F7D118681B79B4
:101B9000306033710D22002339462046FFF7F8FCF0
:101BA00000283FF4FDAE4D4D2868696820AB03C3A3
:101BB000A86818600C22002320A92046FFF7E8FC43
:101BC00000283FF4EDAE2B46052253F80C0F0F9082
:101BD0001B798DF840300FA900232046FFF7D8FC71
:101BE00000283FF4DDAE2B46052253F8110F11906B
:101BF0001B798DF8483011A900232046FFF7C8FC57
:101C000000283FF4CDAE36AA05F116031746263557
:101C100018685968164603C60833AB423246F7D1F6
:101C20000023102239462046FFF7B2FC00283FF47B
:101C3000B7AE2B4B3AAA03F110071646186859683D
:101C4000154603C50833BB422A46F7D100231022AC
:101C500031462046FFF79CFC00283FF4A1AE214B03
:101C60003EAA03F1100796463D4618685968164685
:101C700003C60833BB423246F7D100231022714617
:101C80002046FFF785FC00283FF48AAE2868696883
:101C9000AA7A1AAB03C3298919809A701AA900235A
:101CA0000B222046FFF774FC00283FF479AE0E4A61
:101CB0001068516823AB03C3906818600C2200239E
:101CC00023A92046FFF764FC003018BF012068E616
:101CD000F7DB00080CDC000825DC000842DC00080B
:101CE00068DC000878DC000893DC0008F0B5094DDA
:101CF000C1B004462B79286800908DF80430052285
:101D0000002369462046FFF743FC28B9002041B074
:101D1000F0BD00BFC1DB00082B46052253F8050FBC
:101D200002901B798DF80C3002A900232046FFF7A2
:101D30002FFC0028EAD02B4610A953F8DE0F109094
:101D40009A889B79ADF844208DF84630072200230D
:101D50002046FFF71DFC0028D8D02B46052253F85B
:101D6000150F04901B798DF8143004A90023204628
:101D7000FFF70EFC0028C9D02B4612A953F81A0F02
:101D800012909A889B79ADF84C208DF84E3007223E
:101D900000232046FFF7FCFB0028B7D02B46052286
:101DA00053F8210F06901B798DF81C3006A90023EB
:101DB0002046FFF7EDFB0028A8D02CAA05F126034A
:101DC0001746363518685968164603C60833AB42BD
:101DD0003246F7D10023102239462046FFF7D8FBC0
:101DE000002893D0954B30AA03F1100796463E4643
:101DF00018685968154603C50833BB422A46F7D10F
:101E00000023102271462046FFF7C2FB00283FF452
:101E10007DAF3068337908908DF824300522002397
:101E200008A92046FFF7B4FB00283FF46FAF844DAC
:101E3000286869681AAB03C3A86818600C220023DD
:101E40001AA92046FFF7A4FB00283FF45FAF20AAA1
:101E500005F10C031746143518685968164603C671
:101E60000833AB423246F7D118681B7930603371C2
:101E70000D22002339462046FFF78AFB00283FF455
:101E800045AF704D28686968AA7A14AB03C32989E5
:101E900019809A7014A900230B222046FFF778FBC3
:101EA00000283FF433AF2B46052253F80B0F0A905E
:101EB0001B798DF82C300AA900232046FFF768FB18
:101EC00000283FF423AF24AA05F110031746183564
:101ED00018685968164603C60833AB423246F7D134
:101EE00018681B79306033710D2200233946204673
:101EF000FFF74EFB00283FF409AF534B28AA03F12C
:101F00000807164618685968154603C50833BB42CA
:101F10002A46F7D1186899889B792860A980AB7107
:101F20000F22002331462046FFF732FB00283FF402
:101F3000EDAE464D28682B790C908DF83430052293
:101F400000230CA92046FFF723FB00283FF4DEAE58
:101F50002B46052253F8050F0E901B798DF83C3067
:101F60000EA900232046FFF713FB00283FF4CEAE56
:101F700034AA05F10A0317461A3518685968164637
:101F800003C60833AB423246F7D10023102239464C
:101F90002046FFF7FDFA00283FF4B8AE2C4B38AAD4
:101FA00003F11007164618685968154603C508332B
:101FB000BB422A46F7D10023102231462046FFF7C4
:101FC000E7FA00283FF4A2AE224B3CAA03F1100727
:101FD00096463D4618685968164603C60833BB4204
:101FE0003246F7D10023102271462046FFF7D0FA7F
:101FF00000283FF48BAE28686968AA7A17AB03C340
:10200000298919809A7017A900230B222046FFF70F
:10201000BFFA00283FF47AAE0F4A106851681DAB32
:1020200003C3906818600C2200231DA92046FFF707
:10203000AFFA003018BF012069E600BFF7DB0008E7
:102040000CDC000825DC0008A6DC00084EDC0008DB
:1020500068DC000878DC000893DC000837B5002451
:10206000112500948DF806308DF800509DF8183039
:102070008DF8041002258DF801508DF805208DF89B
:10208000073004252346082269468DF80250FFF7E1
:102090007FFA001B18BF012003B030BD13B5002329
:1020A000112200938DF8002022228DF801200422B5
:1020B00001938DF802208DF8051008221D24694631
:1020C0008DF804208DF80740FFF762FA003018BF42
:1020D000012002B010BD07B5002300930193202317
:1020E0008DF80030042208236946FFF751FA0030CA
:1020F00018BF012003B05DF804FB73B50546144614
:10210000FFF7E4F918B90024204602B070BD21465B
:102110002846FFF767FB0028F5D040F2F514013C94
:102120000DD001A92846FFF7A3F99DF8046001200E
:1021300006F0200600F072FE002EF0D001242846A2
:10214000FFF7C9FFE0E700002DE9F04F9046A1B08E
:1021500040220E463027824600210DEB020004F09B
:102160000CFDB8FBF7F507FB158733235FFA87F9FA
:102170000135059309F10D0BFB1C039506933036D1
:1021800001245FFA8BFB53238DF8403054238DF8E4
:1021900041308DF844309DF80C308DF845304122A7
:1021A0009DF80D308DF842208DF846305222C4F350
:1021B0000723A54204948DF843208DF847408DF8FD
:1021C00048306AD19DF818308DF849309DF81930A3
:1021D0008DF84A304F238DF84B304B238DF84C301F
:1021E0000023BB4207D0F11810AA1A4411F8301C82
:1021F00051730133F5E720AB5B44452203F8402CD3
:1022000020AA09F10E0352FA83F34E2203F8402C60
:1022100020AA09F10F0352FA83F3442203F8402C59
:1022200040220DEB020150460134FFF766FFA54244
:1022300006F13006A7D22A4C00234FF0FF32194690
:10224000206800F01DFB012823D1002001F070F967
:1022500020AB43F8640D184604F0B0FA2021034681
:10226000204A0DEB010007F0E3F840F2273300931A
:1022700008AA1D4B1D491E4803F07AFD42461D4920
:102280001B4803F075FD00231A461946206800F02C
:10229000F9F9012021B0BDE8F08F9DF814308DF8D8
:1022A00049309DF815308DF84A304F238DF84B306A
:1022B0004B238DF84C300023F11810AA1A44013337
:1022C00011F8301C5173302BF6D145238DF87D3039
:1022D0004E238DF87E3044238DF87F30A0E700BF79
:1022E0000C06002044D90008B5DC000871D90008AC
:1022F00008070020CADC0008F0B585B017460C4678
:102300000646FFF7E8FE542003F0A3FE39210546F8
:1023100003F07EFB0D4B394628461D6003F0A4FBFD
:102320000023322202938DF80820220A8DF80B2018
:1023300008220DEB0201304603938DF80C40FFF7A5
:1023400027F9003018BF012005B0F0BD08060020B5
:1023500010B5064B036003F118024C330446426586
:102360008365543003F0DCFC204610BD40E10008DA
:10237000A0F15400ECE7A0F15800E9E770B504467D
:102380000D4616460021102204F0F7FB2046324687
:10239000294601F05EF8204670BD10B50446FFF7EF
:1023A000D7FF204603F053FE204610BDA0F1540095
:1023B000F3E7A0F15800F0E710B5012203211A4815
:1023C0001A4CFFF7DBFF00221A211948FFF7D6FF4E
:1023D00000221B211748FFF7D1FF002223211648B6
:1023E000FFF7CCFF012221211448FFF7C7FF01228C
:1023F00043211348FFF7C2FF002214211148FFF7C1
:10240000BDFF002216211048FFF7B8FF012200216E
:1024100020460E4B03F0C2FB20460D4A0D49BDE895
:10242000104003F02FBE00BF60060020B40600205D
:10243000A006002090060020400600205006002044
:10244000200700207006002080060020EFDC000836
:10245000880100205123000800F1080343604FF079
:10246000FF32C36003610023826003607047002372
:102470000361704743684B609A688A609A6851604C
:102480009960036808610133036070470A68531C50
:1024900030B50AD103695A684A6091608B6059600F
:1024A000036808610133036030BD00F108035C6814
:1024B0002568AA42EFD32346F9E741688268036999
:1024C0008A60826851605968884208BF5A60002259
:1024D0000261186801381860704738B51546026CFB
:1024E00004465AB905680DB1002003E0406800F0C9
:1024F00001FE6560A36B0133A36338BD65B98068D5
:1025000004F016FBA368226C13446268A360934234
:10251000EAD32368A360E7E7C06804F009FB236CF3
:10252000E26821685B421A448A42E2603EBF626808
:102530009B18E360022DD7D1A36B002BD4D0A36BE3
:10254000013BA363D0E7034610B41A6C084662B19E
:10255000D9685C681144A142D96024BF1968D96068
:10256000D9685DF8044B04F0E3BA5DF8044B70479A
:1025700038B5044600F048FE04F12405A36C002B96
:1025800012DC4FF0FF33A36400F04EFE00F03CFE7F
:1025900004F11005636C002B13DC4FF0FF33636410
:1025A000BDE8384000F040BE636A002BE9D0284601
:1025B00000F0EAFC08B100F051FDA36C013BA364FC
:1025C000DCE72369002BE8D0284600F0DDFC08B1E9
:1025D00000F044FD636C013B6364DBE738B50446FF
:1025E0000D4600F011FE206CE36B2268A2604343AD
:1025F000D1181B1A13446160E36000214FF0FF33D0
:10260000A1636364A3649DB923696BB104F11000F5
:1026100000F0BAFC012807D10A4B4FF080521A6033
:10262000BFF34F8FBFF36F8F00F0FEFD012038BD69
:1026300004F11000FFF710FF04F12400FFF70CFF76
:10264000F2E700BF04ED00E0F8B5064617460D4678
:1026500091B148430130543000F068FE044648B15F
:1026600065B92060E663256401212046FFF7B6FFC7
:1026700084F850702046F8BD0846ECE700F154039A
:102680000360EFE72DE9FF470026DFF8ECA0019299
:10269000044689461F46B04600F0B6FDA26BE36BC8
:1026A0009A4201D3022F1DD13A4649462046FFF7F0
:1026B00014FF636A73B104F1240000F065FC012883
:1026C0000AD12D4B4FF080521A60BFF34F8FBFF3EA
:1026D0006F8F01E00028F4D100F0A6FD012004B0C6
:1026E000BDE8F087019D1DB900F09EFD0020F6E7D2
:1026F00016B902A800F080FC00F096FD00F092FAF6
:1027000000F082FD636C013308BFC4F84480A36C01
:10271000013308BFC4F8488000F086FD01A902A873
:1027200000F076FC10BB00F06FFDA66BE56B00F0CF
:102730007BFDAE4214D1019904F1100000F0F6FBCC
:102740002046FFF715FF00F0FDFA38B94FF080532F
:10275000CAF80030BFF34F8FBFF36F8F01269BE79E
:102760002046FFF705FF00F0EDFAF7E72046FFF7F8
:10277000FFFE00F0E7FAB9E704ED00E070B50646A9
:10278000542000F0D3FD0446D8B101230025C363D3
:102790004FF0FF3385634560436405608364856063
:1027A000C560056480F850601030FFF755FE04F1F5
:1027B0002400FFF751FE2B462A4629462046FFF704
:1027C00061FF204670BD70B504461546EFF31186D3
:1027D0004FF4807282F31188BFF36F8FBFF34F8F76
:1027E000806BE26B904201D3022B1BD11A4620462C
:1027F000FFF773FEA36C013310D1636A0BB901209C
:1028000009E004F1240000F0BFFB0028F7D0002D00
:10281000F5D00120286086F3118870BDA36C0133C8
:10282000A364ECE70020F6E738B50C46EFF311851A
:102830004FF4807383F31188BFF36F8FBFF34F8F13
:10284000826BC36B9A4219D2836B01338363836CAF
:1028500001330FD1436A0BB9012008E0243000F0A6
:1028600093FB0028F8D0002CF6D00120206085F3DF
:10287000118838BD836C01338364EDE70020F6E7EF
:102880002DE9FF470026DFF814A10192044688468F
:102890009946374600F0B8FCA36B7BB3414620460F
:1028A000E568FFF750FEB9F1000F18D1A36B013BAB
:1028B000A363236813B900F055FC60602369BBB1C2
:1028C00004F1100000F060FB012811D1334B4FF0F0
:1028D00080521A60BFF34F8FBFF36F8F08E0636AB7
:1028E000E5602BB104F1240000F04EFB0028EDD18F
:1028F00000F09AFC012004B0BDE8F087019D1DB9ED
:1029000000F092FC0020F6E716B902A800F074FB74
:1029100000F08AFC00F086F900F076FC636C01336D
:1029200008BF6764A36C013308BFA76400F07CFC98
:1029300001A902A800F06CFB48BB00F065FCA56B88
:1029400000F072FCEDB9236833B900F05DFC6068FB
:1029500000F08AFB00F068FC019904F1240000F00B
:10296000E5FA2046FFF704FE00F0ECF938B94FF025
:102970008053CAF80030BFF34F8FBFF36F8F01262B
:1029800088E72046FFF7F4FD00F0DCF9F7E7204682
:10299000FFF7EEFD00F0D6F9B4E700BF04ED00E06C
:1029A000064A13681968064B19B94FF0FF321A60CE
:1029B00070471268D268D2685268F8E7340700207E
:1029C0006C0800200E4B1A6810B550600D4A126852
:1029D0009042044607D20C4A10681968BDE81040BE
:1029E0000431FFF753BD094A106819680431FFF735
:1029F0004DFD074B1A68944238BF1C6010BD00BFE4
:102A000030070020B40800203807002034070020D9
:102A10006C0800202DE9F84F0C9DDDF828808246D7
:102A20000F4616469B4635B9900000F07FFC0546E0
:102A3000002800F09D80582000F078FC0446002813
:102A400000F09380B60032460563A521284604F0C5
:102A500094F8236B043E1E4426F007067B1E04F107
:102A600034020B37597802F8011B13F8011F09B122
:102A7000BB42F7D145460B2D28BF0B254FF000096F
:102A8000271DE562A564384684F83F90C4F84C9051
:102A9000FFF7EDFCC5F10C0504F11800FFF7E7FCAA
:102AA000C4F850902461A561646284F854905A4639
:102AB0005146304600F086FB0B9B206003B11C6042
:102AC00000F0A2FB314B324D1A68DFF8F090013272
:102AD0001A602E68002E4ED12C601B68012B1DD170
:102AE00009EB06001436FFF7B7FCF02EF8D1DFF83B
:102AF000D0A0284E5046FFF7AFFC3046FFF7ACFCA5
:102B00002548FFF7A9FC2548FFF7A6FC2448FFF756
:102B1000A3FC244BC3F800A0234B1E60234A244986
:102B20001368086801331360E26A2364012404FA1D
:102B300002F3034314200B6000FB02903946FFF7B9
:102B400099FC00F071FB1B4B1B685BB12B68DB6AC7
:102B5000984507D9184B4FF080521A60BFF34F8F3A
:102B6000BFF36F8F2046BDE8F88F284600F006FCC3
:102B70004FF0FF34F6E70F4B1B68002BCED12B68CC
:102B8000DB6A984528BF2C60C8E700BF2C080020EE
:102B9000300700205808002074080020A0080020FA
:102BA0008C08002034070020380700203808002057
:102BB000400800208808002004ED00E03C070020C9
:102BC000440800201FB5002403940294019400944B
:102BD000234650220E490F48FFF71CFF012814D14D
:102BE0004FF4807383F31188BFF36F8FBFF34F8F60
:102BF000094B4FF0FF321A60084B1860084B1C60FD
:102C000004B0BDE8104000F075BB04B010BD00BFBB
:102C1000F9DC00087D2E00086C08002088080020E0
:102C2000B4080020024A136801331360704700BFE4
:102C3000340800202DE9F84F374B1B68002B48D192
:102C4000364B1A6801321A601D685DB9344A354B3B
:102C5000116818681060344A1960136801331360F2
:102C6000FFF79EFE314C324F23689D424FF0000B20
:102C70003ED3DFF8AC80DFF8C890D8F800201268A7
:102C800072BB4FF0FF32226032E006F1040A504678
:102C9000FFF713FCB16A19B106F11800FFF70DFC3C
:102CA000F06AD9F80030012202FA00F11943214BF1
:102CB000C9F800104FF0140E51460EFB0030FFF71C
:102CC000D9FB3868F16AC26A914228BF4FF0010B04
:102CD000D3E7194A1368013313604FF0000B11E07A
:102CE000D8F80020D268D66871688D42CDD22160B4
:102CF0003A68104BD16A14224A439A58022A28BFD4
:102D00004FF0010B0D4A1268002A18BF4FF0010B5B
:102D10005846BDE8F88F00BF34080020B4080020F2
:102D20003407002038070020700800206C080020BD
:102D3000300700203C07002030080020B8080020A1
:102D4000400800202DE9F84300F05EFA2A4B1A688B
:102D5000013A1A601B682BB1002400F065FA204686
:102D6000BDE8F883254B1B68002BF5D0244D254E7C
:102D70001FE0EB68DC6804F1040904F11800FFF7B8
:102D80009CFB4846FFF799FBE26A3168012707FA86
:102D900002F314200B4300FB028049463360FFF727
:102DA00069FB194BE26A1B68DB6A9A4203D3174B33
:102DB0001F60DFF864802B68002BDAD1144C236885
:102DC000BBB9124B1C68012CC6D1124B4FF080527C
:102DD0001A60BFF34F8FBFF36F8FBEE7FFF72AFF75
:102DE00000B12E602368013B23602368002BF5D1DE
:102DF000E7E7064D0126F8E7340800202C080020FC
:102E0000740800204008002030070020B808002087
:102E10003008002004ED00E03C07002038B540B940
:102E2000124B4FF080521A60BFF34F8FBFF36F8F7A
:102E300038BDFFF7F7FE0E4B0E4D1C6804442868A2
:102E40000430FFF73AFB40B92A680B49D06A0B6897
:102E50000122824023EA02030B602046FFF7B2FD05
:102E6000FFF770FF0028DBD038BD00BF04ED00E0A5
:102E7000B4080020300700204008002008B5114E9B
:102E8000114C2368002BFBD0FFF7CCFE3568FFF711
:102E900059FF002DF5D000F0B7F9F368DD68281D63
:102EA000FFF70BFB094A1368013B13602368013BE2
:102EB000236000F0B9F9286B00F060FA284600F0B2
:102EC0005DFADEE7A00800203C0800202C08002066
:102ED000114B1A68114B30B512B101221A6030BD86
:102EE0001A600F4B1B68B3FA83F3DBB20D49C3F1D1
:102EF0001F03142000FB03F28C18083265686D680C
:102F000065600A44954204BF6A68626000FB03136F
:102F10005B68DA68044BE1E734080020B808002059
:102F2000400800203C0700203007002038B5124C34
:102F30000D4621681831FFF7A9FA20680430FFF721
:102F4000BCFA40B922680D49D06A0B680122824060
:102F500023EA02030B606B1C06D121680848043188
:102F6000BDE83840FFF786BA064B18682844BDE82C
:102F70003840FFF727BD00BF300700204008002081
:102F80008C080020B408002038B5C368DC6804F160
:102F900018052846FFF791FA114B1B68E3B9251D68
:102FA0002846FFF78AFA0F49E26A0868012393402E
:102FB00003430B600C4B1420294600FB0230FFF743
:102FC00059FA0A4BE26A1B68DB6A9A4283BF084BD4
:102FD00001201860002038BD29460648EFE700BFF1
:102FE00034080020400800203C0700203007002063
:102FF000B808002074080020034B1B680360034BD3
:103000001B684360704700BF70080020B4080020B0
:1030100038B50D46044600F0F7F80E4B2A681868DC
:10302000531C10D00C4B21681B689942636801D077
:1030300098420DD2C11A8A420AD91B1A13442B6036
:103040002046FFF7D9FF002400F0EEF8204638BDF7
:103050000124F9E7B408002070080020014B012288
:103060001A607047B80800202DE9F0410446002896
:1030700038D01D4DC36A2A68D26A934232D282691F
:103080001A4E002AA1BF2A68D26AC2F10C028261DC
:103090001427426907FB03639A4220D100F1040818
:1030A0004046FFF70AFA124A48B9E06A4743F35923
:1030B0002BB913680121814023EA010313602B68B7
:1030C0001168D86AE062012383400B431360142324
:1030D000414603FB0060BDE8F041FFF7CBB92B6828
:1030E000DB6AC362BDE8F081300700203C070020A6
:1030F00040080020F8B5044608B90020F8BDC36CAC
:10310000C16A826C013B9142C364F6D0002BF4D1BA
:10311000051D2846FFF7D1F9104E114A50B9E76A4C
:103120001421794373582BB913680120B84023EA5E
:1031300000031360A36CE362C3F10C01A161116889
:10314000012404FA03F008431060142000FB03601C
:103150002946FFF78FF92046F8BD00BF3C07002045
:1031600040080020044B1A681AB11968CA6C013271
:10317000CA641868704700BF300700204FF480739E
:1031800083F31188BFF36F8FBFF34F8FFEE700000B
:1031900006480068006880F3088862B661B6BFF32D
:1031A0004F8FBFF36F8F00DF00BF000008ED00E01E
:1031B000DFF80C00016841F4700101607047000005
:1031C00088ED00E04FF0807300E90A00054B40F8FD
:1031D0000C3C6FF0020340F8202C40F8243C4438AB
:1031E000704700BF7D310008064B19680868B0E8D9
:1031F000F04F80F30988BFF36F8F4FF0000080F32A
:1032000011887047300700204FF4807383F31188D2
:10321000BFF36F8FBFF34F8F024A13680133136000
:10322000704700BF8C010020034A1368013B136004
:103230000BB983F3118870478C010020EFF30980EC
:10324000BFF36F8F144B1A681EF0100F08BF20EDEC
:10325000108A20E9F04F10604DF8043D4FF4807063
:1032600080F31188BFF34F8FBFF36F8FFFF730FEEE
:103270004FF0000080F3118808BC19680868B0E8B6
:10328000F04F1EF0100F08BFB0EC108A80F30988D1
:10329000BFF36F8F704700BF3007002008B5EFF312
:1032A00011834FF4807282F31188BFF36F8FBFF3E5
:1032B0004F8FFFF7BFFC18B1034B4FF080521A60DD
:1032C000002383F3118808BD04ED00E0064B4FF4A2
:1032D0007A721B68B3FBF2F3044A013B1360044BA0
:1032E00007221A60704700BFA001002014E000E030
:1032F00010E000E008B50A4B1A681A601A681A60F4
:10330000FFF7E4FF074B00221A60FFF751FF064A60
:10331000136843F040431360FFF73AFFFFF72EFFB7
:1033200020ED00E08C01002034EF00E038B54307C9
:1033300004461CBF20F007040834FFF773FC0C4B55
:103340001A681AB90B4A22F007021A600A490A6879
:103350004EF6F7701444844208D8A24206D21D6883
:103360000C601544FFF7EEFC284638BD0025F9E750
:10337000BC080020C8080020C0F8002070470000EA
:10338000DFF830D0002103E00B4B5B584350043191
:103390000A480B4B42189A42F6D30A4A02E000232D
:1033A00042F8043B084B9A42F9D301F02BFAFCF7A0
:1033B00021FF704700000220ECE80008880100208F
:1033C000D4030020D4030020A8FD0020FEE708B5A8
:1033D00072B6962000F0F5F8962000F0F2F8F8E7C3
:1033E0000FB407B5054B04AA1B6852F8041BD86834
:1033F000019204F013F8012002F068FEA8010020F9
:1034000070B50E460446154601F042FA013609D061
:103410002046002101F055FA29462046BDE87040BB
:1034200001F04BBA70BD38B50D460446C16843681B
:1034300052B10B602046012101F043FA2946204693
:10344000BDE8384001F039BA1B04F2E70022FFF76B
:10345000D7BF70B50E460446154601F019FA01367D
:1034600006D02A4620460021BDE87040FFF7DBBFAA
:1034700070BD000010B5044601300DD110BD9C4256
:1034800009D12046896801F0E9FB20460021BDE80A
:10349000104001F007BC0C31B1F900305A1CEED1DC
:1034A0000248BDE81040FFF79BBF00BF2FDD0008BA
:1034B000884208B508D0431C06D0013106D0044824
:1034C000FFF78EFF4FF0FF31084608BD0146FBE7CE
:1034D000FEDC0008B1F900305A1C01D118467047D3
:1034E000834201D1486870470C31F3E7421C10B5A4
:1034F000044607D0FFF7EEFF431C044602D1024802
:10350000FFF76EFF204610BD0FDD0008064B1B685D
:1035100010B5044603B19847044B1B681BB1204605
:10352000BDE81040184710BD900100209C0100200C
:10353000074B1B6810B504461BB1984708B9FFF745
:10354000E5FF044B186800B1804704B1206010BD4E
:103550009401002098010020036870B5DB680446E0
:10356000984763685A6823681AB99B68BDE8704039
:1035700018475B68156898476368281A00285A68D6
:1035800007DC916859601B68002BEAD050689847A7
:10359000E7E7236810681B69BDE870401847000022
:1035A0000148FFF7D9BF00BF40DD000838B5044629
:1035B00001F0B2FF054601F0AFFF401BA042FAD375
:1035C00038BD4FF47A735843FFF7F0BF70470000DF
:1035D00008B5094B1A6842F400721A601A6842F47E
:1035E00080621A60032000F017F80F2000F0DCFF63
:1035F000FFF7ECFF002008BD003C0240024A1368C0
:1036000001331360704700BFCCF80020014B1868ED
:10361000704700BFCCF80020074AD36823F4E0636A
:103620001B041B0C43F0BF63000243F4003300F49F
:10363000E0600343D360704700ED00E02DE9F04FF8
:1036400085B00B68DFF8B081694ADFF8B09101936B
:1036500000234FF0010E019C0EFA03FE0EEA040651
:10366000B64540F0AE804C6824F01007022F16D10A
:103670004FEAD30A00EB8A0A03F0070BDAF820506E
:103680004FEA8B0B4FF00F0C0CFA0BFC25EA0C0CDD
:103690000D6905FA0BF545EA0C05CAF820504FEA0A
:1036A000430A0325D0F800B005FA0AF5ED4304F00B
:1036B000030C0BEA050B0CFA0AFC013F4CEA0B0C5D
:1036C000012FC0F800C011D8876807EA050BCF6842
:1036D00007FA0AFC4CEA0B078760476827EA0E0ED8
:1036E000C4F300179F4047EA0E074760C7683D4094
:1036F0008F6807FA0AF73D43C560E50061D5D8F841
:10370000445045F48045C8F84450D8F8445023F05C
:10371000030707F1804705F4804507F59C370395BB
:1037200003F0030E039DD7F808A04FF00F0C4FEAEB
:103730008E0E0CFA0EF52AEA050C2E4DA84247D043
:1037400005F58065A84245D005F58065A84243D0BF
:1037500005F58065A84241D005F58065A8423FD0B7
:1037600048453FD005F50065A8423DD005F5806588
:10377000A8423BD005F58065A84214BF092508255D
:1037800005FA0EF545EA0C05BD601568F74314F41B
:10379000803F0CBF3D4035431560556814F4003F31
:1037A0000CBF3D4035435560956814F4801F0CBF35
:1037B0003D4035439560D568A40254BF3D40354334
:1037C000D5600133102B7FF444AF05B0BDE8F08F16
:1037D0000025D5E70125D3E70225D1E70325CFE76B
:1037E0000425CDE70525CBE70625C9E70725C7E76B
:1037F000003C01400000024000380240001402403A
:103800004FF4807393FAA3F3B3FA83F3DBB29B0014
:1038100003F1844303F5602301221A60704700001E
:1038200003682DE9F341DF07044643D423689E076C
:1038300000F18F8023681A0700F1DE8023685B07A0
:1038400032D5914B914D1A6C42F080521A641B6C28
:1038500003F080530193019B2B6843F480732B602A
:10386000FFF7D4FE06462B68D90540F1E780884D66
:10387000854E00232B70FFF7C9FE41F288380746BA
:10388000336F9A0700F1E180237A2B70A368002B35
:1038900000F0E980FFF7BAFE7B4D064641F288371B
:1038A0002B6F9B0740F1D880A269002A40F0F88076
:1038B000002015E0744B9A6802F00C02042A07D02D
:1038C0009A6802F00C02082A0DD15B685D020AD5E5
:1038D0006D4B1B689803A9D56368002BA6D1012006
:1038E00002B0BDE8F0816B4D674E00232B70FFF7EF
:1038F0008DFE41F2883807463368990312D4237944
:103900002B706368ABB1FFF781FE5F4D064641F255
:1039100088372B689A0389D4FFF778FE801BB8425A
:10392000F7D904E0FFF772FEC01B4045E4D903203D
:10393000D6E7FFF76BFE544D064641F288372B68F9
:103940009B037FF573AFFFF761FE801BB842F6D98A
:10395000EDE74D4B9A6812F00C0F07D09A6802F011
:103960000C02082A18D15B685E0215D4464A136817
:103970009D0702D5E368012BB1D11168F82393FAB2
:10398000A3F3B3FA83F32069DBB200FA03F321F067
:10399000F8010B4313604DE7E2683F4BEAB10122A7
:1039A0001A60FFF733FE384D06462B6898070ED590
:1039B0002A68F82393FAA3F3B3FA83F32169DBB2FD
:1039C00001FA03F322F0F80213432B6032E7FFF70A
:1039D0001DFE801B6428E8D9A9E71A60FFF716FED0
:1039E000294D06462B6899077FF524AFFFF70EFE99
:1039F000801B6428F6D99AE76269284B7AB10122C4
:103A00001A60FFF703FE204D06466B6F9F073FF5D8
:103A100015AFFFF7FBFD801B6428F6D987E71A6016
:103A2000FFF7F4FD184D06466B6F98077FF506AF5C
:103A3000FFF7ECFD801B6428F6D978E7FFF7E6FD79
:103A4000801B64287FF60FAF71E7FFF7DFFDC01B17
:103A500040457FF615AF6AE7FFF7D8FD801BB842F7
:103A60007FF61EAF63E7FFF7D1FD074D064641F233
:103A700088372B6F98077FF517AFFFF7C7FD801BBF
:103A8000B842F6D953E700BF00380240007000404A
:103A9000703802400238024000004742800E474220
:103AA0002C4DAB6803F00C03082B3FF418AF2A4EE3
:103AB0000023022A336040D1FFF7A8FD07462B6898
:103AC000990134D447F6C07191FAA1F1B1FA81F1AC
:103AD0004FF4403797FAA7F7B7FA87F74FF07060BF
:103AE00090FAA0F0B0FA80F0226AE3691343626AA8
:103AF000C9B202FA01F1A26A52080B43013AF9B2C3
:103B00008A401343E26A134CC1B28A4013436B608C
:103B100001233360FFF77AFD054623689A013FF5DC
:103B2000C7AEFFF773FD401B6428F6D9FFE6FFF729
:103B30006DFDC01B6428C2D9F9E6FFF767FD044696
:103B40002B689B017FF5B4AEFFF760FD001B642876
:103B5000F6D9ECE600380240600047427C4B1A6818
:103B600002F00F028A422DE9F04105460E467DD251
:103B7000CAB21A701B6803F00F03994202D00120E9
:103B8000BDE8F0810268960706D5724980688B68A7
:103B900023F0F00303438B60D40713D42A68500743
:103BA00000F1CE80130707D56A4A2969936823F488
:103BB000604343EAC10393600F2000F0F5FC00204E
:103BC000BDE8F0816A68634B012A1ED11B6813F4BB
:103BD000003FD4D05F4CA36823F003031343A360DA
:103BE000FFF714FD6B68012B064618D141F28837A8
:103BF000A36803F00C03042BD0D0FFF707FD801B54
:103C0000B842F5D90320BDE8F081911E01291B6857
:103C100002D813F0007FDCE713F0020FD9E7022B84
:103C20000CD141F28837A36803F00C03082BB5D000
:103C3000FFF7ECFC801BB842F5D9E3E7032B12D168
:103C400041F28835A368FFF7E1FC801BA842F9D94F
:103C5000D8E7FFF7DBFC801BB842D3D8A36813F08A
:103C60000C0FF6D19AE741F28837F7E7026891071F
:103C700006D5384980688B6823F0F00303438B60D6
:103C8000D20709D4324BF2B21A701B6803F00F034B
:103C90009E427FF474AF81E76A682E4B012A1DD1E2
:103CA0001B6813F4003F3FF46AAF2A4CA36823F06B
:103CB00003031343A360FFF7A9FC6B68012B0746BE
:103CC00016D141F28838A36803F00C03042BD9D035
:103CD000FFF79CFCC01B4045F5D993E7911E0129D5
:103CE0001B6802D813F0007FDDE713F0020FDAE75C
:103CF000022B0CD141F28838A36803F00C03082B87
:103D0000C0D0FFF783FCC01B4045F5D97AE7032BF1
:103D100013D141F28835A368FFF778FCC01BA84295
:103D2000F9D96FE7FFF772FCC01B40453FF66AAF59
:103D3000A36813F00C0FF5D1A4E741F28838F7E738
:103D40000449E8688B6823F4E05303438B6029E758
:103D5000003C0240003802401A4A936803F00C030A
:103D6000042B10B503D0082B03D0174810BD1748FB
:103D700010BD5168536801F03F0113F4800F47F6FE
:103D8000C074536894FAA4F0B0FA80F0C0B203EAA9
:103D9000040323FA00F314BF0C480B48B0FBF1F006
:103DA0005843084B4FF440325B6892FAA2F2B2FAE1
:103DB00082F2D2B203F44033D34001335B00B0FB54
:103DC000F3F010BD003802400024F40000127A0025
:103DD00008B5FFF7C1FF094B9A68F02393FAA3F3E4
:103DE000B3FA83F302F0F002DBB222FA03F3044ADF
:103DF000D35CD840034B186008BD00BF00380240B8
:103E00005CDD0008A001002008B5FFF7E1FF084BCA
:103E10009A684FF4E05393FAA3F3B3FA83F302F4EE
:103E2000E052DBB222FA03F3024AD35CD84008BD69
:103E3000003802405CDD000808B5FFF7C9FF084BF9
:103E40009A684FF4604393FAA3F3B3FA83F302F44E
:103E50006042DBB222FA03F3024AD35CD84008BDC9
:103E6000003802405CDD00087047026838B5D3684E
:103E700023F0A003D3600446FFF7C8FB0546236880
:103E8000DB689B0601D5002038BDFFF7BFFB401B58
:103E9000B0F57A7FF3D9032038BD38B50368DA6806
:103EA0005206044601D5002038BD4FF0FF32DA60DB
:103EB000FFF7ACFB05462368DB685B06F3D4FFF72E
:103EC000A5FB401BB0F57A7FF5D9032038BD38B586
:103ED0000446B0B1437F03F0FF0213B90277FFF746
:103EE000C3FF022363772368CA225A6253225A62AD
:103EF0002046FFF7D2FF236828B1FF225A6204232D
:103F00006377012038BD9A68256922F4E00222F027
:103F100040029A60626899682A4365692A430A43A5
:103F20009A60E2681A611A69A16842EA01421A615C
:103F3000DA68A16922F08002DA601A6C22F4802229
:103F40001A641A6C0A431A64FF225A6201236377C7
:103F500038BD0023092803D840EA0310C0B27047D7
:103F60000A380133C0B2F5E7F8B5037F012B0646E6
:103F70000F464FF002052FD00123037703684577E2
:103F800008784D788C789B6842BB13F0400308BFDB
:103F9000CB70FFF7DEFF01462846FFF7DAFF024647
:103FA0002046FFF7D6FFFB7840EA034040EA014095
:103FB00040EA02243368CA225A6253225A623046C7
:103FC000FFF76BFF33680546A8B1FF225A6204234E
:103FD00073770023337701252846F8BD13F040039B
:103FE0004FEA052508BFCB7045EA00402043CC7856
:103FF00040EA0444DEE704F07F3424F0FE441C6011
:104000009A68386922F480229A60FA6899680243B3
:104010000A439A60DA6822F08002DA609B689B06A5
:104020000AD43046FFF721FF30B13368FF225A62CD
:10403000042373773577CEE73368FF225A62012372
:10404000737700233377C7E7F8B5037F012B054665
:104050004FF0020630D00123037746774B78C878BB
:104060008E780C78002A48D1DA0603D523F01003A5
:104070000A334B70FFF76DFF07464878FFF769FF7B
:1040800002463046FFF765FF40EA443040EA074009
:1040900040EA02242B68CA225A6253225A622846F6
:1040A000FFF7FBFE2B68064640B1FF225A6204234D
:1040B0006B7700232B7701263046F8BD24F07F4430
:1040C00024F0C0045C60DA6822F08002DA609B6849
:1040D0009B060AD42846FFF7C8FE30B12B68FF22A2
:1040E0005A6204236B772E77E5E72B68FF225A622A
:1040F00001236B7700232B77DEE71B0243EA0040A6
:10410000304340EA4434C5E7030903EB830300F07E
:104110000F0000EB4300C0B270470368986A486024
:1041200070B518691D6805F07F3323F0FE43C0F3B6
:104130000E001E0C8860C3F3062406F03F0005F055
:104140007F0506F0400608704C708D70CE7052B935
:10415000FFF7DAFF08702046FFF7D6FF48702846C1
:10416000FFF7D2FF8870002070BD38B503685C6827
:1041700024F07F4323F0C003180CC3F3042504F09C
:104180003F04C3F34233C8704D708C700B7052B94A
:10419000FFF7BAFFC8702846FFF7B6FF4870204601
:1041A000FFF7B2FF8870002038BD704710B5044695
:1041B000002836D090F8513003F0FF021BB980F888
:1041C0005020FFF7F2FF2168A068A269022384F85B
:1041D00051300B6823F040030B6063680343E068D1
:1041E00003432069034360690343E0690343206A92
:1041F0000343A06A034302F4007003430B60120CF4
:10420000636A02F004021A43E36A4A600B61CB69F5
:1042100023F40063CB6100200123606584F85130F2
:1042200010BD012010BD70472E4A0368904212D085
:10423000B0F1804F0FD0A2F57C4290420BD002F536
:104240008062904207D002F58062904203D002F56E
:10425000784290421DD14A6823F070031343214AEB
:10426000904204D1CA6823F44073134328E0B0F1AC
:10427000804FF7D01C4A9042F4D002F58062904201
:10428000F0D002F580629042ECD002F57842904284
:10429000E8D0164A9042E5D002F580629042E1D023
:1042A00002F580629042DDD0A2F598329042D9D0DA
:1042B00002F580629042D5D002F580629042D1D062
:1042C00003608B68C3620B688362064B984206D01A
:1042D00003F58063984202D00123436170470B6964
:1042E0000363F9E700000140000400400040014082
:1042F00010B50446A0B190F8393003F0FF021BB9A5
:1043000080F83820FFF78FFF022384F839302068C7
:10431000211DFFF789FF012384F83930002010BDEB
:10432000012010BD036A10B501248C4023EA040368
:104330000362036A8A401A43026210BD10B5044644
:1043400001220068FFF7EEFF2368084A934203D07A
:1043500002F58062934203D15A6C42F400425A64DF
:104360001A6842F001021A60002010BD00000140EE
:10437000FFF7E4BF2DE9F8430568C2682B69C169FE
:1043800023F4405313432B61074683680069EA68AE
:104390000343786922F41642034322F00C020B43D4
:1043A0001343EB606B69BA6923F440731343B1F5AF
:1043B000004F6B61404B47D19D4203D003F58063B2
:1043C0009D4229D1FFF738FD7E68192404FB00F3D4
:1043D00076004FF06408B3FBF6F3B3FBF8F31E016D
:1043E000FFF72AFD7B6860435B00B0FBF3F9FFF742
:1043F00023FD7B6860435B00B0FBF3F3B3FBF8F392
:1044000008FB13931B013233B3FBF8F303F00F03E4
:104410003343AB60BDE8F883FFF7F6FC7E681924F0
:1044200004FB00F376004FF06408B3FBF6F3B3FB34
:10443000F8F31E01FFF7E8FC7B6860435B00B0FB0C
:10444000F3F9FFF7E1FCD4E79D4202D01B4B9D42FC
:104450001AD1FFF7F1FC7E68192404FB00F3B600C3
:104460004FF06408B3FBF6F3B3FBF8F31E01FFF75C
:10447000E3FC7B6860439B00B0FBF3F9FFF7DCFCD7
:104480007B6860439B00B7E7FFF7BEFC7E6819249A
:1044900004FB00F3B6004FF06408B3FBF6F3B3FB84
:1044A000F8F31E01FFF7B0FC7B6860439B00B0FB94
:1044B000F3F9FFF7A9FCE3E7001001400014014005
:1044C000704710B5044630B390F8393003F0FF025E
:1044D0001BB980F83820FFF7F3FF2268022384F825
:1044E0003930D36823F40053D3602046FFF742FFEE
:1044F00023681A6922F490421A615A6922F02A024A
:104500005A61DA6842F40052DA6000200123E06365
:1045100084F8393010BD012010BD000030B50C4CBE
:10452000A268A468B4F1006F13460CD1131F094CA4
:10453000094A53F8045F42F8045FA242F9D1044AE1
:104540004FF000539360103043F8201030BD00BF8F
:1045500000ED00E084010020FCFFFF1F70B5104C4F
:104560002368DA68910704D56FF002021A61FFF739
:1045700017F82368DA68520710D56FF00402094E65
:104580001A615D6A3368EB1AB3F57A7F06D3FFF7D9
:1045900035F82368356005F57A729A6370BD00BFFF
:1045A000D4F80020D0F80020264B37B51A6C264CE2
:1045B000254842F008021A641A6C02F008020192BF
:1045C000019A1A6A42F008021A621A6A22F0080274
:1045D0001A62A3F50B3323604FF0FF33E3601B4BEC
:1045E0001B4A1B6893420EBF0F231A4AB3FBF2F318
:1045F0004FF0000518BF03F1FF3363602561A5602C
:104600006561FFF775FE14493220FFF787FF134BF2
:104610000D484FF480225A602946FFF7A9FE042175
:104620000948FFF7A5FE23680D495A6A0A6002F59A
:104630007A729A63DA68284642F00402DA6003B0BC
:1046400030BD00BF00380240D4F80020A001002097
:104650000024F40080841E005D45000800E100E0B5
:10466000D0F800207FB50F2301930223029300238B
:1046700003934FF4A053049305214FF4805301A8F2
:104680000593FFF76BFAB0FA80F0400907B05DF8C8
:1046900004FB0000174A1849936803F00C03042B2D
:1046A00010B50DD0082B0DD0144B0B60114B144AD4
:1046B0009B68C3F30313D25C0B68D3400B6010BD3F
:1046C000104BF2E75468506852686302C2F38812D4
:1046D00000F03F004CBF0B4B084BB3FBF0F35343D0
:1046E000044A5268C2F3014201325200B3FBF2F3B2
:1046F000DBE700BF00380240A00100200024F400E6
:104700006CDD000800127A001A4B10B51A6C42F0EA
:1047100080521A641B6C8EB003F080530093009B90
:10472000154B1A6822F480421A601B6803F4804318
:104730000193019B01230293B8B94FF480020393C4
:10474000099202230822002408930A920C934FF442
:10475000A872072302A805940B920D93FFF760F847
:1047600028B9FFF77FFF0EB010BD0523E5E720460F
:10477000F9E700BF0038024000700040184B10B548
:104780001A6C42F080521A641B6C8EB003F0805396
:104790000093009B134B1A6822F480421A601B6836
:1047A00003F480430193019B03230293012310220E
:1047B000059302230024069208930A920C934FF467
:1047C000A872072302A8039409940B920D93FFF794
:1047D00027F818B9FFF746FF0EB010BD2046FBE7DB
:1047E000003802400070004008B50120FFF78CFF40
:1047F00030B9FFF789FF18B9FFF7C0FF00B9FEE72E
:1048000008BD0000184AD2F8883010B543F4700390
:10481000164CC2F888302368002143F0010323605E
:10482000A160236823F0847323F480332360104B4A
:104830006360236823F4802323604FF00063E1600A
:1048400093600C4B0C4A1A60FEF7C2FEFFF7CCFFD8
:10485000FFF720FF236A43F008032362236A23F053
:104860000803236210BD00BF00ED00E000380240E5
:1048700010300024A00100200024F40010B5002115
:10488000044604F00F0400F0E9F90120A04010BD37
:1048900070B504464B1C0E4621800DD0C1F30310A9
:1048A00000F048F905463046FFF7E8FF05F1100330
:1048B00018356060A360E56070BDB0F9000000F0DD
:1048C000F1B90129B0F9000018BF002100F0C6B904
:1048D000F8B54C26134B4643341D0F461C440025A7
:1048E0001E44BD4200D1F8BD0121336801FA05F232
:1048F0001A4213D00C4A236B506901FA03F30342A6
:104900000CD0D4F818E05361206838B1DEF81020DC
:104910001342064B08BF02211B6898470135043437
:10492000DFE700BF10F90020003C014024FB00201D
:1049300001210020FFF7CCBF01210846FFF7C8BFC7
:1049400001210220FFF7C4BF01210320FFF7C0BFF0
:1049500001210420FFF7BCBF05210846FFF7B8BFBF
:1049600006210846FFF7B4BF2DE9F74F9B464B1CC5
:1049700007460E46914663D001F00F0808F1FF3359
:10498000C1F303100E2B09D8DFE803F042464A4E6C
:10499000525252525256565656565600294B0024E1
:1049A0000625019300F0C6F807218246304600F044
:1049B00055F9019B28461946FFF7B0FD6809012209
:1049C00005F01F03204902FA03F341F820301F4B82
:1049D000BE8153F828601E493D704C23634302FAA0
:1049E00006F5CA587C6000202A43B860CA501323D9
:1049F00003FB046401EB8403C3F804B0C3F81CA0F8
:104A0000C3F83480134BC3F8009003B0BDE8F08FB7
:104A1000114B01240725C4E7104B02240825C0E7E9
:104A20000F4B03240925BCE70E4B04240A25B8E7E5
:104A30000D4B05241725B4E70C4B06242825B0E7B9
:104A40000846E2E73149000800E100E07CDD0008AB
:104A500010F9002024FB00203949000841490008D2
:104A600049490008514900085949000861490008AE
:104A7000F8B54368124A0546B0F90C0000F00F0182
:104A8000012452F821700F4A4C21594304FA07F6C9
:104A9000545824EA06045450132101FB037302EB1B
:104AA000830100244C60991D0C3302EB810102EB61
:104AB00083034C605C60214600F0D0F8AC60F8BD28
:104AC0007CDD000810F90020BAB101290AD1836801
:104AD000023B012B22D8032383600821B0F90C008C
:104AE00000F0BCB8022910D1836823F00203012B27
:104AF000F1D0022383600721F0E7012907D1836801
:104B0000023B012BF5D9002383600C21E6E7022943
:104B1000FBD1836823F00203012BF4D101238360CE
:104B20000621DBE708B5FFF7B5FDBDE80840FEF755
:104B30004FBD000000B58BB0082874D8DFE800F046
:104B400005131F2B37434F5B6700394B39481A6BEE
:104B500042F001021A631B6B03F001030193019BF6
:104B60000BB05DF804FB324B33481A6B42F0020283
:104B70001A631B6B03F002030293029BF0E72C4BBA
:104B80002E481A6B42F004021A631B6B03F00403F5
:104B90000393039BE4E7264B29481A6B42F0080273
:104BA0001A631B6B03F008030493049BD8E7204BA4
:104BB00024481A6B42F010021A631B6B03F01003B7
:104BC0000593059BCCE71A4B1F481A6B42F0200255
:104BD0001A631B6B03F020030693069BC0E7144B7C
:104BE0001A481A6B42F040021A631B6B03F0400331
:104BF0000793079BB4E70E4B15481A6B42F08002EF
:104C00001A631B6B03F080030893089BA8E7084B0B
:104C100010481A6B42F480721A631B6B03F48073A2
:104C20000993099B9CE70C48FEF7DAFB002097E705
:104C30000038024000000240000402400008024028
:104C4000000C024000100240001402400018024014
:104C5000001C024000200240BCDD000830B50546C3
:104C600087B0C0F303100C4605F00F05FFF762FF95
:104C7000012304F00F0203FA05F5094B019553F8DF
:104C800022300293C4F302130393C4F3C314032327
:104C900001A904930594FEF7D1FC07B030BD00BF15
:104CA000E0DD000838B500F00F05C0F303100C4636
:104CB000FFF740FF6900C36803228A4023EA02032A
:104CC000032CC360C36828BF00248C401C43C4600D
:104CD00038BD0000F0B5304B1E688FB0002E3DD1BE
:104CE00001272E4D2E4C1F602E4B23602B6C43F062
:104CF00080532B642B6C03F080530193019BFEF7D0
:104D00007FFD294B02A81F601E60042302930896B2
:104D10000497FEF785FD18BBAB6823F4F813AB606E
:104D2000AB6823F4F813AB602B6F43F480732B67ED
:104D30004FF400431D4A1A480121DB091160013B71
:104D400000227F216260A160E36022616261A26152
:104D5000FFF7BDF810B11648FEF742FB0FB0F0BDEB
:104D60000C2302A80293089604960797FEF758FDB5
:104D700010B11048FEF734FB084B9A6822F4F81281
:104D80009A609A6822F4F8129A601A6F42F40072DC
:104D90001A674FF4FA43CDE748FB00200038024081
:104DA00028FB002000280040400E47423C0E4742AE
:104DB00040DE000814DE0008014B1868704700BF91
:104DC00048FB002010B5154C154B236090B002A98C
:104DD00000222046FFF7A1F9002201A92046FFF793
:104DE000C4F99DF804300D939DF80530013B0B93F9
:104DF0009DF806300A939DF8073064330C939DF8B4
:104E00000830099310A89DF8093008939DF80A30DE
:104E100040F8243D01F09AFF10B010BD28FB00209F
:104E20000028004030B589B008AB184D43F81C0D80
:104E3000174A2A60184601F0C1FC83698DF80830D2
:104E4000036901338DF80930C3688DF80A3043696E
:104E5000643B8DF80B3083688DF80C3043688DF817
:104E60000D3003688DF80E3000244023224602A93D
:104E700028468DF80F3006940794FFF7E5F8224690
:104E800003A92846FFF770F809B030BD28FB0020C1
:104E90000028004008B5124B02681A6082685A6008
:104EA000C2689A600269DA6042691A6100229A61F6
:104EB000B0F91A2001320AD1082209485A61FFF7D5
:104EC00000FB58B10748BDE80840FEF789BAB0F9C1
:104ED000182001320CBF04220C22EEE708BD00BFEF
:104EE0004CFB002066DE000870B5114D114C55F8E2
:104EF000213020600E46CBB10268520608D50E4A1A
:104F0000184612680121904723686FF040021A602A
:104F100023681B689B0609D5074B55F826001B68BC
:104F20000021984723686FF020021A6070BD00BF0F
:104F300090FB00204CFB00208CFB0020002101484E
:104F4000FFF7D2BF0010014001210148FFF7CCBF9D
:104F50000044004002210148FFF7C6BF004800405E
:104F600003210148FFF7C0BF004C00400421014865
:104F7000FFF7BABF0050004005210148FFF7B4BF5A
:104F800000140140F0B50E4687B004465249304641
:104F90001546FEF7ABFA514907462846FEF7A6FA32
:104FA00001463846FEF784FA4D4B206098427AD08D
:104FB0003DD8A3F5006398425DD003F58063984225
:104FC00065D045493046FEF755FA44492846FEF774
:104FD00051FA721C03D001213046FFF763FE6B1CAF
:104FE00003D001212846FFF75DFE4FF41653A3605E
:104FF0000023E36023616361268365832046FFF716
:1050000049FF2268374B9A420FD1374B01221A6071
:10501000364B04F11805206861681A4603C208344B
:10502000AC421346F7D12068106007B0F0BD304B9A
:10503000984213D003F58063984240D0A3F54443CF
:105040009842BED12B4B1A6C42F480121A641B6C2E
:1050500003F480130493049B04230AE0254B5A6C49
:1050600042F010025A645B6C03F010030093009B43
:1050700000236360A5E71F4B1A6C42F400321A64E8
:105080001B6C03F400330193019B0123F1E7194BDF
:105090001A6C42F480221A641B6C03F4802302937E
:1050A000029B0223E5E7134B1A6C42F400221A64B8
:1050B0001B6C03F400230393039B0323D9E70D4BDD
:1050C0005A6C42F020025A645B6C03F02003059393
:1050D000059B0523CDE700BFFCDF0008A8DF000823
:1050E000004C004000140140CCFB0020B0FB00202D
:1050F00000100140003802408160FFF7CBBE000085
:10510000034B19604168034B43F82120704700BFEF
:105110008CFB002090FB002038B50D462E4903681B
:105120000B602E498B4234D00AD8A1F500618B4226
:1051300029D001F580618B4228D000210C460FE078
:1051400027498B420AD001F580618B4224D0A1F51A
:1051500044418B42F1D12349352401E022492524E1
:1051600002B3DA68DDB942F02002DA602046FFF7C8
:10517000D5F96209012304F0170403FA04F41B4B68
:1051800043F8224038BD1A492624E9E71949272463
:10519000E6E719493424E3E718494724E0E742F0F9
:1051A0004002E2E7DA6835B922F02002DA60DB6813
:1051B0001A0606D538BD22F08002DA60DB689B064D
:1051C00009D46309012204F0170402FA04F420331D
:1051D000064A42F8234038BD4CFB0020004C0040FA
:1051E000001001406D4F00083D4F000800E100E055
:1051F000494F0008554F0008614F0008794F0008DB
:105200000368034A18681360C0F34010704700BF7A
:105210004CFB002010B5046801460846FFF7F0FF7C
:105220000028FAD06068C0F3080010BD0368034A84
:1052300018681360C0F3C010704700BF4CFB00201B
:1052400038B5056804462046FFF7F0FF0028FAD07D
:10525000C1F30801696038BD03681A6810B5124CC3
:1052600022F0400223601A60C268036962618268AA
:105270002261072263608369E2624268E361E2605F
:1052800000234269A3602046A3622362A261636295
:10529000FEF78CFF10B10548FEF7A2F822681368EC
:1052A00043F04003136010BDD0FB00207DDE0008FA
:1052B0002DE9F04F0F4687B004463D49BDF94050F7
:1052C000384690461E46FEF711F93A498146404657
:1052D000FEF70CF9384901903046FEF707F93749D7
:1052E00082462846FEF702F9019B83461946484646
:1052F000FEF7DEF8594681465046FEF7D9F80146DA
:105300004846FEF7D5F82E4B206098422DD103F584
:1053100084335A6C42F480525A645B6C03F48053B9
:105320000393039B22493846FEF7A4F821494046DF
:10533000FEF7A0F820493046FEF79CF80023636092
:10534000A360E3603823A3616B1CA4F81C80E7838F
:105350002684658427D019492846FEF78BF8204615
:10536000FFF77AFF07B0BDE8F08F164B98420BD1DC
:1053700003F500331A6C42F480421A641B6C03F488
:1053800080430493049BCDE70F4B9842CAD103F5A9
:10539000FE331A6C42F400421A641B6C03F400439F
:1053A0000593059BBEE74FF400736361D7E700BF29
:1053B000DCDE000894DE000824DF00086CDF000853
:1053C0000030014000380040003C004010290CBF74
:1053D0004FF400610021012A416016D0022A17D043
:1053E000CAB98260C2604269B2F5007F05D0002B65
:1053F00014BF00224FF480224261002B14BF00230F
:105400004FF482730361FFF727BF00218160E9E752
:1054100082600022E6E7022282600122E2E70000C9
:105420001B4B994203DC38238361FFF715BFA1F5BD
:105430001223184AA3F5F863934201D83023F3E707
:10544000A1F57423144AA3F51073934201D82823BD
:10545000EAE7A1F5F413114AA3F59063934201D84A
:105460002023E1E70E4B0F4A0B44934201D8182347
:10547000DAE70D4B0D4A0B44934201D81023D3E7D2
:105480000B4B0C4A0B44934294BF08230023CBE7F9
:10549000BF2709007F1A06003F420F00BFC62D003C
:1054A000C0B4B3FF3F4B4C00806967FFBFD8A70073
:1054B000C090BFFE3F6F400103689A68D207FCD5D9
:1054C000014AD86813607047D0FB002003689A68CF
:1054D0009207FCD5024A89B21360D960704700BFB9
:1054E000D0FB002010B5FFF7F1FFBDE81040FFF73B
:1054F000E3BF0000054B186830B901221A60044B65
:10550000044A1A60FFF750B8704700BF64FC0020DF
:1055100028FC0020000C004008B5044B1B680BB9A8
:10552000FFF7E8FF024B586A08BD00BF64FC00208B
:10553000000C0040034B1B685863DA6842F002021B
:10554000DA60704728FC0020034B1A68D36823F008
:105550000203D360704700BF28FC0020024B1B6889
:105560006FF002021A61704728FC002000B5214C40
:1055700000238DB04FF0FF3219462068FDF780F907
:10558000012820D10020FDF7D3FF0CAB43F8240DF8
:10559000184601F013F9184A0346202104A803F025
:1055A00047FF3C2304AA00931449154B154800F00B
:1055B000DFFB1549134800F0DBFB00231A461946B0
:1055C0002068FDF75FF8114C114DA3681A686368F5
:1055D0001A42E26818BF1B041360AB681A686B6854
:1055E0001A42EA6818BF1B0413604FF47A70FDF783
:1055F00015FCEAE70C06002044D9000871D9000820
:1056000050E000080807002059E00008600600206C
:105610009006002000B501208FB0FDF7AFF8654C73
:105620000322206000210120FDF70EF8624B0322C7
:10563000186000210120FDF707F8604B0022186078
:1056400004210120FDF700F85D4B002218600421C1
:105650000120FCF7F9FF5B4B0022186004210120B8
:10566000FCF7F2FF584B0022186004210120FCF7E0
:10567000EBFF564B0022186004210120FCF7E4FFE9
:10568000534B0022186002210120FCF7DDFF514B33
:105690004FF4E1311860504800F0D4FA04A8FDF747
:1056A00047FF002802DC0020FDF730FF4B4B4C4D3C
:1056B000DA685B681B0413604FF47A70FDF781FFB2
:1056C0006B68EA681B0413604FF47A70FDF779FF8A
:1056D000EB686A681A6000234FF0FF3219462068B1
:1056E000FDF7CEF8012822D10020FDF721FF0EABF7
:1056F00043F8240D184601F061F83A4A0346202188
:1057000006A803F095FE2323009306AA364B3749DB
:10571000374800F02DFB374B37491A68344800F002
:1057200027FB00231A4619462068FCF7ABFF334BD2
:10573000019300240B2300934FF400722346304959
:10574000039402942F48FDF765F90A252E4B019327
:10575000009523464FF400722C49039402942C4880
:10576000FDF758F92B4B0193009523464FF4007237
:105770002949039402942948FDF74CF90525284B43
:1057800001934FF400722346264903940294009536
:105790002548FDF73FF9254B01934FF4007223464E
:1057A00023490394029400952248FDF733F9FDF74D
:1057B00009FAFEE70C06002010060020B0060020C3
:1057C000240600202C060020280600203006002099
:1057D0001C06002038060020B406002070060020B9
:1057E0008006002044D9000850E0000871D9000864
:1057F00008070020A001002069E000082006002022
:10580000A2E000086D55000834060020AAE0000858
:10581000850400083C060020B1E000086D06000881
:1058200014060020B8E000080D100008180600203B
:10583000BFE0000801090008084B0360836863B1FA
:10584000074A1368984203D14368136070471346B0
:105850005A689042FBD142685A607047D0E0000815
:1058600068FC002010B50446FFF7E6FF204600F074
:10587000EEFB204610BD0000054B03600023436093
:105880008160027319B1034B1A6842601860704757
:10589000D0E0000868FC0020F8B50B4B1C680746F8
:1058A0000E4674B1A56855B132463946284603F014
:1058B000D9FD20B9284603F0CDFD864201D06468A9
:1058C000EFE72046F8BD00BF68FC0020007B704772
:1058D000036870B51B690122002104469847431CE8
:1058E00005460ED0236802221B69002120469847F6
:1058F000236806461B690022294620469847304601
:1059000070BD0646FBE7000010B5074B04460022B9
:1059100040F8043BFFF7B0FF044B03F108023433B7
:1059200022606360204610BDF8E10008D8E000085E
:1059300010B5074B03F1080234330446026040F807
:10594000043FFFF779FF204600F034FA204610BDEF
:10595000D8E0000810B50023036043600A782F2ABE
:1059600004460DD14A785AB1481C20601946236874
:105970001A782F2A06D101332360FFF78DFF60606C
:10598000204610BD002AF8D0013301312360EEE734
:1059900000687047406808B520B1FFF797FF431EC5
:1059A0005842584108BD10B50446FFF7F3FF00B157
:1059B000606810BD406808B520B1FFF787FFB0FAF6
:1059C00080F0400908BD10B50446FFF7F3FF10B1A1
:1059D000606800B1043810BD4068003018BF012075
:1059E0007047000010B5044B044640F8143BFFF725
:1059F0003FF8204610BD00BF1CE1000810B504466A
:105A0000FFF7F0FF204600F022FB204610BD00000B
:105A10002DE9F0410546124B45F8043B04464FF092
:105A200010080E46424604F114070021284601F0F2
:105A3000A4F842460021384601F09FF80023636233
:105A4000A363E3632365074A234631463846FEF7DE
:105A50008BFF28463146FDF7F9FC2046BDE8F08172
:105A60001CE10008955A000803460A46143019B193
:105A700000229A63596201220121FFF725B8436988
:105A8000014613B9036823B11847006808B104310F
:105A900018477047012908B502D0022904D008BD73
:105AA0002430FFF7ECFF08BD3C30FAE7704710B533
:105AB000044600F0CCFA204610BD00002DE9F74363
:105AC00005469946134B45F8043B04460F4690465D
:105AD00000212422284601F050F80823A3620E4B2F
