:020000040800F2
:100000000000022091290008DD290008DD290008F0
:10001000DD290008DD290008DD29000800000000B6
:10002000000000000000000000000000F9270008A8
:10003000DD290008000000004D280008AD28000858
:10004000DD290008DD290008DD290008DD29000878
:10005000DD290008DD290008DD290008DD29000868
:10006000DD290008DD290008DD290008DD29000858
:10007000DD290008DD290008DD290008DD29000848
:10008000DD290008DD290008DD290008DD29000838
:10009000DD290008DD290008DD290008DD29000828
:1000A000DD290008DD290008DD290008DD29000818
:1000B000DD290008DD290008DD290008DD29000808
:1000C000DD290008DD290008DD290008DD290008F8
:1000D000DD290008DD290008DD290008DD290008E8
:1000E000DD290008DD290008DD290008DD290008D8
:1000F000DD290008DD290008DD290008DD290008C8
:10010000DD290008DD290008DD290008DD290008B7
:10011000DD290008DD290008DD290008DD290008A7
:10012000DD290008DD290008DD290008DD29000897
:10013000DD290008DD290008DD290008DD29000887
:10014000DD290008DD290008DD290008DD29000877
:10015000DD290008DD290008DD290008DD29000867
:10016000DD290008DD290008DD290008DD29000857
:10017000DD290008DD290008DD2900080000000055
:10018000DD290008DD29000810B5054C237833B9B6
:10019000044B13B10448AFF300800123237010BD5A
:1001A000E40300200000000040D1000808B5034B24
:1001B0001BB103490348AFF3008008BD00000000F5
:1001C000E803002040D10008154B002B08BF134B5B
:1001D0009D46A3F5803A00218B460F461348144AEA
:1001E000121A05F069FF0F4B002B00D098470E4BF9
:1001F000002B00D098470020002104000D000D487E
:10020000002802D00C48AFF3008005F047FD200025
:10021000290005F08FF905F0EFF900BF0000080094
:10022000000002200000000000000000E4030020A5
:100230004CFD00200000000000000000424BF7B51C
:100240001868424C543005F045F8DFF820C12168A9
:100250009CF800E0C3B23E484A1C22604354264644
:1002600005466746BEF1000F04D0BEF1010F24D051
:1002700003B0F0BD012A04D1412BF9D00023336033
:10028000F6E7022A01D1432BF7E7032A01D1512BCC
:10029000F3E7062A01D14F2BEFE7072AE8D14B2BD2
:1002A000ECD10279C378C4F800E003EB0223294AB9
:1002B000138001238CF80030DAE7264C2088824234
:1002C000D6D1881E2A5C452A39D1294411F8012C3F
:1002D0004E2A34D1442B32D105F065F91E4A002351
:1002E000106021880339994204DD1168E85CC85424
:1002F0000133F6E702AC002544F8045D17481649BF
:10030000006835602B4622463D7001F064FD1448BC
:10031000104900682B46224601F05DFD114B214635
:10032000186801F089FD019B002BA1D00E4B4FF006
:1003300080521A60BFF34F8FBFF36F8F98E700238F
:1003400033603B7094E700BF0C06002010060020CD
:100350000404002014060020080600202C060020BB
:1003600048060020C006002004ED00E0040600203E
:10037000F8B506466C200C46174605F016F9002322
:1003800005463A462146084C04F0C4FE28464FF480
:10039000E131256004F012FF20680449002204F0D6
:1003A00015FF3046F8BD00BF0C0600203D020008D6
:1003B000F8B5084E0D4617460C46631B9F4206DDF6
:1003C000306814F8011B543004F078FFF5E7012081
:1003D000F8BD00BF0C06002070B502F10A001546FA
:1003E0000E4605F0E0F84122027043224270EC1CF8
:1003F0005122A4B2104B82704F22C4704271C4F3D8
:1004000007244B2282711860047100221C68D01DE1
:10041000954204EB000103DDB15C21540132F5E7A4
:1004200045220A701A682A444E2111721A682A4419
:1004300044215172186870BD0004002038B505468B
:100440001446FFF7C9FF04F10A02014692B228469A
:10045000BDE83840FFF7ACBF2DE9F04186B00A2275
:10046000092101A8FFF784FF69486A4D00686A4EB8
:100470006A4F01234FF0FF3203A901F009FD6848DC
:1004800001234FF0FF3204A9006801F001FD654827
:1004900001234FF0FF3205A9006801F0F9FC0023A9
:1004A00019464FF0FF32286801F0F2FC00234FF0AC
:1004B000FF3202A9306801F0EBFC00234FF0FF325D
:1004C0000DF10601386801F0E3FC574A936819689A
:1004D0005368D268194218BF1B041360029B1B7833
:1004E000013B102BDBD801A252F823F031050008A4
:1004F00031050008550500086F0500088105000852
:10050000A50500089F0400089F0400089F04000838
:100510009F0400089F0400089F0400089F0400082F
:100520009F0400089F0400089F040008B705000806
:10053000022005F038F8029B1B7803700446AA23BA
:1005400063700222214601A8FFF778FF204605F0DC
:1005500026F8A4E7022005F026F8029B1B7803701A
:10056000049B04461B78002BE9D1FF23E8E7022017
:1005700005F019F8029B1B7803700446059BF1E710
:10058000052005F010F8029B1B780370049B0446BD
:100590005A7862709A78A270DA78E2701B792371C7
:1005A0000522CFE7052004F0FEFF029B1B780370B5
:1005B0000446059BECE7BDF80600013804F0F3FFA4
:1005C000BDF8062080460298013A08F1FF31034643
:1005D0001C1AA24204DD13F8014F01F8014FF7E79E
:1005E0004146039801F038F9022004F0DCFF029B39
:1005F0001B780370AA23437001460446022201A817
:10060000FFF71CFF204604F0CAFF40469FE700BFEB
:100610003C060020C00600202C06002048060020D2
:100620003806002040060020A006002070B51C48B7
:100630001C4E006892B001234FF0FF32694601F072
:1006400027FC002319464FF0FF323068164D01F0A9
:100650001FFC4022002102A805F02EFD01A90098F0
:1006600000F0ACF99DF80540013D04F0100415D0F0
:100670000A2001F0DBFE002CF0D0402202A90098F5
:1006800000F0F8F90221009800F07EFB009801F0DC
:10069000A9F84021009800F060FBD2E712B070BDCD
:1006A000340600202006002090D003002DE9F04100
:1006B0000A208AB004F079FF0AA9002341F8200D2E
:1006C00048484FF0FF32006801F0E4FA342004F0AB
:1006D0006CFF4FF0FF34052306220721009480466B
:1006E00004F080FC102004F060FF10220546002179
:1006F00005F0E2FC01220221284602F0B2F91020A6
:1007000004F053FF10220646002105F0D5FC01221B
:100710004521304602F0A5F9182004F046FF334683
:100720002A464146074600F027F90AA92E4841F813
:100730001C7D22460023006801F0ACFA039800F00B
:100740003DFA039800F0F2FC3221039801F02DF8F5
:1007500008230322009304210623039801F006F8DE
:1007600008A9039800F05CFA2049039800F060FCA7
:10077000002400250AA961E90645039800F07AFAE9
:100780000521039800F000FB4FF4967001F04EFE37
:100790000221039800F0F8FA039801F023F8CDE95C
:1007A0000645134C0025012608A9039800F038FAE5
:1007B0009DF82130442B029B12D19DF82220632A00
:1007C0000ED11E7006A9039800F054FA05222146A6
:1007D000039800F015FB4FF47A7001F027FEE3E771
:1007E0001D70EFE7400600203C060020C092ED1986
:1007F000C8C6000807B50F4A936819685368D268DD
:10080000194218BF1B0402A91360002341F8043DDC
:10081000094B186801F010FB019B3BB1074B4FF0EF
:1008200080521A60BFF34F8FBFF36F8F03B05DF834
:1008300004FB00BFA00600202006002004ED00E01D
:100840002DE9F0410A2088B004F0AFFE08A900238A
:1008500041F8180D44484FF0FF32006801F01AFAD1
:10086000342004F0A2FE4FF0FF342A232B222C2147
:100870000094804604F0B6FB102004F096FE10228F
:100880000546002105F018FC01222921284602F026
:10089000E8F8102004F089FE10220646002105F039
:1008A0000BFC01223D21304602F0DBF8182004F059
:1008B0007CFE33462A464146074600F05DF808A90B
:1008C0002A4841F8147D22460023006801F0E2F92D
:1008D000039800F073F9082318221A21039800F0F6
:1008E000A4F908230322042100930398062300F0AF
:1008F0003DFF039800F082FD1D49039800F098FB2E
:100900000621039800F040FA0221039800F03CFA17
:10091000039800F067FF06A9039800F081F9154AD3
:100920000398402101F02AF808AC0022002364E972
:1009300004230025012606A9039800F071F99DF80B
:100940001930442B029B0DD19DF81A20632A09D13E
:100950001E702146039800F08DF94FF47A7001F073
:1009600065FDE8E71D70F4E7380600203406002036
:10097000400ECF19F507000810B5C0E90212D9687A
:1009800003615B680B60D36852681A6004460120FB
:1009900001F0FCF942F21073636160600649A068DF
:1009A00004F070FBA0680022082104F061FB4FF402
:1009B00061732360204610BD80969800002370B5B7
:1009C0004FF0FF3204460D464068194601F060FAC8
:1009D00001281ED1E368A068DA685B681B04136015
:1009E000036850211B6898476E1E0335A068036892
:1009F000FF211B68984706F8010FB542F6D1E3685E
:100A00006068DA685B68136000231A46194601F0D3
:100A100041F9012070BDF8B5002304460D46164685
:100A200019464FF0FF32406801F032FA01281FD119
:100A3000E368A068DA685B681B04136003686621DA
:100A40001B68984700235F1CDBB2B34206DAA0683C
:100A5000E95C0268126890473B46F4E7E368606827
:100A6000DA685B68136000231A46194601F012F930
:100A70000120F8BD00232DE9F04104460E4617463B
:100A800019464FF0FF32406801F002FA012821D1E7
:100A9000E368A068DA685B681B0413600368772169
:100AA0001B6898470023DDB2BD4203F1010807DA55
:100AB000A0680368FF211B68984743467055F2E71A
:100AC000E3686068DA685B68136000231A461946B9
:100AD00001F0E0F80120BDE8F0812DE9F8439846E7
:100AE000002304460E46914619464FF0FF324068F7
:100AF00001F0CEF901285FD1E368DA685B68751E02
:100B00001B041360A9442F46B94506D0A06817F806
:100B1000011F03681B689847F6E7E368DA685B68BB
:100B20001360012001F082FCE368DA685B681B0453
:100B3000136000276369BB421BD9A0680368442186
:100B40001B689847A0680368FF211B689847C0B2DC
:100B5000FF2807F101070CD0E368DA685B681360CF
:100B6000012001F063FCE368DA685B681B04136032
:100B7000E0E76369BB420CD908F1FF384644B5424F
:100B800010D0A0680368FF211B68984705F8010F83
:100B9000F5E700231A461946606801F07BF800204B
:100BA000BDE8F883E3686068DA685B681360002377
:100BB0001A46194601F06EF80120F1E7002313B53B
:100BC0004FF0FF3204461946406801F061F90128F0
:100BD00013D12369DA685B68136001F027FC23698D
:100BE000DA685B681B0413600F2001F01FFC002310
:100BF0001A461946606801F04DF8084B18689A8843
:100C00009B790090ADF804208DF806300722002370
:100C100069462046FFF761FF02B010BDCEC600084E
:100C200001220A700823FFF758BF37B5002401944A
:100C30001324082B8DF800404FF003054FF00204F9
:100C40008DF801108DF802204FF000034FF00802DC
:100C500069468DF803408DF8045004BF8DF80350A9
:100C60008DF80440FFF739FF003018BF012003B0B2
:100C700030BD0000F7B500230D4602A9CDF80230C3
:100C8000ADF8063041F2140321F8083D0222082392
:100C9000FFF723FF04469DF804000AF07FFF0022BF
:100CA0001D4B0AF0F5FF06469DF805000F460AF0B9
:100CB00075FF02460B46304639460AF033FE0646BB
:100CC0009DF806000F460AF069FF0022134B0AF058
:100CD00029FE0022124B0AF0DBFF02460B4630468B
:100CE00039460AF0D5FF06469DF807000F460AF080
:100CF00055FF00220B4B0AF0CBFF0022064B0AF0F7
:100D000011FE02460B46304639460AF009FEC5E997
:100D10000001204603B0F0BD000070400000894093
:100D20000000303F0000E03F07B500233122ADF85E
:100D300000308DF80020C1F307228DF803208DF8D4
:100D40000410052269468DF80230FFF7C6FE003018
:100D500018BF012003B05DF804FB07B50023322261
:100D6000CDE900338DF80020C1F307228DF8032070
:100D70008DF8041008226946FFF7AFFE003018BF57
:100D8000012003B05DF804FB07B534238DF804306F
:100D90008DF805100023022201A9FFF79EFE003006
:100DA00018BF012003B05DF804FB38B504460721E5
:100DB000FFF7EAFF03252068B0FBF5F001F036FBF2
:100DC00005212046FFF7E0FF2068B0FBF5F001F0B9
:100DD0002DFB012038BD10B504460721FFF7D4FFD5
:100DE000206801F023FB05212046FFF7CDFF206896
:100DF0000323B0FBF3F001F019FB012010BD00004C
:100E0000F8B504460E468F180325BE4200F00E8149
:100E100016F8013B203B3A2BF7D801A252F823F0F9
:100E2000251000080B0E00080B0E00080B0E000822
:100E30000B0E00080B0E00080B0E00080B0E00082E
:100E40000B0E00080B0E00080B0E00080B0E00081E
:100E50000B0E00080B0E00080B0E00080B0E00080E
:100E6000750F0008830F00088B0F0008B70F0008EC
:100E7000C50F0008D30F0008F30F0008FB0F000890
:100E800009100008171000080B0E00080B0E0008D0
:100E90000B0E00080B0E00080B0E00080B0E0008CE
:100EA0000B0E0008510F0008011000080D0F00087C
:100EB0002F0F0008EB0F0008210F00083D0F00085E
:100EC000D90F0008E50F0008910F00084B0F00082C
:100ED000290F00089D0F0008190F0008970F000840
:100EE000370F0008450F0008130F0008DF0F000838
:100EF000A30F00085F0F0008CB0F00086D0F00085C
:100F0000590F0008670F00080F1000082046FFF770
:100F100062FF2046FFF749FF2046FFF75CFF64E0D1
:100F20002046FFF742FFF4E72046FFF73EFF20464A
:100F3000FFF751FF56E02046FFF737FF2046FFF747
:100F40004AFFE9E72046FFF746FF2046FFF743FF49
:100F50002046FFF72AFF24E02046FFF73CFF20460B
:100F6000FFF723FFF4E72046FFF735FF2046FFF7A2
:100F70001CFF13E02046FFF72EFF2046FFF72BFF54
:100F800009E02046FFF711FFF7E72046FFF70DFFC6
:100F90002046FFF70AFF2046FFF71DFF2046FFF718
:100FA0001AFF2046FFF717FF2068B0FBF5F040005E
:100FB00001F03CFA29E72046FFF7F7FE2046FFF74D
:100FC000F4FED3E72046FFF7F0FE2046FFF7EDFEE4
:100FD000C5E72046FFF7E9FE2046FFF7E6FE20467C
:100FE000FFF7E3FE2046FFF7E0FE2046FFF7DDFEB9
:100FF000DAE72046FFF7EFFEEEE72046FFF7EBFECD
:101000002046FFF7E8FEEAE72046FFF7E4FE204629
:10101000FFF7E1FE8BE72046FFF7DDFE2046FFF7F6
:10102000DAFE8BE7206800EB4000C1E70120F8BD45
:101030007FB5374B994205460C465CD8354B9942F3
:101040005CD8A3F12463A3F50343994259D8324BEA
:10105000994259D8314B994295BF0523042318264C
:1010600010262F4A009208338DF804300522002301
:1010700069462846FFF731FDD8B307EE904A294B61
:1010800093FBF6F3B8EE677A07EE903AB4FBF3F110
:10109000F8EEE76A0139C7EE267A44F2110400231C
:1010A000ADF808408DF80C100424ADF80A308DF826
:1010B0000A4007EE101AB8EE477A77EEC77A9FED2E
:1010C0001A7A67EE877AFCEEE77A17EE902A90B2EA
:1010D000120C8DF80D20020A8DF80E2008228DF8D2
:1010E0000F000DEB02012846FFF7F7FC003018BF98
:1010F000012004B070BD00230426B2E701230626B8
:10110000AFE702230826ACE703230C26A9E700BFBC
:101110003F72052A3FDD4A1FBFD93E0E3FCE8C0AE3
:10112000112001510087930300000049F0B5AC4D38
:10113000B9B00446AB8828680D90ADF83830052268
:1011400000230DA92046FFF7C8FC10B9002039B0D4
:10115000F0BD2B46052253F8060F01901B798DF840
:10116000083001A900232046FFF7B7FC0028EDD086
:101170002B46052253F80B0F03901B798DF8103086
:1011800003A900232046FFF7A8FC0028DED005F1C4
:10119000100328AA203594462F4618685968164629
:1011A00003C60833AB423246F7D100231022614612
:1011B0002046FFF792FC0028C8D038683B7905909C
:1011C0008DF818300522002305A92046FFF785FC7D
:1011D0000028BBD0834D2868696817AB03C3A86893
:1011E00018600C22002317A92046FFF776FC002880
:1011F000ACD020AA05F10C031746143518685968BD
:10120000164603C60833AB423246F7D118681B793D
:10121000306033710D22002339462046FFF75DFC14
:10122000002893D0704D28686968AA7A11AB03C36F
:10123000298919809A7011A900230B222046FFF7F3
:101240004CFC002882D02B46052253F80B0F079048
:101250001B798DF8203007A900232046FFF73DFCBD
:1012600000283FF473AF24AA05F110031746183580
:1012700018685968164603C60833AB423246F7D1A0
:1012800018681B79306033710D22002339462046DF
:10129000FFF723FC00283FF459AF544D28686968D4
:1012A0001AAB03C3A86818600C2200231AA92046B1
:1012B000FFF713FC00283FF449AF2B46052253F8F3
:1012C0000C0F09901B798DF8283009A900232046BE
:1012D000FFF703FC00283FF439AF2B46052253F8F3
:1012E000110F0B901B798DF830300BA9002320468D
:1012F000FFF7F3FB00283FF429AF2CAA05F11603F2
:101300001746263518685968164603C60833AB4297
:101310003246F7D10023102239462046FFF7DDFB85
:1013200000283FF413AF324B30AA03F110071646E2
:1013300018685968154603C50833BB422A46F7D1D9
:101340000023102231462046FFF7C7FB00283FF458
:10135000FDAE284B34AA03F1100794463E461868A8
:101360005968154603C50833BB422A46F7D1002306
:10137000102261462046FFF7B0FB00283FF4E6AE9E
:10138000306871680FAB03C3082200230FA9204601
:10139000FFF7A3FB00283FF4D9AE174D2868696812
:1013A000AA7A14AB03C3298919809A7014A900235F
:1013B0000B222046FFF791FB00283FF4C7AE55F8FB
:1013C0000B0F69681DAB03C3A86818600C220023CB
:1013D0001DA92046FFF781FB003018BF0120B6E6AB
:1013E000D5C60008FAC6000813C7000830C70008B1
:1013F00056C7000866C700087EC70008F0B5094D4B
:10140000C1B004462B79286800908DF8043005227D
:10141000002369462046FFF760FB28B9002041B051
:10142000F0BD00BF95C700082B46052253F8BA0D42
:1014300002901B798DF80C3002A900232046FFF79B
:101440004CFB0028EAD02B4610A953F8720F1090DD
:101450009A889B79ADF844208DF846300722002306
:101460002046FFF73AFB0028D8D02B46052253F838
:10147000100F04901B798DF8143004A90023204626
:10148000FFF72BFB0028C9D02B4612A953F8150FE4
:1014900012909A889B79ADF84C208DF84E30072237
:1014A00000232046FFF719FB0028B7D02B46052262
:1014B00053F81C0F06901B798DF81C3006A90023E9
:1014C0002046FFF70AFB0028A8D02CAA05F121032B
:1014D0001746313518685968164603C60833AB42BB
:1014E0003246F7D10023102239462046FFF7F5FA9D
:1014F000002893D0954B30AA03F1100716461868C0
:101500005968154603C50833BB422A46F7D1002364
:10151000102231462046FFF7E0FA00283FF47EAF64
:101520008B4D28682B7908908DF8243005220023F4
:1015300008A92046FFF7D1FA00283FF46FAF2A46EA
:101540001AAB52F8050F516803C3906818600C225B
:1015500000231AA92046FFF7C0FA00283FF45EAF27
:1015600020AA05F1E1031746E935186859681646BF
:1015700003C60833AB423246F7D118681B79306096
:1015800033710D22002339462046FFF7A6FA0028C2
:101590003FF444AF6F4D28686968AA7A14AB03C35F
:1015A000298919809A7014A900230B222046FFF77D
:1015B00094FA00283FF432AF2B46052253F8C50DAC
:1015C0000A901B798DF82C300AA900232046FFF7DA
:1015D00084FA00283FF422AF24AA05F10B03174632
:1015E000133518685968164603C60833AB423246AD
:1015F000F7D118681B79306033710D22002339460A
:101600002046FFF76AFA00283FF408AF524B28AA99
:1016100003F10807164618685968154603C50833CC
:10162000BB422A46F7D1186899889B792860A9801F
:10163000AB710F22002331462046FFF74EFA0028F7
:101640003FF4ECAE454D28682B790C908DF8343082
:10165000052200230CA92046FFF73FFA00283FF49B
:10166000DDAE2B46052253F8050F0E901B798DF841
:101670003C300EA900232046FFF72FFA00283FF444
:10168000CDAE34AA05F10A0317461A351868596811
:10169000164603C60833AB423246F7D10023102268
:1016A00039462046FFF719FA00283FF4B7AE2C4B15
:1016B00038AA03F11007164618685968154603C57D
:1016C0000833BB422A46F7D1002310223146204678
:1016D000FFF703FA00283FF4A1AE224B3CAA03F126
:1016E0001007164618685968154603C50833BB42EB
:1016F0002A46F7D10023102231462046FFF7EDF9A4
:1017000000283FF48BAE184D28686968AA7A17AB99
:1017100003C3298919809A7017A900230B22204638
:10172000FFF7DBF900283FF479AE55F80B0F696835
:101730001DAB03C3A86818600C2200231DA9204616
:10174000FFF7CBF9003018BF012068E6C6C70008D4
:10175000F5C60008E3C700080EC800083CC700082B
:1017600056C7000866C700087EC7000837B50024C2
:101770008DF8063040F211259DF81830ADF8005074
:101780008DF804108DF805208DF8073004252346C8
:1017900008226946ADF802408DF80250FFF79DF926
:1017A000001B18BF012003B030BD13B542F2112257
:1017B0000023ADF800200422CDF802301D248DF85E
:1017C00002208DF8051008226946ADF806308DF824
:1017D00004208DF80740FFF780F9003018BF012082
:1017E00002B010BD07B50023CDE9003320238DF8EA
:1017F0000030042208236946FFF76FF9003018BF54
:10180000012003B05DF804FB73B506461446FFF7EC
:1018100002F918B90024204602B070BD21463046B6
:10182000FFF782FA0028F5D04FF4FA7501A9304687
:10183000FFF7C4F89DF80440012004F0200400F0F4
:10184000F5FD0CB1012403E0013DADB2002DEDD159
:101850003046FFF7C7FFDEE72DE9F04F95B03027A0
:101860001546894682463822002106A804F024FC49
:10187000B5FBF7F4332307FB145502930134EB1C3B
:10188000DFF8F4B0019409EB0708039301266743DE
:1018900054238DF814309DF804308DF815309DF8E0
:1018A00005308DF81630B442C6F30723CDF810B0DA
:1018B0008DF817608DF8183004A93CD19DF80C30D4
:1018C0008DF819309DF80D308DF81A304F238DF8B2
:1018D0001B304B238DF81C3009EB070C0023AB4267
:1018E00007D00CEB0300CA1810F8300C507301330A
:1018F000F5E714AA2A44EBB2452002F8330C03F1B1
:101900000E0214A850FA82F24E2002F8400C0F3357
:1019100014AA52FA83F3442203F8402C4022504682
:101920000136FFF771FFB44208F13008B0D2012050
:1019300015B0BDE8F08F9DF808308DF819309DF88E
:1019400009308DF81A304F238DF81B304B238DF85A
:101950001C300D2308EB030212F83D2CCA5401334E
:101960003D2BF7D145238DF84D304E238DF84E3069
:1019700044238DF84F30D1E753544152F7B5174601
:101980000C460646FFF72EFF542003F00EFE3921C9
:10199000054603F0D1FA0E4B394628461D6003F088
:1019A000F7FA00233222CDE900338DF80020C4F38A
:1019B00007228DF803206946082230468DF804403E
:1019C000FFF78BF8003018BF012003B0F0BD00BF57
:1019D0001806002070B504460D4616460021102258
:1019E00004F06AFB20463246294601F03AF82046C8
:1019F00070BD000008B5012203211348FFF7EAFF7C
:101A000000221A211148FFF7E5FF00221B21104890
:101A1000FFF7E0FF012223210E48FFF7DBFF002242
:101A200021210D48FFF7D6FF012243210B48FFF784
:101A3000D1FF002214210A48FFF7CCFF0022162113
:101A40000848FFF7C7FF08BD70060020B006002059
:101A5000A00600205006002060060020C4060020DA
:101A6000800600209006002000F1080343604FF03C
:101A7000FF32C3600361002382600360704700236C
:101A80000361704743684B609A688A609A68516046
:101A90009960036808610133036070470A68531C4A
:101AA00030B50AD103695A684A6091608B60596009
:101AB000036808610133036030BD00F108035C680E
:101AC0002568AA42EFD32346F9E741688268036993
:101AD0008A60826851605968884208BF5A60002253
:101AE0000261186801381860704738B51546026CF5
:101AF00004465AB905680DB1002003E0406800F0C3
:101B000001FE6560A36B0133A36338BD65B98068CE
:101B100004F0AEFAA368226C13446268A360934297
:101B2000EAD32368A360E7E7C06804F0A1FA236C56
:101B3000E26821685B421A448A42E2603EBF626802
:101B40009B18E360022DD7D1A36B002BD4D0A36BDD
:101B5000013BA363D0E7034610B41A6C084662B198
:101B6000D9685C681144A142D96024BF1968D96062
:101B7000D9685DF8044B04F07BBA5DF8044B7047FC
:101B800038B5044600F048FE04F12405A36C002B90
:101B900012DC4FF0FF33A36400F04EFE00F03CFE79
:101BA00004F11005636C002B13DC4FF0FF3363640A
:101BB000BDE8384000F040BE636A002BE9D02846FB
:101BC00000F0EAFC08B100F051FDA36C013BA364F6
:101BD000DCE72369002BE8D0284600F0DDFC08B1E3
:101BE00000F044FD636C013B6364DBE738B50446F9
:101BF0000D4600F011FE206CE36B2268A2604343A7
:101C0000D1181B1A13446160E36000214FF0FF33C9
:101C1000A1636364A3649DB923696BB104F11000EF
:101C200000F0BAFC012807D10A4B4FF080521A602D
:101C3000BFF34F8FBFF36F8F00F0FEFD012038BD63
:101C400004F11000FFF710FF04F12400FFF70CFF70
:101C5000F2E700BF04ED00E0F8B5064617460D4672
:101C600091B148430130543000F068FE044648B159
:101C700065B92060E663256401212046FFF7B6FFC1
:101C800084F850702046F8BD0846ECE700F1540394
:101C90000360EFE72DE9FF470026DFF8ECA0019293
:101CA000044689461F46B04600F0B6FDA26BE36BC2
:101CB0009A4201D3022F1DD13A4649462046FFF7EA
:101CC00014FF636A73B104F1240000F065FC01287D
:101CD0000AD12D4B4FF080521A60BFF34F8FBFF3E4
:101CE0006F8F01E00028F4D100F0A6FD012004B0C0
:101CF000BDE8F087019D1DB900F09EFD0020F6E7CC
:101D000016B902A800F080FC00F096FD00F092FAEF
:101D100000F082FD636C013308BFC4F84480A36CFB
:101D2000013308BFC4F8488000F086FD01A902A86D
:101D300000F076FC10BB00F06FFDA66BE56B00F0C9
:101D40007BFDAE4214D1019904F1100000F0F6FBC6
:101D50002046FFF715FF00F0FDFA38B94FF0805329
:101D6000CAF80030BFF34F8FBFF36F8F01269BE798
:101D70002046FFF705FF00F0EDFAF7E72046FFF7F2
:101D8000FFFE00F0E7FAB9E704ED00E070B50646A3
:101D9000542000F0D3FD0446D8B101230025C363CD
:101DA0004FF0FF338563456043640560836485605D
:101DB000C560056480F850601030FFF755FE04F1EF
:101DC0002400FFF751FE2B462A4629462046FFF7FE
:101DD00061FF204670BD70B504461546EFF31186CD
:101DE0004FF4807282F31188BFF36F8FBFF34F8F70
:101DF000806BE26B904201D3022B1BD11A46204626
:101E0000FFF773FEA36C013310D1636A0BB9012095
:101E100009E004F1240000F0BFFB0028F7D0002DFA
:101E2000F5D00120286086F3118870BDA36C0133C2
:101E3000A364ECE70020F6E738B50C46EFF3118514
:101E40004FF4807383F31188BFF36F8FBFF34F8F0D
:101E5000826BC36B9A4219D2836B01338363836CA9
:101E600001330FD1436A0BB9012008E0243000F0A0
:101E700093FB0028F8D0002CF6D00120206085F3D9
:101E8000118838BD836C01338364EDE70020F6E7E9
:101E90002DE9FF470026DFF814A101920446884689
:101EA0009946374600F0B8FCA36B7BB34146204609
:101EB000E568FFF750FEB9F1000F18D1A36B013BA5
:101EC000A363236813B900F055FC60602369BBB1BC
:101ED00004F1100000F060FB012811D1334B4FF0EA
:101EE00080521A60BFF34F8FBFF36F8F08E0636AB1
:101EF000E5602BB104F1240000F04EFB0028EDD189
:101F000000F09AFC012004B0BDE8F087019D1DB9E6
:101F100000F092FC0020F6E716B902A800F074FB6E
:101F200000F08AFC00F086F900F076FC636C013367
:101F300008BF6764A36C013308BFA76400F07CFC92
:101F400001A902A800F06CFB48BB00F065FCA56B82
:101F500000F072FCEDB9236833B900F05DFC6068F5
:101F600000F08AFB00F068FC019904F1240000F005
:101F7000E5FA2046FFF704FE00F0ECF938B94FF01F
:101F80008053CAF80030BFF34F8FBFF36F8F012625
:101F900088E72046FFF7F4FD00F0DCF9F7E720467C
:101FA000FFF7EEFD00F0D6F9B4E700BF04ED00E066
:101FB000064A13681968064B19B94FF0FF321A60C8
:101FC00070471268D268D2685268F8E7D8060020D5
:101FD000100800200E4B1A6810B550600D4A1268A8
:101FE0009042044607D20C4A10681968BDE81040B8
:101FF0000431FFF753BD094A106819680431FFF72F
:102000004DFD074B1A68944238BF1C6010BD00BFDD
:10201000D406002058080020DC060020D806002046
:10202000100800202DE9F84F0C9DDDF8288082462D
:102030000F4616469B4635B9900000F07FFC0546DA
:10204000002800F09D80582000F078FC044600280D
:1020500000F09380B60032460563A521284604F0BF
:102060002BF8236B043E1E4426F007067B1E04F16A
:1020700034020B37597802F8011B13F8011F09B11C
:10208000BB42F7D145460B2D28BF0B254FF0000969
:10209000271DE562A564384684F83F90C4F84C904B
:1020A000FFF7EDFCC5F10C0504F11800FFF7E7FCA4
:1020B000C4F850902461A561646284F854905A4633
:1020C0005146304600F086FB0B9B206003B11C603C
:1020D00000F0A2FB314B324D1A68DFF8F09001326C
:1020E0001A602E68002E4ED12C601B68012B1DD16A
:1020F00009EB06001436FFF7B7FCF02EF8D1DFF835
:10210000D0A0284E5046FFF7AFFC3046FFF7ACFC9E
:102110002548FFF7A9FC2548FFF7A6FC2448FFF750
:10212000A3FC244BC3F800A0234B1E60234A244980
:102130001368086801331360E26A2364012404FA17
:1021400002F3034314200B6000FB02903946FFF7B3
:1021500099FC00F071FB1B4B1B685BB12B68DB6AC1
:10216000984507D9184B4FF080521A60BFF34F8F34
:10217000BFF36F8F2046BDE8F88F284600F006FCBD
:102180004FF0FF34F6E70F4B1B68002BCED12B68C6
:10219000DB6A984528BF2C60C8E700BFD007002045
:1021A000D4060020FC070020180800204408002066
:1021B00030080020D8060020DC060020DC070020C4
:1021C000E40700202C08002004ED00E0E0060020D9
:1021D000E80700201FB500240394029401940094A2
:1021E000234650220E490F48FFF71CFF012814D147
:1021F0004FF4807383F31188BFF36F8FBFF34F8F5A
:10220000094B4FF0FF321A60084B1860084B1C60F6
:1022100004B0BDE8104000F075BB04B010BD00BFB5
:102220001DC800088D240008100800202C0800207C
:1022300058080020024A136801331360704700BF3A
:10224000D80700202DE9F84F374B1B68002B48D1E9
:10225000364B1A6801321A601D685DB9344A354B35
:10226000116818681060344A1960136801331360EC
:10227000FFF79EFE314C324F23689D424FF0000B1A
:102280003ED3DFF8AC80DFF8C890D8F800201268A1
:1022900072BB4FF0FF32226032E006F1040A504672
:1022A000FFF713FCB16A19B106F11800FFF70DFC36
:1022B000F06AD9F80030012202FA00F11943214BEB
:1022C000C9F800104FF0140E51460EFB0030FFF716
:1022D000D9FB3868F16AC26A914228BF4FF0010BFE
:1022E000D3E7194A1368013313604FF0000B11E074
:1022F000D8F80020D268D66871688D42CDD22160AE
:102300003A68104BD16A14224A439A58022A28BFCD
:102310004FF0010B0D4A1268002A18BF4FF0010B55
:102320005846BDE8F88F00BFD807002058080020A5
:10233000D8060020DC060020140800201008002029
:10234000D4060020E0060020D40700205C0800200E
:10235000E40700202DE9F84300F05EFA2A4B1A68E2
:10236000013A1A601B682BB1002400F065FA204680
:10237000BDE8F883254B1B68002BF5D0244D254E76
:102380001FE0EB68DC6804F1040904F11800FFF7B2
:102390009CFB4846FFF799FBE26A3168012707FA80
:1023A00002F314200B4300FB028049463360FFF721
:1023B00069FB194BE26A1B68DB6A9A4203D3174B2D
:1023C0001F60DFF864802B68002BDAD1144C23687F
:1023D000BBB9124B1C68012CC6D1124B4FF0805276
:1023E0001A60BFF34F8FBFF36F8FBEE7FFF72AFF6F
:1023F00000B12E602368013B23602368002BF5D1D8
:10240000E7E7064D0126F8E7D8070020D0070020AF
:1024100018080020E4070020D40600205C080020F3
:10242000D407002004ED00E0E006002038B540B9F4
:10243000124B4FF080521A60BFF34F8FBFF36F8F74
:1024400038BDFFF7F7FE0E4B0E4D1C68044428689C
:102450000430FFF73AFB40B92A680B49D06A0B6891
:102460000122824023EA02030B602046FFF7B2FDFF
:10247000FFF770FF0028DBD038BD00BF04ED00E09F
:1024800058080020D4060020E407002008B5114EAB
:10249000114C2368002BFBD0FFF7CCFE3568FFF70B
:1024A00059FF002DF5D000F0B7F9F368DD68281D5D
:1024B000FFF70BFB094A1368013B13602368013BDC
:1024C000236000F0B9F9286B00F060FA284600F0AC
:1024D0005DFADEE744080020E0070020D007002076
:1024E000114B1A68114B30B512B101221A6030BD80
:1024F0001A600F4B1B68B3FA83F3DBB20D49C3F1CB
:102500001F03142000FB03F28C18083265686D6805
:1025100065600A44954204BF6A68626000FB031369
:102520005B68DA68044BE1E7D80700205C0800200C
:10253000E4070020E0060020D406002038B5124C45
:102540000D4621681831FFF7A9FA20680430FFF71B
:10255000BCFA40B922680D49D06A0B68012282405A
:1025600023EA02030B606B1C06D121680848043182
:10257000BDE83840FFF786BA064B18682844BDE826
:102580003840FFF727BD00BFD4060020E407002035
:10259000300800205808002038B5C368DC6804F112
:1025A00018052846FFF791FA114B1B68E3B9251D62
:1025B0002846FFF78AFA0F49E26A08680123934028
:1025C00003430B600C4B1420294600FB0230FFF73D
:1025D00059FA0A4BE26A1B68DB6A9A4283BF084BCE
:1025E00001201860002038BD29460648EFE700BFEB
:1025F000D8070020E4070020E0060020D4060020D1
:102600005C08002018080020034B1B680360034B84
:102610001B684360704700BF140800205808002062
:1026200038B50D46044600F0F7F80E4B2A681868D6
:10263000531C10D00C4B21681B689942636801D071
:1026400098420DD2C11A8A420AD91B1A13442B6030
:102650002046FFF7D9FF002400F0EEF8204638BDF1
:102660000124F9E75808002014080020014B01223A
:102670001A6070475C0800202DE9F04104460028EC
:1026800038D01D4DC36A2A68D26A934232D2826919
:102690001A4E002AA1BF2A68D26AC2F10C028261D6
:1026A0001427426907FB03639A4220D100F1040812
:1026B0004046FFF70AFA124A48B9E06A4743F3591D
:1026C0002BB913680121814023EA010313602B68B1
:1026D0001168D86AE062012383400B43136014231E
:1026E000414603FB0060BDE8F041FFF7CBB92B6822
:1026F000DB6AC362BDE8F081D4060020E00600205A
:10270000E4070020F8B5044608B90020F8BDC36C02
:10271000C16A826C013B9142C364F6D0002BF4D1B4
:10272000051D2846FFF7D1F9104E114A50B9E76A46
:102730001421794373582BB913680120B84023EA58
:1027400000031360A36CE362C3F10C01A161116883
:10275000012404FA03F008431060142000FB036016
:102760002946FFF78FF92046F8BD00BFE00600209C
:10277000E4070020044B1A681AB11968CA6C0132C8
:10278000CA641868704700BFD40600204FF48073F5
:1027900083F31188BFF36F8FBFF34F8FFEE7000005
:1027A00006480068006880F3088862B661B6BFF327
:1027B0004F8FBFF36F8F00DF00BF000008ED00E018
:1027C000DFF80C00016841F47001016070470000FF
:1027D00088ED00E04FF0807300E90A00054B40F8F7
:1027E0000C3C6FF0020340F8202C40F8243C4438A5
:1027F000704700BF8D270008064B19680868B0E8CD
:10280000F04F80F30988BFF36F8F4FF0000080F323
:1028100011887047D40600204FF4807383F3118829
:10282000BFF36F8FBFF34F8F024A136801331360FA
:10283000704700BF88010020034A1368013B136002
:102840000BB983F31188704788010020EFF30980EA
:10285000BFF36F8F144B1A681EF0100F08BF20EDE6
:10286000108A20E9F04F10604DF8043D4FF480705D
:1028700080F31188BFF34F8FBFF36F8FFFF730FEE8
:102880004FF0000080F3118808BC19680868B0E8B0
:10289000F04F1EF0100F08BFB0EC108A80F30988CB
:1028A000BFF36F8F704700BFD406002008B5EFF369
:1028B00011834FF4807282F31188BFF36F8FBFF3DF
:1028C0004F8FFFF7BFFC18B1034B4FF080521A60D7
:1028D000002383F3118808BD04ED00E0064B4FF49C
:1028E0007A721B68B3FBF2F3044A013B1360044B9A
:1028F00007221A60704700BF9C01002014E000E02E
:1029000010E000E008B50A4B1A681A601A681A60ED
:10291000FFF7E4FF074B00221A60FFF751FF064A5A
:10292000136843F040431360FFF73AFFFFF72EFFB1
:1029300020ED00E08801002034EF00E038B54307C7
:1029400004461CBF20F007040834FFF773FC0C4B4F
:102950001A681AB90B4A22F007021A600A490A6873
:102960004EF6F7701444844208D8A24206D21D687D
:102970000C601544FFF7EEFC284638BD0025F9E74A
:10298000600800206C08002064F8002070470000F8
:10299000DFF830D0002103E00B4B5B58435004318B
:1029A0000A480B4B42189A42F6D30A4A02E0002327
:1029B00042F8043B084B9A42F9D301F02BFAFDF799
:1029C00003FC7047000002204CD100088801002061
:1029D000E4030020E40300204CFD0020FEE708B5DE
:1029E00072B6962000F0F5F8962000F0F2F8F8E7BD
:1029F0000FB407B5054B04AA1B6852F8041BD8682E
:102A0000019203F0DBFF012002F0F6FDA40100209B
:102A100070B50E460446154601F042FA013609D05B
:102A20002046002101F055FA29462046BDE87040B5
:102A300001F04BBA70BD38B50D460446C168436815
:102A400052B10B602046012101F043FA294620468D
:102A5000BDE8384001F039BA1B04F2E70022FFF765
:102A6000D7BF70B50E460446154601F019FA013677
:102A700006D02A4620460021BDE87040FFF7DBBFA4
:102A800070BD000010B5044601300DD110BD9C4250
:102A900009D12046896801F0E9FB20460021BDE804
:102AA000104001F007BC0C31B1F900305A1CEED1D6
:102AB0000248BDE81040FFF79BBF00BF53C80008A5
:102AC000884208B508D0431C06D0013106D004481E
:102AD000FFF78EFF4FF0FF31084608BD0146FBE7C8
:102AE00022C80008B1F900305A1C01D118467047BD
:102AF000834201D1486870470C31F3E7421C10B59E
:102B0000044607D0FFF7EEFF431C044602D10248FB
:102B1000FFF76EFF204610BD33C80008064B1B6848
:102B200010B5044603B19847044B1B681BB12046FF
:102B3000BDE81040184710BD8C010020980100200E
:102B4000074B1B6810B504461BB1984708B9FFF73F
:102B5000E5FF044B186800B1804704B1206010BD48
:102B60009001002094010020036870B5DB680446E2
:102B7000984763685A6823681AB99B68BDE8704033
:102B800018475B68156898476368281A00285A68D0
:102B900007DC916859601B68002BEAD050689847A1
:102BA000E7E7236810681B69BDE87040184700001C
:102BB0000148FFF7D9BF00BF64C8000838B5044614
:102BC00001F0B2FF054601F0AFFF401BA042FAD36F
:102BD00038BD4FF47A735843FFF7F0BF70470000D9
:102BE00008B5094B1A6842F400721A601A6842F478
:102BF00080621A60032000F017F80F2000F0DCFF5D
:102C0000FFF7ECFF002008BD003C0240024A1368B9
:102C100001331360704700BF70F80020014B186843
:102C2000704700BF70F80020074AD36823F4E063C0
:102C30001B041B0C43F0BF63000243F4003300F499
:102C4000E0600343D360704700ED00E02DE9F04FF2
:102C500085B00B68DFF8B081694ADFF8B091019365
:102C600000234FF0010E019C0EFA03FE0EEA04064B
:102C7000B64540F0AE804C6824F01007022F16D104
:102C80004FEAD30A00EB8A0A03F0070BDAF8205068
:102C90004FEA8B0B4FF00F0C0CFA0BFC25EA0C0CD7
:102CA0000D6905FA0BF545EA0C05CAF820504FEA04
:102CB000430A0325D0F800B005FA0AF5ED4304F005
:102CC000030C0BEA050B0CFA0AFC013F4CEA0B0C57
:102CD000012FC0F800C011D8876807EA050BCF683C
:102CE00007FA0AFC4CEA0B078760476827EA0E0ED2
:102CF000C4F300179F4047EA0E074760C7683D408E
:102D00008F6807FA0AF73D43C560E50061D5D8F83A
:102D1000445045F48045C8F84450D8F8445023F056
:102D2000030707F1804705F4804507F59C370395B5
:102D300003F0030E039DD7F808A04FF00F0C4FEAE5
:102D40008E0E0CFA0EF52AEA050C2E4DA84247D03D
:102D500005F58065A84245D005F58065A84243D0B9
:102D600005F58065A84241D005F58065A8423FD0B1
:102D700048453FD005F50065A8423DD005F5806582
:102D8000A8423BD005F58065A84214BF0925082557
:102D900005FA0EF545EA0C05BD601568F74314F415
:102DA000803F0CBF3D4035431560556814F4003F2B
:102DB0000CBF3D4035435560956814F4801F0CBF2F
:102DC0003D4035439560D568A40254BF3D4035432E
:102DD000D5600133102B7FF444AF05B0BDE8F08F10
:102DE0000025D5E70125D3E70225D1E70325CFE765
:102DF0000425CDE70525CBE70625C9E70725C7E765
:102E0000003C014000000240003802400014024033
:102E10004FF4807393FAA3F3B3FA83F3DBB29B000E
:102E200003F1844303F5602301221A607047000018
:102E300003682DE9F341DF07044643D423689E0766
:102E400000F18F8023681A0700F1DE8023685B079A
:102E500032D5914B914D1A6C42F080521A641B6C22
:102E600003F080530193019B2B6843F480732B6024
:102E7000FFF7D4FE06462B68D90540F1E780884D60
:102E8000854E00232B70FFF7C9FE41F288380746B4
:102E9000336F9A0700F1E180237A2B70A368002B2F
:102EA00000F0E980FFF7BAFE7B4D064641F2883715
:102EB0002B6F9B0740F1D880A269002A40F0F88070
:102EC000002015E0744B9A6802F00C02042A07D027
:102ED0009A6802F00C02082A0DD15B685D020AD5DF
:102EE0006D4B1B689803A9D56368002BA6D1012000
:102EF00002B0BDE8F0816B4D674E00232B70FFF7E9
:102F00008DFE41F2883807463368990312D423793D
:102F10002B706368ABB1FFF781FE5F4D064641F24F
:102F200088372B689A0389D4FFF778FE801BB84254
:102F3000F7D904E0FFF772FEC01B4045E4D9032037
:102F4000D6E7FFF76BFE544D064641F288372B68F3
:102F50009B037FF573AFFFF761FE801BB842F6D984
:102F6000EDE74D4B9A6812F00C0F07D09A6802F00B
:102F70000C02082A18D15B685E0215D4464A136811
:102F80009D0702D5E368012BB1D11168F82393FAAC
:102F9000A3F3B3FA83F32069DBB200FA03F321F061
:102FA000F8010B4313604DE7E2683F4BEAB10122A1
:102FB0001A60FFF733FE384D06462B6898070ED58A
:102FC0002A68F82393FAA3F3B3FA83F32169DBB2F7
:102FD00001FA03F322F0F80213432B6032E7FFF704
:102FE0001DFE801B6428E8D9A9E71A60FFF716FECA
:102FF000294D06462B6899077FF524AFFFF70EFE93
:10300000801B6428F6D99AE76269284B7AB10122BD
:103010001A60FFF703FE204D06466B6F9F073FF5D2
:1030200015AFFFF7FBFD801B6428F6D987E71A6010
:10303000FFF7F4FD184D06466B6F98077FF506AF56
:10304000FFF7ECFD801B6428F6D978E7FFF7E6FD73
:10305000801B64287FF60FAF71E7FFF7DFFDC01B11
:1030600040457FF615AF6AE7FFF7D8FD801BB842F1
:103070007FF61EAF63E7FFF7D1FD074D064641F22D
:1030800088372B6F98077FF517AFFFF7C7FD801BB9
:10309000B842F6D953E700BF003802400070004044
:1030A000703802400238024000004742800E47421A
:1030B0002C4DAB6803F00C03082B3FF418AF2A4EDD
:1030C0000023022A336040D1FFF7A8FD07462B6892
:1030D000990134D447F6C07191FAA1F1B1FA81F1A6
:1030E0004FF4403797FAA7F7B7FA87F74FF07060B9
:1030F00090FAA0F0B0FA80F0226AE3691343626AA2
:10310000C9B202FA01F1A26A52080B43013AF9B2BC
:103110008A401343E26A134CC1B28A4013436B6086
:1031200001233360FFF77AFD054623689A013FF5D6
:10313000C7AEFFF773FD401B6428F6D9FFE6FFF723
:103140006DFDC01B6428C2D9F9E6FFF767FD044690
:103150002B689B017FF5B4AEFFF760FD001B642870
:10316000F6D9ECE600380240600047427C4B1A6812
:1031700002F00F028A422DE9F04105460E467DD24B
:10318000CAB21A701B6803F00F03994202D00120E3
:10319000BDE8F0810268960706D5724980688B68A1
:1031A00023F0F00303438B60D40713D42A6850073D
:1031B00000F1CE80130707D56A4A2969936823F482
:1031C000604343EAC10393600F2000F0F5FC002048
:1031D000BDE8F0816A68634B012A1ED11B6813F4B5
:1031E000003FD4D05F4CA36823F003031343A360D4
:1031F000FFF714FD6B68012B064618D141F28837A2
:10320000A36803F00C03042BD0D0FFF707FD801B4D
:10321000B842F5D90320BDE8F081911E01291B6851
:1032200002D813F0007FDCE713F0020FD9E7022B7E
:103230000CD141F28837A36803F00C03082BB5D0FA
:10324000FFF7ECFC801BB842F5D9E3E7032B12D162
:1032500041F28835A368FFF7E1FC801BA842F9D949
:10326000D8E7FFF7DBFC801BB842D3D8A36813F084
:103270000C0FF6D19AE741F28837F7E70268910719
:1032800006D5384980688B6823F0F00303438B60D0
:10329000D20709D4324BF2B21A701B6803F00F0345
:1032A0009E427FF474AF81E76A682E4B012A1DD1DC
:1032B0001B6813F4003F3FF46AAF2A4CA36823F065
:1032C00003031343A360FFF7A9FC6B68012B0746B8
:1032D00016D141F28838A36803F00C03042BD9D02F
:1032E000FFF79CFCC01B4045F5D993E7911E0129CF
:1032F0001B6802D813F0007FDDE713F0020FDAE756
:10330000022B0CD141F28838A36803F00C03082B80
:10331000C0D0FFF783FCC01B4045F5D97AE7032BEB
:1033200013D141F28835A368FFF778FCC01BA8428F
:10333000F9D96FE7FFF772FCC01B40453FF66AAF53
:10334000A36813F00C0FF5D1A4E741F28838F7E732
:103350000449E8688B6823F4E05303438B6029E752
:10336000003C0240003802401A4A936803F00C0304
:10337000042B10B503D0082B03D0174810BD1748F5
:1033800010BD5168536801F03F0113F4800F47F6F8
:10339000C074536894FAA4F0B0FA80F0C0B203EAA3
:1033A000040323FA00F314BF0C480B48B0FBF1F000
:1033B0005843084B4FF440325B6892FAA2F2B2FADB
:1033C00082F2D2B203F44033D34001335B00B0FB4E
:1033D000F3F010BD003802400024F40000127A001F
:1033E00008B5FFF7C1FF094B9A68F02393FAA3F3DE
:1033F000B3FA83F302F0F002DBB222FA03F3044AD9
:10340000D35CD840034B186008BD00BF00380240B1
:1034100080C800089C01002008B5FFF7E1FF084BB9
:103420009A684FF4E05393FAA3F3B3FA83F302F4E8
:10343000E052DBB222FA03F3024AD35CD84008BD63
:103440000038024080C8000808B5FFF7C9FF084BE4
:103450009A684FF4604393FAA3F3B3FA83F302F448
:103460006042DBB222FA03F3024AD35CD84008BDC3
:103470000038024080C800087047026838B5D36839
:1034800023F0A003D3600446FFF7C8FB054623687A
:10349000DB689B0601D5002038BDFFF7BFFB401B52
:1034A000B0F57A7FF3D9032038BD38B50368DA6800
:1034B0005206044601D5002038BD4FF0FF32DA60D5
:1034C000FFF7ACFB05462368DB685B06F3D4FFF728
:1034D000A5FB401BB0F57A7FF5D9032038BD38B580
:1034E0000446B0B1437F03F0FF0213B90277FFF740
:1034F000C3FF022363772368CA225A6253225A62A7
:103500002046FFF7D2FF236828B1FF225A62042326
:103510006377012038BD9A68256922F4E00222F021
:1035200040029A60626899682A4365692A430A439F
:103530009A60E2681A611A69A16842EA01421A6156
:10354000DA68A16922F08002DA601A6C22F4802223
:103550001A641A6C0A431A64FF225A6201236377C1
:1035600038BD0023092803D840EA0310C0B27047D1
:103570000A380133C0B2F5E7F8B5037F012B0646E0
:103580000F464FF002052FD00123037703684577DC
:1035900008784D788C789B6842BB13F0400308BFD5
:1035A000CB70FFF7DEFF01462846FFF7DAFF024641
:1035B0002046FFF7D6FFFB7840EA034040EA01408F
:1035C00040EA02243368CA225A6253225A623046C1
:1035D000FFF76BFF33680546A8B1FF225A62042348
:1035E00073770023337701252846F8BD13F0400395
:1035F0004FEA052508BFCB7045EA00402043CC7850
:1036000040EA0444DEE704F07F3424F0FE441C600A
:103610009A68386922F480229A60FA6899680243AD
:103620000A439A60DA6822F08002DA609B689B069F
:103630000AD43046FFF721FF30B13368FF225A62C7
:10364000042373773577CEE73368FF225A6201236C
:10365000737700233377C7E7F8B5037F012B05465F
:103660004FF0020630D00123037746774B78C878B5
:103670008E780C78002A48D1DA0603D523F010039F
:103680000A334B70FFF76DFF07464878FFF769FF75
:1036900002463046FFF765FF40EA443040EA074003
:1036A00040EA02242B68CA225A6253225A622846F0
:1036B000FFF7FBFE2B68064640B1FF225A62042347
:1036C0006B7700232B7701263046F8BD24F07F442A
:1036D00024F0C0045C60DA6822F08002DA609B6843
:1036E0009B060AD42846FFF7C8FE30B12B68FF229C
:1036F0005A6204236B772E77E5E72B68FF225A6224
:1037000001236B7700232B77DEE71B0243EA00409F
:10371000304340EA4434C5E7030903EB830300F078
:103720000F0000EB4300C0B270470368986A48601E
:1037300070B518691D6805F07F3323F0FE43C0F3B0
:103740000E001E0C8860C3F3062406F03F0005F04F
:103750007F0506F0400608704C708D70CE7052B92F
:10376000FFF7DAFF08702046FFF7D6FF48702846BB
:10377000FFF7D2FF8870002070BD38B503685C6821
:1037800024F07F4323F0C003180CC3F3042504F096
:103790003F04C3F34233C8704D708C700B7052B944
:1037A000FFF7BAFFC8702846FFF7B6FF48702046FB
:1037B000FFF7B2FF8870002038BD704710B504468F
:1037C000002836D090F8513003F0FF021BB980F882
:1037D0005020FFF7F2FF2168A068A269022384F855
:1037E00051300B6823F040030B6063680343E068CB
:1037F00003432069034360690343E0690343206A8C
:103800000343A06A034302F4007003430B60120CED
:10381000636A02F004021A43E36A4A600B61CB69EF
:1038200023F40063CB6100200123606584F85130EC
:1038300010BD012010BD70472E4A0368904212D07F
:10384000B0F1804F0FD0A2F57C4290420BD002F530
:103850008062904207D002F58062904203D002F568
:10386000784290421DD14A6823F070031343214AE5
:10387000904204D1CA6823F44073134328E0B0F1A6
:10388000804FF7D01C4A9042F4D002F580629042FB
:10389000F0D002F580629042ECD002F5784290427E
:1038A000E8D0164A9042E5D002F580629042E1D01D
:1038B00002F580629042DDD0A2F598329042D9D0D4
:1038C00002F580629042D5D002F580629042D1D05C
:1038D00003608B68C3620B688362064B984206D014
:1038E00003F58063984202D00123436170470B695E
:1038F0000363F9E70000014000040040004001407C
:1039000010B50446A0B190F8393003F0FF021BB99E
:1039100080F83820FFF78FFF022384F839302068C1
:10392000211DFFF789FF012384F83930002010BDE5
:10393000012010BD036A10B501248C4023EA040362
:103940000362036A8A401A43026210BD10B504463E
:1039500001220068FFF7EEFF2368084A934203D074
:1039600002F58062934203D15A6C42F400425A64D9
:103970001A6842F001021A60002010BD00000140E8
:10398000FFF7E4BF2DE9F8430568C2682B69C169F8
:1039900023F4405313432B61074683680069EA68A8
:1039A0000343786922F41642034322F00C020B43CE
:1039B0001343EB606B69BA6923F440731343B1F5A9
:1039C000004F6B61404B47D19D4203D003F58063AC
:1039D0009D4229D1FFF738FD7E68192404FB00F3CE
:1039E00076004FF06408B3FBF6F3B3FBF8F31E0167
:1039F000FFF72AFD7B6860435B00B0FBF3F9FFF73C
:103A000023FD7B6860435B00B0FBF3F3B3FBF8F38B
:103A100008FB13931B013233B3FBF8F303F00F03DE
:103A20003343AB60BDE8F883FFF7F6FC7E681924EA
:103A300004FB00F376004FF06408B3FBF6F3B3FB2E
:103A4000F8F31E01FFF7E8FC7B6860435B00B0FB06
:103A5000F3F9FFF7E1FCD4E79D4202D01B4B9D42F6
:103A60001AD1FFF7F1FC7E68192404FB00F3B600BD
:103A70004FF06408B3FBF6F3B3FBF8F31E01FFF756
:103A8000E3FC7B6860439B00B0FBF3F9FFF7DCFCD1
:103A90007B6860439B00B7E7FFF7BEFC7E68192494
:103AA00004FB00F3B6004FF06408B3FBF6F3B3FB7E
:103AB000F8F31E01FFF7B0FC7B6860439B00B0FB8E
:103AC000F3F9FFF7A9FCE3E70010014000140140FF
:103AD000704710B5044630B390F8393003F0FF0258
:103AE0001BB980F83820FFF7F3FF2268022384F81F
:103AF0003930D36823F40053D3602046FFF742FFE8
:103B000023681A6922F490421A615A6922F02A0243
:103B10005A61DA6842F40052DA6000200123E0635F
:103B200084F8393010BD012010BD000030B50C4CB8
:103B3000A268A468B4F1006F13460CD1131F094C9E
:103B4000094A53F8045F42F8045FA242F9D1044ADB
:103B50004FF000539360103043F8201030BD00BF89
:103B600000ED00E084010020FCFFFF1F70B5104C49
:103B70002368DA68910704D56FF002021A61FFF733
:103B800017F82368DA68520710D56FF00402094E5F
:103B90001A615D6A3368EB1AB3F57A7F06D3FFF7D3
:103BA00035F82368356005F57A729A6370BD00BFF9
:103BB00078F8002074F80020264B37B51A6C264C94
:103BC000254842F008021A641A6C02F008020192B9
:103BD000019A1A6A42F008021A621A6A22F008026E
:103BE0001A62A3F50B3323604FF0FF33E3601B4BE6
:103BF0001B4A1B6893420EBF0F231A4AB3FBF2F312
:103C00004FF0000518BF03F1FF3363602561A56025
:103C10006561FFF775FE14493220FFF787FF134BEC
:103C20000D484FF480225A602946FFF7A9FE04216F
:103C30000948FFF7A5FE23680D495A6A0A6002F594
:103C40007A729A63DA68284642F00402DA6003B0B6
:103C500030BD00BF0038024078F800209C010020F1
:103C60000024F40080841E006D3B000800E100E0A9
:103C700074F800207FB50F230193022302930023E1
:103C800003934FF4A053049305214FF4805301A8EC
:103C90000593FFF76BFAB0FA80F0400907B05DF8C2
:103CA00004FB0000174A1849936803F00C03042B27
:103CB00010B50DD0082B0DD0144B0B60114B144ACE
:103CC0009B68C3F30313D25C0B68D3400B6010BD39
:103CD000104BF2E75468506852686302C2F38812CE
:103CE00000F03F004CBF0B4B084BB3FBF0F35343CA
:103CF000044A5268C2F3014201325200B3FBF2F3AC
:103D0000DBE700BF003802409C0100200024F400E3
:103D100090C8000800127A001A4B10B51A6C42F0D5
:103D200080521A641B6C8EB003F080530093009B8A
:103D3000154B1A6822F480421A601B6803F4804312
:103D40000193019B01230293B8B94FF480020393BE
:103D5000099202230822002408930A920C934FF43C
:103D6000A872072302A805940B920D93FFF760F841
:103D700028B9FFF77FFF0EB010BD0523E5E7204609
:103D8000F9E700BF0038024000700040184B10B542
:103D90001A6C42F080521A641B6C8EB003F0805390
:103DA0000093009B134B1A6822F480421A601B6830
:103DB00003F480430193019B032302930123102208
:103DC000059302230024069208930A920C934FF461
:103DD000A872072302A8039409940B920D93FFF78E
:103DE00027F818B9FFF746FF0EB010BD2046FBE7D5
:103DF000003802400070004008B50120FFF78CFF3A
:103E000030B9FFF789FF18B9FFF7C0FF00B9FEE727
:103E100008BD0000184AD2F8883010B543F470038A
:103E2000164CC2F888302368002143F00103236058
:103E3000A160236823F0847323F480332360104B44
:103E40006360236823F4802323604FF00063E16004
:103E500093600C4B0C4A1A60FEF7C2FEFFF7CCFFD2
:103E6000FFF720FF236A43F008032362236A23F04D
:103E70000803236210BD00BF00ED00E000380240DF
:103E8000103000249C0100200024F40010B5002113
:103E9000044604F00F0400F0E9F90120A04010BD31
:103EA00070B504464B1C0E4621800DD0C1F30310A3
:103EB00000F048F905463046FFF7E8FF05F110032A
:103EC00018356060A360E56070BDB0F9000000F0D7
:103ED000F1B90129B0F9000018BF002100F0C6B9FE
:103EE000F8B54C26134B4643341D0F461C440025A1
:103EF0001E44BD4200D1F8BD0121336801FA05F22C
:103F00001A4213D00C4A236B506901FA03F303429F
:103F10000CD0D4F818E05361206838B1DEF81020D6
:103F20001342064B08BF02211B6898470135043431
:103F3000DFE700BFB4F80020003C0140C8FA0020D1
:103F400001210020FFF7CCBF01210846FFF7C8BFC1
:103F500001210220FFF7C4BF01210320FFF7C0BFEA
:103F600001210420FFF7BCBF05210846FFF7B8BFB9
:103F700006210846FFF7B4BF2DE9F74F9B464B1CBF
:103F800007460E46914663D001F00F0808F1FF3353
:103F9000C1F303100E2B09D8DFE803F042464A4E66
:103FA000525252525256565656565600294B0024DB
:103FB0000625019300F0C6F807218246304600F03E
:103FC00055F9019B28461946FFF7B0FD6809012203
:103FD00005F01F03204902FA03F341F820301F4B7C
:103FE000BE8153F828601E493D704C23634302FA9A
:103FF00006F5CA587C6000202A43B860CA501323D3
:1040000003FB046401EB8403C3F804B0C3F81CA0F1
:10401000C3F83480134BC3F8009003B0BDE8F08FB1
:10402000114B01240725C4E7104B02240825C0E7E3
:104030000F4B03240925BCE70E4B04240A25B8E7DF
:104040000D4B05241725B4E70C4B06242825B0E7B3
:104050000846E2E7413F000800E100E0A0C8000890
:10406000B4F80020C8FA0020493F0008513F00087A
:10407000593F0008613F0008693F0008713F000890
:10408000F8B54368124A0546B0F90C0000F00F017C
:10409000012452F821700F4A4C21594304FA07F6C3
:1040A000545824EA06045450132101FB037302EB15
:1040B000830100244C60991D0C3302EB810102EB5B
:1040C00083034C605C60214600F0D0F8AC60F8BD22
:1040D000A0C80008B4F80020BAB101290AD1836849
:1040E000023B012B22D8032383600821B0F90C0086
:1040F00000F0BCB8022910D1836823F00203012B21
:10410000F1D0022383600721F0E7012907D18368FA
:10411000023B012BF5D9002383600C21E6E702293D
:10412000FBD1836823F00203012BF4D101238360C8
:104130000621DBE708B5FFF7B5FDBDE80840FEF74F
:104140004FBD000000B58BB0082874D8DFE800F040
:1041500005131F2B37434F5B6700394B39481A6BE8
:1041600042F001021A631B6B03F001030193019BF0
:104170000BB05DF804FB324B33481A6B42F002027D
:104180001A631B6B03F002030293029BF0E72C4BB4
:104190002E481A6B42F004021A631B6B03F00403EF
:1041A0000393039BE4E7264B29481A6B42F008026D
:1041B0001A631B6B03F008030493049BD8E7204B9E
:1041C00024481A6B42F010021A631B6B03F01003B1
:1041D0000593059BCCE71A4B1F481A6B42F020024F
:1041E0001A631B6B03F020030693069BC0E7144B76
:1041F0001A481A6B42F040021A631B6B03F040032B
:104200000793079BB4E70E4B15481A6B42F08002E8
:104210001A631B6B03F080030893089BA8E7084B05
:1042200010481A6B42F480721A631B6B03F480739C
:104230000993099B9CE70C48FEF7DAFB002097E7FF
:104240000038024000000240000402400008024022
:10425000000C02400010024000140240001802400E
:10426000001C024000200240E0C8000830B50546AE
:1042700087B0C0F303100C4605F00F05FFF762FF8F
:10428000012304F00F0203FA05F5094B019553F8D9
:1042900022300293C4F302130393C4F3C314032321
:1042A00001A904930594FEF7D1FC07B030BD00BF0F
:1042B00004C9000838B500F00F05C0F303100C4620
:1042C000FFF740FF6900C36803228A4023EA020324
:1042D000032CC360C36828BF00248C401C43C46007
:1042E00038BD0000F0B5304B1E688FB0002E3DD1B8
:1042F00001272E4D2E4C1F602E4B23602B6C43F05C
:1043000080532B642B6C03F080530193019BFEF7C9
:104310007FFD294B02A81F601E60042302930896AC
:104320000497FEF785FD18BBAB6823F4F813AB6068
:10433000AB6823F4F813AB602B6F43F480732B67E7
:104340004FF400431D4A1A480121DB091160013B6B
:1043500000227F216260A160E36022616261A2614C
:10436000FFF7BDF810B11648FEF742FB0FB0F0BDE5
:104370000C2302A80293089604960797FEF758FDAF
:1043800010B11048FEF734FB084B9A6822F4F8127B
:104390009A609A6822F4F8129A601A6F42F40072D6
:1043A0001A674FF4FA43CDE7ECFA002000380240D8
:1043B000CCFA002000280040400E47423C0E474205
:1043C00064C9000838C90008014B1868704700BF6D
:1043D000ECFA002010B5154C154B236090B002A9E3
:1043E00000222046FFF7A1F9002201A92046FFF78D
:1043F000C4F99DF804300D939DF80530013B0B93F3
:104400009DF806300A939DF8073064330C939DF8AD
:104410000830099310A89DF8093008939DF80A30D8
:1044200040F8243D01F02AFF10B010BDCCFA002066
:104430000028004030B589B008AB184D43F81C0D7A
:10444000174A2A60184601F04DFC83698DF8083040
:10445000036901338DF80930C3688DF80A30436968
:10446000643B8DF80B3083688DF80C3043688DF811
:104470000D3003688DF80E3000244023224602A937
:1044800028468DF80F3006940794FFF7E5F822468A
:1044900003A92846FFF770F809B030BDCCFA002018
:1044A0000028004008B5124B02681A6082685A6002
:1044B000C2689A600269DA6042691A6100229A61F0
:1044C000B0F91A2001320AD1082209485A61FFF7CF
:1044D00000FB58B10748BDE80840FEF789BAB0F9BB
:1044E000182001320CBF04220C22EEE708BD00BFE9
:1044F000F0FA00208AC9000870B5114D114C55F82A
:10450000213020600E46CBB10268520608D50E4A13
:10451000184612680121904723686FF040021A6024
:1045200023681B689B0609D5074B55F826001B68B6
:104530000021984723686FF020021A6070BD00BF09
:1045400034FB0020F0FA002030FB0020002101485D
:10455000FFF7D2BF0010014001210148FFF7CCBF97
:104560000044004002210148FFF7C6BF0048004058
:1045700003210148FFF7C0BF004C0040042101485F
:10458000FFF7BABF0050004005210148FFF7B4BF54
:1045900000140140F0B50E4687B00446524930463B
:1045A0001546FEF7ABFA514907462846FEF7A6FA2C
:1045B00001463846FEF784FA4D4B206098427AD087
:1045C0003DD8A3F5006398425DD003F5806398421F
:1045D00065D045493046FEF755FA44492846FEF76E
:1045E00051FA721C03D001213046FFF763FE6B1CA9
:1045F00003D001212846FFF75DFE4FF41653A36058
:104600000023E36023616361268365832046FFF70F
:1046100049FF2268374B9A420FD1374B01221A606B
:10462000364B04F11805206861681A4603C2083445
:10463000AC421346F7D12068106007B0F0BD304B94
:10464000984213D003F58063984240D0A3F54443C9
:104650009842BED12B4B1A6C42F480121A641B6C28
:1046600003F480130493049B04230AE0254B5A6C43
:1046700042F010025A645B6C03F010030093009B3D
:1046800000236360A5E71F4B1A6C42F400321A64E2
:104690001B6C03F400330193019B0123F1E7194BD9
:1046A0001A6C42F480221A641B6C03F48023029378
:1046B000029B0223E5E7134B1A6C42F400221A64B2
:1046C0001B6C03F400230393039B0323D9E70D4BD7
:1046D0005A6C42F020025A645B6C03F0200305938D
:1046E000059B0523CDE700BF20CB0008CCCA0008FE
:1046F000004C00400014014070FB002054FB0020DF
:1047000000100140003802408160FFF7CBBE00007E
:10471000034B19604168034B43F82120704700BFE9
:1047200030FB002034FB002038B50D462E490368CD
:104730000B602E498B4234D00AD8A1F500618B4220
:1047400029D001F580618B4228D000210C460FE072
:1047500027498B420AD001F580618B4224D0A1F514
:1047600044418B42F1D12349352401E022492524DB
:1047700002B3DA68DDB942F02002DA602046FFF7C2
:10478000D5F96209012304F0170403FA04F41B4B62
:1047900043F8224038BD1A492624E9E7194927245D
:1047A000E6E719493424E3E718494724E0E742F0F3
:1047B0004002E2E7DA6835B922F02002DA60DB680D
:1047C0001A0606D538BD22F08002DA60DB689B0647
:1047D00009D46309012204F0170402FA04F4203317
:1047E000064A42F8234038BDF0FA0020004C004051
:1047F000001001407D4500084D45000800E100E043
:1048000059450008654500087145000889450008BC
:104810000368034A18681360C0F34010704700BF74
:10482000F0FA002010B5046801460846FFF7F0FFD3
:104830000028FAD06068C0F3080010BD0368034A7E
:1048400018681360C0F3C010704700BFF0FA002072
:1048500038B5056804462046FFF7F0FF0028FAD077
:10486000C1F30801696038BD03681A6810B5124CBD
:1048700022F0400223601A60C268036962618268A4
:104880002261072263608369E2624268E361E26059
:1048900000234269A3602046A3622362A26163628F
:1048A000FEF78CFF10B10548FEF7A2F822681368E6
:1048B00043F04003136010BD74FB0020A1C9000841
:1048C0002DE9F04F0F4687B004463D49BDF94050F1
:1048D000384690461E46FEF711F93A498146404651
:1048E000FEF70CF9384901903046FEF707F93749D1
:1048F00082462846FEF702F9019B83461946484640
:10490000FEF7DEF8594681465046FEF7D9F80146D3
:104910004846FEF7D5F82E4B206098422DD103F57E
:1049200084335A6C42F480525A645B6C03F48053B3
:104930000393039B22493846FEF7A4F821494046D9
:10494000FEF7A0F820493046FEF79CF8002363608C
:10495000A360E3603823A3616B1CA4F81C80E78389
:104960002684658427D019492846FEF78BF820460F
:10497000FFF77AFF07B0BDE8F08F164B98420BD1D6
:1049800003F500331A6C42F480421A641B6C03F482
:1049900080430493049BCDE70F4B9842CAD103F5A3
:1049A000FE331A6C42F400421A641B6C03F4004399
:1049B0000593059BBEE74FF400736361D7E700BF23
:1049C00000CA0008B8C9000848CA000890CA000810
:1049D0000030014000380040003C004010290CBF6E
:1049E0004FF400610021012A416016D0022A17D03D
:1049F000CAB98260C2604269B2F5007F05D0002B5F
:104A000014BF00224FF480224261002B14BF002308
:104A10004FF482730361FFF727BF00218160E9E74C
:104A200082600022E6E7022282600122E2E70000C3
:104A30001B4B994203DC38238361FFF715BFA1F5B7
:104A40001223184AA3F5F863934201D83023F3E701
:104A5000A1F57423144AA3F51073934201D82823B7
:104A6000EAE7A1F5F413114AA3F59063934201D844
:104A70002023E1E70E4B0F4A0B44934201D8182341
:104A8000DAE70D4B0D4A0B44934201D81023D3E7CC
:104A90000B4B0C4A0B44934294BF08230023CBE7F3
:104AA000BF2709007F1A06003F420F00BFC62D0036
:104AB000C0B4B3FF3F4B4C00806967FFBFD8A7006D
:104AC000C090BFFE3F6F400103689A68D207FCD5D3
:104AD000014AD8681360704774FB002003689A6825
:104AE0009207FCD5024A89B21360D960704700BFB3
:104AF00074FB002010B5FFF7F1FFBDE81040FFF791
:104B0000E3BF0000054B186830B901221A60044B5E
:104B1000044A1A60FFF750B8704700BF08FC002035
:104B2000CCFB0020000C004008B5044B1B680BB9FF
:104B3000FFF7E8FF024B586A08BD00BF08FC0020E1
:104B4000000C0040034B1B685863DA6842F0020215
:104B5000DA607047CCFB0020034B1A68D36823F05F
:104B60000203D360704700BFCCFB0020024B1B68E0
:104B70006FF002021A617047CCFB002008B50B4CA5
:104B80000B4DA368E26819686368194218BF1B04DB
:104B90001360AB68EA6819686B68194218BF1B0498
:104BA00013604FF47A70FDF741FCEAE770060020CD
:104BB000A00600207FB50120FDF7E8F84E4B032248
:104BC000186000210120FDF747F84C4B03221860C4
:104BD00000210120FDF740F8494B00221860042114
:104BE0000120FDF739F8474B00221860042101200D
:104BF000FDF732F8444B0022186004210120FDF734
:104C00002BF8424B0022186004210120FDF724F804
:104C10003F4B0022186004210120FDF71DF83D4B99
:104C20000022186002210120FDF716F83A4B1860A7
:104C300004A8FDF785FF012871F1000303DA0020C5
:104C40000021FDF76BFF354B354CDA685B681B04C0
:104C500013604FF47A70FDF7BCFF6368E2681B04D1
:104C600013604FF47A70FDF7B4FFE36862681A606E
:104C70002C4B019300240B2300934FF40072234626
:104C800029492A48CDE90244FDF7CCF90A25284BE9
:104C90000193009523464FF4007226492648CDE93A
:104CA0000244FDF7BFF9254B25492648CDE90053BD
:104CB0004FF400722346CDE90244FDF7B3F9052510
:104CC000214B01934FF40072234620490095CDE912
:104CD00002441F48FDF7A6F91E4B1F491F48CDE9A6
:104CE00000534FF400722346CDE90244FDF79AF9D0
:104CF000FDF770FAFEE700BF1C060020200600202A
:104D0000C0060020340600203C06002038060020A3
:104D1000400600202C0600204806002080060020C7
:104D2000900600203006002074CB00087D4B000860
:104D3000440600207CCB0008590400084C060020E3
:104D400083CB00082D060008240600208ACB00082B
:104D5000410800082806002091CB0008AD06000895
:104D6000084B0360836863B1074A1368984203D114
:104D700043681360704713465A689042FBD14268FB
:104D80005A607047A0CB00080CFC002010B5044608
:104D9000FFF7E6FF204600F004FC204610BD0000AF
:104DA000054B0360002343608160027319B1034B1C
:104DB0001A68426018607047A0CB00080CFC002005
:104DC000F8B50B4B1C6807460E4674B1A56855B183
:104DD00032463946284603F07CF820B9284603F0CD
:104DE00070F8864201D06468EFE72046F8BD00BF46
:104DF0000CFC0020007B7047036870B51B69012222
:104E0000002104469847431C05460ED02368022221
:104E10001B69002120469847236806461B6900222B
:104E2000294620469847304670BD0646FBE70000FD
:104E300010B5074B0446002240F8043BFFF7B0FFD3
:104E4000044B03F10802343322606360204610BD36
:104E5000C8CC0008A8CB000810B5074B03F1080226
:104E600034330446026040F8043FFFF779FF2046E0
:104E700000F048FA204610BDA8CB000810B500236A
:104E8000036043600A782F2A04460DD14A785AB14C
:104E9000481C2060194623681A782F2A06D101334E
:104EA0002360FFF78DFF6060204610BD002AF8D018
:104EB000013301312360EEE700687047406808B5B0
:104EC00020B1FFF797FF431E5842584108BD10B567
:104ED0000446FFF7F3FF00B1606810BD406808B5F5
:104EE00020B1FFF787FFB0FA80F0400908BD10B588
:104EF0000446FFF7F3FF10B1606800B1043810BD3D
:104F00004068003018BF01207047000010B5044B06
:104F1000044640F8143BFFF7B3F8204610BD00BF2D
:104F2000ECCB000810B50446FFF7F0FF204600F078
:104F300038FB204610BD00002DE9F0410546124B1C
:104F400045F8043B04464FF010080E46424604F173
:104F500014070021284601F0AFF8424600213846E8
:104F600001F0AAF800236362A363E3632365074AA1
:104F7000234631463846FEF7FFFF28463146FDF707
:104F80006DFD2046BDE8F081ECCB0008BD4F000868
:104F900003460A46143019B100229A63596201226D
:104FA0000121FFF799B84369014613B9036823B19A
:104FB0001847006808B1043118477047012908B53F
:104FC00002D0022904D008BD2430FFF7ECFF08BD51
:104FD0003C30FAE7704710B5044600F0E2FA20468C
:104FE00010BD00002DE9F74305469946134B45F8DF
:104FF000043B04460F46904600212422284601F037
:105000005BF80823A3620E4B23630026BDF928300A
:10501000009342464B4639462846E662FFF750FC6D
:105020003346E26AA16A2846FFF7D8FC2846216B7E
:10503000FFF7FEFC204603B0BDE8F083FCCB000880
:1050400040420F0070B5094D2B68834204460BD0D7
:10505000061DC26A816A00233046FFF7BFFC216B40
:105060003046FFF7E5FC2C6070BD00BF10FC00204F
:10507000034BC262816200221A60FFF7E3BF00BFE8
:1050800010FC0020024B016300221A60FFF7DABF18
:1050900010FC002038B504460D46FFF7D3FF294623
:1050A000201DBDE83840FFF725BD00F0A0B8A0F1F5
:1050B0005400FFF7FABF00F09DB8A0F15400FFF7CD
:1050C000FABF000010B5074B03F10802026003F1BC
:1050D00020025433044642658365543000F0DCF806
:1050E000204610BD08CC0008A0F15400EAE7A0F16A
:1050F0005800E7E710B50446FFF7E4FF204600F04C
:1051000050FA204610BDA0F15400F3E7A0F158007A
:10511000F0E7000038B504461D4600F029F829469E
:1051200004F1540000F096F8054B03F108022260E8
:1051300003F1200254336265A365204638BD00BFE9
:1051400008CC000870471823594343185A6B1B6A50
:105150000AB92BB118471BB1243101441846104736
:10516000704710B5044600F01CFA204610BD000040
:10517000F8B505460F4B45F8043B04460E46174666
:1051800000211C22284600F097FF0023236263635E
:10519000A363E3644FF4165323653A463146284629
:1051A000FFF7F8F9284622460349FFF7B1FA2046EF
:1051B000F8BD00BF6CCC00084751000838B5044664
:1051C0000D460430FFF7A0FA256538BD30B405461A
:1051D000144604300A4631B1182303FB045300225D
:1051E0005A6319620122214630BCFFF79DBA043090
:1051F000FFF718BB10B504300C46FFF729FB20461B
:1052000010BDF8B506460D468F180C46BC4207D0B7
:10521000336814F8011B5B6A304698470130F5D1BA
:10522000601BF8BDF8B506460D468F180C46BC420B
:1052300008D0336830469B6A9847431C02D004F874
:10524000010BF4E7601BF8BD002070470020704799
:10525000002070471FB50446FFF7EAFD0B4B0C49D1
:1052600003F108023C33636000236361226001A8FC
:10527000224602F08DFD074901A800F00FFC606195
:1052800000F088F9204604B010BD00BF7CCC0008B7
:1052900074CC000878CC000810B5074B03F1080265
:1052A0003C33044602604360406900F00BFA20463C
:1052B000FFF7D2FD204610BD7CCC000838B504466F
:1052C0000D46406900F0B6FA61692846BDE83840ED
:1052D00000F010BC10B50446406900F0ABFA6069FC
:1052E000BDE8104000F059B9044B1B6823B92722D0
:1052F00026210348FFF74EB9704700BF70FB00201E
:1053000054FB002010B5074B0360074A00231946E1
:1053100052F82340A04208BF42F823100133402B2B
:10532000F6D110BDC8CC000814FC00202DE9F341D3
:105330000F462D49054602F0BAFD044628B9FFF78D
:10534000D3FF204602B0BDE8F0812849284602F08C
:10535000AEFD18B9FFF7C8FF0124F2E7244928463B
:1053600002F0A5FD18B9FFF7BFFF0224E9E7214BC2
:1053700000241E4653F824203AB30134402CF9D1BE
:105380004FF0FF34DDE729466846FFF777FD6846B2
:10539000FFF7B6FD0028F3D06846FFF79FFD18B170
:1053A0006846FFF7A4FD19E06846FFF790FD054643
:1053B0000028E5D003686846D3F80880FFF77CFD35
:1053C0003A4601462846C04708E02B783A2BDAD106
:1053D0006A460949284602F0FBFC00980028CFD015
:1053E00046F824000334ACE7F4CC0008FBCC0008FA
:1053F000ECCC000814FC002074CC000802284FF00C
:10540000000309DDC21E074951F8220041F822308D
:1054100020B103685B681847184670474FF0FF30AB
:10542000704700BF14FC002002282DE9F0410C4613
:10543000154611DC0F4B1B680BB9FFF755FF0E4EDD
:105440006719BC4205D014F8011B3046FFF700FA7B
:10545000F7E72846BDE8F0810338084B53F82000F1
:1054600020B10368BDE8F0411B6818474FF0FF30DA
:10547000BDE8F08170FB002054FB002014FC0020EC
:10548000022810B50C460ADC0B4B1B680BB9FFF762
:105490002BFF0A48FFF7C6F92070012010BD033822
:1054A000074B53F8200020B10368BDE810409B680B
:1054B00018474FF0FF3010BD70FB002054FB002058
:1054C00014FC0020022807DD0338064B53F82000A7
:1054D00020B10368DB681847012070474FF0FF30A8
:1054E000704700BF14FC0020022807DD0338064B7C
:1054F00053F8200020B103681B691847002070474B
:105500004FF0FF30704700BF14FC0020022808B5A0
:1055100004D84FF400534B60002008BD00F066F83B
:10552000092303604FF0FF3008BD08B5012000F0EB
:1055300063F8704708B5FEF7FDFDFFF7FAFFBDE819
:105540000840FFF737BB0000074A13681844EFF321
:105550000881884229BF054B10600C224FF0FF30B4
:105560002CBF1A6018467047A001002048FD00209B
:10557000074C08B523680546986800F05BF9236876
:10558000D86800F057F90DB1FDF729FAFEE700BF22
:10559000A4010020002102F0FDBA00F089B900F05A
:1055A00000B800F009BD00F000B810B5002814BF25
:1055B00004460124204600F0F7FC30B900F006F85C
:1055C00008B900F00BF88047F4E710BD024B1868EB
:1055D000BFF35B8F704700BF14FD002008B50620A5
:1055E00002F0BAFB0120FFF7C3FF0000014B18686F
:1055F000704700BFA401002008B5074B044613B153
:105600000021AFF30080054B1868836A03B1984707
:105610002046FFF7ADFF00BF0000000064CD00088A
:1056200070B505460C4611B90026304670BD18B15C
:1056300083690BB900F084F91F4B9C4232D16C682E
:10564000B4F90C30002BEFD02146284600F042F888
:10565000236B064633B1216A284698470028B8BF15
:105660004FF0FF36A3891B0603D52169284600F0B9
:10567000BFFF616B41B104F14403994202D0284657
:1056800000F0B6FF00236363A16C21B1284600F04F
:10569000AFFF0023A36400F0BFF90023A38100F053
:1056A000BCF9C2E7054B9C4201D1AC68C8E7044B8A
:1056B0009C4208BFEC68C3E724CD000844CD000835
:1056C00004CD0008024B01461868FFF7A9BF00BFD0
:1056D000A40100208A892DE9F041054610070C46F7
:1056E00058D44B68002B05DC0B6C002B02DC00202F
:1056F000BDE8F081E66A002EF9D0002312F4805252
:105700002F68216A2B6032D0606DA3895A0705D5B6
:105710006368C01A636B0BB1236CC01A0023024686
:10572000E66A216A2846B047431CA38906D1296846
:105730001D2948D8294ACA40D60744D500226260AC
:10574000D9042269226004D5421C01D12B6803B917
:105750006065616B2F600029C9D004F14403994250
:1057600002D0284600F044FF00206063C0E7012318
:105770002846B047411CC8D12B68002BC5D01D2B33
:1057800001D0162B01D12F60B1E7A38943F040036C
:10579000A381ADE70F69002FA9D093070E6808BF5A
:1057A0004B690F6018BF0023A6EB07088B60B8F1A8
:1057B000000F9CDD43463A46216AA66A2846B04758
:1057C000002806DCA38943F04003A3814FF0FF309B
:1057D0008EE70744A8EB0008E9E700BF010040207E
:1057E00038B50B6905460C46DBB118B183690BB9B6
:1057F00000F0A6F80C4B9C4209D16C68B4F90C304F
:105800007BB121462846BDE83840FFF763BF074B10
:105810009C4201D1AC68F1E7054B9C4208BFEC68A3
:10582000ECE7002038BD00BF24CD000844CD0008BF
:1058300004CD0008014620B9044B0549186800F062
:105840000FBA044B1868FFF7CBBF00BF64CD000848
:10585000E1570008A401002038B50C46054618B1F0
:1058600083690BB900F06CF80E4B9C420BD16C684D
:105870006368013B002B63600FDA21462846BDE8D0
:10588000384002F019B9084B9C4201D1AC68EFE7EF
:10589000064B9C4208BFEC68EAE723685A1C22606A
:1058A000187838BD24CD000844CD000804CD000888
:1058B000024B01461868FFF7CFBF00BFA4010020CC
:1058C000002310B50446C0E900338360818143663C
:1058D000C281C0E904338361194608225C3000F0BC
:1058E000EBFB054B6362054BA362054BE362054B83
:1058F0002462236310BD00BF257E00084B7E000894
:10590000837E0008A77E0008014900F0A9B900BF06
:10591000E157000870B54A1E682555430E4605F14B
:10592000740100F0B3FE044640B10021C0E9001646
:105930000C30A06005F1680200F0BEFB204670BD8F
:10594000836910B5044633BBC0E912330365124BBB
:10595000124A1B688262984204BF0123836100F0EF
:105960001FF86060204600F01BF8A060204600F0A1
:1059700017F80022E06004216068FFF7A1FF012210
:105980000921A068FFF79CFF02221221E068FFF7BF
:1059900097FF0123A36110BD64CD000809590008D9
:1059A000F8B51B4B1E68B369074613B93046FFF7BD
:1059B000C7FF4836D6E90134013B03D5336833B11C
:1059C0003668F7E7B4F90C506DB16834F4E7042198
:1059D0003846FFF79FFF30600028F1D10C233B6071
:1059E00004462046F8BD0B4B6566C4E90055A5602A
:1059F000C4E90335C4E905550822294604F15C00D1
:105A000000F05AFBC4E90D55C4E91255E9E700BF9F
:105A100064CD00080100FFFF70477047F7B50F46DF
:105A2000114601AA054604F061FB064618B9002498
:105A3000204603B0F0BD2846FFF7B2FF0446002819
:105A4000F5D04FF4DB73019A3946284601F056FF32
:105A5000002806DA0025FFF7DFFFA581FFF7DDFF4D
:105A6000E5E70A4B63620A4BA3620A4BE3620A4B07
:105A70002363F305E081A6812462D9D502230022A5
:105A80002146284600F03EF8D2E700BF257E0008F8
:105A90004B7E0008837E0008A77E0008024B0A4662
:105AA00001461868FFF7BABFA401002070B50E4682
:105AB0001446054618B183690BB9FFF741FF0A4B3D
:105AC0009C4207D16C68224631462846BDE87040AA
:105AD00001F026BF054B9C4201D1AC68F3E7044BB3
