:020000040800F2
:1000000000000220312E00087D2E00087D2E000801
:100010007D2E00087D2E00087D2E000800000000C7
:10002000000000000000000000000000992C000803
:100030007D2E000800000000ED2C00084D2D00086A
:100040007D2E00087D2E00087D2E00087D2E0008E4
:100050007D2E00087D2E00087D2E00087D2E0008D4
:100060007D2E00087D2E00087D2E00087D2E0008C4
:100070007D2E00087D2E00087D2E00087D2E0008B4
:100080007D2E00087D2E00087D2E00087D2E0008A4
:100090007D2E00087D2E00087D2E00087D2E000894
:1000A0007D2E00087D2E00087D2E00087D2E000884
:1000B0007D2E00087D2E00087D2E00087D2E000874
:1000C0007D2E00087D2E00087D2E00087D2E000864
:1000D0007D2E00087D2E00087D2E00087D2E000854
:1000E0007D2E00087D2E00087D2E00087D2E000844
:1000F0007D2E00087D2E00087D2E00087D2E000834
:100100007D2E00087D2E00087D2E00087D2E000823
:100110007D2E00087D2E00087D2E00087D2E000813
:100120007D2E00087D2E00087D2E00087D2E000803
:100130007D2E00087D2E00087D2E00087D2E0008F3
:100140007D2E00087D2E00087D2E00087D2E0008E3
:100150007D2E00087D2E00087D2E00087D2E0008D3
:100160007D2E00087D2E00087D2E00087D2E0008C3
:100170007D2E00087D2E00087D2E00080000000066
:100180007D2E00087D2E0008044B05481B1A062B07
:1001900002D9044B03B11847704700BFA7020020E3
:1001A000A40200200000000005490648091A891031
:1001B00001EBD171491002D0034B03B118477047CE
:1001C000A4020020A40200200000000010B5064C8C
:1001D000237843B9FFF7D8FF044B13B10448AFF3BA
:1001E00000800123237010BDA40200200000000045
:1001F00064DB000808B5084B1BB108490848AFF399
:1002000000800848036813B9BDE80840CCE7064BF6
:10021000002BF9D09847F7E700000000A802002063
:1002200064DB0008A002002000000000154B002B3A
:1002300008BF134B9D46A3F5803A00218B460F461D
:100240001348144A121A06F009F80F4B002B00D07D
:1002500098470E4B002B00D0984700200021040047
:100260000D000D48002802D00C48AFF3008005F0C7
:1002700001FE2000290005F0B9FA05F027FB00BFB8
:100280000000080000000220000000000000000044
:10029000A4020020F8FA0020000000000000000086
:1002A0002DE9F04FADF55D7D5CAF4FF4007200219C
:1002B00038461CAE05F0D2FF954D4FF480720021F8
:1002C000304605F0CBFF00234FF0FF321946286877
:1002D00002F01EF801281ED1002002F07FFE0490DB
:1002E00004A805F0EDFD8B4A034620210CA807F079
:1002F000DFFD13230CAA00938749884B884805F03B
:1003000041F98849864805F03DF900231A46194607
:10031000286801F031FF8448DFF818820068012363
:100320004FF0FF3202A901F0F3FF0024A1460023A1
:1003300019464FF0FF32D8F8000001F0E9FF002322
:100340004FF0FF321946286801F0E2FF01281FD163
:10035000002002F043FE049004A805F0B1FD6D4AB0
:10036000034620210CA807F0A3FD19230CAA009333
:1003700069496A4B6A4805F005F96C49684805F017
:1003800001F9634800231A461946006801F0F4FE9B
:10039000402200210CA805F061FFDFF89CB1029813
:1003A00004A900F047FE9DF811A0BBF1010B0AF073
:1003B000100A5FFA8AFA00F0A7800A2002F084FA95
:1003C000BAF1000FEBD040220CA9029800F08EFE8B
:1003D0000221029801F012F8029801F05CFC9DF8ED
:1003E0003030532B40F08B809DF83130542B40F04F
:1003F00086809DF83230412B40F081809DF833306B
:10040000522B7CD19DF83430542B78D19DF83B3061
:100410004F2B74D19DF83C304B2B70D19DF835306B
:100420009DF836009DF838109DF83A2003EB002027
:100430009DF8373003EB01219DF8393003EB02239F
:100440000CAA1A44127B442A59D10CAA1A4492F8D5
:100450000BE0BEF14E0F52D1927A452A4FD14FF0A8
:10046000300C0CFB01FC0022033B9A420BD20DF135
:10047000300A02EB0C0E9244BE449AF80DA00EF81E
:1004800030AC0132F1E788421C4438D1002306F831
:1004900003900133B3F5807FF9D10023A34203D049
:1004A000FA5CF2540133F9E700234FF0FF321946AA
:1004B000286801F02DFF012820D1002002F08EFDD8
:1004C000039003A805F0FCFC124A0346202104A86F
:1004D00007F0EEFC4C23009304AA104B0E49104881
:1004E00005F050F8324612490D4805F04BF808481F
:1004F00000231A461946006801F03EFE0024402100
:10050000029800F064FF12E70DF55D7DBDE8F08F05
:10051000CC020020BCCB0008E9CB0008D1CB0008FE
:1005200054030020FDCB0008C402002015CC0008B5
:1005300027CC00086C03002090D0030070B504465F
:100540000D4616460021102205F088FE2046324650
:10055000294602F0D5FC204670BD000070B5B84CAD
:100560000023B6B04FF0FF321946206801F0D0FEEC
:10057000012820D1002002F031FD36AB43F8540DA4
:10058000184605F09DFCAF4A0346202129A807F034
:100590008FFC122329AA0093AB49AC4BAC4804F062
:1005A000F1FFAC49AA4804F0EDFF00231A461946B2
:1005B000206801F0E1FD4FF0FF36052306220721F8
:1005C000009629A804F0B2FE0122022108A8FFF734
:1005D000B5FF012245210CA8FFF7B0FF00224321FF
:1005E00010A8FFF7ABFF0022232114A8FFF7A6FFF6
:1005F0000122212118A8FFF7A1FF0CAB08AA29A905
:100600001CA800F0F7FC1CA800F016FE054638BB3D
:10061000034601463246206801F07AFE01281FD1C8
:10062000284602F0DBFC069006A805F049FC854A46
:100630000346202121A807F03BFC1E2321AA00939A
:100640008149824B824804F09DFF8349804804F031
:1006500099FF7B482B462A462946006801F08CFD0D
:100660001CA800F06FFF054640BB034601464FF053
:10067000FF32206801F04CFE01281FD1284602F00D
:10068000ADFC069006A805F01BFC6E4A034620212F
:1006900021A807F00DFC232321AA00936A496B4B84
:1006A0006B4804F06FFF6D49694804F06BFF6448C4
:1006B0002B462A462946006801F05EFD0F211CA842
:1006C00001F0CCFA054640BB034601464FF0FF322D
:1006D000206801F01DFE01281FD1284602F07EFC93
:1006E000069006A805F0ECFB564A0346202121A8F7
:1006F00007F0DEFB282321AA00935349534B5448AB
:1007000004F040FF5649524804F03CFF4C482B4649
:100710002A462946006801F02FFD08230093032292
:10072000062304211CA801F079FA054640BB0346C4
:1007300001464FF0FF32206801F0EAFD01281FD189
:10074000284602F04BFC069006A805F0B9FB3D4A8E
:100750000346202121A807F0ABFB2D2321AA0093FB
:1007600039493A4B3A4804F00DFF3E49384804F005
:1007700009FF33482B462A462946006801F0FCFC55
:1007800006A91CA800F08AFD054640BB03460146A9
:100790004FF0FF32206801F0BBFD01281FD1284631
:1007A00002F01CFC049004A805F08AFB254A0346CD
:1007B000202121A807F07CFB332321AA00932249A2
:1007C000224B234804F0DEFE2749214804F0DAFEDC
:1007D0001B482B462A462946006801F0CDFC002321
:1007E0004FF0FF321946206801F092FD01283FD1F9
:1007F000002002F0F3FB049004A805F061FB114A0D
:100800000346202121A807F053FB3523009321AA9A
:100810000E4B0D490E4804F0B5FE9DF81A309DF8B8
:10082000192012490A4803EB022204F0ABFE0448E7
:1008300000231A461946006801F09EFC18E000BF2C
:10084000CC020020BCCB0008E9CB00082ACC000871
:100850005403002035CC000844CC000855CC0008D7
:1008600075CC00088DCC0008A6CC0008BBCC0008D5
:10087000B5491CA800F0D4FD054640BB034601461F
:100880004FF0FF32206801F043FD01281FD12846B8
:1008900002F0A4FB049004A805F012FBAB4A034647
:1008A000202121A807F004FB392321AA0093A8499D
:1008B000A84BA94804F066FEA849A74804F062FEC8
:1008C000A7482B462A462946006801F055FC00231C
:1008D0004FF0FF321946206801F01AFD012820D19F
:1008E000002002F07BFB049004A805F0E9FA974A87
:1008F0000346202121A807F0DBFA3B23009321AA1D
:10090000944B9349944804F03DFE8F4A9549924890
:1009100004F038FE924800231A461946006801F098
:100920002BFC0022002304A91CA8CDE9042300F01D
:10093000DFFC054650BB034601464FF0FF322068FE
:1009400001F0E6FC012821D1284602F047FB36AB36
:1009500043F8CC0D184605F0B3FA7C4A0346202133
:1009600021A807F0A5FA402321AA00937849794BE2
:10097000794804F007FE7C49774804F003FE784884
:100980002B462A462946006801F0F6FB05211CA8E3
:1009900000F034FD054658BB034601464FF0FF32D8
:1009A000206801F0B5FC012822D1284602F016FB90
:1009B00036AB43F8CC0D184605F082FA634A03467D
:1009C000202121A807F074FA4523009321AA614B46
:1009D0005F49614804F0D6FD052264495E4804F091
:1009E000D1FD5F482B462A462946006801F0C4FB2A
:1009F0004FF4967001F068FF02211CA800F0FEFC85
:100A0000054658BB034601464FF0FF32206801F00F
:100A10007FFC012822D1284602F0E0FA36AB43F8E9
:100A2000CC0D184605F04CFA484A0346202121A86F
:100A300007F03EFA4C23009321AA464B444946480E
:100A400004F0A0FD02224949434804F09BFD4448BC
:100A50002B462A462946006801F08EFB07211CA878
:100A600000F0CCFC054658BB034601464FF0FF3270
:100A7000206801F04DFC012822D1284602F0AEFA90
:100A800036AB43F8CC0D184605F01AFA2F4A034648
:100A9000202121A807F00CFA5123009321AA2D4B05
:100AA0002B492D4804F06EFD072230492A4804F0F6
:100AB00069FD2B482B462A462946006801F05CFB5D
:100AC0001CA801F0E8F8054650BB034601464FF06C
:100AD000FF32206801F01CFC012821D1284602F0D9
:100AE0007DFA36AB43F8CC0D184605F0E9F9174A04
:100AF0000346202121A807F0DBF9562321AA009301
:100B00001349144B144804F03DFD1949124804F0F0
:100B100039FD13482B462A462946006801F02CFB74
:100B20000F4E144915221CA801F0F0F805460028C4
:100B30003FD1034601464FF0FF32206801F0E8FB49
:100B4000012860D118E000BF8047A119BCCB000884
:100B5000E9CB00082ACC000854030020CDCC0008C3
:100B6000CC020020ECCC00080DCD00082ACD0008F6
:100B70004FCD000868CD0008284602F02FFA36ABAA
:100B800043F8CC0D184605F09BF9214A0346202175
:100B900021A807F08DF95C23009321AA1D4B1E4963
:100BA0001E4804F0EFFC1E491C4804F0EBFC2B46E9
:100BB00024E000234FF0FF321946206801F0A8FB23
:100BC000012820D1002002F009FA36AB43F8CC0D01
:100BD000184605F075F90E4A0346202121A807F0B2
:100BE00067F96023009321AA0A4B0B490B4804F0D4
:100BF000C9FC0C49094804F0C5FC00231A461946F3
:100C0000306801F0B9FA4FF47A7001F05DFE88E7C0
:100C1000BCCB00082ACC0008E9CB00085403002014
:100C20007ECD000899CD000807B5104A9368196871
:100C30005368194201D1D26801E0D2681B0402A9AD
:100C40001360002341F8043D094B186801F037FB9D
:100C5000019B3BB1074B4FF080521A60BFF34F8F9F
:100C6000BFF36F8F03B05DF804FB00BFD402002018
:100C70006C03002004ED00E02DE9F043BF4C00239D
:100C80008FB04FF0FF321946206801F041FB012878
:100C90001ED1002002F0A2F9049004A805F010F97A
:100CA000B74A0346202106A807F002F90F2306AA37
:100CB0000093B449B44BB54804F064FCB449B3485C
:100CC00004F060FC00231A461946206801F054FA2B
:100CD000342004F0C5FD4FF0FF352A232B222C21B0
:100CE0000095814604F022FB102004F0B9FD10228B
:100CF0000646002105F0B2FA01222921304602F011
:100D0000FFF8102004F0ACFD10220746002105F08A
:100D1000A5FA01223D21384602F0F2F8142004F031
:100D20009FFD3B4632464946804600F063F90EA9D6
:100D3000984841F8308D00232A46006801F01CFADB
:100D400000232A461946206801F0E2FA01281FD143
:100D5000002002F043F9049004A805F0B1F8884A95
:100D60000346202106A807F0A3F8172306AA00933C
:100D70008449854B854804F005FC8749834804F085
:100D800001FC7E4800231A461946006801F0F4F978
:100D9000029800F051FA054640BB034601464FF069
:100DA000FF32206801F0B4FA01281FD1284602F072
:100DB00015F9049004A805F083F8714A0346202130
:100DC00006A807F075F81A2306AA00936D496E4B22
:100DD0006E4804F0D7FB71496C4804F0D3FB6748B8
:100DE0002B462A462946006801F0C6F900234FF039
:100DF000FF321946206801F08BFA01281FD100202C
:100E000002F0ECF8049004A805F05AF85C4A034696
:100E1000202106A807F04CF81C2306AA0093594984
:100E2000594B5A4804F0AEFB5D49584804F0AAFB00
:100E3000524800231A461946006801F09DF908231C
:100E400018221A21029800F02EFA08230093032298
:100E500006230421029800F0E1FE029800F028FD2C
:100E6000054640BB034601464FF0FF32206801F0C3
:100E70004FFA01281FD1284602F0B0F8049004A8C8
:100E800005F01EF83E4A0346202106A807F010F898
:100E9000242306AA00933B493B4B3C4804F072FBD9
:100EA00040493A4804F06EFB34482B462A4629460E
:100EB000006801F061F93C49029800F0B1FA06219E
:100EC000029800F09BFA0221029800F097FA02982B
:100ED00000F0E1FE04A9029800F0E0F9054650BBDD
:100EE000034601464FF0FF32206801F011FA012855
:100EF00021D1284602F072F80EAB43F82C0D1846AB
:100F000004F0DEFF1E4A0346202106A806F0D0FFAB
:100F10002F2306AA00931B491B4B1C4804F032FBED
:100F200022491A4804F02EFB14482B462A4629462B
:100F3000006801F021F900234FF0FF3219462068C4
:100F400001F0E6F9012842D1002002F047F80EAB8B
:100F500043F82C0D184604F0B3FF094A034620213C
:100F600006A806F0A5FF3123009306AA064B054903
:100F7000064804F007FB9DF8123019E0CC0200206F
:100F8000BCCB0008E9CB0008B5CD00085403002015
:100F9000C0CD0008C4020020CFCD0008E4CD000879
:100FA000FECD000813CE0008400ECF1928CE000851
:100FB0009DF811200B490C4803EB022204F0E2FAE1
:100FC0000A4800231A461946006801F0D5F8084A75
:100FD0000298402100F036FF4FF47A7001F074FC63
:100FE000FAE700BF3DCE000854030020CC020020E9
:100FF000290C000810B54160D968C3605B68826045
:101000000B60D36852681A600446012001F032F97F
:1010100042F21073206023616068054904F0D6F93C
:1010200060680022082104F0C7F9204610BD00BF07
:1010300080969800002370B54FF0FF3204460D46AD
:101040000068194601F064F901281ED1A3686068A0
:10105000DA685B681B041360036850211B689847BB
:101060006E1E033560680368FF211B68984706F809
:10107000010FAE42F6D1A3682068DA685B6813609E
:1010800000231A46194601F077F8012070BDF8B523
:10109000002304460D46164619464FF0FF320068FD
:1010A00001F036F901281FD1A3686068DA685B682F
:1010B0001B041360036866211B68984700235F1CAC
:1010C000DBB2B34206D26068E95C026812689047FE
:1010D0003B46F4E7A3682068DA685B681360002386
:1010E0001A46194601F048F80120F8BD00232DE901
:1010F000F04104460E46174619464FF0FF3200688D
:1011000001F006F9012821D1A3686068DA685B68FC
:101110001B041360036877211B6898470023DDB226
:10112000BD4203F1010807D260680368FF211B6814
:10113000984743467055F2E7A3682068DA685B6811
:10114000136000231A46194601F016F80120BDE885
:10115000F0812DE9F8431D460023044688461646D3
:1011600019464FF0FF32006801F0D2F8012860D133
:10117000A368DA685B6808F1FF371B04013E13605F
:101180004644B946B14506D0606819F8011F0368A6
:101190001B689847F6E7A368DA685B68136001206C
:1011A00001F092FBA368DA685B681B0413600026F9
:1011B0002369B3421BD96068036844211B689847C0
:1011C00060680368FF211B689847C0B2FF2806F1DA
:1011D00001060CD0A368DA685B681360012001F097
:1011E00073FBA368DA685B681B041360E0E723699C
:1011F000B34208D800231A461946206800F0BCFF05
:101200000020BDE8F883013D4544AF4207D0606847
:101210000368FF211B68984707F8010FF5E7A368EB
:101220002068DA685B68136000231A46194600F0EC
:10123000A3FF0120BDE8F883002313B54FF0FF3270
:1012400004461946006801F063F8012813D1E368E9
:10125000DA685B68136001F037FBE368DA685B68A3
:101260001B0413600F2001F02FFB00231A461946C0
:10127000206800F081FF084B18689A889B790090DD
:10128000ADF804208DF80630072200236946204679
:10129000FFF75FFF02B010BD4FCE000801220A70B9
:1012A0000823FFF756BF37B5002401941324082BF9
:1012B0008DF800404FF003054FF002048DF8011047
:1012C0008DF802204FF000034FF0080269468DF8B8
:1012D00003408DF8045004BF8DF803508DF804408E
:1012E000FFF737FF003018BF012003B030BD00000A
:1012F000F7B500230093019314238DF800301023D9
:101300000D468DF80130022208236946FFF721FFC0
:1013100004469DF804000BF08DF800221D4B0BF0E5
:10132000FFF806469DF805000F460BF083F80246CD
:101330000B46304639460AF041FF06469DF8060046
:101340000F460BF077F80022134B0AF037FF00220C
:10135000124B0BF0E5F802460B46304639460BF0CF
:10136000DFF806469DF807000F460BF063F80022F1
:101370000B4B0BF0D5F80022064B0AF01FFF02467C
:101380000B46304639460AF017FFC5E900012046F2
:1013900003B0F0BD00007040000089400000303F05
:1013A0000000E03F1FB50023312202938DF8082092
:1013B0000A0A8DF80B208DF80C10052202A9FFF700
:1013C000C8FE003018BF012005B05DF804FB1FB552
:1013D0000023322202938DF808200A0A8DF80B2090
:1013E000082203938DF80C100DEB0201FFF7B1FEFC
:1013F000003018BF012005B05DF804FB07B53423A9
:101400008DF804308DF805100023022201A9FFF7A2
:10141000A0FE003018BF012003B05DF804FB0000FF
:101420002DE9FF41414B994206460C466AD8404B94
:1014300099426BD8A3F12463A3F50343994269D879
:101440003C4B99426AD83C4B994295BF05230423F3
:101450004FF018084FF0100820228DF801200122CB
:10146000083300258DF80220512211278DF8032022
:101470008DF8043005222B46694630468DF8007001
:10148000FFF767FE00284DD007EE904A2B4B93FBE9
:10149000F8F3F8EE676A07EE903AB4FBF3F2B8EEB1
:1014A000E77A013AC6EE877A40248DF80C2002953F
:1014B0008DF8094004248DF808708DF80A4007EE75
:1014C000102AB8EE477A082277EEC77A9FED1C7A89
:1014D00067EE877AFCEEE77A17EE903A190CA3EBE9
:1014E0000143180A8DF80D108DF80E008DF80F309D
:1014F0000DEB02012B463046FFF72BFE401B18BFB9
:1015000001200FE000234FF00408A5E701234FF06E
:101510000608A1E702234FF008089DE703234FF0D8
:101520000C0899E704B0BDE8F08100BF3F72052ABE
:101530003FDD4A1FBFD93E0E3FCE8C0A0087930382
:1015400000000049F0B5084DC3B004462B79286867
:1015500001908DF808300522002301A92046FFF7ED
:10156000F8FD18B9002092E156CE00082B4605225E
:1015700053F8050F03901B798DF8103003A9002351
:101580002046FFF7E6FD0028ECD02B46062253F854
:101590000A0F13909B88ADF8503013A90023204602
:1015A000FFF7D7FD0028DDD02B46052253F8100F9A
:1015B00005901B798DF8183005A900232046FFF708
:1015C000C8FD0028CED02B46052253F8150F0790F2
:1015D0001B798DF8203007A900232046FFF7B9FDBD
:1015E0000028BFD02B4615A953F81A0F15909A88DA
:1015F0009B79ADF858208DF85A30072200232046F9
:10160000FFF7A7FD0028ADD02B46052253F8210F88
:1016100009901B798DF8283009A900232046FFF78F
:1016200098FD00289ED02EAA05F1260317463635D0
:1016300018685968164603C60833AB423246F7D1DC
:101640000023102239462046FFF783FD002889D069
:10165000904B32AA03F1100796463E461868596827
:10166000154603C50833BB422A46F7D10023102292
:1016700071462046FFF76DFD00283FF473AF3068D8
:1016800033790B908DF83030052200230BA92046CA
:10169000FFF75FFD00283FF465AF7F4D286869685C
:1016A0001DAB03C3A86818600C2200231DA92046A7
:1016B000FFF74FFD00283FF455AF26AA05F10C03B4
:1016C0001746143518685968164603C60833AB42E6
:1016D0003246F7D118681B79306033710D22002330
:1016E00039462046FFF735FD00283FF43BAF6B4DF0
:1016F00028686968AA7A17AB03C3298919809A7088
:1017000017A900230B222046FFF723FD00283FF4F2
:1017100029AF2B46052253F80B0F0D901B798DF83E
:1017200038300DA900232046FFF713FD00283FF4B1
:1017300019AF2AAA05F11003174618351868596819
:10174000164603C60833AB423246F7D118681B79F8
:10175000306033710D22002339462046FFF7F9FC33
:1017600000283FF4FFAE4E4D2868696820AB03C3E4
:10177000A86818600C22002320A92046FFF7E9FC86
:1017800000283FF4EFAE2B46052253F80C0F0F90C4
:101790001B798DF840300FA900232046FFF7D9FCB4
:1017A00000283FF4DFAE2B46052253F8110F1190AD
:1017B0001B798DF8483011A900232046FFF7C9FC9A
:1017C00000283FF4CFAE36AA05F11603174626359A
:1017D00018685968164603C60833AB423246F7D13B
:1017E0000023102239462046FFF7B3FC00283FF4BF
:1017F000B9AE2C4B3AAA03F110071646186859687F
:10180000154603C50833BB422A46F7D100231022F0
:1018100031462046FFF79DFC00283FF4A3AE224B43
:101820003EAA03F1100796463D46186859681646C9
:1018300003C60833BB423246F7D10023102271465B
:101840002046FFF786FC00283FF48CAE28686968C4
:10185000AA7A1AAB03C3298919809A701AA900239E
:101860000B222046FFF775FC00283FF47BAE0F4AA1
:101870001068516823AB03C3906818600C220023E2
:1018800023A92046FFF765FC003018BF012043B0B4
:10189000F0BD00BF8CCE0008A1CE0008BACE000873
:1018A000D7CE0008FDCE00080DCF000828CF0008D5
:1018B000F0B5084DC1B004462B79286800908DF82A
:1018C00004300522002369462046FFF742FC18B980
:1018D000002091E156CE00082B46052253F8050F53
:1018E00002901B798DF80C3002A900232046FFF7E7
:1018F00030FC0028ECD02B4610A953F8DE0F1090D6
:101900009A889B79ADF844208DF846300722002351
:101910002046FFF71EFC0028DAD02B46052253F89C
:10192000150F04901B798DF8143004A9002320466C
:10193000FFF70FFC0028CBD02B4612A953F81A0F43
:1019400012909A889B79ADF84C208DF84E30072282
:1019500000232046FFF7FDFB0028B9D02B460522C7
:1019600053F8210F06901B798DF81C3006A900232F
:101970002046FFF7EEFB0028AAD02CAA05F126038B
:101980001746363518685968164603C60833AB4201
:101990003246F7D10023102239462046FFF7D9FB03
:1019A000002895D0954B30AA03F1100796463E4685
:1019B00018685968154603C50833BB422A46F7D153
:1019C0000023102271462046FFF7C3FB00283FF496
:1019D0007FAF3068337908908DF8243005220023DA
:1019E00008A92046FFF7B5FB00283FF471AF844DEE
:1019F000286869681AAB03C3A86818600C22002322
:101A00001AA92046FFF7A5FB00283FF461AF20AAE2
:101A100005F10C031746143518685968164603C6B5
:101A20000833AB423246F7D118681B793060337106
:101A30000D22002339462046FFF78BFB00283FF498
:101A400047AF704D28686968AA7A14AB03C3298927
:101A500019809A7014A900230B222046FFF779FB06
:101A600000283FF435AF2B46052253F80B0F0A90A0
:101A70001B798DF82C300AA900232046FFF769FB5B
:101A800000283FF425AF24AA05F1100317461835A6
:101A900018685968164603C60833AB423246F7D178
:101AA00018681B79306033710D22002339462046B7
:101AB000FFF74FFB00283FF40BAF534B28AA03F16D
:101AC0000807164618685968154603C50833BB420F
:101AD0002A46F7D1186899889B792860A980AB714C
:101AE0000F22002331462046FFF733FB00283FF446
:101AF000EFAE464D28682B790C908DF834300522D6
:101B000000230CA92046FFF724FB00283FF4E0AE99
:101B10002B46052253F8050F0E901B798DF83C30AB
:101B20000EA900232046FFF714FB00283FF4D0AE97
:101B300034AA05F10A0317461A351868596816467B
:101B400003C60833AB423246F7D100231022394690
:101B50002046FFF7FEFA00283FF4BAAE2C4B38AA15
:101B600003F11007164618685968154603C508336F
:101B7000BB422A46F7D10023102231462046FFF708
:101B8000E8FA00283FF4A4AE224B3CAA03F1100768
:101B900096463D4618685968164603C60833BB4248
:101BA0003246F7D10023102271462046FFF7D1FAC2
:101BB00000283FF48DAE28686968AA7A17AB03C382
:101BC000298919809A7017A900230B222046FFF754
:101BD000C0FA00283FF47CAE0F4A106851681DAB74
:101BE00003C3906818600C2200231DA92046FFF74C
:101BF000B0FA003018BF012041B0F0BD8CCE000813
:101C0000A1CE0008BACE00083BCF0008E3CE000802
:101C1000FDCE00080DCF000828CF000837B50024FE
:101C2000112500948DF806308DF800509DF818307D
:101C30008DF8041002258DF801508DF805208DF8DF
:101C4000073004252346082269468DF80250FFF725
:101C500080FA001B18BF012003B030BD13B500236C
:101C6000112200938DF8002022228DF801200422F9
:101C700001938DF802208DF8051008221D24694675
:101C80008DF804208DF80740FFF763FA003018BF85
:101C9000012002B010BD07B500230093019320235B
:101CA0008DF80030042208236946FFF752FA00300D
:101CB00018BF012003B05DF804FB73B50646144657
:101CC000FFF7E5F908B900201EE021463046FFF78E
:101CD00069FB0028F7D04FF4FA7401A93046FFF7EA
:101CE000A9F99DF8045005F02005EDB2012000F09F
:101CF000EBFD25B9013CA4B2002CEED100E001249B
:101D00003046FFF7C8FF204602B070BD2DE9F0470E
:101D100094B017460E4681464022002104A804F0E4
:101D20009DFA3023B7FBF3F503FB15775FFA87F8CD
:101D300033230135029308F10D0AFB1C0095039330
:101D4000303601245FFA8AFA53238DF81030542379
:101D50008DF811308DF814309DF800308DF8153065
:101D600041229DF801308DF812208DF81630522254
:101D7000C4F30723AC4201948DF813208DF817406B
:101D80008DF818302ED19DF80C308DF819309DF853
:101D90000D308DF81A304F238DF81B304B238DF802
:101DA0001C300023BB4207D0F11804AA1A4411F8D2
:101DB000301C51730133F5E714AB5344452203F84B
:101DC000402C14AA08F10E0352FA83F34E2203F8B2
:101DD000402C14AA08F10F0352FA83F3442203F8AB
:101DE000402C20E09DF808308DF819309DF809301E
:101DF0008DF81A304F238DF81B304B238DF81C3093
:101E00000023F11804AA1A44013311F8301C51734D
:101E1000302BF6D145238DF84D304E238DF84E30C2
:101E200044238DF84F30402204A948460134FFF77F
:101E300044FFA54206F1300686D2012014B0BDE869
:101E4000F0870000F0B585B017460C460646FFF750
:101E500022FF542003F004FD3921054603F00EFA59
:101E60000D4B394628461D6003F034FA0023322218
:101E700002938DF80820220A8DF80B2008220DEB22
:101E80000201304603938DF80C40FFF762F90030F1
:101E900018BF012005B0F0BDC0020020704700004F
:101EA00010B5064B036003F118024C33044642653B
:101EB0008365543003F054FB204610BDB4D30008B2
:101EC000A0F15400ECE7A0F15800E9E710B5044692
:101ED00003F0C4FC204610BD10B50446FFF7E0FF38
:101EE000204603F0BBFC204610BDA0F15400F3E7F0
:101EF000A0F15800F0E7000010B5012203210D48C1
:101F00000D4CFEF71BFB00221A210C48FEF716FBB6
:101F100000221B210A48FEF711FB01220021204666
:101F2000084B03F073FA2046074A0849BDE8104001
:101F300003F08FBCF002002000030020700300209B
:101F4000D40200204ACF000888010020A11E00080A
:101F500000F1080343604FF0FF32C36003610023C8
:101F600082600360704700230361704743684B60E1
:101F70009A688A609A6851609960036808610133C1
:101F8000036070470A68531C30B501D1036907E04C
:101F900000F108035C682568AA4201D32346F9E7EB
:101FA0005A684A6091608B60596003680861013328
:101FB000036030BD4168826803698A60826851604D
:101FC0005968884208BF5A600022026118680138C7
:101FD0001860704738B51546026C044632B905687A
:101FE00045BB406800F0DEFD656024E06DB98068A7
:101FF00004F00EF9A268236C13446268A360934254
:1020000018D32368A360284615E0C06804F000F9DF
:10201000236CE26821685B421A448A42E2603EBF58
:1020200062689B18E360022D04D1A36B13B1A36B0C
:10203000013BA3630020A36B0133A36338BD0346B8
:1020400010B41A6C084662B1D9685C681144A142A8
:10205000D96024BF1968D960D9685DF8044B04F0D1
:10206000D7B85DF8044B704738B5044600F024FE3D
:1020700004F12405A36C002B0BDD636A4BB12846E9
:1020800000F0DAFC08B100F041FDA36C013BA36451
:10209000F0E74FF0FF33A36400F01EFE00F00CFEEB
:1020A00004F11005636C002B0BDD23694BB128464E
:1020B00000F0C2FC08B100F029FD636C013B6364D1
:1020C000F0E74FF0FF336364BDE8384000F004BE32
:1020D00038B504460D4600F0EFFD206CE36B226836
:1020E000A2604343D1181B1A13446160E3600021CE
:1020F0004FF0FF33A1636364A36485B92369B3B16F
:1021000004F1100000F098FC012810D10A4B4FF0A8
:1021100080521A60BFF34F8FBFF36F8F07E004F157
:102120001000FFF715FF04F12400FFF711FF00F086
:10213000D3FD012038BD00BF04ED00E0F8B5064630
:1021400017460D4611B14843013000E008465430AF
:1021500000F044FE044668B10DB9206002E000F1D1
:1021600054030360E663256401212046FFF7B0FFB6
:1021700084F850702046F8BD2DE9FF470026DFF8AF
:10218000F0A00192044689461F46B04600F094FD37
:10219000A26BE36B9A4201D3022F1AD13A46494609
:1021A0002046FFF717FF636A33B104F1240000F003
:1021B00043FC012809D100E038B12D4B4FF080528B
:1021C0001A60BFF34F8FBFF36F8F00F085FD0120C2
:1021D0004AE0019D1DB900F07FFD284644E016B994
:1021E00002A800F061FC00F077FD00F06DFA00F04D
:1021F00063FD636C013308BFC4F84480A36C0133F2
:1022000008BFC4F8488000F067FD01A902A800F0EB
:1022100057FC18BB00F050FDA66BE56B00F05CFDB1
:10222000AE4215D1019904F1100000F0D7FB204611
:10223000FFF71AFF00F0DCFA08B10126A6E74FF01D
:102240008053CAF80030BFF34F8FBFF36F8FF4E7AE
:102250002046FFF709FF00F0CBFAEEE72046FFF734
:1022600003FF00F0C5FA002004B0BDE8F08700BF0E
:1022700004ED00E070B50646542000F0AFFD0446C2
:10228000D8B101230025C3634FF0FF338563456058
:102290004364056083648560C560056480F85060B0
:1022A0001030FFF755FE04F12400FFF751FE2B46D6
:1022B0002A4629462046FFF75FFF204670BD38B505
:1022C0000C46EFF311854FF4807383F31188BFF34D
:1022D0006F8FBFF34F8F826BC36B9A4214D2836BA5
:1022E00001338363836C013309D1436A53B12430D2
:1022F00000F0A2FB30B12CB10120206005E0836C1E
:1023000001338364012000E0002085F3118838BD8B
:102310002DE9FF470026DFF814A101920446884604
:102320009946374600F0C8FCA36B63B3414620468C
:10233000E568FFF784FEB9F1000F10D1A36B013BF4
:10234000A363236813B900F065FC60602369B3B12F
:1023500004F1100000F070FB012810D107E0636A5F
:10236000E56063B104F1240000F066FB38B12F4B47
:102370004FF080521A60BFF34F8FBFF36F8F00F0A2
:10238000ABFC01204FE0019D1DB900F0A5FC2846E3
:1023900049E016B902A800F087FB00F09DFC00F0B0
:1023A00093F900F089FC636C013308BF6764A36C88
:1023B000013308BFA76400F08FFC01A902A800F058
:1023C0007FFB50BB00F078FCA56B00F085FCF5B9F5
:1023D000236833B900F070FC606800F09DFB00F0EA
:1023E0007BFC019904F1240000F0F8FA2046FFF785
:1023F0003BFE00F0FDF908B1012693E74FF0805352
:10240000CAF80030BFF34F8FBFF36F8FF4E7204659
:10241000FFF72AFE00F0ECF9EEE72046FFF724FE76
:1024200000F0E6F9002004B0BDE8F08704ED00E01C
:10243000064A13681968064B11B94FF0FF3203E0E2
:102440001268D268D26852681A607047840300200C
:10245000D00400200E4B1A6810B550600D4A126867
:102460009042044607D20C4A10681968BDE8104033
:102470000431FFF787BD094A106819680431FFF776
:1024800081FD074B1A68944238BF1C6010BD00BF25
:10249000B0040020CC040020A4030020840300200A
:1024A000D00400202DE9F84F9A460C9B0A9F8146E4
:1024B0000E4615463BB9900000F090FC834600287C
:1024C00000F0B28000E09B46582000F087FC0446F4
:1024D00088B1AD002A46C0F830B0A521584603F0B7
:1024E000BDFE236B043D1D4425F00705731E04F15A
:1024F00033020B3605E0584600F098FC94E09E420B
:1025000006D013F8011F02F8011F19780029F6D12F
:102510000B2F4FF00008BB4604F1040628BF4FF014
:102520000B0B304684F83F80C4F82CB0C4F848B098
:10253000C4F84C80FFF717FD04F11800FFF713FDF6
:10254000CBF10C03A361C4F850802461646284F869
:10255000548052464946284600F08CFB0B9B206075
:1025600003B11C6000F0A8FB314A324D1368DFF85C
:10257000EC90013313602B683BBB2C601268012A7E
:102580002BD1984609EB080008F11408FFF7E0FC8E
:10259000B8F1F00FF6D1DFF8C8A0DFF8C8805046D8
:1025A000FFF7D6FC4046FFF7D3FC2348FFF7D0FCEB
:1025B0002248FFF7CDFC2248FFF7CAFC214BC3F8A5
:1025C00000A0214BC3F8008007E0204B1B6823B913
:1025D0002B68DB6A9F4228BF2C601D4A1D49136887
:1025E00001331360E26A23640B68012404FA02F0E9
:1025F000034314200B6000FB02903146FFF7B6FC4A
:1026000000F06AFB114B1B685BB12B68DB6A9F42D1
:1026100007D9114B4FF080521A60BFF34F8FBFF3B1
:102620006F8F2046BDE8F88F4FF0FF30BDE8F88F80
:10263000D8040020B0040020B40400209C04002032
:10264000F004002084030020A4030020880300205D
:10265000D40400200405002004ED00E0AC030020B9
:1026600090030020DC0400201FB500240394029492
:1026700001940094234650220E490F48FFF712FFA1
:10268000012814D14FF4807383F31188BFF36F8F47
:10269000BFF34F8F094B4FF0FF321A60084B1860A1
:1026A000084B1C6004B0BDE8104000F07BBB04B0D8
:1026B00010BD00BF54CF000829290008D004002015
:1026C00088030020CC040020024A13680133136001
:1026D000704700BFC80400203A4B1B682DE9F74F34
:1026E000002B30D1384B1A6801321A601D685DB971
:1026F000364A374B116818681060364A19601368FB
:1027000001331360FFF794FE334C01942368334E7A
:10271000334F9D424FF0000B0BD3DFF8B080DFF852
:10272000CC90D8F800201268A2B9019B4FF0FF327C
:102730001A603A68D16A14224A43B258022A28BF62
:102740004FF0010B34E0274A1368013313604FF058
:10275000000B2DE0D8F80020D268D46861688D4263
:1027600002D2019B1960E4E704F1040A5046FFF726
:1027700021FCA16A19B104F11800FFF71BFCE06A03
:10278000D9F80010012303FA00FE4EEA01014FF0D0
:10279000140EC9F800100EFB00605146FFF7E6FB6F
:1027A0003868E16AC26A914228BF4FF0010BB8E76E
:1027B0000D4A1268002A18BF4FF0010B584603B0AB
:1027C000BDE8F08FC8040020CC0400208403002062
:1027D000A403002080030020D0040020AC030020CC
:1027E000B0040020A80300200805002004050020F4
:1027F0002DE9F84300F060FA2A4B1A68013A1A6092
:102800001B680BB1002447E0274B1B68002BF9D055
:10281000264D274EDFF8AC802B6803B3EB68DC68ED
:1028200004F1040904F11800FFF7C4FB4846FFF760
:10283000C1FBE26A3368012707FA02F114200B4357
:1028400000FB028049463360FFF790FB194BE26AB8
:102850001B68DB6A9A42DFD3174B1F60DAE7174C1D
:10286000236863B9144B1C68012CCBD1144B4FF077
:1028700080521A60BFF34F8FBFF36F8F0CE00E4D85
:1028800001262368002BEDD0FFF726FF00B12E6054
:102890002368013B2360F4E700F01EFA2046BDE800
:1028A000F88300BFC8040020D8040020B40400202E
:1028B00004050020B004002008050020A803002023
:1028C00004ED00E0AC03002038B540B9124B4FF0E6
:1028D00080521A60BFF34F8FBFF36F8F38BDFFF781
:1028E000F3FE0E4B0E4D1B68C41828680430FFF72A
:1028F00061FB40B92B680B49D86A0A680123834001
:1029000022EA03030B602046FFF7A4FDFFF770FFE8
:102910000028DBD038BD00BF04ED00E0CC0400206F
:10292000B00400200405002080B5124D2E46124F41
:102930002B68002BFBD0FFF7C7FE3C68FFF758FF62
:10294000002CF5D000F0B8F90B4BDB68DC68201DDB
:10295000FFF730FB094A1368013B13603368013B02
:10296000336000F0B9F9206B00F060FA204600F007
:102970005DFADDE78C0300209C040020D8040020D1
:10298000114B1A68114B30B50AB101221AE01A60D6
:102990000F4B1B68B3FA83F3DBB20E49C3F11F037D
:1029A000142000FB03F28C18083265686D686560BE
:1029B0000A44954204BF6A68626000FB03135B68C7
:1029C000DA68054B1A6030BDC804002008050020F5
:1029D00004050020AC030020B004002038B5124CE0
:1029E0000D4621681831FFF7CDFA20680430FFF753
:1029F000E1FA40B923680D49D86A0A680123834087
:102A000022EA03030B606B1C06D1216808480431DD
:102A1000BDE83840FFF7AABA064B18682844BDE85D
:102A20003840FFF717BD00BFB004002004050020A8
:102A3000F0040020CC040020C36870B5DC6804F109
:102A400018052846FFF7B6FA114B1B6883B9261DF7
:102A50003046FFF7AFFA0F49E56A0A680123AB4039
:102A600013430B600C4B1420314600FB053001E092
:102A70000A482946FFF77AFA094BE26A1B68DB6AC3
:102A80009A4283BF074B01201860002070BD00BF31
:102A9000C804002004050020AC030020B40400207A
:102AA000B004002008050020034B1B680360034BA3
:102AB0001B684360704700BF80030020CC040020E7
:102AC00038B504460D4600F0F7F80E4B18682B6831
:102AD0005A1C10D00C4A216812689142626801D0D9
:102AE00090420AD2811A8B4207D9121A13442B60E2
:102AF0002046FFF7D9FF002400E0012400F0ECF8A5
:102B0000204638BDCC04002080030020014B012268
:102B10001A607047080500202DE9F041044600289E
:102B200038D01D4DC36A2A68D26A934232D2826974
:102B30001A4E002AA1BF2A68D26AC2F10C02826131
:102B40001427426907FB03639A4220D100F104086D
:102B50004046FFF72FFA124B48B9E06A4743F25953
:102B60002AB919680122824021EA02021A602A6801
:102B7000D26AE26201201C68904020431860142051
:102B8000414600FB0260BDE8F041FFF7EFB92B685A
:102B9000DB6AC362BDE8F081B0040020AC03002012
:102BA00004050020F8B5044608B90020F8BDC36C40
:102BB000C16A826C013B9142C364F6D0002BF4D110
:102BC000051D2846FFF7F6F9104E114A50B9E76A7D
:102BD0001421794373582BB910680123BB4020EAB4
:102BE00003031360A36C1068E362C3F10C01A161DD
:102BF000012404FA03F108431060142000FB036071
:102C00002946FFF7B3F92046F8BD00BFAC0300200A
:102C100004050020044B1A681AB11968CA6C013205
:102C2000CA641868704700BFB00400204FF4807376
:102C300083F31188BFF36F8FBFF34F8FFEE7000060
:102C400006480068006880F3088862B661B6BFF382
:102C50004F8FBFF36F8F00DF00BF000008ED00E073
:102C6000DFF80C00016841F470010160704700005A
:102C700088ED00E04FF0807300E90A00054B40F852
:102C80000C3C6FF0020340F8202C40F8243C443800
:102C9000704700BF2D2C0008064B19680868B0E883
:102CA000F04F80F30988BFF36F8F4FF0000080F37F
:102CB00011887047B00400204FF4807383F31188AB
:102CC000BFF36F8FBFF34F8F024A13680133136056
:102CD000704700BF8C010020034A1368013B13605A
:102CE0000BB983F3118870478C010020EFF3098042
:102CF000BFF36F8F144B1A681EF0100F08BF20ED42
:102D0000108A20E9F04F10604DF8043D4FF48070B8
:102D100080F31188BFF34F8FBFF36F8FFFF730FE43
:102D20004FF0000080F3118808BC19680868B0E80B
:102D3000F04F1EF0100F08BFB0EC108A80F3098826
:102D4000BFF36F8F704700BFB004002008B5EFF3EA
:102D500011834FF4807282F31188BFF36F8FBFF33A
:102D60004F8FFFF7B9FC18B1034B4FF080521A6038
:102D7000002383F3118808BD04ED00E0064B4FF4F7
:102D80007A721B68B3FBF2F3044A013B1360044BF5
:102D900007221A60704700BFA001002014E000E085
:102DA00010E000E008B50A4B1A681A601A681A6049
:102DB000FFF7E4FF074B00221A60FFF751FF064AB6
:102DC000136843F040431360FFF73AFFFFF72EFF0D
:102DD00020ED00E08C01002034EF00E038B543071F
:102DE00004461CBF20F007040834FFF76DFC0C4AB2
:102DF00013681BB90B4B23F0070313600A490B68D8
:102E00004EF6F7701C44844205D8A34203D21568DD
:102E10000C601D4400E00025FFF7EAFC284638BDA1
:102E2000100500201C0500200C0500207047000044
:102E3000DFF830D0002103E00B4B5B5843500431E6
:102E40000A480B4B42189A42F6D30A4A02E0002382
:102E500042F8043B084B9A42F9D301F027FAFDF7F8
:102E6000E5F970470000022070DB000888010020AF
:102E7000A4020020A4020020F8FA0020FEE708B512
:102E800072B6962000F0F3F8962000F0F0F8F8E71C
:102E90000FB407B5054B04AA1B6852F8041BD86889
:102EA000019203F011FE012002F010FD0802002043
:102EB00070B50E460446154601F03EFA013609D0BB
:102EC0002046002101F051FA29462046BDE8704015
:102ED00001F047BA70BD38B50D460446C168436875
:102EE00002B91B040B602046012101F03EFA29467D
:102EF0002046BDE8384001F034BA0022FFF7D8BFC1
:102F000070B50E460446154601F016FA013606D095
:102F10002A4620460021BDE87040FFF7DCBF70BDA7
:102F200010B50446013001D110BD0C31B1F90030AB
:102F30005A1C0BD09C42F8D12046896801F0E8FB6E
:102F400020460021BDE8104001F006BC0248BDE863
:102F50001040FFF79DBF00BF59CF0008884208B559
:102F60000AD0431C07D0013106D00448FFF790FF78
:102F70004FF0FF3008BD084608BD00BF6ACF00080B
:102F8000B1F900305A1C05D0834201D1486870471E
:102F90000C31F5E718467047421C10B5044607D0BF
:102FA000FFF7EEFF431C044602D10248FFF770FF13
:102FB000204610BD7BCF0008064B1B6810B50446A9
:102FC00003B19847044B1B681BB12046BDE8104075
:102FD000184710BD900100209C010020074B1B6882
:102FE00010B504461BB1984708B9FFF7E5FF044B3D
:102FF000186800B1804704B1206010BD9401002022
:1030000098010020036870B5DB6804469847636840
:103010005A6823681AB99B68BDE8704018475B6816
:10302000156898476368281A00285A6807DC916871
:1030300059601B68002BEAD050689847E7E723687F
:1030400010681B69BDE87040184700000148FFF791
:10305000D9BF00BFD0CF000838B5044601F0E4FE68
:10306000054601F0E1FE401BA042FAD338BD4FF403
:103070007A735843FFF7F0BF7047000008B5094B5B
:103080001A6842F400721A601A6842F480621A6088
:10309000032000F017F80F2000F0DCFFFFF7ECFF33
:1030A000002008BD003C0240024A1368013313604F
:1030B000704700BF1CF50020014B1868704700BF27
:1030C0001CF50020074AD36823F4E0631B041B0CA3
:1030D00043F0BF63000243F4003300F4E0600343B5
:1030E000D360704700ED00E02DE9F04F6C4E0B68A7
:1030F000DFF8B4C1DFF8B48185B0B6460193002390
:103100000122019C9A4032EA040440F0C1804C68DC
:1031100024F01009B9F1020F14D14FEAD30A00EBE1
:103120008A0A03F0070BDAF820704FEA8B0B0F25A1
:1031300005FA0BF527EA05050F6907FA0BF72F4388
:10314000CAF820704FEA430A0325076805FA0AF512
:10315000ED4304F0030B2F400BFA0AFB09F1FF3992
:103160004BEA0707B9F1010F076012D8876805EA33
:103170000709CF6807FA0AF747EA0907876047682F
:10318000C4F3001927EA020709FA03F949EA070715
:103190004760C7683D408F6807FA0AF73D43C5603E
:1031A000E50075D5DCF8445045F48045CCF8445032
:1031B000DCF8445023F0030707F1804705F480450D
:1031C00007F59C37039503F0030A039DD7F808B071
:1031D0004FF00F094FEA8A0A09FA0AF52BEA0509A6
:1031E000304DA84220D005F58065A8421ED005F5D7
:1031F0008065A8421CD005F58065A8421AD005F567
:103200008065A84218D0404518D005F50065A84251
:1032100016D005F58065A84214D005F58065A84252
:1032200014BF092508250EE000250CE001250AE061
:10323000022508E0032506E0042504E0052502E058
:10324000062500E0072505FA0AF545EA0905BD60EF
:103250003568D74314F4803F0CBF3D401543CEF88A
:103260000050DEF8045014F4003F0CBF3D401543FD
:103270007560B56814F4801F0CBF3D401543CEF84F
:103280000850DEF80C50A40254BF3D401543F560D1
:103290000133102B7FF434AF05B0BDE8F08F00BFD1
:1032A000003C01400000024000380240001402408F
:1032B0004FF4807393FAA3F3B3FA83F3DBB29B006A
:1032C00003F1844303F5602301221A607047000074
:1032D00003682DE9F341DD07044603D4236898070A
:1032E0004CD49EE08B4B9A6802F00C02042A07D063
:1032F0009A6802F00C02082A0BD15B68590208D5C3
:10330000844B1B689A03E9D56368002BE6D1012042
:1033100067E1814D7F4E00232B70FFF7CDFE41F218
:103320008838074633689B0306D5FFF7C5FEC01BE8
:103330004045F7D9032054E123792B70636873B1BA
:10334000FFF7BAFE734D064641F288372B689803A3
:10335000C4D4FFF7B1FE801BB842F7D9EAE7FFF704
:10336000ABFE6C4D064641F288372B689903B5D504
:10337000FFF7A2FE801BB842F7D9DBE7654B9A68DE
:1033800012F00C0F07D09A6802F00C02082A18D12C
:103390005B685A0215D45F4A13689B0702D5E3683D
:1033A000012BB4D11168F82393FAA3F3B3FA83F392
:1033B0002069DBB200FA03F321F0F8010B4313603C
:1033C0002FE0E268554BF2B101221A60FFF774FE5C
:1033D000504D06462B684F489F0705D4FFF76CFEFB
:1033E000801B6428F6D9A5E70268F82393FAA3F3B3
:1033F000B3FA83F32169DBB201FA03F322F0F80296
:10340000134303600DE01A60FFF756FE414D064678
:103410002B68990705D5FFF74FFE801B6428F7D965
:1034200088E723681A0703D423685B074ED51FE09B
:1034300062693B4B72B101221A60FFF73DFE354DC8
:1034400006466B6F9F07EFD4FFF736FE801B64289C
:10345000F7D96FE71A60FFF72FFE2E4D06466B6F08
:103460009807E1D5FFF728FE801B6428F7D961E7AC
:10347000284B2C4D1A6C42F080521A641B6C03F0DE
:1034800080530193019B2B6843F480732B60FFF7FB
:1034900013FE06462B68D9051BD5234D1D4E002370
:1034A0002B70FFF709FE41F288380746336F9A0701
:1034B00015D4237A2B70A368EBB1FFF7FDFD154DF2
:1034C000064641F288372B6F9B070ED5A2696ABB6F
:1034D0006CE0FFF7F1FD801B6428DBD92AE7FFF7DA
:1034E000EBFDC01B4045E1D924E7FFF7E5FD801B5C
:1034F000B842E8D91EE7FFF7DFFD064D064641F268
:1035000088372B6F9807E1D5FFF7D6FD801BB842AF
:10351000F7D90FE700380240023802400000474266
:10352000800E474200700040703802402E4DAB685C
:1035300003F00C03082B3FF4EAAE2C4E0023022AC2
:10354000336042D1FFF7B8FD80462B68264F9901C2
:103550002ED447F6C07292FAA2F2B2FA82F24FF477
:10356000403393FAA3F3B3FA83F54FF0706191FA05
:10357000A1F1B1FA81F0E169236A0B43616AD2B229
:1035800091401943A36A5B085A1EEBB202FA03F397
:10359000E26A0B43C1B28A4013437B60012333606C
:1035A000FFF78AFD04463B689A0108D5002018E021
:1035B000FFF782FDC8EB00006428C6D9BAE6FFF722
:1035C0007BFD001B6428EED9B4E6FFF775FD0446C9
:1035D0002B689B01EAD5FFF76FFD001B6428F7D924
:1035E000A8E602B0BDE8F081003802406000474222
:1035F0007B4B1A6802F00F028A422DE9F041054622
:103600000E4674D2CAB21A701B6803F00F039942B7
:1036100002D00120BDE8F08101688F0706D571480E
:10362000836823F0F002AB6813438360CE070BD4AA
:1036300029684C0740F1C3806A48836823F4E0524C
:10364000EB6813438360BAE06B68664A012B03D1D1
:10365000126812F4003F08E0991E0129126802D88E
:1036600012F0007F01E012F0020FD2D05D4CA26890
:1036700022F003021343A360FFF71EFD6B68012BCA
:1036800006460ED141F28837A36803F00C03042BE1
:10369000CED0FFF711FD801BB842F5D90320BDE85D
:1036A000F081022B0CD141F28837A36803F00C03A0
:1036B000082BBDD0FFF700FD801BB842F5D9EDE720
:1036C000032B08D141F28835A368FFF7F5FC801B76
:1036D000A842F9D9E2E741F28837A36813F00C0F4A
:1036E000A6D0FFF7E9FC801BB842F6D9D6E70168FF
:1036F000880706D53B48836823F0F002AB68134384
:103700008360CA0709D4364BF2B21A701B6803F003
:103710000F039E427FF47DAF8AE76B68314A012B2D
:1037200003D1126812F4003F08E0991E01291268C3
:1037300002D812F0007F01E012F0020F3FF469AFEF
:10374000284CA26822F003021343A360FFF7B4FCE5
:103750006B68012B07460CD141F28838A36803F04F
:103760000C03042BCFD0FFF7A7FCC01B4045F5D9B5
:1037700094E7022B0CD141F28838A36803F00C03C4
:10378000082BC0D0FFF798FCC01B4045F5D985E752
:10379000032B08D141F28835A368FFF78DFCC01BCD
:1037A000A842F9D97AE741F28838A36813F00C0FE0
:1037B000A9D0FFF781FCC01B4045F6D96EE70B0787
:1037C00007D5084A2969936823F4604343EAC10393
:1037D00093600F2000F03EFC0020BDE8F08100BFA8
:1037E000003C0240003802401F498B6803F00C0384
:1037F000042B34D0082B34D148684B6800F03F00CC
:1038000013F4800F47F6C0724B6892FAA2F2B2FA34
:1038100082F247F6C071D2B201EA030115BF21FA64
:1038200002F3D140114A124A14BFB2FBF0F0B2FBCE
:10383000F0F00D4A0CBF00FB01F343434FF440315D
:10384000506891FAA1F1B1FA81F100F44032C8B2A6
:1038500022FA00F001304000B3FBF0F0704703485B
:1038600070470348704700BF0038024000127A00DA
:103870000024F40008B5FFF7B7FF094B9A68F0235E
:1038800093FAA3F3B3FA83F302F0F002DBB222FA65
:1038900003F3044AD35CD840034B186008BD00BF53
:1038A00000380240D8CF0008A001002008B5FFF77B
:1038B000E1FF084B9A684FF4E05393FAA3F3B3FA8D
:1038C00083F302F4E052DBB222FA03F3024AD35C40
:1038D000D84008BD00380240D8CF000808B5FFF72F
:1038E000C9FF084B9A684FF4604393FAA3F3B3FA05
:1038F00083F302F46042DBB222FA03F3024AD35CA0
:10390000D84008BD00380240D8CF00087047026890
:1039100038B5D36823F0A003D3600446FFF7CCFB8F
:1039200005462368DB689B0607D4FFF7C5FB401BF1
:10393000B0F57A7FF5D9032038BD002038BD38B501
:103940000368DA685206044601D5002038BD4FF0FE
:10395000FF32DA60FFF7B0FB05462368DB685B06E1
:10396000F3D4FFF7A9FB401BB0F57A7FF5D903200C
:1039700038BD10B5044600283DD0437F03F0FF0258
:1039800013B90277FFF7C2FF022363772368CA22C5
:103990005A6253225A622046FFF7D1FF236820B1B2
:1039A000FF225A620423637725E09A6822F4E0023A
:1039B00022F040029A6099686268114322691143BB
:1039C00062690A439A60E2681A611A69A16842EA68
:1039D00001421A61DA6822F08002DA601A6C22F47D
:1039E00080221A64196CA2690A431A64FF225A627F
:1039F0000123637710BD012010BD0023092803D9DE
:103A00000A380133C0B2F9E740EA0310C0B2704788
:103A1000F8B5037F012B06460F464FF0020564D030
:103A200001230377036845770878BD7849789B6858
:103A3000AAB913F0400308BFFB70FFF7DEFF04468E
:103A40000846FFF7DAFF02462846FFF7D6FFFB7865
:103A500040EA034040EA044040EA02240AE013F04E
:103A6000400308BFFB70090241EA0044F87825438F
:103A700045EA00443368CA225A6253225A623046E9
:103A8000FFF75DFF3368054630B1FF225A62042319
:103A90007377002333771FE004F07F3020F0FE407F
:103AA00018609A6822F480229A609968FA68114333
:103AB0003A690A439A60DA6822F08002DA609B6809
:103AC0009B060BD43046FFF722FF38B13368FF2244
:103AD0005A62042373773577012506E03368FF22A5
:103AE0005A6201237377002333772846F8BDF8B56F
:103AF000037F012B06464FF0020557D001230377C1
:103B000045774B78C8788D780F78002A47D1DA0648
:103B100003D523F010020A324A70FFF76EFF044605
:103B20004878FFF76AFF02462846FFF766FF40EA3B
:103B3000473040EA044040EA02243368CA225A620D
:103B400053225A623046FFF7FAFE3368054630B119
:103B5000FF225A62042373770023337715E024F0A1
:103B60007F4020F0C0005860DA6822F08002DA60FE
:103B70009B689B060BD43046FFF7C9FE38B133680B
:103B8000FF225A6204237377357701250EE03368EC
:103B9000FF225A62012373770023337706E01B026A
:103BA00043EA0040284340EA4734C6E72846F8BDC8
:103BB00000F00F03000900EB800003EB4000C0B2EF
:103BC00070470368986A486070B518691D6805F009
:103BD0007F3323F0FE43C0F30E001E0C8860C3F356
:103BE000062406F03F0005F07F0506F04006087049
:103BF0004C708D70CE7052B9FFF7DAFF0870204616
:103C0000FFF7D6FF48702846FFF7D2FF88700020E4
:103C100070BD38B503685C6824F07F4323F0C003AF
:103C2000180CC3F3042504F03F04C3F34233C870F7
:103C30004D708C700B7052B9FFF7BAFFC8702846F0
:103C4000FFF7B6FF48702046FFF7B2FF88700020EC
:103C500038BD704710B50446002836D090F8513072
:103C600003F0FF021BB980F85020FFF7F2FFA168B4
:103C700060680843E16808432169022308436169D9
:103C800084F8513023680843E1691A680843216ABF
:103C900022F040021A600843A269A16A084302F4B4
:103CA000007101431960120C616A02F004020A43B8
:103CB0005A60E26A1A61DA6922F40062DA6100206D
:103CC0000123606584F8513010BD012010BD70479C
:103CD0002E4A0368904212D0B0F1804F0FD0A2F567
:103CE0007C4290420BD002F58062904207D002F5F0
:103CF0008062904203D002F57842904218D14A681F
:103D000023F070031343214A904237D0B0F1804F23
:103D100034D01F4A904231D002F5806290422DD0BB
:103D200002F58062904229D002F57842904225D077
:103D3000184A904222D002F5806290421ED002F5CD
:103D4000806290421AD0A2F59832904216D002F5C5
:103D50008062904212D002F5806290420ED00360E1
:103D60008B68C3620B688362084B98420BD003F5E3
:103D70008063984207D0012343617047CA6823F4E7
:103D800040731343EBE70B690363F4E70000014062
:103D9000000400400040014010B50446A0B190F876
:103DA000393003F0FF021BB980F83820FFF78FFF8E
:103DB000022384F839302068211DFFF789FF012391
:103DC00084F83930002010BD012010BD10B501234A
:103DD000046A8B4024EA03030362036A8A4042EACE
:103DE0000301016210BD000010B504460122006805
:103DF000FFF7ECFF2368084A934203D002F5806284
:103E0000934203D15A6C42F400425A641A6842F059
:103E100001021A60002010BD00000140FFF7E4BF5E
:103E20002DE9F84305682B69074623F44052C3681F
:103E3000B968C06913433A692B61EB6811437A6929
:103E400023F416430A43024323F00C031343EB60AD
:103E50006B6923F44072BB69B0F5004F43EA02037B
:103E60006B613F4B36D19D4203D003F580639D4289
:103E700016D1FFF733FD7E68192460437600B0FB4E
:103E8000F6F6FFF72BFD7A684FF064086043B6FB47
:103E9000F8F652003601B0FBF2F9FFF71FFD15E00E
:103EA000FFF704FD7E68192460437600B0FBF6F648
:103EB000FFF7FCFC7A684FF064086043B6FBF8F645
:103EC00052003601B0FBF2F9FFF7F0FC444378688A
:103ED000400034E09D4202D0224B9D4216D1FFF7B4
:103EE000FDFC7E6819246043B600B0FBF6F6FFF7D0
:103EF000F5FC7A684FF064086043B6FBF8F6920070
:103F00003601B0FBF2F9FFF7E9FC15E0FFF7CEFC54
:103F10007E6819246043B600B0FBF6F6FFF7C6FCD6
:103F20007A684FF064086043B6FBF8F692003601F9
:103F3000B0FBF2F9FFF7BAFC444378688000B4FBA9
:103F4000F0F0B0FBF8F008FB109212013232B2FB35
:103F5000F8F303F00F033343AB60BDE8F88300BF11
:103F60000010014000140140704710B5044630B302
:103F700090F8393003F0FF021BB980F83820FFF7C2
:103F8000F3FF2268022384F83930D36823F4005306
:103F9000D3602046FFF744FF23681A6922F4904259
:103FA0001A615A6922F02A025A61DA6842F4005210
:103FB000DA6000200123E06384F8393010BD01206D
:103FC00010BD000030B50C4CA268A468B4F1006FBD
:103FD00013460CD1131F094C094A53F8045F42F8E9
:103FE000045FA242F9D1044A4FF0005393601030AD
:103FF00043F8201030BD00BF00ED00E08401002038
:10400000FCFFFF1F38B5114B1A68D16811F0020F81
:104010001C4604D06FF002031361FFF717F8236802
:10402000DA68520711D56FF00402094D1A615C6A13
:104030002B68E31AB3F57A7F07D3FFF735F8034B04
:104040002C601B6804F57A729A6338BD24F5002051
:1040500020F50020264B37B51A6C264C254842F037
:1040600008021A641A6C02F008020192019A1A6A94
:1040700042F008021A621A6A22F008021A62A3F5D4
:104080000B3323604FF0FF33E3601B4B1B4A1B686D
:1040900093420EBF0F231A4AB3FBF2F34FF0000511
:1040A00018BF03F1FF3363602561A5606561FFF709
:1040B00073FE14493220FFF785FF134B0D484FF470
:1040C00080225A602946FFF7A9FE04210948FFF71C
:1040D000A5FE23680D495A6A0A6002F57A729A634E
:1040E000DA68284642F00402DA6003B030BD00BF4F
:1040F0000038024024F50020A00100200024F40034
:1041000080841E000540000800E100E020F500204A
:104110007FB50F23019302230293002303934FF4EF
:10412000A053049305214FF4805301A80593FFF792
:104130005FFAB0FA80F0400907B05DF804FB0000B8
:10414000174A1849936803F00C03042B03D0082B7B
:1041500003D0154B18E0154B16E05068536810F467
:10416000800F03F03F03506814BF104A0E4AB2FBA1
:10417000F3F30B4A5268C2F30142C0F388100132D4
:1041800043435200B3FBF2F30B60054B084A9B68B4
:10419000C3F30313D25C0B68D3400B60704700BFBE
:1041A00000380240A00100200024F40000127A0030
:1041B000E8CF0008194B10B51A6C42F080521A640F
:1041C0001B6C8EB003F080530093009B144B1A6855
:1041D00022F480421A601B6803F480430193019B20
:1041E0000123029300B105234FF480020393099247
:1041F00002230822002408930A920C934FF4A87219
:10420000072302A805940B920D93FFF761F810B9EC
:10421000FFF77EFF00E020460EB010BD00380240E0
:1042200000700040184B10B51A6C42F080521A64AE
:104230001B6C8EB003F080530093009B134B1A68E5
:1042400022F480421A601B6803F480430193019BAF
:1042500003230293012310220593022300240692D4
:1042600008930A920C934FF4A872072302A80394B0
:1042700009940B920D93FFF72BF810B9FFF748FF45
:1042800000E020460EB010BD003802400070004033
:1042900008B50120FFF78EFF30B9FFF78BFF18B983
:1042A000FFF7C0FF00B9FEE708BD0000184AD2F8CA
:1042B000883010B543F47003164CC2F88830236878
:1042C000002143F001032360A160236823F084737D
:1042D00023F480332360104B6360236823F480232E
:1042E00023604FF00063E16093600C4B0C4A1A604E
:1042F000FEF7C4FEFFF7CCFFFFF722FF236A43F06F
:1043000008032362236A23F00803236210BD00BF61
:1043100000ED00E00038024010300024A001002031
:104320000024F40010B50021044604F00F0400F04E
:10433000EFF90120A04010BD70B504464B1C0E469D
:1043400021800DD0C1F3031000F04EF90546304630
:10435000FFF7E8FF05F1100318356060A360E56022
:1043600070BDB0F9000000F0F7B90129B0F9000004
:1043700018BF002100F0CCB9F8B54C23144E5843B7
:1043800000F11C0434440F4600250644BD421DD0F4
:104390000121336801FA05F21A4214D00D4AA369CB
:1043A000506901FA03F303420DD0D4F800E05361E1
:1043B00054F8180C38B1DEF810201342064B08BF31
:1043C00002211B68984701350434DFE7F8BD00BFC0
:1043D00060F50020003C014074F70020012100201E
:1043E000FFF7CABF01210846FFF7C6BF012102201F
:1043F000FFF7C2BF01210320FFF7BEBF0121042048
:10440000FFF7BABF05210846FFF7B6BF06210846E9
:10441000FFF7B2BF2DE9F74F9B464B1C07460D46F1
:10442000009263D001F00F0808F1FF33C1F30310CD
:104430000E2B09D8DFE803F00C1014181C1C1C1CF0
:104440001C202020202020002A4B0024062616E0D5
:10445000294B0124072612E0284B022408260EE0EF
:10446000274B032409260AE0264B04240A2606E0EB
:10447000254B0524172602E0244B06242826019309
:1044800000F0B2F807218246284600F041F9019B6E
:104490004FFA86F919464846FFF794FD4FEA59123C
:1044A00006F01F0101231A4803FA01F140F8221017
:1044B000BD81184A18493E704C25654352F8286062
:1044C0004A597C60B34013430020B8604B5113231A
:1044D00003FB046401EB8403009AC3F804B0C3F83F
:1044E0001CA0C3F834800D4B1A6000E0084603B0EE
:1044F000BDE8F08FDD430008E5430008ED43000808
:10450000F5430008FD430008054400080D44000879
:1045100000E100E0F8CF000860F5002074F700200B
:10452000F8B54268124B0546808900F00F014C2413
:1045300053F821300F495443012606FA03F70E5968
:1045400026EA07060E51132404FB023301EB830213
:10455000002454609A1D0C3301EB820201EB8303AB
:1045600054605C60214600B200F0D2F8AC60F8BD47
:10457000F8CF000860F50020A2B1012905D18368B9
:10458000023B012B08D981601EE002291FD18368FC
:1045900023F00203012B03D103238360082117E0DA
:1045A000816007E0012907D18368023B012B0DD808
:1045B0000223836007210BE0022908D1836823F0DE
:1045C0000203012B02D18360062101E082600C21ED
:1045D000B0F90C0000F09CB808B5FFF7B1FDBDE8DC
:1045E0000840FEF74BBD000000B58BB0082872D81C
:1045F000DFE800F005111D2935414D596500394BA3
:1046000039481A6B42F001021A631B6B03F0010375
:104610000193019B63E0334B34481A6B42F0020272
:104620001A631B6B03F002030293029B57E02D4BAE
:104630002F481A6B42F004021A631B6B03F0040349
:104640000393039B4BE0274B2A481A6B42F0080266
:104650001A631B6B03F008030493049B3FE0214B98
:1046600025481A6B42F010021A631B6B03F010030B
:104670000593059B33E01B4B20481A6B42F0200248
:104680001A631B6B03F020030693069B27E0154B70
:104690001B481A6B42F040021A631B6B03F0400385
:1046A0000793079B1BE00F4B16481A6B42F08002E2
:1046B0001A631B6B03F080030893089B0FE0094B00
:1046C00011481A6B42F480721A631B6B03F48073F7
:1046D0000993099B03E00D48FEF7DAFB00200BB0BD
:1046E0005DF804FB00380240000002400004024074
:1046F00000080240000C024000100240001402407A
:1047000000180240001C02400020024038D000087F
:1047100030B5054687B0C0F303100C4605F00F0511
:10472000FFF762FF012304F00F0203FA05F5094BBE
:10473000019553F822300293C4F302130393C4F398
:10474000C314032301A904930594FEF7CDFC07B01D
:1047500030BD00BF5CD0000838B500F00F05C0F3D5
:1047600003100C46FFF740FF6900C26803238B402B
:1047700022EA0303032CC360C36828BF00248C40D3
:104780001C43C46038BD0000F0B5304B1E688FB0CC
:10479000002E59D101272E4D2E4C1F602E4B236029
:1047A0002B6C43F080532B642B6C03F080530193EC
:1047B000019BFEF77DFD294B02A81F601E600423AC
:1047C000029308960497FEF783FD70B9AB6823F453
:1047D000F813AB60AB6823F4F813AB602B6F43F4B2
:1047E00080732B674FF400431AE00C2302A8029356
:1047F000089604960797FEF76BFD10B11848FEF770
:1048000047FB134B9A6822F4F8129A609A6822F4D4
:10481000F8129A601A6F42F400721A674FF4FA4362
:10482000104A0C480121DB091160013B00227F2165
:104830006260A160E36022616261A261FFF799F8A2
:1048400010B10948FEF724FB0FB0F0BD98F7002027
:104850000038024078F7002000280040400E474210
:1048600090D000083C0E4742BCD00008014B1868AD
:10487000704700BF98F7002010B5154C154B23600A
:1048800090B002A900222046FFF79BF9002201A95F
:104890002046FFF7BEF99DF804300D939DF80530D2
:1048A000013B0B939DF806300A939DF80730643363
:1048B0000C939DF80830099310A89DF809300893CF
:1048C0009DF80A3040F8243D01F0ACFD10B010BD59
:1048D00078F700200028004030B589B008AB184DAB
:1048E00043F81C0D174A2A60184601F0E9FA83695B
:1048F0008DF80830036901338DF80930C3688DF8ED
:104900000A304369643B8DF80B3083688DF80C30B6
:1049100043688DF80D3003688DF80E300024402375
:10492000224602A928468DF80F3006940794FFF717
:10493000DEF8224603A92846FFF76AF809B030BD21
:1049400078F700200028004008B5124B02681A6072
:1049500082685A60C2689A600269DA6042691A61C4
:1049600000229A61B0F91A20013201D1082205E033
:10497000B0F9182001320CBF04220C2205485A61FC
:10498000FFF7F3FA20B10448BDE80840FEF780BA0B
:1049900008BD00BFC4F70020E2D00008F0B50E4605
:1049A00087B00446514930461546FEF7F5FA50499E
:1049B00007462846FEF7F0FA01463846FEF7CEFADB
:1049C0004C4B2060984243D013D8A3F50063984223
:1049D00032D003F58063984252D1474B1A6C42F4AF
:1049E00080221A641B6C03F480230293029B02232F
:1049F00045E0424B984213D003F58063984233D090
:104A0000A3F5444398423BD13B4B1A6C42F48012CD
:104A10001A641B6C03F480130493049B04232EE09C
:104A2000354B5A6C42F010025A645B6C03F0100371
:104A30000093009B002322E02F4B1A6C42F40032BB
:104A40001A641B6C03F400330193019B012316E0ED
:104A5000294B1A6C42F400221A641B6C03F40023E5
:104A60000393039B03230AE0234B5A6C42F020027A
:104A70005A645B6C03F020030593059B0523636078
:104A80001A493046FEF74CFA19492846FEF748FA0B
:104A9000721C03D001213046FFF75EFE6B1C03D071
:104AA00001212846FFF758FE4FF41653A360002358
:104AB000E36023616361268365832046FFF744FF3B
:104AC00022680F4B9A420FD10E4B01221A600E4BF7
:104AD00004F11805206861681A4603C20834AC4224
:104AE0001346F7D12068106007B0F0BDF4D100087C
:104AF000A0D10008004C00400038024000100140E6
:104B000000140140C0F7002004F800208160FFF786
:104B10001BBF0000034B19604168034B43F8212081
:104B2000704700BFBCF700209CF700200368034AD1
:104B300018681360C0F34010704700BFC4F700202E
:104B400010B5046801460846FFF7F0FF0028FAD0C8
:104B50006068C0F3080010BD0368034A186813605A
:104B6000C0F3C010704700BFC4F7002038B5056817
:104B700004462046FFF7F0FF0028FAD0C1F30801F1
:104B8000696038BD03681A6810B5124C22F0400203
:104B900023601A60C2680369626182682261072229
:104BA00063608369E2624268E361E2600023426914
:104BB000A3602046A3622362A2616362FFF74AF802
:104BC00010B10548FEF764F92268136843F040030A
:104BD000136010BD20F80020F9D000082DE9F04F37
:104BE0000F4687B004463D49BDF9405038469046CF
:104BF0001E46FEF7D1F93A4981464046FEF7CCF908
:104C0000384901903046FEF7C7F9374982462846B1
:104C1000FEF7C2F9019B834619464846FEF79EF906
:104C2000594681465046FEF799F901464846FEF737
:104C300095F92E4B206098420BD103F584335A6CC2
:104C400042F480525A645B6C03F480530393039BD9
:104C50001CE0274B98420BD103F500331A6C42F449
:104C600080421A641B6C03F480430493049B0DE0A0
:104C7000204B98420AD103F5FE331A6C42F40042ED
:104C80001A641B6C03F400430593059B13493846D3
:104C9000FEF746F912494046FEF742F911493046FF
:104CA000FEF73EF900236360A360E3603823A3614D
:104CB0006B1CA4F81C80E7832684658404D00A4911
:104CC0002846FEF72DF902E04FF400736361204699
:104CD000FFF758FF07B0BDE8F08F00BF48D20008CB
:104CE00010D1000858D1000890D2000800300140CF
:104CF00000380040003C004010290CBF4FF4006118
:104D00000021012A416004D0022A05D03AB982600C
:104D100008E00021816005E08260002202E00222BA
:104D200082600122C2604269B2F5007F05D0002B8B
:104D300014BF00224FF480224261002B14BF0023D5
:104D40004FF482730361FFF71DBF00001B4B9942B4
:104D500001DC38232FE0A1F51223194AA3F5F863EB
:104D6000934201D8302326E0A1F57423154AA3F518
:104D70001073934201D828231DE0A1F5F413124AC1
:104D8000A3F59063934201D8202314E00F4B104AFF
:104D90000B44934201D818230DE00E4B0E4A0B44EE
:104DA000934201D8102306E00C4B0D4A0B4493426A
:104DB00094BF082300238361FFF7E4BEBF270900E7
:104DC0007F1A06003F420F00BFC62D00C0B4B3FFDC
:104DD0003F4B4C00806967FFBFD8A700C090BFFE63
:104DE0003F6F400103689A689007FCD5044A89B276
:104DF0001360D9609A68D207FCD5D868704700BFA5
:104E000020F80020054B186830B901221A60044BC5
:104E1000044A1A60FFF71EB9704700BFB4F80020BB
:104E200078F80020000C004008B5044B1B680BB953
:104E3000FFF7E8FF024B586A08BD00BFB4F8002036
:104E4000000C0040034B1B685863DA6842F0020212
:104E5000DA60704778F80020034B1A68D36823F0B3
:104E60000203D360704700BF78F80020024B1B6834
:104E70006FF002021A61704778F8002030B5234CB9
:104E800000238DB04FF0FF3219462068FDF740FA3D
:104E9000012820D10020FEF7A1F80CAB43F8240D27
:104EA000184601F00DF81A4A0346202104A802F022
:104EB000FFFF2F2304AA00931649174B174800F051
:104EC00061FB1749154800F05DFB00231A4619469F
:104ED0002068FDF751F9134D134CAB681A686B68E5
:104EE0001A4201D1EA6801E0EA681B041360A36872
:104EF0001A6863681A4202D0E2681B0400E0E268A4
:104F000013604FF47A70FDF7DFFCE6E7CC02002077
:104F1000BCCB0008E9CB0008CCD200085403002029
:104F2000D5D20008F00200207003002030B5012027
:104F30008FB0FDF79FF9444C03222060002101202F
:104F4000FDF7FCF8414B0022186004210120FDF719
:104F5000F5F83F4B0022186004210120FDF7EEF820
:104F60003C4B4FF4E13118603B4800F09BFA04A839
:104F7000FEF734F8002802DC0020FEF71DF80023BD
:104F80004FF0FF3219462068FDF7C2F9012823D1FE
:104F90000020FEF723F80EAB43F8240D184600F06E
:104FA0008FFF2E4A0346202106A802F081FF172317
:104FB000009306AA2A4B2B492B4800F0E3FA2B4B0F
:104FC0002B491A68284800F0DDFA1F4800231A46CA
:104FD00019460068FDF7D0F8264B019300240B23F7
:104FE00000934FF40072234623490394029423480C
:104FF000FDF758FA224B01930A2300934FF40072F5
:1050000023462049039402941F48FDF74BFA0525D7
:105010001E4B01934FF4007223461D4903940294E2
:1050200000951C48FDF73EFA1B4B01934FF40072AC
:1050300023461A490394029400951948FDF732FA61
:10504000FDF712FBFEE700BFCC0200206C0300203E
:10505000C4020020E802002000030020BCCB0008AE
:10506000CCD20008E9CB000854030020A0010020A6
:10507000E5D20008D00200201ED300087D4E0008B3
:10508000EC02002026D30008A1020008C80200207C
:105090002DD30008790C0008E402002034D3000866
:1050A0005D050008094B036083686BB1084A13680B
:1050B000984202D14368136070475A68904201D009
:1050C0001346FAE742685A60704700BF44D30008AD
:1050D000B8F8002010B50446FFF7E4FF204600F0C2
:1050E000BDFB204610BD0000054B0360002343605C
:1050F0008160027319B1034B1A68426018607047EF
:1051000044D30008B8F80020F8B50B4B1C680746DC
:105110000E4674B1A56855B132463946284603F0AB
:1051200083FB20B9284603F077FB864201D06468F0
:10513000EFE72046F8BD00BFB8F80020007B7047BD
:10514000036870B51B690122002105469847431C7E
:1051500004460ED02B6802221B690021284698477E
:105160002B6806461B690022214628469847304690
:1051700070BD70BD10B5074B0446002240F8043BDB
:10518000FFF7B2FF044B03F108023433226063607F
:10519000204610BD8CD400084CD3000810B5074B36
:1051A00003F1080234330446026040F8043FFFF77D
:1051B00079FF204600F008FA204610BD4CD30008C5
:1051C00010B50023036043600A782F2A044613D1E8
:1051D0004A788AB1481C2060194623681A782F2A19
:1051E00002D10133236004E01AB10133013123609D
:1051F000F3E7FFF789FF6060204610BD0068704745
:10520000406808B520B1FFF799FF431E5842584146
:1052100008BD10B50446FFF7F3FF00B1606810BD8C
:10522000406808B520B1FFF789FFB0FA80F0400967
:1052300008BD10B50446FFF7F3FF10B1606800B178
:10524000043810BD4068003018BF012070470000CE
:1052500010B5044B044640F8143BFFF761F92046B3
:1052600010BD00BF90D3000810B50446FFF7F0FF53
:10527000204600F0F3FA204610BD00002DE9F04171
:105280000546124B45F8043B04464FF010080E4605
:10529000424604F114070021284600F0DFFF424691
:1052A0000021384600F0DAFF00236362A363E36362
:1052B0002365074A234631463846FFF7ABF82846B0
:1052C0003146FDF71AFE2046BDE8F08190D3000874
:1052D0000553000803460A46143029B100229A6398
:1052E00001225962114600E00121FFF745B94369E7
:1052F000014613B9036823B11847006808B10431A7
:1053000018477047012908B502D0022902D008BD0C
:10531000243000E03C30FFF7EAFF08BD704710B5CD
:10532000044600F09BFA204610BD00002DE9F7432B
:1053300005469946134B45F8043B04460F469046F4
:1053400000212422284600F089FF0823A3620E4B87
:1053500023630026BDF92830009342464B46394668
:105360002846E662FFF73AFC3346E26AA16A28461D
:10537000FFF7C2FC2846216BFFF7E8FC204603B08C
:10538000BDE8F083A0D3000840420F0070B5094D7E
:105390002B68834204460BD0061DC26A816A002333
:1053A0003046FFF7A9FC216B3046FFF7CFFC2C609D
:1053B00070BD00BFBCF80020034BC26281620022B6
:1053C0001A60FFF7E3BF00BFBCF80020024B016387
:1053D00000221A60FFF7DABFBCF8002038B5044697
:1053E0000D46FFF7D3FF2946201DBDE83840FFF7E3
:1053F000F9BC00F05FB8A0F15400FFF7FABF00F06D
:105400005CB8A0F15400FFF7FABF000038B50446BD
:105410001D4600F021F8294604F1540000F07EF802
:10542000054B03F10802226003F120025433626548
:10543000A365204638BD00BFACD3000818235943EC
:1054400043185A6B1B6A0AB92BB118471BB10144A8
:105450002431184610477047F8B505460F4B45F8FC
:10546000043B04460E46174600211C22284600F045
:10547000F5FE002323626363A363E3644FF41653D2
:1054800023653A4631462846FFF788FA28462246E1
:105490000349FFF73FFB2046F8BD00BF10D40008CA
:1054A0003D54000838B504460D460430FFF72EFB86
:1054B000256538BD0430FFF743BB10B504300C46FA
:1054C000FFF754FB204610BDF8B507460D468E1871
:1054D0000C46B44208D03B6814F8011B5B6A38469E
:1054E00098470130F5D12646701BF8BDF8B5064641
:1054F0000D468F180C46BC4208D0336830469B6A74
:105500009847431C02D004F8010BF4E7601BF8BD78
:105510000020704700207047002070471FB50446E8
:10552000FFF728FE0B4B0C4903F108023C33636084
:1055300000236361226001A8224602F0BBFB0749F9
:1055400001A800F0E3FB606100F080F9204604B0A0
:1055500010BD00BF18D400085CD4000860D4000857
:1055600010B5074B03F108023C3304460260436068
:10557000406900F011FA2046FFF710FE204610BDEA
:1055800018D400080EB433B505AB044653F8045BD9
:105590004069019300F0BAFA019A6069294601F066
:1055A00093FA02B0BDE8304003B07047044B1B686B
:1055B00023B9272226210348FFF7F0B9704700BF1F
:1055C000C0F7002004F8002010B5074B0360074A1D
:1055D0000023194652F82340A04208BF42F8231086
:1055E0000133402BF6D110BD8CD40008C0F8002048
:1055F000F7B50E462C49054602F0EFFB044610B9FC
:10560000FFF7D4FF4CE02949284602F0E6FB18B921
:10561000FFF7CCFF012443E02549284602F0DDFBDB
:1056200018B9FFF7C3FF02243AE0224B002453F8D5
:10563000242072B10134402CF9D107E02946684694
:10564000FFF7BEFD6846FFF7FDFD60B94FF0FF3480
:1056500026E02B783A2BF1D16A461749284602F00A
:105660004DFB009816E06846FFF7DAFD18B1684672
:10567000FFF7DFFD0EE06846FFF7CBFD054600288B
:10568000E4D0036868469F68FFF7B8FD32460146DC
:105690002846B8470028D9D0064B43F824000334E5
:1056A000204603B0F0BD00BF63D400087CD40008DE
:1056B0006AD40008C0F800205CD4000802284FF02B
:1056C000000309DDC21E074951F8220041F82230CB
:1056D00020B103685B681847184670474FF0FF30E9
:1056E000704700BFC0F80020022870B50C46154670
:1056F0000FDC0E4B1B680BB9FFF758FF6619B4425D
:1057000005D014F8011B0A48FFF730FAF7E72846DE
:1057100070BD0338074B53F8200020B10368BDE883
:1057200070401B6818474FF0FF3070BDC0F7002075
:1057300004F80020C0F80020022810B50C460ADC4E
:105740000B4B1B680BB9FFF731FF0A48FFF7F8F95D
:105750002070012010BD0338074B53F8200020B102
:105760000368BDE810409B6818474FF0FF3010BD3C
:10577000C0F7002004F80020C0F80020022807DD50
:105780000338064B53F8200020B10368DB68184744
:10579000012070474FF0FF30704700BFC0F8002075
:1057A000022807DD0338064B53F8200020B10368B8
:1057B0001B691847002070474FF0FF30704700BF4B
:1057C000C0F80020022808B504D84FF400534B60FD
:1057D000002008BD00F074F8092303604FF0FF308B
:1057E00008BD08B5012000F071F8704708B5FEF754
:1057F000F3FEFFF7FAFFBDE80840FFF797BB000094
:10580000074A13681844EFF30881884229BF054B03
:1058100010600C224FF0FF302CBF1A601846704702
:10582000A4010020F4FA0020074C08B523680546BF
:10583000986800F06BF92368D86800F067F90DB13B
:10584000FDF71DFBFEE700BF08020020002102F06B
:1058500056B90B460146184600F024B800F07EBC4D
:1058600010B5002814BF04460124204600F06EFC49
:1058700030B900F007F808B900F00CF88047F4E7F9
:1058800010BD0000024B1868BFF35F8F704700BF68
:10589000C0F9002008B5062002F0F0F90120FFF75A
:1058A000C3FF000010B5054C13462CB10A46014653
:1058B0000220AFF3008010BD204610BD00000000A4
:1058C000014B1868704700BF0802002008B5074B5D
:1058D000044613B10021AFF30080054B1868836ABA
:1058E00003B198472046FFF79FFF00BF000000006C
:1058F00014D5000870B505460C4609B9002070BDE6
:1059000018B183690BB900F053F9204B9C4201D1C7
:105910006C6808E01E4B9C4201D1AC6803E01D4B53
:105920009C4208BFEC68B4F90C30002BE6D021464D
:10593000284600F039F8236B064633B1216A284621
:1059400098470028B8BF4FF0FF36A3891B0603D540
:105950002169284600F0D8FE616B41B104F144038F
:10596000994202D0284600F0CFFE00236363A16C69
:1059700021B1284600F0C8FE0023A36400F084F99A
:105980000023A38100F081F9304670BDB0D4000837
:10599000D0D40008F0D40008024B01461868FFF785
:1059A000A9BF00BF080200208A892DE9F041054601
:1059B00010070C4659D44B68002B02DC0B6C002BF3
:1059C00017DDE66AAEB102F48052002392B22F686E
:1059D0002B600AB1606D15E0216A01232846B047AB
:1059E000411C0FD12B686BB11D2B01D0162B03D19D
:1059F0002F600020BDE8F081A38943F04003A3811C
:105A0000BDE8F081A3895A0705D56368C01A636BA6
:105A10000BB1236CC01A00230246E66A216A2846AD
:105A2000B047431CA38906D129681D293AD8214AC9
:105A3000CA40D60736D500226260D90422692260A6
:105A400004D5421C01D12B6803B96065616B2F60DE
:105A50000029CED004F14403994202D0284600F038
:105A600053FE00206063BDE8F0810F69002FC0D0B5
:105A700093070E6808BF4B690F6018BF0023C7EB80
:105A800006088B6002E00744C0EB0808B8F1000F7D
:105A9000AFDD43463A46216AA66A2846B047002849
:105AA000F1DCA38943F04003A3814FF0FF30BDE850
:105AB000F08100BF0100402038B50B6905460C4657
:105AC000DBB118B183690BB900F072F80C4B9C4242
:105AD00001D16C6808E00B4B9C4201D1AC6803E03B
